S01000006C61623264656D6F2E737265630E
S11300000C9431030C944E030C944E030C944E0345
S11300100C94E10A0C940A0B0C94330B0C945C0BB7
S11300200C944E030C94C2090C94EB090C94140A1E
S11300300C948F0A0C943D0A0C94660A0C94B80A2A
S11300400C9447090C9470090C9499090C944E0370
S11300500C944E030C944E030C944E030C944E03D8
S11300600C944E030C944E030C944E030C944E03C8
S11300700C944E030C944E030C944E03DC07DF07E0
S1130080E207E507EE07E807EB07F107F407F707D0
S1130090FA07FD0700080308060809080C080F08FA
S11300A012082308260829082C0835082F083208C6
S11300B038083B083E084108440847084A084D08E8
S11300C0500853085608590807634236B79BD8A707
S11300D01A39685618AEBAAB558C1D3CB7CC576369
S11300E0BD6DEDFD753EF6177231BF000000803F17
S11300F008000000BE922449123EABAAAA2ABECD33
S1130100CCCC4C3E00000080BEABAAAAAA3E0000A4
S11301100000BF000000803F00000000000841789C
S1130120D3BB4387D1133D190E3CC3BD4282AD2BD3
S11301303E68EC8276BED98FE1A93E4C80EFFFBECB
S113014001C4FF7F3F00000000001605010000000D
S113015000000000FA000000E000E00028FE28FE95
S1130160282454FE5448C4C81026466C92AA44A0BD
S113017000A0C000000038448200008244380028F7
S1130180107C102810107C1010000A0C00001010B5
S1130190101010000606000004081020407C8A920B
S11301A0A27C0042FE020042868A92628482A2D22B
S11301B08C182848FE08E4A2A2A29C3C5292920CFD
S11301C0808E90A0C06C9292926C6092929478000F
S11301D06C6C0000006A6C0000102844820028281F
S11301E0282828008244281040808A90604C929EDF
S11301F0827C7E8888887EFE9292926C7C82828247
S113020044FE82824438FE92929282FE90909080C4
S11302107C8292925EFE101010FE0082FE82000428
S11302200282FC80FE10284482FE02020202FE408A
S11302303040FEFE201008FE7C8282827CFE90907C
S113024090607C828A847AFE909894626292929200
S11302508C8080FE8080FC020202FCF8040204F818
S1130260FC021C02FCC6281028C6E0100E10E08612
S11302708A92A2C200FE82820040201008040082FA
S113028082FE0020408040200202020202008040E0
S11302902000042A2A2A1EFE1222221C1C222222A8
S11302A0041C222212FE1C2A2A2A18107E90804046
S11302B0304A4A4A7CFE1020201E0022BE0200045E
S11302C00222BC00FE081422000082FE02003E202E
S11302D018201E3E1020201E1C2222221C3E2828EC
S11302E02810102828183E3E10202010122A2A2AEE
S11302F00420FC2202043C0202043E3804020438B6
S11303003C020C023C2214081422300A0A0A3C2241
S1130310262A322200106C82000000FE00000082B7
S11303206C1000081010081000000000007F81818C
S1130330817F7F8383837F7F8787877F7F8F8F8F73
S11303407F7F9F9F9F7F7FBFBFBF7F7FFFFFFF7F19
S11303502040FF4020621517156500FBFB000000DC
S113036000000000C0FF0300E0FF0700F0FF0F00E3
S1130370F8FF1F0078001E0078001E0078001E00A1
S113038078001E0078001E0078001E0078001E0011
S113039078001E0078001E0000000000000000002D
S11303A080FF0300E0FF0700F0FF0F00F8FF1F00CD
S11303B0F83C1F00783C1E00783C1E00783C1E0070
S11303C0783C1E00783C1E00783C1E00783C1E00E1
S11303D0783C1E00783C1E00783C1E0000000000A3
S11303E000000000E0FF0300F0FF0700F8FF0F002B
S11303F0F8FF1F00783C1E00783C1E00783C1E006D
S1130400783C1E00783C1E00783C1E00783C1E00A0
S1130410783C1E00783C1E00783C1E000000000062
S113042000000000F8FF0300F8FF0F00F8FF1F00B2
S1130430F8FF1F0000001E0000001E0000801F00C7
S113044000F01F0000FF0F00E0FF0700F0FF0000B6
S1130450F80F0000F80000007800000078000000A9
S1130460F8FF1F00F8FF1F00F0FF1F00E0FF1F0050
S11304700000000000000000F8FF1F00F8FF1F004C
S1130480F8FF1F00F8FF1F0078001E00783C1E00D4
S1130490783C1E00783C1E00783C1E00783C1E0010
S11304A0783C1E00F87E1F00F8FF1F00F0FF0F00CD
S11304B0E0E703000000000000003800EEFF6C00DD
S11304C02A8045003A0047FC03FF6CFC83FF390097
S11304D0DEFF0B7CD0810BFCD0810BC0D0810BFCE8
S11304E0D0810B7CDEFF0B0082FF397002FF6CF8B9
S11304F03A0047DC2A8045CCEEFF6CCC0000380083
S11305000000000C00001E0C00001E0000001E0075
S113051000001E0000001E00F8FF1F00F8FF1F006F
S1130520F8FF1F00F8FF1F0000001E0000001E005F
S113053000001E0000001E0000005E0000004000DD
S113054000007C00000040000000400000007C002F
S113055000003000000010000000300000007C6E3D
S1130560616E00696E660000407A10F35A00A07252
S11305704E18090010A5D4E80000E87648170000DA
S1130580E40B54020000CA9A3B000000E1F50500A8
S11305900080969800000040420F000000A08601F1
S11305A0000000102700000000E8030000000064C1
S11305B000000000000A000000000001000000002C
S11305C0002C76D888DC674F0823DFC1DFAE59E101
S11305D0B1B796E5E3E453C63AE651997696E8E670
S11305E0C28426EB898C9B62ED407C6FFCEFBC9C43
S11305F09F40F2BAA56FA5F490055A2AF75C936B55
S11306006CF9676DC11BFCE0E40D47FEF520E6B50F
S113061000D0ED902E0300943577050080841E08E9
S11306200000204E0A000000C80C333333330F9807
S11306306E12831141EF8D2114893BE65516CFFECE
S1130640E6DB18D1844B381BF77C1D901DA4BBE45A
S113065024203284725E228100C9F124ECA1E53D9C
S1130660270011241FBECFEFD8E0DEBFCDBF11E0BD
S1130670A0E0B1E0E8E1FFE302C005900D92A239E9
S1130680B107D9F722E0A2E9B1E001C01D92A63872
S1130690B207E1F70E9450030C948A1F0C940000E7
S11306A00E9445090E9437090E94361580E090E0B7
S11306B008950F931F9380E460E00E94380400E0E3
S11306C0802F60E00E941F0410E080E061E00E943F
S11306D038041F5F1038C9F70F5F043089F783E0CF
S11306E060E00E9418041F910F9108950F931F93C7
S11306F082E00E94CD07882311F482E006C081E0E5
S11307000E94CD07882319F481E090E06DC00E9417
S1130710990B85E061E00E9415088EEA60E00E9472
S1130720380482EA60E00E94380480EA60E00E94B3
S1130730380400E513ECC8010197F1F780EC60E0A0
S11307400E9438048FE260E00E94380481E860E08F
S11307500E94380486E160E00E94380482E260E08E
S11307600E943804C8010197F1F78FEA60E00E9403
S1130770380486EA60E00E94380485EA60E00E945A
S1130780380480E090E028E833E1F9013197F1F78B
S1130790019643E0883E9407C1F783EB60E00E9432
S11307A0380480E460E00E94380483E060E00E9442
S11307B01F0483E060E00E94180410921E0210924D
S11307C0200210921F0286E091E0909383028093AE
S11307D0820288E10E94F7030E94590384EA60E0E0
S11307E00E94380485E091E01F910F9108951F93B2
S11307F0182F85E00E94CD078130C1F487E00E9464
S1130800530482E06AE00E94A40482E061EB0E9447
S1130810A404612F113208F060E282E00E94A40473
S113082089EE8A95F1F787E00E9453041F91089599
S113083083706F7760931C0280931D0208950F9359
S11308401F93062F162F1F778370806B60E00E9422
S1130850380412951F70812F806160E00E94380473
S1130860802F8F7060E00E9438041F910F910895CB
S11308700F931F93082F162F85E00E94CD07813018
S113088079F4112319F0113021F402C02B9801C01E
S11308902B9A86E08A95F1F780E0602F0E94A404E9
S11308A01F910F9108951F93182F82E00E94CD0786
S11308B0813009F047C0912F9770809121029817D9
S11308C009F440C09093210285B1887F892B85B9B2
S11308D0933011F1943028F4913051F0923090F427
S11308E00CC0953019F19530E0F0963021F50FC029
S11308F0E091E401F091E50122C0E091E201F09180
S1130900E3011DC0E091E601F091E70118C0E09118
S1130910EE01F091EF0113C0E091E801F091E901DB
S11309200EC0E091EA01F091EB0109C0E091EC0105
S1130930F091ED0104C0E091F001F091F1013097E4
S113094009F009951F9108951F93162F0E945304CF
S113095082E00E94CD07813021F41EBD0DB407FE54
S1130960FDCF1F9108952F923F924F925F926F9205
S11309707F928F929F92AF92BF92CF92DF92EF922B
S1130980FF920F931F93DF93CF93CDB7DEB7582E0B
S1130990962E442E39013C2CC98CDA8C2B8C81E0A8
S11309A0681739F1681728F092E0691709F085C0D3
S11309B049C080E061E00E94BC0680E0B7010E946B
S11309C0850680E0642DA3019801032DEE24E394B1
S11309D0E9E5CE2EE2E0DE2E0E94F306552009F072
S11309E06CC000D00F92EDB7FEB71182B382A28221
S11309F023C081E061E00E94BC0681E0B6010E9450
S1130A00850681E0682D4D895E892F89388D022DF8
S1130A10EE24E39479E5C72E72E0D72E0E94F30604
S1130A20552009F04AC000D00F92EDB7FEB791826D
S1130A308C8D9D8D938382830E947F070F900F90EE
S1130A400F903BC082E061E00E94BC0680E0B701E9
S1130A500E94850681E0B6010E94850680E0642D2F
S1130A60A3019801032DEE24E39499E5C92E92E0A5
S1130A70D92E0E94F30681E0682D4D895E892F8965
S1130A80388D022D0E94F3065520B9F400D000D011
S1130A900F92ADB7BEB71196EDB7FEB79182FD01C7
S1130AA0B282A1828C8D9D8D948383830E947F0763
S1130AB00F900F900F900F900F90CF91DF911F9197
S1130AC00F91FF90EF90DF90CF90BF90AF909F90E9
S1130AD08F907F906F905F904F903F902F900895EC
S1130AE06F927F928F929F92AF92BF92CF92DF923A
S1130AF0EF92FF920F931F93DF93CF93CDB7DEB79F
S1130B00942E7C2DD50149895A89AB88BC88CD881F
S1130B10DE889F89813009F457C08130B8F1823072
S1130B2009F076C0613091F0613020F0623009F054
S1130B306FC015C080E060E00E94BC0680E0B70191
S1130B400E94850680E0692DA8011DC081E060E057
S1130B500E94BC0681E0B6010E94850611C082E0B5
S1130B6060E00E94BC0680E0B7010E94850681E037
S1130B70B6010E94850680E0692DA8010E946E06D8
S1130B8081E0682DA5010E946E0642C0EDB7FEB754
S1130B9039970FB6F894FEBF0FBEEDBF6DB67EB6A3
S1130BA00894611C711C52834183F301B382A282B5
S1130BB0D582C4829683888D998D9087878380E0BF
S1130BC0492DC72E5D011AC0EDB7FEB739970FB690
S1130BD0F894FEBF0FBEEDBFADB7BEB711965283FA
S1130BE04183FD01B382A282D582C482968310869A
S1130BF0178281E0492DC72EAA24BB240E94B30486
S1130C008DB79EB709960FB6F8949EBF0FBE8DBFE1
S1130C10CF91DF911F910F91FF90EF90DF90CF90D4
S1130C20BF90AF909F908F907F906F9008950E9497
S1130C302E0E81E080935802E2E2F2E011921192CA
S1130C4011821082329611821082329611821082A1
S1130C50329611821082329611821082329611825B
S1130C60108232961182108232961182108232964C
S1130C701182108232961182108232961182108271
S1130C80329611821082369611921192119210822C
S1130C903296119211921192119211921192119213
S1130CA01182108232961182108232961182108241
S1130CB032961182108276971182108232961182B6
S1130CC0108210925702109256021092580287E036
S1130CD061E00E94150887E091E00895EF92FF9289
S1130CE00F931F93182F062F7A0160E00E94BC0611
S1130CF0812F602F0E94A706812FB7010E94D10681
S1130D001F910F91FF90EF900895482F81E08093F9
S1130D105802CB0123E0693E720710F088EE93E09D
S1130D20413071F0413018F0423071F405C09093B5
S1130D302D0280932C0208C090932D0280932C02E4
S1130D4090932F0280932E02109258020895982FA8
S1130D5081E080935802913051F0913018F0923034
S1130D6041F403C06093450204C06093450260935C
S1130D704602109258020895982F81E080935802F9
S1130D80913051F0913018F0923041F403C06093E7
S1130D90220204C06093220260932302109258023C
S1130DA00895482F81E080935802CB0121E06139F6
S1130DB0720710F080E991E0413071F0413018F091
S1130DC0423071F405C0909325028093240208C038
S1130DD09093250280932402909327028093260205
S1130DE01092580208958F929F92AF92BF92CF9221
S1130DF0DF92EF92FF920F931F93CF93DF93182FFD
S1130E00F62E5A014901E60161E00E94BC06812FD9
S1130E10B501A4010E94680E812F6F2D0E94A706C0
S1130E20812F602F0E94530E812FB5010E94380E2E
S1130E30C114D10499F0113049F0113018F0123076
S1130E4069F406C018821092540208C0198204C0C2
S1130E50188219821092540210925502D0935702AC
S1130E60C0935602EE20B9F582E991E090935702BF
S1130E7080935602812FB4010E94D106812F0E94D3
S1130E80190E113071F0113018F0123059F512C0EA
S1130E901092920110925402809192018823E1F3FE
S1130EA021C01092930110925502809193018823DE
S1130EB0E1F318C01092920110929301109254021F
S1130EC010925502809192018823E1F3809193015D
S1130ED08823C1F307C0812FB4010E94D106812F5A
S1130EE00E94190EDF91CF911F910F91FF90EF9007
S1130EF0DF90CF90BF90AF909F908F900895CF9246
S1130F00DF92EF92FF920F931F93DF93CF93CDB7AE
S1130F10DEB78B85813061F0813018F08230A1F525
S1130F2011C0EC85FD85809159028823E1F306C048
S1130F30EC85FD8580915A028823E1F3309721F1F5
S1130F40099522C0CC84DD84EE84FF8400E010E0A7
S1130F50002351F480915902882331F0C114D10443
S1130F6011F0F601099501E0112351F480915A0220
S1130F70882331F0E114F10411F0F701099511E02F
S1130F80002331F3112321F3CF91DF911F910F91AE
S1130F90FF90EF90DF90CF900895E82FF0E0E331D9
S1130FA0F10540F4E25CFF4FEE0FFF1F0590F49152
S1130FB0E02D099480E008958091090208958091BC
S1130FC00A02089580910B02089580910C020895FD
S1130FD080910D02089580910F02089580910E0270
S1130FE008958091100208958091110208958091CE
S1130FF012020895809113020895809114020895B5
S11310008091150208958091160208958091170227
S1131010089580911802089580911902089580918D
S11310201A02089580911B020895E82FF0E0E3313D
S1131030F10508F040C0EF5AFF4FEE0FFF1F059077
S1131040F491E02D099460930902089560930A02D3
S1131050089560930B02089560930C0208956093C1
S11310600D02089560930F02089560930E0208958F
S11310706093100208956093110208956093120220
S11310800895609313020895609314020895609381
S11310901502089560931602089560931702089547
S11310A060931802089560931902089560931A02D8
S11310B008956093190208951F93CF93DF93182F17
S11310C080919501882341F080919F01882399F0B4
S11310D01092950110929F010E94C80E8093940172
S11310E089E991E061E040E022E330E00E94F90800
S11310F081E08093950190919401A12FB0E0ED01DE
S1131100C050DF4F8881882369F0FD01ED5FFE4FF9
S113111080819823C1F0FD01EA56FE4F81E080836F
S1131120188211C0FD01EA56FE4F808181111082A0
S1131130FD01ED5FFE4F8081982329F4FD01E0500D
S1131140FF4F81E08083AA56BE4F8C91DF91CF91EF
S11311501F91089582E00E94CD07882319F490E03E
S113116082E008951092700210926F02109272023F
S1131170109271021092740210927302109276020D
S113118010927502109278021092770280E991E031
S113119090935C0280935B0290935E0280935D0265
S11311A09093600280935F02909362028093610245
S11311B0909364028093630284E398E090936602C0
S11311C080936502909368028093670290936A0209
S11311D08093690290936C0280936B0290936E02E9
S11311E080936D0281E061E00E94150891E081E046
S11311F00895EF92FF920F931F93CF93DF93EC0127
S1131200F62EE42E890188E00E94CD07813011F08A
S113121081E026C084E090E00E94D11CFC0100978C
S113122011F482E01DC0F982F0FC1E8281E0E81610
S113123019F48981846089838981886089831B8307
S11312400A831D830C83D183C0831382128281E0BD
S113125080930202CF010E941A0F1092020280E0D2
S1131260DF91CF911F910F91FF90EF9008950E940D
S1131270A50E0E94480C0E94850B0E94830F0E94B9
S1131280AD0C0E94AA0878940895000008951F9256
S11312900F920FB60F9211242F933F934F935F93A6
S11312A06F937F938F939F93AF93BF93EF93FF932A
S11312B0E091C201F091C301309709F00995FF91C3
S11312C0EF91BF91AF919F918F917F916F915F91BA
S11312D04F913F912F910F900FBE0F901F90189533
S11312E01F920F920FB60F9211242F933F934F9397
S11312F05F936F937F938F939F93AF93BF93EF937A
S1131300FF93E091C401F091C501309709F009956C
S1131310FF91EF91BF91AF919F918F917F916F91C9
S11313205F914F913F912F910F900FBE0F901F909F
S113133018951F920F920FB60F9211242F933F937B
S11313404F935F936F937F938F939F93AF93BF93C9
S1131350EF93FF93E091C601F091C701309709F034
S11313600995FF91EF91BF91AF919F918F917F91DB
S11313706F915F914F913F912F910F900FBE0F90FE
S11313801F9018951F920F920FB60F9211242F934E
S11313903F934F935F936F937F938F939F93AF93F9
S11313A0BF93EF93FF93E091B401F091B5013097AF
S11313B009F00995FF91EF91BF91AF919F918F91A2
S11313C07F916F915F914F913F912F910F900FBE3D
S11313D00F901F9018951F920F920FB60F92112421
S11313E02F933F934F935F936F937F938F939F9329
S11313F0AF93BF93EF93FF93E091B601F091B701E0
S1131400309709F00995FF91EF91BF91AF919F91AA
S11314108F917F916F915F914F913F912F910F9099
S11314200FBE0F901F9018951F920F920FB60F9238
S113143011242F933F934F935F936F937F938F93D5
S11314409F93AF93BF93EF93FF93E091B801F09113
S1131450B901309709F00995FF91EF91BF91AF91D0
S11314609F918F917F916F915F914F913F912F91B8
S11314700F900FBE0F901F9018951F920F920FB6EA
S11314800F9211242F933F934F935F936F937F9306
S11314908F939F93AF93BF93EF93FF93E091BC011E
S11314A0F091BD01309709F00995FF91EF91BF913B
S11314B0AF919F918F917F916F915F914F913F91E8
S11314C02F910F900FBE0F901F9018951F920F929F
S11314D00FB60F9211242F933F934F935F936F9303
S11314E07F938F939F93AF93BF93EF93FF93E09179
S11314F0BE01F091BF01309709F00995FF91EF917A
S1131500BF91AF919F918F917F916F915F914F9117
S11315103F912F910F900FBE0F901F9018951F921F
S11315200F920FB60F9211242F933F934F935F9313
S11315306F937F938F939F93AF93BF93EF93FF9397
S1131540E091BA01F091BB01309709F00995FF9140
S1131550EF91BF91AF919F918F917F916F915F9127
S11315604F913F912F910F900FBE0F901F901895A0
S11315701F920F920FB60F9211242F933F934F9304
S11315805F936F937F938F939F93AF93BF93EF93E7
S1131590FF93E091C001F091C101309709F00995E2
S11315A0FF91EF91BF91AF919F918F917F916F9137
S11315B05F914F913F912F910F900FBE0F901F900D
S11315C018951F920F920FB60F9211242F933F93E9
S11315D04F935F936F937F938F939F93AF93BF9337
S11315E0EF93FF93E091AA01F091AB01309709F0DA
S11315F00995FF91EF91BF91AF919F918F917F9149
S11316006F915F914F913F912F910F900FBE0F906B
S11316101F9018951F920F920FB60F9211242F93BB
S11316203F934F935F936F937F938F939F93AF9366
S1131630BF93EF93FF93E091AC01F091AD0130972C
S113164009F00995FF91EF91BF91AF919F918F910F
S11316507F916F915F914F913F912F910F900FBEAA
S11316600F901F9018951F920F920FB60F9211248E
S11316702F933F934F935F936F937F938F939F9396
S1131680AF93BF93EF93FF93E091AE01F091AF015D
S1131690309709F00995FF91EF91BF91AF919F9118
S11316A08F917F916F915F914F913F912F910F9007
S11316B00FBE0F901F9018951F920F920FB60F92A6
S11316C011242F933F934F935F936F937F938F9343
S11316D09F93AF93BF93EF93FF93E091B001F09189
S11316E0B101309709F00995FF91EF91BF91AF9146
S11316F09F918F917F916F915F914F913F912F9126
S11317000F900FBE0F901F90189580E10E94CD0797
S1131710882361F4E2EAF1E01192119281E0E23E61
S1131720F807D1F780E161E00E94150880E191E0BB
S11317300895239A0895FF920F931F93CF93DF93F5
S1131740F82E8AE0F816B1F08F1548F0E8E0FE169E
S1131750B9F1EF1538F1F7E0FF1651F43BC08DE015
S1131760F81659F0EBE1FE1689F0FCE0FF1641F0A3
S113177001E041C010921C0203C010921C023AC046
S113178080911D02815080931D0234C00E94590330
S113179014C080E061E00E94380480911C028F5FD5
S11317A080931C0280911C0287FFF3CF10921C02CD
S11317B080911D02815080931D0200E011E01CC045
S11317C080911C028823B1F080911C028650809382
S11317D01C0210C081E00E94B90D64EF71E080E04A
S11317E090E04DE750E024E630E00E94C60D81E031
S11317F00E941E0D00E010E080911D0260911C0209
S11318000E941F04002351F185E0F89EC0011124B9
S1131810EC01C355DF4F8C010E541F4FFE01849120
S113182061E00E9438042196C017D107B9F780E01F
S113183061E00E94380480911C028A5F80931C023C
S113184080911C0290E08C3791053CF010921C02B0
S113185080911D02815080931D0211E080911D0230
S1131860837080931D02113059F480911E028130DF
S113187039F4E0911F02F0912002309709F00995A4
S113188080E090E0DF91CF911F910F91FF90089538
S113189080E00E94CD07882351F4F8940E94D10F70
S11318A081E00E945A0C80E061E00E94150880E00B
S11318B091E00895813049F0F894813020F182302C
S11318C0B1F0833009F045C017C02C9A80E88093AA
S11318D061001092610080E090E00000019688327F
S11318E09105D9F71092680010926B00089580E872
S11318F08093610083E004C080E88093610088E005
S11319008093610028C080E090E0000001962DE6FD
S113191080369207D1F72C9880E090E00000019681
S11319202DE680369207D1F710927A008FEF8093DC
S113193064008091680081608093680080916B00EE
S1131940846080936B00789483B7816083BF8895AB
S11319500895823008F0789408950F931F930E949D
S1131960FD0F80E06CEE7FE00E94E60C81E064EE07
S11319707FE00E94E60C82E06CED7FE00E94E60CC2
S113198086E064EF7FE00E94E60C04ED1FE083E054
S1131990B8010E94E60C84E0B8010E94E60C85E0E0
S11319A0B8010E94E60C87E0B8010E94E60C82E0D0
S11319B061E00E9415088FEF8093210287E00E9466
S11319C0530482E091E01F910F910895E82FF0E015
S11319D0EE0FFF1FEE51FE4F7183608308958AE07E
S11319E00E94CD07813041F40E9471101092F301DE
S11319F08AE060E00E941508089589E00E94CD07FE
S1131A008130D9F48091F201882311F00E94130EE1
S1131A1082E00E947110809100029091010200976F
S1131A2031F00E94691D109201021092000210927E
S1131A30F20189E060E00E9415080895813029F0E0
S1131A40823029F40E94FD0C08950E94EF0C089541
S1131A500F931F93CF93DF9380E291E00E94D11CF8
S1131A609C019093010280930002892B11F480E081
S1131A7039C08901C0E0D0E0BE0180E090E00E945E
S1131A80591920E030E040EA51E40E94F11827EFB0
S1131A9035E740E05FE30E94211A9B01AC0160E05E
S1131AA070E080E291E40E94841A9B01AC01CA01B7
S1131AB0B9012DEC3CEC42E851E40E94211A0E9449
S1131AC0E7192AE030E040E050E00E944E1CF801A3
S1131AD061937193819391938F012196C834D105B9
S1131AE059F681E0DF91CF911F910F9108958AE01B
S1131AF00E94CD07882371F41092FD011092FC011D
S1131B0081E00E948D1081E08093F3018AE061E01E
S1131B100E9415088AE091E008951F938BE00E94CB
S1131B20CD07882311F090E021C089E00E94CD0701
S1131B308823D9F40E94280D182F8130B1F4109213
S1131B40F4011092F5011092F6011092F7018DE064
S1131B5066E170E10E94BD0F82E00E948D10109337
S1131B60F20189E061E00E94150891E089E01F918B
S1131B700895813029F0823031F090E089E00895B1
S1131B800E94770D08950E948D0D08958F929F9263
S1131B90AF92BF92CF92DF92EF92FF920F931F9377
S1131BA0CF93DF934B015C01EA01B90121153105A3
S1131BB039F19E01442737FD4095542F6536710550
S1131BC010F064E670E080E090E00E944E1C24E691
S1131BD030E040E050E00E945E1C79018A01C501BA
S1131BE0B4010E941910C7010E94F90E60E070E070
S1131BF080E090E00E941910CE018E199F0904C064
S1131C004115510519F0CA010E94F90EDF91CF91D7
S1131C101F910F91FF90EF90DF90CF90BF90AF9006
S1131C209F908F900895EFE6F0E080818D7F808310
S1131C300895982F81E080935802913051F09130AB
S1131C4018F0923041F403C01092400204C0109284
S1131C504002109241021092580208953A9A3B9A17
S1131C603C9A3D9A3E9A3F9A88B1837088B9089508
S1131C70982F81E080935802913071F0913018F0E0
S1131C80923071F405C0709335026093340208C039
S1131C907093350260933402709337026093360276
S1131CA0109258020895982F81E080935802913041
S1131CB051F0913018F0923041F403C06093420225
S1131CC004C0609342026093430210925802089544
S1131CD00F931F93CF93DF93EB018A01813001F1BE
S1131CE0813018F0823061F50DC080912C02909102
S1131CF02D02892B11F080E01AC010923902109243
S1131D0038021EC080912C0290912D02892B21F063
S1131D1080E00E94B71004C0109239021092380279
S1131D2080912E0290912F02892B31F081E0BE0127
S1131D30A8010E94B71004C010923B0210923A020C
S1131D40DF91CF911F910F91089510920902109283
S1131D500A0210920E0210920B0210920D021092BF
S1131D600F0210921002109211021092120210929D
S1131D70130210921402109215021092160210927D
S1131D801702109218021092190210921A02089562
S1131D900F931F9381E00E94CD07813011F000E082
S1131DA024C087E00E94530482E06AE00E94A404F5
S1131DB082E062EB0E94A40418EC812F8A95F1F76B
S1131DC082E060E00E940410082F812F8A95F1F7C9
S1131DD082E060E00E9404101A95F1F787E00E9407
S1131DE0530488E893E10197F1F7802F1F910F9135
S1131DF00895DF93CF93CDB7DEB729970FB6F89444
S1131E00DEBF0FBECDBF9C01CE01019661E040E074
S1131E100E94F908982F882319F48F818823E9F305
S1131E20892F29960FB6F894DEBF0FBECDBFCF9190
S1131E30DF910895CF92DF92EF92FF920F931F9359
S1131E40CF93DF93EC0180917902882339F4D09306
S1131E507B02C0937A020E94A80F47C0C0907A0206
S1131E60D0907B0200E010E0EE24FF2437C0A8816C
S1131E70B981FD0164817581F60140815181FA01C6
S1131E80848195819B01281B390B37FF0FC0861B6A
S1131E90970B95838483DB82CA82012B29F4D09328
S1131EA07B02C0937A0221C0F7010CC0F601828143
S1131EB093812115310549F4FD01158214829B8318
S1131EC08A83F601D383C28310C0FD013583248342
S1131ED00097B9F30F5F1F4F76016C01809179026F
S1131EE090E00817190718F2ECCF809179028F5F00
S1131EF080937902DF91CF911F910F91FF90EF9022
S1131F00DF90CF90089588E00E94CD078823B9F42C
S1131F101092790210927B0210927A0210920202BD
S1131F201092030280E164E271E10E94AC0F0E940E
S1131F302B110E94A20F88E061E00E94150888E03E
S1131F4091E00895EEE6F0E0808182608083089558
S1131F5081E0809303020895803218F020E030E09D
S1131F600AC0E82FF0E0EE0FFF1FEE55FE4F208170
S1131F70318171836083C9010895E82F803268F448
S1131F808051833050F0F0E0EE0FFF1FEE55FE4F0E
S1131F90208131817183608302C020E030E0C90177
S1131FA00895249A2C9A089583E58CBD81E08DBD13
S1131FB08DE08A95F1F7089583E58CBD1DBC84EF0F
S1131FC091E00197F1F708958FE78CBD1DBC84EF74
S1131FD091E00197F1F7089583E58CBD81E08DBD13
S1131FE08DE08A95F1F7089583E58CBD81E08DBD80
S1131FF084EF91E00197F1F70895259A2698279A9E
S1132000209A219A229A08951F93162F0E9453040E
S113201082E00E94CD07813011F080E005C01EBD32
S11320200DB407FEFDCF8EB51F9108950E943010A8
S113203008959B01AC018091F301882381F0DA01BA
S1132040C901880F991FAA1FBB1F9093FF0180939A
S1132050FE01211531054105510509F45F980895E4
S11320608091F4019091F501A091F601B091F701EE
S11320702091F8013091F9014091FA015091FB014E
S1132080280F391F4A1F5B1F2093F4013093F50179
S11320904093F6015093F7018091F4019091F5017A
S11320A0A091F601B091F7018851964FA040B0403D
S11320B0BCF08BB180588BB98091F4019091F501FB
S11320C0A091F601B091F7018851964FA040B0401D
S11320D08093F4019093F501A093F601B093F70176
S11320E00895823029F4809181008E7F809381004D
S11320F08091F201813031F48091F301813011F447
S1132100000008958091F201813021F08091F30163
S1132110813011F45F9857980895982F8091F201B7
S1132120882331F48091F301882311F4579A5F983E
S11321308091F2018823D1F49230C1F4109280008E
S11321401092810080918100886080938100809149
S11321508100816080938100109285001092840038
S113216081E08093890080E9809388000895EF924C
S1132170FF920F931F93CF93DF93EB01882321F0FA
S1132180813009F05AC02DC09A0140E050E0CA01E4
S1132190B9010E944E1C20912C0230912D02220F75
S11321A0331F40E050E00E945E1C79018A01A801BF
S11321B09701220F331F441F551FCE01A0E0B0E04A
S11321C082179307A407B50728F0F0923902E0922A
S11321D0380233C0D695C795D0933902C0933802DC
S11321E02CC09A0140E050E0CA01B9010E944E1C83
S11321F020912E0230912F02220F331F40E050E035
S11322000E945E1C79018A01A8019701220F331FE5
S1132210441F551FCE01A0E0B0E082179307A40726
S1132220B50728F0F0923B02E0923A0206C0D69538
S1132230C795D0933B02C0933A02DF91CF911F918F
S11322400F91FF90EF9008950E9434110E94741131
S11322500E944D11089584B5826084BD85B5846063
S113226085BD8EE487BD089588E00E94CD0788234C
S113227011F484E0089580910302882311F483E02B
S1132280089580910202882311F082E008950E944B
S1132290E6138130E1F380E008958091F301813009
S11322A011F58091FC019091FD012091FE01309186
S11322B0FF01280F391F3093FD012093FC01809109
S11322C0FC019091FD01885E93406CF08BB18058C5
S11322D08BB98091FC019091FD01885E93409093AD
S11322E0FD018093FC01089587E00E94CD078130B1
S11322F009F0AAC080912C0290912D02892B09F13A
S1132300809150029091510220912C0230912D0223
S1132310820F931F90935102809350028091500238
S113232090915102885E9340A4F080915002909164
S11323305102885E9340909351028093500241E091
S113234009C08091240290912502909329028093E0
S1132350280240E080912E0290912F02892B09F1EE
S1132360809152029091530220912E0230912F02BB
S1132370820F931F909353028093520280915202D2
S113238090915302885E9340A4F080915202909100
S11323905302885E9340909353028093520261E00B
S11323A009C0809126029091270290932B0280937A
S11323B02A0260E0842F0E94251280914C029091A1
S11323C04D022091280230912902280F391F3093A1
S11323D04D0220934C0280914C0290914D02885EF4
S11323E0934014F440E00BC080914C0290914D0254
S11323F0885E934090934D0280934C0241E080911B
S11324004E0290914F0220912A0230912B02280F04
S1132410391F30934F0220934E0280914E029091C7
S11324204F02885E934014F460E00BC080914E022A
S113243090914F02885E934090934F0280934E0296
S113244061E0842F0E946A1208958823F1F020919C
S11324502402309125028091280290912902281BA0
S1132460390B1216130634F4809128029091290234
S1132470019607C0232B49F08091280290912902EC
S113248001979093290280932802662311F12091E9
S113249026023091270280912A0290912B02281B58
S11324A0390B1216130654F480912A0290912B02D0
S11324B0019690932B0280932A020895232B49F0CE
S11324C080912A0290912B02019790932B02809382
S11324D02A0208950F931F93182F062F80915802F4
S11324E0882309F0E7C080914002882309F05AC08C
S11324F08091280290912902892BE9F480910402A9
S1132500837E8093040210924902809154028823AE
S113251009F45DC06091420280E00E94C113E09121
S11325205602F0915702309709F451C081E080833C
S1132530109254024CC080912202813041F4809167
S1132540340290913502019711F411E002C0112375
S1132550F1F1E0914702F0E0EC5EFE4F909104024D
S1132560937E8081892B8093040280914502882385
S113257021F4809147028F5F03C08091470281500C
S1132580809347028091470283708093470281E0E1
S113259080934902809122028130C9F480E00E9434
S11325A06D1315C090910402937E90930402E09100
S11325B04702F0E0EC5EFE4F8081892B8093040299
S11325C082E080934902109229021092280280919D
S11325D04102882309F059C080912A0290912B026C
S11325E0892BE9F4809104028F7180930402109284
S11325F04A0280915502882309F45CC06091430229
S113260081E00E94C113E0915602F0915702309785
S113261009F450C081E08183109255024BC080912F
S11326202302813041F48091360290913702019760
S113263011F401E002C00023E9F1E0914802F0E066
S1132640E85EFE4F909104029F718081892B8093F4
S1132650040280914602882321F4809148028F5F0E
S113266003C08091480281508093480280914802BF
S113267083708093480281E080934A028091230210
S11326808130C1F40E946D1315C0909104029F71B2
S113269090930402E0914802F0E0E85EFE4F8081EE
S11326A0892B8093040282E080934A0210922B02C9
S11326B010922A0280914B02882331F484E092E044
S11326C0612F402F0E94541488B1837090910402AA
S11326D0892B88B91F910F910895882321F08130A7
S11326E009F04EC027C08091340290913502892BA5
S11326F049F080913402909135020197909335020C
S113270080933402809154028823D1F520913402BD
S11327103091350280913802909139022817390797
S113272079F580E060E070E00E94D10681E080935A
S1132730540208958091360290913702892B49F012
S113274080913602909137020197909337028093DB
S1132750360280915502882399F4209136023091F3
S1132760370280913A0290913B022817390741F4CD
S113277081E060E070E00E94D10681E08093550220
S113278008950F931F93182F062F662349F460E0D2
S113279070E00E94D106812F60E070E00E94380E44
S11327A081E080935802113051F0113018F012304A
S11327B041F403C00093400204C00093400200931C
S11327C04102109258021F910F910895FF920F93A6
S11327D01F93CF93DF9380917902882309F459C022
S11327E000917A0210917B02F801C081D1818C8121
S11327F09D8101979D838C83181619060CF449C09A
S1132800898180FF05C08E81882311F481E08E8345
S1132810898181FF03C0EF81F88509958091790250
S11328208230A8F0F8018281938190937B02809397
S11328307A0213821282E0910000F09101008481F7
S11328409581181619063CF0FF24F39405C01092E4
S11328507B0210927A02FF24809179028150809346
S1132860790280917902882311F40E94511489819C
S113287082FF08C08A819B819D838C83C8010E944A
S11328801A0F08C0C8010E94691D89818F7E89833F
S113289001C0FF248F2DDF91CF911F910F91FF90E5
S11328A00895109203020895FC0180914902823038
S11328B069F48091080291E08927809308028823B3
S11328C009F03EC08081837E80833AC080912802D3
S11328D090912902C397A4F56623D1F02091280290
S11328E03091290280E690E0BC01269FC001279F19
S11328F0900D369F900D1124880F892F881F990BF6
S113290090933D0280933C0281E08093060218C0BC
S1132910809106028823A1F080913C0290913D02AF
S1132920019790933D0280933C0280913C029091E8
S11329303D02892B29F48081837E808310920602D4
S113294080914A02823069F48091070291E08927DC
S113295080930702882309F03EC080818F718083B1
S1132960089580912A0290912B02C397A4F54423E1
S1132970D1F020912A0230912B0280E690E0AC0144
S1132980249FC001259F900D349F900D1124880F22
S1132990892F881F990B90933F0280933E0281E018
S11329A0809305020895809105028823A1F0809107
S11329B03E0290913F02019790933F0280933E0222
S11329C080913E0290913F02892B29F480818F717E
S11329D080831092050208958F92AF92BF92CF9296
S11329E0EF92FF920F931F93CF93DF93D82FC92FAA
S11329F00E941706913041F042E251E05F934F93F9
S1132A000E94181F0F900F901F921F921F9281E037
S1132A108F9380E98F931F9288EC8F93CF93DF93EA
S1132A20812CA12CB12CC12C0F2EF0E9EF2EFF2408
S1132A30F394F02D08EC10E02D2F3C2F40E062E0E1
S1132A4080E00E9470058DB79EB709960FB6F89482
S1132A509EBF0FBE8DBFDF91CF911F910F91FF904D
S1132A60EF90CF90BF90AF908F9008950E9476031F
S1132A7089E491E09F938F930E94181F0E94AA08F3
S1132A800F900F90913051F00E94590387E591E027
S1132A909F938F930E94181F0F900F9082E791E0ED
S1132AA09F938F930E94181F0F900F9000E410EAD9
S1132AB0CAE7D1E080E00E945C088823D9F30E9431
S1132AC059030F931F931F921F92DF93CF930E947A
S1132AD0181F8AE392E00E94EC140E9459030F909D
S1132AE00F900F900F900F900F90E4CFA3E1B0E000
S1132AF0ECE7F5E10C948B1C7C011B016A01FC01E1
S1132B0017821682838181FF66C3BE016F5F7F4F88
S1132B104B01F7019381F10193FD859193FF81911D
S1132B201F01882309F453C3853239F493FD859139
S1132B3093FF81911F01853239F4B70190E00E941F
S1132B40E61E56016501E5CF10E0512C20E020324D
S1132B50A0F48B3269F030F4803259F0833269F496
S1132B6020612CC08D3239F0803339F4216026C0C5
S1132B702260246023C0286021C027FD27C030EDD7
S1132B80380F3A3078F426FF06C0FAE01F9F300D64
S1132B901124132F13C06AE0569E300D1124532EB6
S1132BA020620CC08E3221F426FD11C3206406C0BD
S1132BB08C3611F4206802C0883641F4F10193FD8B
S1132BC0859193FF81911F018111C1CF9BEB980FD8
S1132BD0933018F42061805E06C09BE9980F93300F
S1132BE008F0AAC12F7E26FF16E02F73722E8536B9
S1132BF021F4F22FF0647F2E08C0863621F4622F70
S1132C006068762E02C01111115077FE07C01C3384
S1132C1048F444244394410E27E00BC0183030F4A8
S1132C20212F06C027E04CE3442E03C027E017E021
S1132C30412C560174E0A70EB11CF601608171812C
S1132C4082819381042DA4010E94F81D6C010981E5
S1132C5000FF02C003FF06C071FC07C072FC08C07D
S1132C60612C08C03DE2632E05C02BE2622E02C037
S1132C7090E2692E802F8C7099F1662011F084E027
S1132C8001C083E0851510F0512C0BC0581A73FC59
S1132C9008C0B70180E290E00E94E61E5A94C9F78A
S1132CA0F3CF662029F0B701862D90E00E94E61E3E
S1132CB003FD03C003E615E002C00FE515E0F72DA0
S1132CC0F0717F2EF8018491882309F476C2711083
S1132CD08052B70190E00E94E61E0F5F1F4FF2CFB3
S1132CE077FE0FC04C0C04FF04C08A81813309F4C1
S1132CF04A94141474F5F8E0F41578F588E0482E35
S1132D002CC076FC2AC0812F90E08C159D059CF088
S1132D106CEFC6166FEFD60674F0772D7068772EB9
S1132D200AC0E2E0F0E0EC0FFD1FE10FF11D80812D
S1132D30803319F411501111F4CF77FE0EC04424DE
S1132D404394410E812F90E0C816D9062CF41C1927
S1132D5004C04424439401C010E077FE07C01C144F
S1132D601D043CF496012F5F3F4F05C025E030E081
S1132D7002C021E030E0662011F02F5F3F4F1123A5
S1132D8031F0412F50E04F5F5F4F240F351F452D29
S1132D9050E02417350714F4521A01C0512C872D22
S1132DA0897049F4552039F0B70180E290E00E941F
S1132DB0E61E5A94F7CF662029F0B701862D90E0DD
S1132DC00E94E61E73FC09C0552039F0B70180E368
S1132DD090E00E94E61E5A94F7CF77FE5FC09C2DC8
S1132DE08D2DD7FE02C090E080E0692E782E40E061
S1132DF050E0C601841991099D878C879601261994
S1132E003709280D391D812F90E0EE27FF27E81B95
S1132E10F90BFF87EE87FFEF6F167F0669F4B701A2
S1132E208EE290E02B8B3A8B488B598B0E94E61EE6
S1132E30598948893A892B89C614D70454F06C857A
S1132E407D85661577052CF4F901E40FF51F818162
S1132E5001C080E371E0671A71084F5F5F4FEE8530
S1132E60FF856E167F066CF0B70190E02B8B3A8BD2
S1132E70488B598B0E94E61E2B893A8948895989C7
S1132E80CACF6C147D0439F49A81963318F49533BF
S1132E9011F404FF81E3B70190E04BC08A818133D0
S1132EA009F00F7EB70190E00E94E61E111105C0E3
S1132EB074FE18C085E490E017C0B7018EE290E07C
S1132EC00E94E61E82E066246394680EF401E80F13
S1132ED0F11D8081B70190E00E94E61E115041F37C
S1132EE0862DF1CF85E690E0B7010E94E61ED7FC5F
S1132EF005C0C114D10439F404FF05C0D194C194B0
S1132F00D1088DE201C08BE2B70190E00E94E61E79
S1132F1080E36AE0C616D1042CF08F5FFAE0CF1A82
S1132F20D108F7CFB70190E00E94E61EB701C601B1
S1132F30C0960E94E61E41C1833631F0833779F092
S1132F40833509F058C021C0560172E0A70EB11CA8
S1132F50F6018081898301E010E0640114C0560108
S1132F60F2E0AF0EB11CF601C080D18026FF03C091
S1132F70612F70E002C06FEF7FEFC6012B8B0E94C0
S1132F80DB1E8C012B892F7715C05601F2E0AF0EA2
S1132F90B11CF601C080D18026FF03C0612F70E010
S1132FA002C06FEF7FEFC6012B8B0E94D01E8C01F5
S1132FB02B892068722E23FD1AC0852D90E00817F6
S1132FC01907A8F4B70180E290E00E94E61E5A9423
S1132FD0F4CFF60177FC859177FE81916F01B701FB
S1132FE090E00E94E61E51105A94015011090115F7
S1132FF0110579F7E2C0843611F0893651F556018E
S113300027FF09C0F4E0AF0EB11CF60160817181A5
S1133010828193810AC0F2E0AF0EB11CF601608197
S11330207181882777FD8095982F022F0F7697FF5F
S113303008C090958095709561957F4F8F4F9F4FF5
S113304000682AE030E0A4010E942C1FC82EC81892
S11330503EC0022F853721F40F7E2AE030E01DC0E8
S1133060097F8F3691F018F4883559F0B0C0803755
S113307019F0883711F0ABC0006104FF09C0046087
S113308007C024FF08C0066006C028E030E005C081
S113309020E130E002C020E132E0560107FF09C020
S11330A0F4E0AF0EB11CF6016081718182819381DD
S11330B008C0F2E0AF0EB11CF6016081718180E0BE
S11330C090E0A4010E942C1FC82EC8180F7706FF99
S11330D00BC0202F2E7FC11650F404FF0AC002FD3E
S11330E008C0202F2E7E05C0DC2C202F03C0DC2C32
S11330F001C0D12E24FF0DC0FE01EC0DF11D808115
S1133100803311F4297E09C022FF06C0D394D394DE
S113311004C0822F867809F0D39423FD13C020FFC6
S113312006C01C2DD51418F4150D1D19D52CD51455
S113313068F4B70180E290E02B8B0E94E61ED394E2
S11331402B89F5CFD51410F45D1801C0512C24FF40
S113315012C0B70180E390E02B8B0E94E61E2B89FE
S113316022FF17C021FF03C088E590E002C088E772
S113317090E0B7010CC0822F867859F021FD02C07F
S113318080E201C08BE227FD8DE2B70190E00E944E
S1133190E61EC11638F4B70180E390E00E94E61EF3
S11331A01150F7CFCA94F401EC0DF11D8081B701E1
S11331B090E00E94E61EC110F5CF552009F4C2CC60
S11331C0B70180E290E00E94E61E5A94F6CFF70120
S11331D08681978102C08FEF9FEF6396E2E10C94A2
S11331E0A71C0CD0BAC0B2D040F0A9D030F021F462
S11331F05F3F19F09BC05111E4C09EC0BFD098F34B
S11332009923C9F35523B1F3951B550BBB27AA2763
S113321062177307840738F09F5F5F4F220F331FD5
S1133220441FAA1FA9F333D00E2E3AF0E0E830D0A1
S113323091505040E695001CCAF729D0FE2F27D0A4
S1133240660F771F881FBB1F261737074807AB0772
S1133250B0E809F0BB0B802DBF01FF2793585F4FE7
S11332602AF09E3F510568F061C0ABC05F3FECF3AC
S1133270983EDCF3869577956795B795F7959F5FAC
S1133280C9F7880F911D9695879597F90895E1E000
S1133290660F771F881FBB1F621773078407BA075F
S11332A020F0621B730B840BBA0BEE1F88F7E095BA
S11332B00895E89409C097FB3EF490958095709525
S11332C061957F4F8F4F9F4F9923A9F0F92F96E96E
S11332D0BB279395F695879577956795B795F111E3
S11332E0F8CFFAF4BB0F11F460FF1BC06F5F7F4F80
S11332F08F4F9F4F16C0882311F096E911C0772392
S113330021F09EE8872F762F05C0662371F096E89A
S1133310862F70E060E02AF09A95660F771F881F69
S1133320DAF7880F9695879597F9089597F99F6727
S113333080E870E060E008959FEF80EC0895002439
S11333400A941616170618060906089500240A9406
S113335012161306140605060895092E0394000C8C
S113336011F4882352F0BB0F40F4BF2B11F460FF1B
S113337004C06F5F7F4F8F4F9F4F089557FD905844
S1133380440F551F59F05F3F71F04795880F97FB25
S1133390991F61F09F3F79F08795089512161306DF
S11333A01406551FF2CF4695F1DF08C0161617060E
S11333B01806991FF1CF8695710561050894089543
S11333C0E894BB2766277727CB0197F90895DEDFBA
S11333D0A8F19E57A8F1985160F039F1983070F532
S11333E0092E9927660F771F881F991F0A94D1F712
S11333F01CC0BB27993F4CF4B111B1E0B62B672F29
S1133400782F8827985FB1F708C0869577956795D8
S1133410B79508F4B1609395C1F7BB0F30F411F47C
S113342060FF03C06F5F7F4F8F4F3EF49095809590
S1133430709561957F4F8F4F9F4F08956894C1CFCA
S1133440BFCF0BD08ACF7BDF28F080DF18F0952325
S113345009F06CCF71CF1124B4CF90DFA0F3959F06
S1133460D1F3950F50E0551F629FF001729FBB2767
S1133470F00DB11D639FAA27F00DB11DAA1F649F13
S11334806627B00DA11D661F829F2227B00DA11DC6
S1133490621F739FB00DA11D621F839FA00D611D4C
S11334A0221F749F3327A00D611D231F849F600D6D
S11334B0211D822F762F6A2F11249F5750408AF0A6
S11334C0E1F088234AF0EE0FFF1FBB1F661F771F32
S11334D0881F91505040A9F79E3F510570F026CFA8
S11334E070CF5F3FECF3983EDCF386957795679554
S11334F0B795F795E7959F5FC1F7FE2B880F911D50
S11335009695879597F90895FA01EE0FFF1F309667
S11335102105310599F16115710561F48038BFE326
S11335209B0749F168949038810561F08038BFEFBA
S11335309B0741F0992342F5FF3FE1053105210541
S113354011F1E8940894E795D901AA2329F4AB2F43
S1133550BE2FF85FD0F310C0FF5F70F4A695E0F7BC
S1133560F73950F019F0FF3A38F49F779F930CD055
S11335700F9007FC905808953EF0DECE60E070E0B6
S113358080E89FE308954FE79F775F934F933F93BE
S11335902F939ED02F913F914F915F9152DF05C0A1
S11335A019F40EF0C3CE0CCFC7CEF0DEC8F39638B4
S11335B0C0F707F80F92E8942BE33AEA48EB5FE789
S11335C04EDF0F920F920F924DB75EB70F92C0D09D
S11335D0E8ECF0E016D04F915F91EF91FF91E59503
S11335E0EE1FFF1F49F0FE57E0684427EE0F441F0B
S11335F0FA95E1F74195550B32D00F9007FE26C09E
S11336000895DF93CF931F930F93FF92EF92DF926E
S11336107B018C01689405C0DA2EEF011EDFFE01E8
S1133620E894A5912591359145915591AEF3EF011B
S1133630D4D0FE019701A801DA9479F7DF90EF90D6
S1133640FF900F911F91CF91DF9108959B01AC01E1
S113365060E070E080E89FE3C4CD68CE11C196DEDF
S1133660E8F39923D9F3940F511DBBF391505040C3
S113367094F059F0882332F0660F771F881F915019
S11336805040C1F79E3F510544F7880F911D969510
S1133690879597F908955F3FACF0983E9CF0BB275F
S11336A0869577956795B79508F4B1609395C1F7BA
S11336B0BB0F58F711F460FFE8CF6F5F7F4F8F4F58
S11336C09F4FE3CF7ECE0EF0DBC036CE68942ECE75
S11336D05DDEC8F39923D1F3C6F3DF93CF931F9331
S11336E00F93FF92C92FDD2788232AF02197660FB5
S11336F0771F881FDAF720E030E040E85FEB9FE3B4
S1133700883920F0803E30F021968F7755D0E0EF55
S1133710F0E003C051D0EDE1F1E073DF8B01BE01B5
S1133720EC01FB2E6F5771097595771F880B990B68
S1133730C2DD28E132E741E35FE38FDEAF2D98017C
S1133740AE01FF900F911F91CF91DF9146D005CE2E
S1133750FA01DC01AA0FBB1F9B01AC01BF5728F47F
S113376022273327442750781FC0B75188F4AB2F42
S11337700024469537952795011CA395D2F3002084
S113378069F0220F331F441FB395DAF30DD013C031
S113379061307105A0E88A07B94630F49B01AC0199
S11337A06627772788279078309621F02083318305
S11337B04283538308955058BB27AA270ED0CDCDFA
S11337C0BEDD30F0C3DD20F031F49F3F11F41EF470
S11337D0B3CD0EF4E095E7FBA9CDE92FCFDD80F35F
S11337E0BA17620773078407950718F071F49EF5FA
S11337F0E7CD0EF4E0950B2EBA2FA02D0B01B901E5
S113380090010C01CA01A0011124FF27591B99F052
S1133810593F50F4503E68F11A16F040A22F232F5E
S1133820342F4427585FF3CF469537952795A795AE
S1133830F0405395C9F77EF41F16BA0B620B730B55
S1133840840BBAF09150A1F0FF0FBB1F661F771FC6
S1133850881FC2F70EC0BA0F621F731F841F48F47B
S1133860879577956795B795F7959E3F08F0B3CF01
S11338709395880F08F09927EE0F979587950895EB
S11338809F3F31F0915020F4879577956795B795D0
S1133890880F911D9695879597F90895DB018F936D
S11338A09F930E94801CBF91AF91A29F800D911D98
S11338B0A39F900DB29F900D11240895A1E21A2E9A
S11338C0AA1BBB1BFD010DC0AA1FBB1FEE1FFF1FC0
S11338D0A217B307E407F50720F0A21BB30BE40B10
S11338E0F50B661F771F881F991F1A9469F7609557
S11338F07095809590959B01AC01BD01CF01089511
S11339000E94C21CA59F900DB49F900DA49F800D92
S1133910911D112408952F923F924F925F926F92BE
S11339207F928F929F92AF92BF92CF92DF92EF924B
S1133930FF920F931F93CF93DF93CDB7DEB7CA1BCC
S1133940DB0B0FB6F894DEBF0FBECDBF09942A88F7
S1133950398848885F846E847D848C849B84AA849F
S1133960B984C884DF80EE80FD800C811B81AA812C
S1133970B981CE0FD11D0FB6F894DEBF0FBECDBFF7
S1133980ED010895A29FB001B39FC001A39F700DE4
S1133990811D1124911DB29F700D811D1124911D53
S11339A00895CF93DF938230910510F482E090E084
S11339B0E0917E02F0917F0220E030E0A0E0B0E0F0
S11339C0309739F14081518148175907B8F04817A9
S11339D0590771F482819381109729F013969C936F
S11339E08E9312972CC090937F0280937E0227C0FF
S11339F02115310531F04217530718F0A901DB01F5
S1133A0001C0EF019A01BD01DF010280F381E02DC5
S1133A10D7CF21153105F9F0281B390B2430310596
S1133A2080F48A819B816115710521F0FB019383E8
S1133A30828304C090937F0280937E02FE013296BB
S1133A4044C0FE01E20FF31F819391932250310988
S1133A50398328833AC020917C0230917D02232B44
S1133A6041F420911E0130911F0130937D02209377
S1133A707C0220911C0130911D012115310541F476
S1133A802DB73EB74091200150912101241B350BE5
S1133A90E0917C02F0917D02E217F307A0F42E1B63
S1133AA03F0B2817390778F0AC014E5F5F4F24179E
S1133AB0350748F04E0F5F1F50937D0240937C0200
S1133AC08193919302C0E0E0F0E0CF01DF91CF91C8
S1133AD00895CF93DF93009709F487C0FC013297D0
S1133AE013821282C0917E02D0917F02209781F4CA
S1133AF020813181280F391F80917C0290917D02B1
S1133B008217930779F5F0937D02E0937C026DC0F0
S1133B10DE0120E030E0AE17BF0750F412964D915D
S1133B205C9113979D014115510509F1DA01F3CF19
S1133B30B383A28340815181840F951F8A179B0709
S1133B4071F48D919C911197840F951F0296918326
S1133B50808312968D919C91139793838283211570
S1133B60310529F4F0937F02E0937E023EC0D9012F
S1133B701396FC93EE9312974D915D91A40FB51F8C
S1133B80EA17FB0779F480819181840F951F0296CF
S1133B90D90111969C938E938281938113969C9361
S1133BA08E931297E0E0F0E08A819B81009719F0F0
S1133BB0FE01EC01F9CFCE01029628813981820FF2
S1133BC0931F20917C0230917D022817390769F4F4
S1133BD0309729F410927F0210927E0202C0138261
S1133BE01282D0937D02C0937C02DF91CF9108951D
S1133BF0283008F027E03327DA01990F311D87FDBB
S1133C00916000966105710539F432602E5F3D9331
S1133C1030E32A95E1F708959F3F30F0803871052D
S1133C20610509F03C5F3C5F3D93913008F080688A
S1133C30911DDF93CF931F930F93FF92EF92192F50
S1133C40987F9695E92F96959695E90FFF27EF5360
S1133C50FA4F99273327EE24FF24A701E7010590A3
S1133C600894079428F4360FE71EF81E491F511DC7
S1133C70660F771F881F991F0694A1F70590079474
S1133C8028F4E70EF81E491F561FC11D770F881F21
S1133C90991F661F0694A1F70590079428F4F80E5F
S1133CA0491F561FC71FD11D880F991F661F771FF5
S1133CB00694A1F70590079420F4490F561FC71FD7
S1133CC0D81F990F661F771F881F0694A9F7849140
S1133CD01095177041F0D695C79557954795F79469
S1133CE0E7941A95C1F7E7E6F5E068941590159105
S1133CF035916591959105907FE27395E118F10AEC
S1133D00430B560BC90BD009C0F7E10CF11E431F3E
S1133D10561FC91FD01D7EF4703311F48A95E6CF67
S1133D20E894015030F0080F0AF40027021708F451
S1133D30202F2395022F7A3328F079E37D932A9557
S1133D40E9F710C07D932A9589F6069497956795AF
S1133D50379517951794E118F10A430B560BC90BC5
S1133D60D00998F023957E9173957A3308F070E327
S1133D707C932013B8F77E9170617D9330F0839526
S1133D8071E37D9370E32A95E1F71124EF90FF909E
S1133D900F911F91CF91DF91992787FD90950895F9
S1133DA0FC010590615070400110D8F78095909502
S1133DB08E0F9F1F0895FC01615070400190011007
S1133DC0D8F7809590958E0F9F1F08950F931F939A
S1133DD0CF93DF93182F092FEB018B8181FD03C053
S1133DE08FEF9FEF20C082FF10C04E815F812C8136
S1133DF03D81421753077CF4E881F9819F012F5FCD
S1133E003F4F39832883108306C0E885F985812FC5
S1133E100995892B29F72E813F812F5F3F4F3F83DF
S1133E202E83812F902FDF91CF911F910F910895B1
S1133E30A0E0B0E0EEE1FFE10C949B1CFE0135969E
S1133E4061917191AF0180918202909183020E94ED
S1133E507615E2E00C94B71CFA01AA27283051F138
S1133E60203181F1E8946F936E7F6E5F7F4F8F4FA7
S1133E709F4FAF4FB1E03ED0B4E03CD0670F781F06
S1133E80891F9A1FA11D680F791F8A1F911DA11DEB
S1133E906A0F711D811D911DA11D20D009F4689424
S1133EA03F912AE0269F11243019305D3193DEF6CC
S1133EB0CF010895462F4770405D4193B3E00FD082
S1133EC0C9F7F6CF462F4F70405D4A3318F0495D6D
S1133ED031FD4052419302D0A9F7EACFB4E0A69550
S1133EE09795879577956795BA95C9F70097610572
S1133EF0710508959B01AC010A2E069457954795C8
S1133F0037952795BA95C9F7620F731F841F951FBC
S10B3F10A01D0895F894FFCFF1
S1133F1801010110080400000002000000009B0BCE
S1133F2800000000180C0410C08020600000860205
S1133F3820000A4572726F72207768656E206F7070
S1133F48656E696E67205354455050455220737509
S1133F586273797374656D210053657474696E674F
S1133F682075702E2E2E004572726F722077686548
S1133F786E206F70656E696E6720415454494E59BE
S1133F8821000A52656164792100526F626F7420BE
S1133F986973206D6F76696E672061742025662EBB
S1053FA8000013
S9030000FC
