:100000000C9431030C944E030C944E030C944E0349
:100010000C9455090C947E090C94A7090C94D009F2
:100020000C944E030C9436080C945F080C948808CA
:100030000C9403090C94B1080C94DA080C942C0964
:100040000C94BB070C94E4070C940D080C944E031D
:100050000C944E030C944E030C944E030C944E03DC
:100060000C944E030C944E030C944E030C944E03CC
:100070000C944E030C944E030C944E032406270656
:100080002A062D0636063006330639063C063F069C
:100090004206450648064B064E06510654065706CC
:1000A0005A066B066E06710674067D0677067A069A
:1000B00080068306860689068C068F0692069506BC
:1000C00098069B069E06A10607634236B79BD8A7F3
:1000D0001A39685618AEBAAB558C1D3CB7CC57636D
:1000E000BD6DEDFD753EF6177231BF000000803F1B
:1000F00008000000BE922449123EABAAAA2ABECD37
:10010000CCCC4C3E00000080BEABAAAAAA3E0000A8
:100110000000BF000000803F0000000000084178A0
:10012000D3BB4387D1133D190E3CC3BD4282AD2BD7
:100130003E68EC8276BED98FE1A93E4C80EFFFBECF
:1001400001C4FF7F3F000000000016050100000011
:1001500000000000FA000000E000E00028FE28FE99
:10016000282454FE5448C4C81026466C92AA44A0C1
:1001700000A0C000000038448200008244380028FB
:10018000107C102810107C1010000A0C00001010B9
:10019000101010000606000004081020407C8A920F
:1001A000A27C0042FE020042868A92628482A2D22F
:1001B0008C182848FE08E4A2A2A29C3C5292920C01
:1001C000808E90A0C06C9292926C60929294780013
:1001D0006C6C0000006A6C00001028448200282823
:1001E000282828008244281040808A90604C929EE3
:1001F000827C7E8888887EFE9292926C7C8282824B
:1002000044FE82824438FE92929282FE90909080C8
:100210007C8292925EFE101010FE0082FE8200042C
:100220000282FC80FE10284482FE02020202FE408E
:100230003040FEFE201008FE7C8282827CFE909080
:1002400090607C828A847AFE909894626292929204
:100250008C8080FE8080FC020202FCF8040204F81C
:10026000FC021C02FCC6281028C6E0100E10E08616
:100270008A92A2C200FE82820040201008040082FE
:1002800082FE0020408040200202020202008040E4
:100290002000042A2A2A1EFE1222221C1C222222AC
:1002A000041C222212FE1C2A2A2A18107E9080404A
:1002B000304A4A4A7CFE1020201E0022BE02000462
:1002C0000222BC00FE081422000082FE02003E2032
:1002D00018201E3E1020201E1C2222221C3E2828F0
:1002E0002810102828183E3E10202010122A2A2AF2
:1002F0000420FC2202043C0202043E3804020438BA
:100300003C020C023C2214081422300A0A0A3C2245
:10031000262A322200106C82000000FE00000082BB
:100320006C1000081010081000000000007F818190
:10033000817F7F8383837F7F8787877F7F8F8F8F77
:100340007F7F9F9F9F7F7FBFBFBF7F7FFFFFFF7F1D
:100350002040FF4020621517156500FBFB000000E0
:1003600000000000C0FF0300E0FF0700F0FF0F00E7
:10037000F8FF1F0078001E0078001E0078001E00A5
:1003800078001E0078001E0078001E0078001E0015
:1003900078001E0078001E00000000000000000031
:1003A00080FF0300E0FF0700F0FF0F00F8FF1F00D1
:1003B000F83C1F00783C1E00783C1E00783C1E0074
:1003C000783C1E00783C1E00783C1E00783C1E00E5
:1003D000783C1E00783C1E00783C1E0000000000A7
:1003E00000000000E0FF0300F0FF0700F8FF0F002F
:1003F000F8FF1F00783C1E00783C1E00783C1E0071
:10040000783C1E00783C1E00783C1E00783C1E00A4
:10041000783C1E00783C1E00783C1E000000000066
:1004200000000000F8FF0300F8FF0F00F8FF1F00B6
:10043000F8FF1F0000001E0000001E0000801F00CB
:1004400000F01F0000FF0F00E0FF0700F0FF0000BA
:10045000F80F0000F80000007800000078000000AD
:10046000F8FF1F00F8FF1F00F0FF1F00E0FF1F0054
:100470000000000000000000F8FF1F00F8FF1F0050
:10048000F8FF1F00F8FF1F0078001E00783C1E00D8
:10049000783C1E00783C1E00783C1E00783C1E0014
:1004A000783C1E00F87E1F00F8FF1F00F0FF0F00D1
:1004B000E0E703000000000000003800EEFF6C00E1
:1004C0002A8045003A0047FC03FF6CFC83FF39009B
:1004D000DEFF0B7CD0810BFCD0810BC0D0810BFCEC
:1004E000D0810B7CDEFF0B0082FF397002FF6CF8BD
:1004F0003A0047DC2A8045CCEEFF6CCC0000380087
:100500000000000C00001E0C00001E0000001E0079
:1005100000001E0000001E00F8FF1F00F8FF1F0073
:10052000F8FF1F00F8FF1F0000001E0000001E0063
:1005300000001E0000001E0000005E0000004000E1
:1005400000007C00000040000000400000007C0033
:1005500000003000000010000000300000007C6E41
:10056000616E00696E660000407A10F35A00A07256
:100570004E18090010A5D4E80000E87648170000DE
:10058000E40B54020000CA9A3B000000E1F50500AC
:100590000080969800000040420F000000A08601F5
:1005A000000000102700000000E8030000000064C5
:1005B00000000000000A0000000000010000000030
:1005C000002C76D888DC674F0823DFC1DFAE59E105
:1005D000B1B796E5E3E453C63AE651997696E8E674
:1005E000C28426EB898C9B62ED407C6FFCEFBC9C47
:1005F0009F40F2BAA56FA5F490055A2AF75C936B59
:100600006CF9676DC11BFCE0E40D47FEF520E6B513
:1006100000D0ED902E0300943577050080841E08ED
:100620000000204E0A000000C80C333333330F980B
:100630006E12831141EF8D2114893BE65516CFFED2
:10064000E6DB18D1844B381BF77C1D901DA4BBE45E
:1006500024203284725E228100C9F124ECA1E53DA0
:10066000270011241FBECFEFD8E0DEBFCDBF11E0C1
:10067000A0E0B1E0ECE7F9E302C005900D92A438E8
:10068000B107D9F722E0A4E8B1E001C01D92A63776
:10069000B207E1F70E94BD030C94BC1C0C9400004F
:1006A0008FE00E941506882331F40E94A0078FE096
:1006B00061E00E945D068FE091E008958FE00E9466
:1006C0001506813019F020E030E013C080917A00E7
:1006D000806480937A0080917A0086FDFCCF30910F
:1006E000780020917900922F80E0232F30E0282B92
:1006F000392BC9010895582F809100018830D8F412
:1007000040917E0021E030E0B90102C0660F771F02
:100710008A95E2F7CB018095842380937E008091B7
:100720007E00052E02C0220F331F0A94E2F7822BAF
:1007300080937E000DC020917E0081E090E0052E28
:1007400002C0880F991F0A94E2F7282B20937E009D
:100750005093000180917C005F71807E852B809397
:100760007C000895ECE7F0E090818295880F880F77
:10077000807C9F73982B908308950E94B9070E94F4
:10078000AB070E94231280E090E008950F931F931F
:1007900080E460E00E94A50400E0802F60E00E94F9
:1007A0008C0410E080E061E00E94A5041F5F103817
:1007B000C9F70F5F043089F783E060E00E94850489
:1007C0001F910F9108950F931F9382E00E941506C9
:1007D000882311F482E006C081E00E941506882378
:1007E00019F481E090E06DC00E94210A85E061E08B
:1007F0000E945D068EEA60E00E94A50482EA60E045
:100800000E94A50480EA60E00E94A50400E513ECC4
:10081000C8010197F1F780EC60E00E94A5048FE227
:1008200060E00E94A50481E860E00E94A50486E1E2
:1008300060E00E94A50482E260E00E94A504C80175
:100840000197F1F78FEA60E00E94A50486EA60E074
:100850000E94A50485EA60E00E94A50480E090E083
:1008600028E833E1F9013197F1F7019643E0883E3A
:100870009407C1F783EB60E00E94A50480E460E088
:100880000E94A50483E060E00E948C0483E060E0A5
:100890000E94850410920E021092100210920F0214
:1008A00087E091E0909373028093720288E10E9446
:1008B00064040E94C60384EA60E00E94A50485E007
:1008C00091E01F910F9108951F93182F85E00E94CA
:1008D00015068130C1F487E00E94C00482E06AE01E
:1008E0000E94110582E061EB0E941105612F113217
:1008F00008F060E282E00E94110589EE8A95F1F726
:1009000087E00E94C0041F91089583706F77609301
:100910000C0280930D0208950F931F93062F162F3C
:100920001F778370806B60E00E94A50412951F7092
:10093000812F806160E00E94A504802F8F7060E0AD
:100940000E94A5041F910F9108950F931F93082FE4
:10095000162F85E00E941506813079F4112319F0D5
:10096000113021F402C02B9801C02B9A86E08A95A1
:10097000F1F780E0602F0E9411051F910F910895FB
:100980001F93182F82E00E941506813009F047C09E
:10099000912F977080911102981709F440C090939D
:1009A000110285B1887F892B85B9933011F194307C
:1009B00028F4913051F0923090F40CC0953019F138
:1009C0009530E0F0963021F50FC0E091D401F09120
:1009D000D50122C0E091D201F091D3011DC0E09178
:1009E000D601F091D70118C0E091DE01F091DF014E
:1009F00013C0E091D801F091D9010EC0E091DA0165
:100A0000F091DB0109C0E091DC01F091DD0104C04F
:100A1000E091E001F091E101309709F009951F9113
:100A200008951F93162F0E94C00482E00E941506AD
:100A3000813021F41EBD0DB407FEFDCF1F91089536
:100A40000F931F93CF93DF9380E291E00E94031AEC
:100A50009C019093F1018093F001892B11F480E0C7
:100A600039C08901C0E0D0E0BE0180E090E00E9482
:100A7000751320E030E040EA51E40E940D1327EFA7
:100A800035E740E05FE30E9403149B01AC0160E0A6
:100A900070E080E291E40E941B189B01AC01CA0146
:100AA000B9012DEC3CEC42E851E40E9403140E9491
:100AB000E1172AE030E040E050E00E948019F801A0
:100AC00061937193819391938F012196C834D105DD
:100AD00059F681E0DF91CF911F910F9108958AE03F
:100AE0000E941506882371F41092ED011092EC011A
:100AF00081E00E94F40B81E08093E3018AE061E0F1
:100B00000E945D068AE091E008951F938BE00E94A9
:100B10001506882311F090E021C089E00E94150697
:100B20008823D9F40E942005182F8130B1F4109247
:100B3000E4011092E5011092E6011092E7018DE0C8
:100B400067E77BE00E94F90982E00E94F40B1093B2
:100B5000E20189E061E00E945D0691E089E01F9179
:100B60000895813029F0823031F090E089E00895D5
:100B70000E946F0508950E94850508950E94710CDA
:100B800081E080934802E2E1F2E011921192118239
:100B90001082329611821082329611821082329621
:100BA0001182108232961182108232961182108246
:100BB0003296118210823296118210823296118200
:100BC00010823296118210823296118210823296F1
:100BD00011821082369611921192119210823296E1
:100BE00011921192119211921192119211921182FD
:100BF00010823296118210823296118210823296C1
:100C000011821082769711821082329611821082A0
:100C100010924702109246021092480287E061E06B
:100C20000E945D0687E091E00895E82FF0E0E3314F
:100C3000F10540F4E25CFF4FEE0FFF1F0590F491C9
:100C4000E02D099480E008958091F9010895809144
:100C5000FA0108958091FB0108958091FC010895A7
:100C60008091FD0108958091FF0108958091FE011A
:100C70000895809100020895809101020895809165
:100C8000020208958091030208958091040208955C
:100C900080910502089580910602089580910702CF
:100CA0000895809108020895809109020895809125
:100CB0000A02089580910B020895E82FF0E0E331D5
:100CC000F10508F040C0EF5AFF4FEE0FFF1F0590EF
:100CD000F491E02D09946093F90108956093FA016D
:100CE00008956093FB0108956093FC01089560935B
:100CF000FD0108956093FF0108956093FE0108953A
:100D000060930002089560930102089560930202C7
:100D10000895609303020895609304020895609318
:100D200005020895609306020895609307020895EE
:100D300060930802089560930902089560930A027F
:100D400008956093090208951F93CF93DF93182F9E
:100D500080918501882341F080918F01882399F04B
:100D60001092850110928F010E949E0C8093840145
:100D700089E891E061E040E022E330E00E94620710
:100D800081E08093850190918401A12FB0E0ED0175
:100D9000CF5FDE4F8881882369F0FD01EC5FFE4F55
:100DA00080819823C1F0FD01EA57FE4F81E08083E6
:100DB000188211C0FD01EA57FE4F80818111108217
:100DC000FD01EC5FFE4F8081982329F4FD01EF5F68
:100DD000FE4F81E08083AA57BE4F8C91DF91CF9167
:100DE0001F91089582E00E941506882319F490E06F
:100DF00082E008951092600210925F0210926202E7
:100E000010926102109264021092630210926602C4
:100E100010926502109268021092670280E991E0D8
:100E200090934C0280934B0290934E0280934D021C
:100E30009093500280934F029093520280935102FC
:100E4000909354028093530284E398E09093560267
:100E500080935502909358028093570290935A02C0
:100E60008093590290935C0280935B0290935E02A0
:100E700080935D0281E061E00E945D0691E081E087
:100E80000895DF93CF93CDB7DEB729970FB6F894C7
:100E9000DEBF0FBECDBF9C01CE01019661E040E0F8
:100EA0000E946207982F882319F48F818823E9F321
:100EB000892F29960FB6F894DEBF0FBECDBFCF9114
:100EC000DF910895EF92FF920F931F93CF93DF93DB
:100ED000EC01F62EE42E890188E00E94150681308F
:100EE00011F081E026C084E090E00E94031AFC012A
:100EF000009711F482E01DC0F982F0FC1E8281E0AF
:100F0000E81619F4898184608983898188608983DE
:100F10001B830A831D830C83D183C08313821282B7
:100F200081E08093F201CF010E94CF0C1092F20178
:100F300080E0DF91CF911F910F91FF90EF90089586
:100F40008FE180937C00EAE7F0E087E08083808196
:100F50008068808308950E947B0C0E94D00A0E94C2
:100F60000D0A0E94380D0E94350B0E94F2067894FB
:100F70000895000008951F920F920FB60F9211244A
:100F80002F933F934F935F936F937F938F939F9391
:100F9000AF93BF93EF93FF93E091B201F091B30150
:100FA000309709F00995FF91EF91BF91AF919F9113
:100FB0008F917F916F915F914F913F912F910F9002
:100FC0000FBE0F901F9018951F920F920FB60F92A1
:100FD00011242F933F934F935F936F937F938F933E
:100FE0009F93AF93BF93EF93FF93E091B401F09180
:100FF000B501309709F00995FF91EF91BF91AF913D
:101000009F918F917F916F915F914F913F912F9120
:101010000F900FBE0F901F9018951F920F920FB652
:101020000F9211242F933F934F935F936F937F936E
:101030008F939F93AF93BF93EF93FF93E091B6018C
:10104000F091B701309709F00995FF91EF91BF91A9
:10105000AF919F918F917F916F915F914F913F9150
:101060002F910F900FBE0F901F9018951F920F9207
:101070000FB60F9211242F933F934F935F936F936B
:101080007F938F939F93AF93BF93EF93FF93E091E1
:10109000A401F091A501309709F00995FF91EF9116
:1010A000BF91AF919F918F917F916F915F914F9180
:1010B0003F912F910F900FBE0F901F9018951F9288
:1010C0000F920FB60F9211242F933F934F935F937C
:1010D0006F937F938F939F93AF93BF93EF93FF9300
:1010E000E091A601F091A701309709F00995FF91D1
:1010F000EF91BF91AF919F918F917F916F915F9190
:101100004F913F912F910F900FBE0F901F90189508
:101110001F920F920FB60F9211242F933F934F936C
:101120005F936F937F938F939F93AF93BF93EF934F
:10113000FF93E091A801F091A901309709F009957A
:10114000FF91EF91BF91AF919F918F917F916F919F
:101150005F914F913F912F910F900FBE0F901F9075
:1011600018951F920F920FB60F9211242F933F9351
:101170004F935F936F937F938F939F93AF93BF939F
:10118000EF93FF93E091AC01F091AD01309709F03E
:101190000995FF91EF91BF91AF919F918F917F91B1
:1011A0006F915F914F913F912F910F900FBE0F90D4
:1011B0001F9018951F920F920FB60F9211242F9324
:1011C0003F934F935F936F937F938F939F93AF93CF
:1011D000BF93EF93FF93E091AE01F091AF01309791
:1011E00009F00995FF91EF91BF91AF919F918F9178
:1011F0007F916F915F914F913F912F910F900FBE13
:101200000F901F9018951F920F920FB60F921124F6
:101210002F933F934F935F936F937F938F939F93FE
:10122000AF93BF93EF93FF93E091AA01F091AB01CD
:10123000309709F00995FF91EF91BF91AF919F9180
:101240008F917F916F915F914F913F912F910F906F
:101250000FBE0F901F9018951F920F920FB60F920E
:1012600011242F933F934F935F936F937F938F93AB
:101270009F93AF93BF93EF93FF93E091B001F091F1
:10128000B101309709F00995FF91EF91BF91AF91AE
:101290009F918F917F916F915F914F913F912F918E
:1012A0000F900FBE0F901F9018951F920F920FB6C0
:1012B0000F9211242F933F934F935F936F937F93DC
:1012C0008F939F93AF93BF93EF93FF93E0919A0116
:1012D000F0919B01309709F00995FF91EF91BF9133
:1012E000AF919F918F917F916F915F914F913F91BE
:1012F0002F910F900FBE0F901F9018951F920F9275
:101300000FB60F9211242F933F934F935F936F93D8
:101310007F938F939F93AF93BF93EF93FF93E0914E
:101320009C01F0919D01309709F00995FF91EF9193
:10133000BF91AF919F918F917F916F915F914F91ED
:101340003F912F910F900FBE0F901F9018951F92F5
:101350000F920FB60F9211242F933F934F935F93E9
:101360006F937F938F939F93AF93BF93EF93FF936D
:10137000E0919E01F0919F01309709F00995FF914E
:10138000EF91BF91AF919F918F917F916F915F91FD
:101390004F913F912F910F900FBE0F901F90189576
:1013A0001F920F920FB60F9211242F933F934F93DA
:1013B0005F936F937F938F939F93AF93BF93EF93BD
:1013C000FF93E091A001F091A101309709F00995F8
:1013D000FF91EF91BF91AF919F918F917F916F910D
:1013E0005F914F913F912F910F900FBE0F901F90E3
:1013F0001895E82F803268F48051833050F0F0E087
:10140000EE0FFF1FEE56FE4F208131817183608306
:1014100002C020E030E0C901089580E10E94150675
:10142000882361F4E2E9F1E01192119281E0E23D5A
:10143000F807D1F780E161E00E945D0680E191E06C
:101440000895239A0895FF920F931F93CF93DF93EC
:10145000F82E8AE0F816B1F08F1548F0E8E0FE1695
:10146000B9F1EF1538F1F7E0FF1651F43BC08DE00C
:10147000F81659F0EBE1FE1689F0FCE0FF1641F09A
:1014800001E041C010920C0203C010920C023AC05D
:1014900080910D02815080930D0234C00E94C603DA
:1014A00014C080E061E00E94A50480910C028F5F6F
:1014B00080930C0280910C0287FFF3CF10920C02F4
:1014C00080910D02815080930D0200E011E01CC05C
:1014D00080910C028823B1F080910C028650809399
:1014E0000C0210C081E00E94B10564EF71E080E061
:1014F00090E04DE750E024E630E00E941E0C81E0D1
:101500000E94EA0B00E010E080910D0260910C0255
:101510000E948C04002351F185E0F89EC001112443
:10152000EC01C355DF4F8C010E541F4FFE01849117
:1015300061E00E94A5042196C017D107B9F780E0A9
:1015400061E00E94A50480910C028A5F80930C02E6
:1015500080910C0290E08C3791053CF010920C02C7
:1015600080910D02815080930D0211E080910D0257
:10157000837080930D02113059F480910E028130F6
:1015800039F4E0910F02F0911002309709F00995BB
:1015900080E090E0DF91CF911F910F91FF9008952F
:1015A00080E00E941506882351F4F8940E94720D81
:1015B00081E00E94E20A80E061E00E945D0680E036
:1015C00091E00895813049F0F894813020F1823023
:1015D000B1F0833009F045C017C02C9A80E88093A1
:1015E00061001092610080E090E000000196883276
:1015F0009105D9F71092680010926B00089580E869
:101600008093610083E004C080E88093610088E0FB
:101610008093610028C080E090E0000001962DE6F4
:1016200080369207D1F72C9880E090E00000019678
:101630002DE680369207D1F710927A008FEF8093D3
:1016400064008091680081608093680080916B00E5
:10165000846080936B00789483B7816083BF8895A2
:101660000895823008F0789408950F931F930E9494
:101670009E0D80E06DE87DE00E946E0B81E065E8E4
:101680007DE00E946E0B82E06DE77DE00E946E0BB4
:1016900086E065E97DE00E946E0B05E71DE083E0D2
:1016A000B8010E946E0B84E0B8010E946E0B85E0C9
:1016B000B8010E946E0B87E0B8010E946E0B82E0B9
:1016C00061E00E945D068FEF8093110287E00E9427
:1016D000C00482E091E01F910F910895E82FF0E09F
:1016E000EE0FFF1FEE52FE4F7183608308950E943C
:1016F0007A0B08958091E4019091E501A091E601B3
:10170000B091E7012091E8013091E9014091EA01AF
:101710005091EB01280F391F4A1F5B1F2093E401F2
:101720003093E5014093E6015093E7018091E40195
:101730009091E501A091E601B091E7018851964FA3
:10174000A040B040BCF08BB180588BB98091E401CF
:101750009091E501A091E601B091E7018851964F83
:10176000A040B0408093E4019093E501A093E6018E
:10177000B093E70108958AE00E941506813041F494
:101780000E94CE0D1092E3018AE060E00E945D06A7
:10179000089589E00E9415068130D9F48091E20114
:1017A000882311F00E946B0C82E00E94CE0D809184
:1017B000F0019091F101009731F00E949B1A109274
:1017C000F1011092F0011092E20189E060E00E94C4
:1017D0005D060895813029F0823029F40E94C90BFA
:1017E00008950E94BB0B0895982F8091E2018823F1
:1017F00031F48091E301882311F4579A5F98809126
:10180000E2018823D1F49230C1F41092800010924A
:1018100081008091810088608093810080918100A7
:10182000816080938100109285001092840081E095
:101830008093890080E98093880008958F929F9219
:10184000AF92BF92CF92DF92EF92FF920F931F93CE
:10185000CF93DF934B015C01EA01B90121153105FA
:1018600039F19E01442737FD4095542F65367105A7
:1018700010F064E670E080E090E00E94801924E6B9
:1018800030E040E050E00E94901979018A01C501E2
:10189000B4010E94B70DC7010E94410760E070E0EB
:1018A00080E090E00E94B70DCE018E199F0904C020
:1018B0004115510519F0CA010E944107DF91CF91EE
:1018C0001F910F91FF90EF90DF90CF90BF90AF905E
:1018D0009F908F900895EFE6F0E080818D7F808368
:1018E00008953A9A3B9A3C9A3D9A3E9A3F9A88B11B
:1018F000837088B908951092F9011092FA0110923C
:10190000FE011092FB011092FD011092FF01109256
:101910000002109201021092020210920302109231
:101920000402109205021092060210920702109211
:1019300008021092090210920A0208950F931F9351
:1019400081E00E941506813011F000E024C087E09C
:101950000E94C00482E06AE00E94110582E062EB0E
:101960000E94110518EC812F8A95F1F782E060E062
:101970000E94A50D082F812F8A95F1F782E060E083
:101980000E94A50D1A95F1F787E00E94C00488E82F
:1019900093E10197F1F7802F1F910F910895CF9256
:1019A000DF92EF92FF920F931F93CF93DF93EC019F
:1019B00080916902882339F4D0936B02C0936A0244
:1019C0000E945D0D47C0C0906A02D0906B0200E09B
:1019D00010E0EE24FF2437C0A881B981FD016481A5
:1019E0007581F60140815181FA01848195819B01C5
:1019F000281B390B37FF0FC0861B970B95838483F9
:101A0000DB82CA82012B29F4D0936B02C0936A0255
:101A100021C0F7010CC0F6018281938121153105A7
:101A200049F4FD01158214829B838A83F601D383D6
:101A3000C28310C0FD01358324830097B9F30F5F83
:101A40001F4F76016C018091690290E00817190719
:101A500018F2ECCF809169028F5F80936902DF9169
:101A6000CF911F910F91FF90EF90DF90CF9008954D
:101A700088E00E9415068823B9F41092690210923A
:101A80006B0210926A021092F2011092F30180E14F
:101A90006AEE7DE00E94610D0E94F10D0E94570DDB
:101AA00088E061E00E945D0688E091E00895EEE63E
:101AB000F0E0808182608083089581E08093F3016B
:101AC0000895803218F020E030E00AC0E82FF0E0FE
:101AD000EE0FFF1FEE56FE4F208131817183608330
:101AE000C9010895249A2C9A089583E58CBD81E05C
:101AF0008DBD8DE08A95F1F7089583E58CBD1DBC01
:101B000084EF91E00197F1F708958FE78CBD1DBC3C
:101B100084EF91E00197F1F7089583E58CBD81E0B2
:101B20008DBD8DE08A95F1F7089583E58CBD81E048
:101B30008DBD84EF91E00197F1F70895259A2698DD
:101B4000279A209A219A229A08951F93162F0E946D
:101B5000C00482E00E941506813011F080E005C0CB
:101B60001EBD0DB407FEFDCF8EB51F9108959B01DC
:101B7000AC018091E301882381F0DA01C901880F6B
:101B8000991FAA1FBB1F9093EF018093EE012115AF
:101B900031054105510509F45F980895823029F413
:101BA000809181008E7F809381008091E20181305D
:101BB00031F48091E301813011F4000008958091A7
:101BC000E201813021F08091E301813011F45F98CE
:101BD000579808950E94FA0D0E943A0E0E94130E23
:101BE000089584B5826084BD85B5846085BD8EE42A
:101BF00087BD089588E00E941506882311F484E0CB
:101C000008958091F301882311F483E00895809171
:101C1000F201882311F082E008950E94CE108130F5
:101C2000E1F380E008958091E301813011F5809126
:101C3000EC019091ED012091EE013091EF01280F20
:101C4000391F3093ED012093EC018091EC019091CC
:101C5000ED01885E93406CF08BB180588BB9809118
:101C6000EC019091ED01885E93409093ED0180939B
:101C7000EC01089587E00E941506813009F0AAC0A2
:101C800080911C0290911D02892B09F180914002E4
:101C90009091410220911C0230911D02820F931FEE
:101CA00090934102809340028091400290914102C2
:101CB000885E9340A4F08091400290914102885E3A
:101CC0009340909341028093400241E009C080918B
:101CD000140290911502909319028093180240E02B
:101CE00080911E0290911F02892B09F1809142027E
:101CF0009091430220911E0230911F02820F931F88
:101D00009093430280934202809142029091430259
:101D1000885E9340A4F08091420290914302885ED5
:101D20009340909343028093420261E009C0809106
:101D300016029091170290931B0280931A0260E0A2
:101D4000842F0E94EB0E80913C0290913D022091E5
:101D5000180230911902280F391F30933D02209349
:101D60003C0280913C0290913D02885E934014F4C5
:101D700040E00BC080913C0290913D02885E934010
:101D800090933D0280933C0241E080913E0290910D
:101D90003F0220911A0230911B02280F391F309305
:101DA0003F0220933E0280913E0290913F02885E66
:101DB000934014F460E00BC080913E0290913F028A
:101DC000885E934090933F0280933E0261E0842FAF
:101DD0000E94300F08958823F1F020911402309171
:101DE00015028091180290911902281B390B1216C6
:101DF000130634F48091180290911902019607C0DD
:101E0000232B49F080911802909119020197909329
:101E1000190280931802662311F120911602309165
:101E2000170280911A0290911B02281B390B12167F
:101E3000130654F480911A0290911B02019690931C
:101E40001B0280931A020895232B49F080911A02F5
:101E500090911B02019790931B0280931A020895A0
:101E60000F931F93182F062F80914802882309F0A3
:101E7000E7C080913002882309F05AC0809118028F
:101E800090911902892BE9F48091F401837E80936B
:101E9000F4011092390280914402882309F45DC054
:101EA0006091320280E00E94A910E0914602F09118
:101EB0004702309709F451C081E0808310924402B8
:101EC0004CC080911202813041F4809124029091A3
:101ED0002502019711F411E002C01123F1F1E09104
:101EE0003702F0E0EB5EFE4F9091F401937E80812B
:101EF000892B8093F40180913502882321F480910D
:101F000037028F5F03C08091370281508093370280
:101F10008091370283708093370281E08093390289
:101F2000809112028130C9F480E00E94331015C004
:101F30009091F401937E9093F401E0913702F0E0E8
:101F4000EB5EFE4F8081892B8093F40182E08093C9
:101F500039021092190210921802809131028823DE
:101F600009F059C080911A0290911B02892BE9F463
:101F70008091F4018F718093F40110923A02809164
:101F80004502882309F45CC06091330281E00E941D
:101F9000A910E0914602F0914702309709F450C031
:101FA00081E08183109245024BC080911302813001
:101FB00041F48091260290912702019711F401E0EB
:101FC00002C00023E9F1E0913802F0E0E75EFE4F45
:101FD0009091F4019F718081892B8093F40180910D
:101FE0003602882321F4809138028F5F03C08091EC
:101FF0003802815080933802809138028370809338
:10200000380281E080933A02809113028130C1F45A
:102010000E94331015C09091F4019F719093F401C8
:10202000E0913802F0E0E75EFE4F8081892B8093DB
:10203000F40182E080933A0210921B0210921A027D
:1020400080913B02882331F484EF91E0612F402F8F
:102050000E943C1188B183709091F401892B88B95A
:102060001F910F910895882321F0813009F04EC00F
:1020700027C08091240290912502892B49F08091FC
:1020800024029091250201979093250280932402C7
:10209000809144028823D1F52091240230912502B9
:1020A00080912802909129022817390779F580E05C
:1020B00060E070E00E94871081E080934402089500
:1020C0008091260290912702892B49F08091260267
:1020D0009091270201979093270280932602809186
:1020E0004502882399F4209126023091270280919D
:1020F0002A0290912B022817390741F481E060E011
:1021000070E00E94871081E0809345020895482F77
:1021100081E080934802CB0121E06139720710F021
:1021200080E991E0413071F0413018F0423071F4B3
:1021300005C0909315028093140208C09093150275
:102140008093140290931702809316021092480213
:1021500008950F931F93182F062F662349F460E00C
:1021600070E00E948710812F60E070E00E94D4111F
:1021700081E080934802113051F0113018F0123094
:1021800041F403C00093300204C000933002009376
:102190003102109248021F910F910895FF920F9300
:1021A0001F93CF93DF9380916902882309F459C06C
:1021B00000916A0210916B02F801C081D1818C817B
:1021C0009D8101979D838C83181619060CF449C0D4
:1021D000898180FF05C08E81882311F481E08E8380
:1021E000898181FF03C0EF81F8850995809169029B
:1021F0008230A8F0F8018281938190936B028093E2
:102200006A0213821282E0910000F0910100848141
:102210009581181619063CF0FF24F39405C010921E
:102220006B0210926A02FF248091690281508093B0
:10223000690280916902882311F40E943911898111
:1022400082FF08C08A819B819D838C83C8010E9484
:10225000CF0C08C0C8010E949B1A89818F7E898398
:1022600001C0FF248F2DDF91CF911F910F91FF901F
:1022700008951092F3010895FC0180913902823093
:1022800069F48091F80191E089278093F80188230F
:1022900009F03EC08081837E80833AC0809118021D
:1022A00090911902C397A4F56623D1F020911802EA
:1022B0003091190280E690E0BC01269FC001279F63
:1022C000900D369F900D1124880F892F881F990B30
:1022D00090932D0280932C0281E08093F60118C028
:1022E0008091F6018823A1F080912C0290912D021B
:1022F000019790932D0280932C0280912C02909153
:102300002D02892B29F48081837E80831092F6012F
:1023100080913A02823069F48091F70191E0892737
:102320008093F701882309F03EC080818F718083FC
:10233000089580911A0290911B02C397A4F544233B
:10234000D1F020911A0230911B0280E690E0AC019E
:10235000249FC001259F900D349F900D1124880F5C
:10236000892F881F990B90932F0280932E0281E072
:102370008093F50108958091F5018823A1F0809163
:102380002E0290912F02019790932F0280932E029C
:1023900080912E0290912F02892B29F480818F71D8
:1023A00080831092F5010895982F81E08093480270
:1023B000913071F0913018F0923071F405C0709343
:1023C00025026093240208C07093250260932402C2
:1023D000709327026093260210924802089581E0CC
:1023E0000E94B20386E00E947B030E945E03BC0150
:1023F00080E090E00E94751320E030E040EA5BE36B
:102400000E94031420E030E040EA51E40E940314EB
:10241000089581E00E94B20385E00E947B030E9440
:102420005E03BC0180E090E00E94751320E030E084
:1024300040EA5BE30E94031420E030E040EA51E40C
:102440000E94031408950E94E30383E291E09F93A6
:102450008F930E944A1C0E94F2060F900F909130B9
:1024600051F00E94C60381E391E09F938F930E94F5
:102470004A1C0F900F9081E00E94B1050E9450030A
:1024800081E00E94B2030E94BE058CE491E09F931C
:102490008F930E944A1C0E94C6030F900F900F2E2C
:1024A000F4E5EF2EF1E0FF2EF02D0EE511E0CCE685
:1024B000D1E00F2EFDE7CF2EF1E0DF2EF02DFF92C1
:1024C000EF920E944A1C1F930F930E944A1CDF93B5
:1024D000CF930E944A1C0E94C60380E00E94A4067B
:1024E0000F900F900F900F900F900F90882339F15D
:1024F0000E940912B62EA72E982E892E0E94EF1147
:10250000762E672E582E492E0E94C6034F925F9258
:102510006F927F928F929F92AF92BF92DF92CF92F3
:102520000E944A1C80ED97E00E9441078DB79EB73C
:102530000A960FB6F8949EBF0FBE8DBFC0CF81E044
:102540000E94A4068111BBCF82E00E94A406B7CFEF
:102550005058BB27AA270ED01CC10DD130F012D184
:1025600020F031F49F3F11F41EF402C10EF4E09507
:10257000E7FBF8C0E92F1ED180F3BA176207730793
:102580008407950718F071F49EF536C10EF4E095B6
:102590000B2EBA2FA02D0B01B90190010C01CA011D
:1025A000A0011124FF27591B99F0593F50F4503EC8
:1025B00068F11A16F040A22F232F342F4427585FBA
:1025C000F3CF469537952795A795F0405395C9F7D2
:1025D0007EF41F16BA0B620B730B840BBAF091508A
:1025E000A1F0FF0FBB1F661F771F881FC2F70EC029
:1025F000BA0F621F731F841F48F4879577956795FC
:10260000B795F7959E3F08F0B3CF9395880F08F0E4
:102610009927EE0F9795879508950CD0BAC0B2D040
:1026200040F0A9D030F021F45F3F19F09BC0511168
:10263000E4C09EC0BFD098F39923C9F35523B1F3EA
:10264000951B550BBB27AA2762177307840738F021
:102650009F5F5F4F220F331F441FAA1FA9F333D080
:102660000E2E3AF0E0E830D091505040E695001C34
:10267000CAF729D0FE2F27D0660F771F881FBB1FF0
:10268000261737074807AB07B0E809F0BB0B802DCA
:10269000BF01FF2793585F4F2AF09E3F510568F016
:1026A00061C0ABC05F3FECF3983EDCF38695779555
:1026B0006795B795F7959F5FC9F7880F911D969518
:1026C000879597F90895E1E0660F771F881FBB1F74
:1026D000621773078407BA0720F0621B730B840B21
:1026E000BA0BEE1F88F7E0950895E89409C097FBB0
:1026F0003EF490958095709561957F4F8F4F9F4FD9
:102700009923A9F0F92F96E9BB279395F69587951C
:1027100077956795B795F111F8CFFAF4BB0F11F4DF
:1027200060FF1BC06F5F7F4F8F4F9F4F16C0882386
:1027300011F096E911C0772321F09EE8872F762FBC
:1027400005C0662371F096E8862F70E060E02AF0FD
:102750009A95660F771F881FDAF7880F96958795E9
:1027600097F9089597F99F6780E870E060E0089511
:102770009FEF80EC089500240A9416161706180699
:102780000906089500240A94121613061406050675
:102790000895092E0394000C11F4882352F0BB0F06
:1027A00040F4BF2B11F460FF04C06F5F7F4F8F4F69
:1027B0009F4F089557FD9058440F551F59F05F3FA4
:1027C00071F04795880F97FB991F61F09F3F79F053
:1027D00087950895121613061406551FF2CF4695D5
:1027E000F1DF08C0161617061806991FF1CF869557
:1027F0007105610508940895E894BB27662777273B
:10280000CB0197F908950BD0C4CFB5DF28F0BADF1C
:1028100018F0952309F0A6CFABCF1124EECFCADF75
:10282000A0F3959FD1F3950F50E0551F629FF001E3
:10283000729FBB27F00DB11D639FAA27F00DB11D3C
:10284000AA1F649F6627B00DA11D661F829F2227C5
:10285000B00DA11D621F739FB00DA11D621F839F4C
:10286000A00D611D221F749F3327A00D611D231F22
:10287000849F600D211D822F762F6A2F11249F5770
:1028800050408AF0E1F088234AF0EE0FFF1FBB1F93
:10289000661F771F881F91505040A9F79E3F510532
:1028A00070F060CFAACF5F3FECF3983EDCF38695E3
:1028B00077956795B795F795E7959F5FC1F7FE2BDD
:1028C000880F911D9695879597F90895A3E1B0E03B
:1028D000ECE6F4E10C94BD197C011B016A01FC01DA
:1028E00017821682838181FF66C3BE016F5F7F4FAF
:1028F0004B01F7019381F10193FD859193FF819144
:102900001F01882309F453C3853239F493FD85915F
:1029100093FF81911F01853239F4B70190E00E9445
:10292000181C56016501E5CF10E0512C20E0203243
:10293000A0F48B3269F030F4803259F0833269F4BC
:1029400020612CC08D3239F0803339F4216026C0EB
:102950002260246023C0286021C027FD27C030EDFD
:10296000380F3A3078F426FF06C0FAE01F9F300D8A
:102970001124132F13C06AE0569E300D1124532EDC
:1029800020620CC08E3221F426FD11C3206406C0E3
:102990008C3611F4206802C0883641F4F10193FDB1
:1029A000859193FF81911F018111C1CF9BEB980FFE
:1029B000933018F42061805E06C09BE9980F933035
:1029C00008F0AAC12F7E26FF16E02F73722E8536DF
:1029D00021F4F22FF0647F2E08C0863621F4622F96
:1029E0006068762E02C01111115077FE07C01C33AB
:1029F00048F444244394410E27E00BC0183030F4CF
:102A0000212F06C027E04CE3442E03C027E017E047
:102A1000412C560174E0A70EB11CF6016081718152
:102A200082819381042DA4010E942A1B6C010981DB
:102A300000FF02C003FF06C071FC07C072FC08C0A3
:102A4000612C08C03DE2632E05C02BE2622E02C05D
:102A500090E2692E802F8C7099F1662011F084E04D
:102A600001C083E0851510F0512C0BC0581A73FC7F
:102A700008C0B70180E290E00E94181C5A94C9F780
:102A8000F3CF662029F0B701862D90E00E94181C34
:102A900003FD03C003E615E002C00FE515E0F72DC6
:102AA000F0717F2EF8018491882309F476C27110A9
:102AB0008052B70190E00E94181C0F5F1F4FF2CFA9
:102AC00077FE0FC04C0C04FF04C08A81813309F4E7
:102AD0004A94141474F5F8E0F41578F588E0482E5B
:102AE0002CC076FC2AC0812F90E08C159D059CF0AF
:102AF0006CEFC6166FEFD60674F0772D7068772EE0
:102B00000AC0E2E0F0E0EC0FFD1FE10FF11D808153
:102B1000803319F411501111F4CF77FE0EC0442404
:102B20004394410E812F90E0C816D9062CF41C194D
:102B300004C04424439401C010E077FE07C01C1475
:102B40001D043CF496012F5F3F4F05C025E030E0A7
:102B500002C021E030E0662011F02F5F3F4F1123CB
:102B600031F0412F50E04F5F5F4F240F351F452D4F
:102B700050E02417350714F4521A01C0512C872D48
:102B8000897049F4552039F0B70180E290E00E9445
:102B9000181C5A94F7CF662029F0B701862D90E0D3
:102BA0000E94181C73FC09C0552039F0B70180E35E
:102BB00090E00E94181C5A94F7CF77FE5FC09C2DBE
:102BC0008D2DD7FE02C090E080E0692E782E40E087
:102BD00050E0C601841991099D878C8796012619BA
:102BE0003709280D391D812F90E0EE27FF27E81BBC
:102BF000F90BFF87EE87FFEF6F167F0669F4B701C9
:102C00008EE290E02B8B3A8B488B598B0E94181CDC
:102C1000598948893A892B89C614D70454F06C85A0
:102C20007D85661577052CF4F901E40FF51F818188
:102C300001C080E371E0671A71084F5F5F4FEE8556
:102C4000FF856E167F066CF0B70190E02B8B3A8BF8
:102C5000488B598B0E94181C2B893A8948895989BD
:102C6000CACF6C147D0439F49A81963318F49533E5
:102C700011F404FF81E3B70190E04BC08A818133F6
:102C800009F00F7EB70190E00E94181C111105C0D9
:102C900074FE18C085E490E017C0B7018EE290E0A2
:102CA0000E94181C82E066246394680EF401E80F09
:102CB000F11D8081B70190E00E94181C115041F372
:102CC000862DF1CF85E690E0B7010E94181CD7FC55
:102CD00005C0C114D10439F404FF05C0D194C194D6
:102CE000D1088DE201C08BE2B70190E00E94181C70
:102CF00080E36AE0C616D1042CF08F5FFAE0CF1AA9
:102D0000D108F7CFB70190E00E94181CB701C601A7
:102D1000C0960E94181C41C1833631F0833779F088
:102D2000833509F058C021C0560172E0A70EB11CCE
:102D3000F6018081898301E010E0640114C056012E
:102D4000F2E0AF0EB11CF601C080D18026FF03C0B7
:102D5000612F70E002C06FEF7FEFC6012B8B0E94E6
:102D60000D1C8C012B892F7715C05601F2E0AF0E98
:102D7000B11CF601C080D18026FF03C0612F70E036
:102D800002C06FEF7FEFC6012B8B0E94021C8C01EB
:102D90002B892068722E23FD1AC0852D90E008171C
:102DA0001907A8F4B70180E290E00E94181C5A9419
:102DB000F4CFF60177FC859177FE81916F01B70121
:102DC00090E00E94181C51105A94015011090115ED
:102DD000110579F7E2C0843611F0893651F55601B4
:102DE00027FF09C0F4E0AF0EB11CF60160817181CC
:102DF000828193810AC0F2E0AF0EB11CF6016081BE
:102E00007181882777FD8095982F022F0F7697FF85
:102E100008C090958095709561957F4F8F4F9F4F1B
:102E200000682AE030E0A4010E945E1CC82EC81889
:102E30003EC0022F853721F40F7E2AE030E01DC00E
:102E4000097F8F3691F018F4883559F0B0C080377B
:102E500019F0883711F0ABC0006104FF09C00460AD
:102E600007C024FF08C0066006C028E030E005C0A7
:102E700020E130E002C020E132E0560107FF09C046
:102E8000F4E0AF0EB11CF601608171818281938103
:102E900008C0F2E0AF0EB11CF6016081718180E0E4
:102EA00090E0A4010E945E1CC82EC8180F7706FF90
:102EB0000BC0202F2E7FC11650F404FF0AC002FD64
:102EC00008C0202F2E7E05C0DC2C202F03C0DC2C58
:102ED00001C0D12E24FF0DC0FE01EC0DF11D80813B
:102EE000803311F4297E09C022FF06C0D394D39405
:102EF00004C0822F867809F0D39423FD13C020FFED
:102F000006C01C2DD51418F4150D1D19D52CD5147B
:102F100068F4B70180E290E02B8B0E94181CD394D8
:102F20002B89F5CFD51410F45D1801C0512C24FF66
:102F300012C0B70180E390E02B8B0E94181C2B89F4
:102F400022FF17C021FF03C088E590E002C088E798
:102F500090E0B7010CC0822F867859F021FD02C0A5
:102F600080E201C08BE227FD8DE2B70190E00E9474
:102F7000181CC11638F4B70180E390E00E94181CB9
:102F80001150F7CFCA94F401EC0DF11D8081B70107
:102F900090E00E94181CC110F5CF552009F4C2CC56
:102FA000B70180E290E00E94181C5A94F6CFF70116
:102FB0008681978102C08FEF9FEF6396E2E10C94C8
:102FC000D91900DCA8F19E57A8F1985160F039F1A9
:102FD000983070F5092E9927660F771F881F991F63
:102FE0000A94D1F71CC0BB27993F4CF4B111B1E052
:102FF000B62B672F782F8827985FB1F708C0869582
:1030000077956795B79508F4B1609395C1F7BB0FB5
:1030100030F411F460FF03C06F5F7F4F8F4F3EF4B9
:1030200090958095709561957F4F8F4F9F4F089534
:103030006894E3CBE1CBFA01EE0FFF1F3096210538
:10304000310599F16115710561F48038BFE39B0783
:1030500049F168949038810561F08038BFEF9B0793
:1030600041F0992342F5FF3FE1053105210511F1BA
:10307000E8940894E795D901AA2329F4AB2FBE2F31
:10308000F85FD0F310C0FF5F70F4A695E0F7F73952
:1030900050F019F0FF3A38F49F779F930CD00F90BF
:1030A00007FC905808953EF063CB60E070E080E844
:1030B0009FE308954FE79F775F934F933F932F933D
:1030C0009ED02F913F914F915F919DDB05C019F4E8
:1030D0000EF048CB91CB4CCB75DBC8F39638C0F7DC
:1030E00007F80F92E8942BE33AEA48EB5FE799DBA5
:1030F0000F920F920F924DB75EB70F92C0D0E8ECCF
:10310000F0E016D04F915F91EF91FF91E595EE1FA2
:10311000FF1F49F0FE57E0684427EE0F441FFA9561
:10312000E1F74195550B32D00F9007FE26C0089568
:10313000DF93CF931F930F93FF92EF92DF927B0168
:103140008C01689405C0DA2EEF0169DBFE01E8947A
:10315000A5912591359145915591AEF3EF010ADA8C
:10316000FE019701A801DA9479F7DF90EF90FF90C4
:103170000F911F91CF91DF9108959B01AC0160E009
:1031800070E080E89FE349CAEDCAACC01BDBE8F3FE
:103190009923D9F3940F511DBBF39150504094F0F3
:1031A00059F0882332F0660F771F881F91505040E6
:1031B000C1F79E3F510544F7880F911D969587955D
:1031C00097F908955F3FACF0983E9CF0BB27869539
:1031D00077956795B79508F4B1609395C1F7BB0FE4
:1031E00058F711F460FFE8CF6F5F7F4F8F4F9F4F0D
:1031F000E3CF03CB0EF076C0BBCA6894B3CAE2DA61
:10320000C8F39923D1F3C6F3DF93CF931F930F93A2
:10321000FF92C92FDD2788232AF02197660F771F99
:10322000881FDAF720E030E040E85FEB9FE3883961
:1032300020F0803E30F021968F778BD9E0EFF0E0E0
:1032400003C087D9EDE1F1E073DF8B01BE01EC0132
:10325000FB2E6F5771097595771F880B990B47DA0D
:1032600028E132E741E35FE3DADAAF2D9801AE01FE
:10327000FF900F911F91CF91DF917CD98ACAFA01FB
:10328000DC01AA0FBB1F9B01AC01BF5728F422270A
:103290003327442750781FC0B75188F4AB2F002440
:1032A000469537952795011CA395D2F3002069F028
:1032B000220F331F441FB395DAF30DD049C9613093
:1032C0007105A0E88A07B94630F49B01AC01662776
:1032D000772788279078309621F0208331834283A6
:1032E000538308959F3F31F0915020F4879577954F
:1032F0006795B795880F911D9695879597F90895CD
:10330000DB018F939F930E94B219BF91AF91A29F4F
:10331000800D911DA39F900DB29F900D11240895D3
:10332000A1E21A2EAA1BBB1BFD010DC0AA1FBB1FC9
:10333000EE1FFF1FA217B307E407F50720F0A21B3B
:10334000B30BE40BF50B661F771F881F991F1A94A8
:1033500069F760957095809590959B01AC01BD01D2
:10336000CF0108950E94F419A59F900DB49F900D70
:10337000A49F800D911D112408952F923F924F928A
:103380005F926F927F928F929F92AF92BF92CF92F5
:10339000DF92EF92FF920F931F93CF93DF93CDB7FE
:1033A000DEB7CA1BDB0B0FB6F894DEBF0FBECDBF76
:1033B00009942A88398848885F846E847D848C8447
:1033C0009B84AA84B984C884DF80EE80FD800C8150
:1033D0001B81AA81B981CE0FD11D0FB6F894DEBF33
:1033E0000FBECDBFED010895A29FB001B39FC001F4
:1033F000A39F700D811D1124911DB29F700D811D21
:103400001124911D0895CF93DF938230910510F41C
:1034100082E090E0E0916E02F0916F0220E030E0F7
:10342000A0E0B0E0309739F1408151814817590749
:10343000B8F04817590771F482819381109729F0E9
:1034400013969C938E9312972CC090936F02809347
:103450006E0227C02115310531F04217530718F0CD
:10346000A901DB0101C0EF019A01BD01DF0102806A
:10347000F381E02DD7CF21153105F9F0281B390B49
:103480002430310580F48A819B816115710521F01A
:10349000FB019383828304C090936F0280936E023A
:1034A000FE01329644C0FE01E20FF31F8193919317
:1034B00022503109398328833AC020916C0230911F
:1034C0006D02232B41F420911F0130912001309394
:1034D0006D0220936C0220911D0130911E01211577
:1034E000310541F42DB73EB74091210150912201A1
:1034F000241B350BE0916C02F0916D02E217F3078B
:10350000A0F42E1B3F0B2817390778F0AC014E5F53
:103510005F4F2417350748F04E0F5F1F50936D0221
:1035200040936C028193919302C0E0E0F0E0CF0100
:10353000DF91CF910895CF93DF93009709F487C06F
:10354000FC01329713821282C0916E02D0916F02F9
:10355000209781F420813181280F391F80916C02DE
:1035600090916D028217930779F5F0936D02E093C5
:103570006C026DC0DE0120E030E0AE17BF0750F4F2
:1035800012964D915C9113979D014115510509F1DA
:10359000DA01F3CFB383A28340815181840F951F59
:1035A0008A179B0771F48D919C911197840F951F39
:1035B00002969183808312968D919C9113979383A9
:1035C00082832115310529F4F0936F02E0936E0296
:1035D0003EC0D9011396FC93EE9312974D915D91E5
:1035E000A40FB51FEA17FB0779F480819181840F3E
:1035F000951F0296D90111969C938E938281938197
:1036000013969C938E931297E0E0F0E08A819B8161
:10361000009719F0FE01EC01F9CFCE010296288146
:103620003981820F931F20916C0230916D0228170F
:10363000390769F4309729F410926F0210926E02E4
:1036400002C013821282D0936D02C0936C02DF918C
:10365000CF910895283008F027E03327DA01990F39
:10366000311D87FD916000966105710539F4326066
:103670002E5F3D9330E32A95E1F708959F3F30F0A8
:1036800080387105610509F03C5F3C5F3D939130E6
:1036900008F08068911DDF93CF931F930F93FF92E3
:1036A000EF92192F987F9695E92F96959695E90FA9
:1036B000FF27EF53FA4F99273327EE24FF24A70162
:1036C000E70105900894079428F4360FE71EF81ECA
:1036D000491F511D660F771F881F991F0694A1F778
:1036E0000590079428F4E70EF81E491F561FC11DC8
:1036F000770F881F991F661F0694A1F705900794FE
:1037000028F4F80E491F561FC71FD11D880F991F97
:10371000661F771F0694A1F70590079420F4490FC0
:10372000561FC71FD81F990F661F771F881F069443
:10373000A9F784911095177041F0D695C7955795C4
:103740004795F794E7941A95C1F7E7E6F5E0689492
:103750001590159135916591959105907FE273953E
:10376000E118F10A430B560BC90BD009C0F7E10C65
:10377000F11E431F561FC91FD01D7EF4703311F474
:103780008A95E6CFE894015030F0080F0AF400273C
:10379000021708F4202F2395022F7A3328F079E3BB
:1037A0007D932A95E9F710C07D932A9589F60694B2
:1037B00097956795379517951794E118F10A430B7C
:1037C000560BC90BD00998F023957E9173957A33E7
:1037D00008F070E37C932013B8F77E9170617D93BD
:1037E00030F0839571E37D9370E32A95E1F711241E
:1037F000EF90FF900F911F91CF91DF91992787FD57
:1038000090950895FC010590615070400110D8F723
:10381000809590958E0F9F1F0895FC016150704018
:1038200001900110D8F7809590958E0F9F1F0895F5
:103830000F931F93CF93DF93182F092FEB018B81E9
:1038400081FD03C08FEF9FEF20C082FF10C04E812B
:103850005F812C813D81421753077CF4E881F98117
:103860009F012F5F3F4F39832883108306C0E8856F
:10387000F985812F0995892B29F72E813F812F5FAB
:103880003F4F3F832E83812F902FDF91CF911F9148
:103890000F910895A0E0B0E0E0E5FCE10C94CD19B3
:1038A000FE01359661917191AF0180917202909104
:1038B00073020E946614E2E00C94E919FA01AA2747
:1038C000283051F1203181F1E8946F936E7F6E5F63
:1038D0007F4F8F4F9F4FAF4FB1E03ED0B4E03CD011
:1038E000670F781F891F9A1FA11D680F791F8A1FF4
:1038F000911DA11D6A0F711D811D911DA11D20D05B
:1039000009F468943F912AE0269F11243019305D14
:103910003193DEF6CF010895462F4770405D419305
:10392000B3E00FD0C9F7F6CF462F4F70405D4A3352
:1039300018F0495D31FD4052419302D0A9F7EACF1A
:10394000B4E0A6959795879577956795BA95C9F749
:1039500000976105710508959B01AC010A2E06943C
:103960005795479537952795BA95C9F7620F731FF5
:0C397000841F951FA01D0895F894FFCF40
:10397C001F010101100804000000020000000023D8
:10398C000A00000000180C0410C0802060000076B3
:10399C0002200053657474696E672075702E2E2E8C
:1039AC00004572726F72207768656E206F70656E5D
:1039BC00696E6720415454494E5921000A52656181
:1039CC00647921005357333A204B696473000A53CE
:1039DC0057343A2052616E646F6D73000A53573539
:1039EC003A20476F20746F20676F616C0025660A60
:0439FC00256600003C
:00000001FF
