S01000006C61623364656D6F2E737265630D
S11300000C9457030C9474030C9474030C947403AD
S11300100C94B00C0C94D90C0C94020D0C942B0D74
S11300200C9474030C94910B0C94BA0B0C94E30B86
S11300300C945E0C0C940C0C0C94350C0C94870CE6
S11300400C94160B0C943F0B0C94680B0C947403D7
S11300500C9474030C9474030C9474030C94740340
S11300600C9474030C9474030C9474030C94740330
S11300700C9474030C9474030C947403084AD73BD3
S11300803BCE016E84BCBFFDC12F3D6C74319ABD63
S113009056833DDA3D00C77F11BED9E4BB4C3E9187
S11300A06BAAAABE000000803F05A84CCDB2D44E76
S11300B0B93836A9020C50B9918688083CA6AAAA78
S11300C02ABE000000803F007F0982098509880953
S11300D091098B098E09940997099A099D09A00928
S11300E0A309A609A909AC09AF09B209B509C6094A
S11300F0C909CC09CF09D809D209D509DB09DE0918
S1130100E109E409E709EA09ED09F009F309F60947
S1130110F909FC0907634236B79BD8A71A39685610
S113012018AEBAAB558C1D3CB7CC5763BD6DEDFD15
S1130130753EF6177231BF000000803F08000000D2
S1130140BE922449123EABAAAA2ABECDCCCC4C3EC8
S113015000000080BEABAAAAAA3E00000000BF00B7
S11301600000803F0000000000084178D3BB4387B3
S1130170D1133D190E3CC3BD4282AD2B3E68EC82C7
S113018076BED98FE1A93E4C80EFFFBE01C4FF7F4C
S11301903F00000000001605010000000000000000
S11301A0FA000000E000E00028FE28FE282454FEA7
S11301B05448C4C81026466C92AA44A000A0C000AB
S11301C0000038448200008244380028107C102843
S11301D010107C1010000A0C0000101010101000F9
S11301E00606000004081020407C8A92A27C00428B
S11301F0FE020042868A92628482A2D28C18284827
S1130200FE08E4A2A2A29C3C5292920C808E90A082
S1130210C06C9292926C6092929478006C6C000024
S1130220006A6C000010284482002828282828002E
S11302308244281040808A90604C929E827C7E8802
S113024088887EFE9292926C7C82828244FE8282B4
S11302504438FE92929282FE909090807C82929298
S11302605EFE101010FE0082FE8200040282FC80FA
S1130270FE10284482FE02020202FE403040FEFECE
S1130280201008FE7C8282827CFE909090607C82AA
S11302908A847AFE90989462629292928C8080FE14
S11302A08080FC020202FCF8040204F8FC021C0236
S11302B0FCC6281028C6E0100E10E0868A92A2C25E
S11302C000FE8282004020100804008282FE00208A
S11302D04080402002020202020080402000042AE2
S11302E02A2A1EFE1222221C1C222222041C222242
S11302F012FE1C2A2A2A18107E908040304A4A4A4C
S11303007CFE1020201E0022BE0200040222BC003B
S1130310FE081422000082FE02003E2018201E3E29
S11303201020201E1C2222221C3E282828101028BF
S113033028183E3E10202010122A2A2A0420FC22CB
S113034002043C0202043E38040204383C020C025B
S11303503C2214081422300A0A0A3C22262A322299
S113036000106C82000000FE000000826C10000887
S11303701010081000000000007F8181817F7F83BE
S113038083837F7F8787877F7F8F8F8F7F7F9F9FE9
S11303909F7F7FBFBFBF7F7FFFFFFF7F2040FF4066
S11303A020621517156500FBFB000000000000002B
S11303B0C0FF0300E0FF0700F0FF0F00F8FF1F007D
S11303C078001E0078001E0078001E0078001E00D1
S11303D078001E0078001E0078001E0078001E00C1
S11303E078001E00000000000000000080FF0300F1
S11303F0E0FF0700F0FF0F00F8FF1F00F83C1F00AC
S1130400783C1E00783C1E00783C1E00783C1E00A0
S1130410783C1E00783C1E00783C1E00783C1E0090
S1130420783C1E00783C1E00000000000000000024
S1130430E0FF0300F0FF0700F8FF0F00F8FF1F00C4
S1130440783C1E00783C1E00783C1E00783C1E0060
S1130450783C1E00783C1E00783C1E00783C1E0050
S1130460783C1E00783C1E000000000000000000E4
S1130470F8FF0300F8FF0F00F8FF1F00F8FF1F004C
S113048000001E0000001E0000801F0000F01F007E
S113049000FF0F00E0FF0700F0FF0000F80F00006E
S11304A0F80000007800000078000000F8FF1F004A
S11304B0F8FF1F00F0FF1F00E0FF1F000000000016
S11304C000000000F8FF1F00F8FF1F00F8FF1F00E6
S11304D0F8FF1F0078001E00783C1E00783C1E00C8
S11304E0783C1E00783C1E00783C1E00783C1E00C0
S11304F0F87E1F00F8FF1F00F0FF0F00E0E7030085
S11305000000000000003800EEFF6C002A80450067
S11305103A0047FC03FF6CFC83FF3900DEFF0B7CD1
S1130520D0810BFCD0810BC0D0810BFCD0810B7C23
S1130530DEFF0B0082FF397002FF6CF83A0047DCE3
S11305402A8045CCEEFF6CCC000038000000000C83
S113055000001E0C00001E0000001E0000001E0013
S113056000001E00F8FF1F00F8FF1F00F8FF1F0027
S1130570F8FF1F0000001E0000001E0000001E0007
S113058000001E0000005E000000400000007C002F
S1130590000040000000400000007C00000030002B
S11305A0000010000000300000007C6E616E0069E5
S11305B06E660000407A10F35A00A0724E180900CB
S11305C010A5D4E80000E87648170000E40B5402B4
S11305D00000CA9A3B000000E1F5050000809698EF
S11305E000000040420F000000A08601000000103F
S11305F02700000000E80300000000640000000081
S1130600000A00000000000100000000002C76D861
S113061088DC674F0823DFC1DFAE59E1B1B796E547
S1130620E3E453C63AE651997696E8E6C28426EBAB
S1130630898C9B62ED407C6FFCEFBC9C9F40F2BABE
S1130640A56FA5F490055A2AF75C936B6CF9676D56
S1130650C11BFCE0E40D47FEF520E6B500D0ED90AB
S11306602E0300943577050080841E080000204E78
S11306700A000000C80C333333330F986E12831111
S113068041EF8D2114893BE65516CFFEE6DB18D1E8
S1130690844B381BF77C1D901DA4BBE424203284BA
S11306A0725E228100C9F124ECA1E53D27001124EA
S11306B01FBECFEFD8E0DEBFCDBF11E0A0E0B1E0B8
S11306C0E8E7F8E402C005900D92A638B107D9F71F
S11306D022E0A6E8B1E001C01D92AA37B207E1F713
S11306E00E94E3030C943A240C9400008FE00E94CF
S11306F07009882331F40E94FB0A8FE061E00E94B4
S1130700B8098FE091E008958FE00E94700981306C
S113071019F020E030E013C080917A008064809367
S11307207A0080917A0086FDFCCF30917800209188
S11307307900922F80E0232F30E0282B392BC90138
S11307400895582F809100018830D8F440917E009C
S113075021E030E0B90102C0660F771F8A95E2F705
S1130760CB018095842380937E0080917E00052EAA
S113077002C0220F331F0A94E2F7822B80937E007B
S11307800DC020917E0081E090E0052E02C0880F0C
S1130790991F0A94E2F7282B20937E0050930001BE
S11307A080917C005F71807E852B80937C0008950E
S11307B0ECE7F0E090818295880F880F807C9F732E
S11307C0982B908308950E94140B0E94060B0E949C
S11307D0FA1880E090E008950F931F9380E460E09E
S11307E00E94CB0400E0802F60E00E94B20410E07D
S11307F080E061E00E94CB041F5F1038C9F70F5FEF
S1130800043089F783E060E00E94AB041F910F91EC
S113081008950F931F9382E00E947009882311F4B6
S113082082E006C081E00E947009882319F481E007
S113083090E06DC00E947C0D85E061E00E94B809E3
S11308408EEA60E00E94CB0482EA60E00E94CB045E
S113085080EA60E00E94CB0400E513ECC801019734
S1130860F1F780EC60E00E94CB048FE260E00E942C
S1130870CB0481E860E00E94CB0486E160E00E9442
S1130880CB0482E260E00E94CB04C8010197F1F737
S11308908FEA60E00E94CB0486EA60E00E94CB0409
S11308A085EA60E00E94CB0480E090E028E833E130
S11308B0F9013197F1F7019643E0883E9407C1F7B7
S11308C083EB60E00E94CB0480E460E00E94CB04F0
S11308D083E060E00E94B20483E060E00E94AB0425
S11308E010921202109214021092130287E091E007
S11308F0909377028093760288E10E948A040E9492
S1130900EC0384EA60E00E94CB0485E091E01F914F
S11309100F9108951F93182F85E00E94700981306C
S1130920C1F487E00E94E60482E06AE00E94370591
S113093082E061EB0E943705612F113208F060E21A
S113094082E00E94370589EE8A95F1F787E00E94DC
S1130950E6041F91089583706F776093100280936B
S1130960110208950F931F93062F162F1F7783707C
S1130970806B60E00E94CB0412951F70812F806110
S113098060E00E94CB04802F8F7060E00E94CB0453
S11309901F910F9108950F931F93082F162F85E031
S11309A00E947009813079F4112319F0113021F477
S11309B002C02B9801C02B9A86E08A95F1F780E05B
S11309C0602F0E9437051F910F9108951F93182FD0
S11309D082E00E947009813009F047C0912F97701E
S11309E080911502981709F440C09093150285B1BF
S11309F0887F892B85B9933011F1943028F4913094
S1130A0051F0923090F40CC0953019F19530E0F02B
S1130A10963021F50FC0E091D801F091D90122C0A0
S1130A20E091D601F091D7011DC0E091DA01F09177
S1130A30DB0118C0E091E201F091E30113C0E09101
S1130A40DC01F091DD010EC0E091DE01F091DF01E7
S1130A5009C0E091E001F091E10104C0E091E401FA
S1130A60F091E501309709F009951F9108951F93BE
S1130A70162F0E94E60482E00E947009813021F45E
S1130A801EBD0DB407FEFDCF1F9108950F931F9354
S1130A90CF93DF9380E291E00E9481219C019093A7
S1130AA0F5018093F401892B11F480E039C08901A8
S1130AB0C0E0D0E0BE0180E090E00E94781A20E01F
S1130AC030E040EA51E40E94101A27EF35E740E095
S1130AD05FE30E94931B9B01AC0160E070E080E245
S1130AE091E40E94D31F9B01AC01CA01B9012DEC12
S1130AF03CEC42E851E40E94931B0E94991F2AE0B7
S1130B0030E040E050E00E94FE20F80161937193D0
S1130B10819391938F012196C834D10559F681E0D0
S1130B20DF91CF911F910F9108958AE00E9470097F
S1130B30882371F41092F1011092F00181E00E9477
S1130B40660F81E08093E7018AE061E00E94B809C2
S1130B508AE091E008951F938BE00E947009882336
S1130B6011F090E021C089E00E9470098823D9F433
S1130B700E944605182F8130B1F41092E8011092BA
S1130B80E9011092EA011092EB018DE062ED7EE042
S1130B900E94540D82E00E94660F1093E60189E0E2
S1130BA061E00E94B80991E089E01F9108958130C5
S1130BB029F0823031F090E089E008950E94950593
S1130BC008950E94AB0508958F929F92AF92BF92B1
S1130BD0CF92DF92EF92FF920F931F93CF93DF9305
S1130BE04B015C01EA01B9012115310539F19E017E
S1130BF0442737FD4095542F6536710510F064E69F
S1130C0070E080E090E00E94FE2024E630E040E0C6
S1130C1050E00E940E2179018A01C501B4010E94AD
S1130C20D50EC7010E949C0A60E070E080E090E06D
S1130C300E94D50ECE018E199F0904C0411551059D
S1130C4019F0CA010E949C0ADF91CF911F910F9164
S1130C50FF90EF90DF90CF90BF90AF909F908F90D8
S1130C6008952F923F924F925F926F927F928F924C
S1130C709F92AF92BF92CF92DF92EF92FF920F9327
S1130C801F93DF93CF93CDB7DEB7582E962E442E05
S1130C9039013C2CC98CDA8C2B8C81E0681739F132
S1130CA0681728F092E0691709F085C049C080E010
S1130CB061E00E943A0880E0B7010E94030880E0E6
S1130CC0642DA3019801032DEE24E394EDE4CE2ECC
S1130CD0E2E0DE2E0E947108552009F06CC000D0BD
S1130CE00F92EDB7FEB71182B382A28223C081E0D6
S1130CF061E00E943A0881E0B6010E94030881E0A5
S1130D00682D4D895E892F89388D022DEE24E39458
S1130D107DE4C72E72E0D72E0E947108552009F099
S1130D204AC000D00F92EDB7FEB791828C8D9D8D95
S1130D30938382830E9422090F900F900F903BC0EF
S1130D4082E061E00E943A0880E0B7010E94030853
S1130D5081E0B6010E94030880E0642DA30198019C
S1130D60032DEE24E3949DE4C92E92E0D92E0E9433
S1130D70710881E0682D4D895E892F89388D022D97
S1130D800E9471085520B9F400D000D00F92ADB77D
S1130D90BEB71196EDB7FEB79182FD01B282A18272
S1130DA08C8D9D8D948383830E9422090F900F90D4
S1130DB00F900F900F90CF91DF911F910F91FF90A3
S1130DC0EF90DF90CF90BF90AF909F908F907F90E7
S1130DD06F905F904F903F902F9008956F927F9205
S1130DE08F929F92AF92BF92CF92DF92EF92FF9237
S1130DF00F931F93DF93CF93CDB7DEB7942E7C2D43
S1130E00D50149895A89AB88BC88CD88DE889F89F9
S1130E10813009F457C08130B8F1823009F076C0CE
S1130E20613091F0613020F0623009F06FC015C07C
S1130E3080E060E00E943A0880E0B7010E94030865
S1130E4080E0692DA8011DC081E060E00E943A089D
S1130E5081E0B6010E94030811C082E060E00E94B4
S1130E603A0880E0B7010E94030881E0B6010E94BD
S1130E70030880E0692DA8010E94EC0781E0682D39
S1130E80A5010E94EC0742C0EDB7FEB739970FB633
S1130E90F894FEBF0FBEEDBF6DB67EB60894611C1C
S1130EA0711C52834183F301B382A282D582C4822E
S1130EB09683888D998D9087878380E0492DC72EEE
S1130EC05D011AC0EDB7FEB739970FB6F894FEBFAF
S1130ED00FBEEDBFADB7BEB7119652834183FD017E
S1130EE0B382A282D582C48296831086178281E05F
S1130EF0492DC72EAA24BB240E9431068DB79EB764
S1130F0009960FB6F8949EBF0FBE8DBFCF91DF91A7
S1130F101F910F91FF90EF90DF90CF90BF90AF9013
S1130F209F908F907F906F9008950E94AB0F81E007
S1130F3080934C02E6E1F2E0119211921182108248
S1130F403296118210823296118210823296118268
S1130F501082329611821082329611821082329659
S1130F60118210823296118210823296118210827E
S1130F703296118210823296118210823296118238
S1130F801082369611921192119210823296119219
S1130F901192119211921192119211921182108256
S1130FA03296118210823296118210823296118208
S1130FB010827697118210823296118210821092DA
S1130FC04B0210924A0210924C0287E061E00E94A8
S1130FD0B80987E091E00895EF92FF920F931F9371
S1130FE0182F062F7A0160E00E943A08812F602FA3
S1130FF00E942508812FB7010E944F081F910F916D
S1131000FF90EF900895482F81E080934C02CB012C
S113101023E0693E720710F088EE93E0413071F0EE
S1131020413018F0423071F405C09093210280934E
S1131030200208C0909321028093200290932302FF
S11310408093220210924C020895982F81E080939D
S11310504C02913051F0913018F0923041F403C0B9
S11310606093390204C06093390260933A0210928B
S11310704C020895982F81E080934C02913051F0F6
S1131080913018F0923041F403C06093160204C00A
S1131090609316026093170210924C020895482F31
S11310A081E080934C02CB0121E06139720710F09A
S11310B080E991E0413071F0413018F0423071F430
S11310C005C0909319028093180208C090931902E6
S11310D08093180290931B0280931A0210924C0280
S11310E008958F929F92AF92BF92CF92DF92EF9228
S11310F0FF920F931F93CF93DF93182FF62E5A016D
S11311004901E60161E00E943A08812FB501A4017A
S11311100E94E50F812F6F2D0E942508812F602FDB
S11311200E94D00F812FB5010E94B50FC114D104C4
S113113099F0113049F0113018F0123069F406C0FA
S113114018821092480208C0198204C018821982B9
S11311501092480210924902D0934B02C0934A0263
S1131160EE20B9F586E891E090934B0280934A0211
S1131170812FB4010E944F08812F0E94960F1130D5
S113118071F0113018F0123059F512C01092860126
S113119010924802809186018823E1F321C01092C5
S11311A0870110924902809187018823E1F318C0D6
S11311B010928601109287011092480210924902FF
S11311C0809186018823E1F3809187018823C1F30C
S11311D007C0812FB4010E944F08812F0E94960FEF
S11311E0DF91CF911F910F91FF90EF90DF90CF90FF
S11311F0BF90AF909F908F9008950F931F93182FD7
S1131200062F662349F460E070E00E944F08812FA6
S113121060E070E00E94B50F81E080934C021130D1
S113122051F0113018F0123041F403C0009334022D
S113123004C0009334020093350210924C021F91B3
S11312400F910895CF92DF92EF92FF920F931F9325
S1131250DF93CF93CDB7DEB78B85813061F08130DA
S113126018F08230A1F511C0EC85FD8580914D0206
S11312708823E1F306C0EC85FD8580914E02882326
S1131280E1F3309721F1099522C0CC84DD84EE840A
S1131290FF8400E010E0002351F480914D02882384
S11312A031F0C114D10411F0F601099501E01123C4
S11312B051F480914E02882331F0E114F10411F0CD
S11312C0F701099511E0002331F3112321F3CF91A4
S11312D0DF911F910F91FF90EF90DF90CF900895D1
S11312E0E82FF0E0E331F10540F4EC59FF4FEE0F45
S11312F0FF1F0590F491E02D099480E008958091FA
S1131300FD0108958091FE0108958091FF010895E3
S11313108091000208958091010208958091030252
S113132008958091020208958091040208958091A5
S11313300502089580910602089580910702089598
S113134080910802089580910902089580910A020B
S1131350089580910B02089580910C020895809164
S11313600D02089580910E02089580910F02089550
S1131370E82FF0E0E331F10508F040C0E958FF4FF1
S1131380EE0FFF1F0590F491E02D09946093FD0189
S113139008956093FE0108956093FF01089560939A
S11313A00002089560930102089560930302089572
S11313B06093020208956093040208956093050205
S11313C00895609306020895609307020895609358
S11313D00802089560930902089560930A0208952B
S11313E060930B02089560930C02089560930D02BC
S11313F0089560930E02089560930D0208951F935B
S1131400CF93DF93182F80918901882341F0809135
S11314109301882399F010928901109293010E94FC
S11314204510809388018DE891E061E040E022E37B
S113143030E00E94BD0A81E0809389019091880187
S1131440A12FB0E0ED01CF5FDE4F8881882369F0E2
S1131450FD01EC5FFE4F80819823C1F0FD01E6574A
S1131460FE4F81E08083188211C0FD01E657FE4FD4
S1131470808181111082FD01EC5FFE4F80819823F1
S113148029F4FD01EF5FFE4F81E08083A657BE4F34
S11314908C91DF91CF911F91089582E00E94700991
S11314A0882319F490E082E0089510926402109267
S11314B06302109266021092650210926802109202
S11314C0670210926A021092690210926C021092E2
S11314D06B0280E991E09093500280934F029093C5
S11314E0520280935102909354028093530290933A
S11314F0560280935502909358028093570284E3D6
S113150098E090935A028093590290935C028093DE
S11315105B0290935E0280935D02909360028093DD
S11315205F02909362028093610281E061E00E9415
S1131530B80991E081E00895DF93CF93CDB7DEB78A
S113154029970FB6F894DEBF0FBECDBF9C01CE0124
S1131550019661E040E00E94BD0A982F882319F4A7
S11315608F818823E9F3892F29960FB6F894DEBF7B
S11315700FBECDBFCF91DF910895EF92FF920F93ED
S11315801F93CF93DF93EC01F62EE42E890188E0BC
S11315900E947009813011F081E026C084E090E05F
S11315A00E948121FC01009711F482E01DC0F982A0
S11315B0F0FC1E8281E0E81619F489818460898335
S11315C08981886089831B830A831D830C83D1836B
S11315D0C0831382128281E08093F601CF010E94BE
S11315E076101092F60180E0DF91CF911F910F9158
S11315F0FF90EF9008958FE180937C00EAE7F0E09C
S113160087E0808380818068808308950E9422100F
S11316100E942B0E0E94680D0E94DF100E94900E03
S11316200E944D0A78940895000008951F920F9225
S11316300FB60F9211242F933F934F935F936F93A1
S11316407F938F939F93AF93BF93EF93FF93E09117
S1131650B601F091B701309709F00995FF91EF9128
S1131660BF91AF919F918F917F916F915F914F91B6
S11316703F912F910F900FBE0F901F9018951F92BE
S11316800F920FB60F9211242F933F934F935F93B2
S11316906F937F938F939F93AF93BF93EF93FF9336
S11316A0E091B801F091B901309709F00995FF91E3
S11316B0EF91BF91AF919F918F917F916F915F91C6
S11316C04F913F912F910F900FBE0F901F9018953F
S11316D01F920F920FB60F9211242F933F934F93A3
S11316E05F936F937F938F939F93AF93BF93EF9386
S11316F0FF93E091BA01F091BB01309709F009958D
S1131700FF91EF91BF91AF919F918F917F916F91D5
S11317105F914F913F912F910F900FBE0F901F90AB
S113172018951F920F920FB60F9211242F933F9387
S11317304F935F936F937F938F939F93AF93BF93D5
S1131740EF93FF93E091A801F091A901309709F07C
S11317500995FF91EF91BF91AF919F918F917F91E7
S11317606F915F914F913F912F910F900FBE0F900A
S11317701F9018951F920F920FB60F9211242F935A
S11317803F934F935F936F937F938F939F93AF9305
S1131790BF93EF93FF93E091AA01F091AB013097CF
S11317A009F00995FF91EF91BF91AF919F918F91AE
S11317B07F916F915F914F913F912F910F900FBE49
S11317C00F901F9018951F920F920FB60F9211242D
S11317D02F933F934F935F936F937F938F939F9335
S11317E0AF93BF93EF93FF93E091AC01F091AD0100
S11317F0309709F00995FF91EF91BF91AF919F91B7
S11318008F917F916F915F914F913F912F910F90A5
S11318100FBE0F901F9018951F920F920FB60F9244
S113182011242F933F934F935F936F937F938F93E1
S11318309F93AF93BF93EF93FF93E091B001F09127
S1131840B101309709F00995FF91EF91BF91AF91E4
S11318509F918F917F916F915F914F913F912F91C4
S11318600F900FBE0F901F9018951F920F920FB6F6
S11318700F9211242F933F934F935F936F937F9312
S11318808F939F93AF93BF93EF93FF93E091B20134
S1131890F091B301309709F00995FF91EF91BF9151
S11318A0AF919F918F917F916F915F914F913F91F4
S11318B02F910F900FBE0F901F9018951F920F92AB
S11318C00FB60F9211242F933F934F935F936F930F
S11318D07F938F939F93AF93BF93EF93FF93E09185
S11318E0AE01F091AF01309709F00995FF91EF91A6
S11318F0BF91AF919F918F917F916F915F914F9124
S11319003F912F910F900FBE0F901F9018951F922B
S11319100F920FB60F9211242F933F934F935F931F
S11319206F937F938F939F93AF93BF93EF93FF93A3
S1131930E091B401F091B501309709F00995FF9158
S1131940EF91BF91AF919F918F917F916F915F9133
S11319504F913F912F910F900FBE0F901F901895AC
S11319601F920F920FB60F9211242F933F934F9310
S11319705F936F937F938F939F93AF93BF93EF93F3
S1131980FF93E0919E01F0919F01309709F0099532
S1131990FF91EF91BF91AF919F918F917F916F9143
S11319A05F914F913F912F910F900FBE0F901F9019
S11319B018951F920F920FB60F9211242F933F93F5
S11319C04F935F936F937F938F939F93AF93BF9343
S11319D0EF93FF93E091A001F091A101309709F0FA
S11319E00995FF91EF91BF91AF919F918F917F9155
S11319F06F915F914F913F912F910F900FBE0F9078
S1131A001F9018951F920F920FB60F9211242F93C7
S1131A103F934F935F936F937F938F939F93AF9372
S1131A20BF93EF93FF93E091A201F091A30130974C
S1131A3009F00995FF91EF91BF91AF919F918F911B
S1131A407F916F915F914F913F912F910F900FBEB6
S1131A500F901F9018951F920F920FB60F9211249A
S1131A602F933F934F935F936F937F938F939F93A2
S1131A70AF93BF93EF93FF93E091A401F091A5017D
S1131A80309709F00995FF91EF91BF91AF919F9124
S1131A908F917F916F915F914F913F912F910F9013
S1131AA00FBE0F901F901895E82F803268F4805174
S1131AB0833050F0F0E0EE0FFF1FEA56FE4F208116
S1131AC031817183608302C020E030E0C901089550
S1131AD080E10E947009882361F4E6E9F1E0119243
S1131AE0119281E0E63DF807D1F780E161E00E94C0
S1131AF0B80980E191E00895239A0895FF920F9325
S1131B001F93CF93DF93F82E8AE0F816B1F08F1568
S1131B1048F0E8E0FE16B9F1EF1538F1F7E0FF16EA
S1131B2051F43BC08DE0F81659F0EBE1FE1689F054
S1131B30FCE0FF1641F001E041C01092100203C026
S1131B40109210023AC080911102815080931102C8
S1131B5034C00E94EC0314C080E061E00E94CB0416
S1131B60809110028F5F809310028091100287FF92
S1131B70F3CF1092100280911102815080931102D0
S1131B8000E011E01CC0809110028823B1F0809124
S1131B90100286508093100210C081E00E94D70585
S1131BA064EF71E080E090E04DE750E024E630E03F
S1131BB00E94E40581E00E945C0F00E010E0809147
S1131BC01102609110020E94B204002351F185E0D9
S1131BD0F89EC0011124EC01C750DF4F8C01025064
S1131BE01F4FFE01849161E00E94CB042196C0172F
S1131BF0D107B9F780E061E00E94CB048091100224
S1131C008A5F809310028091100290E08C379105D6
S1131C103CF01092100280911102815080931102C5
S1131C2011E080911102837080931102113059F4F4
S1131C3080911202813039F4E0911302F091140280
S1131C40309709F0099580E090E0DF91CF911F91E2
S1131C500F91FF90089580E00E947009882351F449
S1131C60F8940E94191181E00E943D0E80E061E029
S1131C700E94B80980E091E00895813049F0F89419
S1131C80813020F18230B1F0833009F045C017C0B3
S1131C902C9A80E8809361001092610080E090E0CB
S1131CA00000019688329105D9F7109268001092CD
S1131CB06B00089580E88093610083E004C080E8AD
S1131CC08093610088E08093610028C080E090E008
S1131CD0000001962DE680369207D1F72C9880E01B
S1131CE090E0000001962DE680369207D1F710921D
S1131CF07A008FEF80936400809168008160809304
S1131D00680080916B00846080936B00789483B743
S1131D10816083BF88950895823008F0789408958F
S1131D200F931F930E94451180E064E371E10E94C8
S1131D30C90E81E06CE271E10E94C90E82E064E2A6
S1131D4071E10E94C90E86E06CE371E10E94C90E44
S1131D500CE111E183E0B8010E94C90E84E0B801EE
S1131D600E94C90E85E0B8010E94C90E87E0B8013F
S1131D700E94C90E82E061E00E94B8098FEF80934F
S1131D80150287E00E94E60482E091E01F910F9122
S1131D900895E82FF0E0EE0FFF1FEA52FE4F718323
S1131DA0608308950E94EC0E08959B01AC0180911C
S1131DB0E701882381F0DA01C901880F991FAA1F5E
S1131DC0BB1F9093F3018093F20121153105410566
S1131DD0510509F45F9808958091E8019091E90113
S1131DE0A091EA01B091EB012091EC013091ED0159
S1131DF04091EE015091EF01280F391F4A1F5B1FDC
S1131E002093E8013093E9014093EA015093EB01F8
S1131E108091E8019091E901A091EA01B091EB0170
S1131E208851964FA040B040BCF08BB180588BB91C
S1131E308091E8019091E901A091EA01B091EB0150
S1131E408851964FA040B0408093E8019093E901F7
S1131E50A093EA01B093EB0108958AE00E9470090F
S1131E60813041F40E945E111092E7018AE060E043
S1131E700E94B809089589E00E9470098130D9F45C
S1131E808091E601882311F00E94900F82E00E9465
S1131E905E118091F4019091F501009731F00E9458
S1131EA019221092F5011092F4011092E60189E0D2
S1131EB060E00E94B8090895813029F0823029F445
S1131EC00E943B0F08950E942D0F0895982F809132
S1131ED0E601882331F48091E701882311F4579AAD
S1131EE05F988091E6018823D1F49230C1F4109276
S1131EF0800010928100809181008860809381002D
S1131F0080918100816080938100109285001092FD
S1131F10840081E08093890080E98093880008959B
S1131F20EFE6F0E080818D7F80830895982F81E033
S1131F3080934C02913051F0913018F0923041F47A
S1131F4003C01092340204C010923402109235027D
S1131F5010924C0208953A9A3B9A3C9A3D9A3E9AC2
S1131F603F9A88B1837088B90895982F81E080934F
S1131F704C02913071F0913018F0923071F405C038
S1131F80709329026093280208C070932902609319
S1131F90280270932B0260932A0210924C02089537
S1131FA0982F81E080934C02913051F0913018F0D9
S1131FB0923041F403C06093360204C06093360249
S1131FC06093370210924C0208950F931F93CF939E
S1131FD0DF93EB018A01813001F1813018F0823006
S1131FE061F50DC08091200290912102892B11F09E
S1131FF080E01AC010922D0210922C021EC0809113
S1132000200290912102892B21F080E00E947A1114
S113201004C010922D0210922C0280912202909101
S11320202302892B31F081E0BE01A8010E947A11BC
S113203004C010922F0210922E02DF91CF911F91B3
S11320400F9108951092FD011092FE011092020268
S11320501092FF01109201021092030210920402E6
S113206010920502109206021092070210920802C2
S11320701092090210920A0210920B0210920C02A2
S113208010920D0210920E0208950F931F9381E097
S11320900E947009813011F000E024C087E00E94A2
S11320A0E60482E06AE00E94370582E062EB0E9467
S11320B0370518EC812F8A95F1F782E060E00E94E1
S11320C04C11082F812F8A95F1F782E060E00E947D
S11320D04C111A95F1F787E00E94E60488E893E131
S11320E00197F1F7802F1F910F910895CF92DF92FE
S11320F0EF92FF920F931F93CF93DF93EC018091A4
S11321006D02882339F4D0936F02C0936E020E944B
S1132110041147C0C0906E02D0906F0200E010E03E
S1132120EE24FF2437C0A881B981FD016481758143
S1132130F60140815181FA01848195819B01281B1C
S1132140390B37FF0FC0861B970B95838483DB8283
S1132150CA82012B29F4D0936F02C0936E0221C06E
S1132160F7010CC0F601828193812115310549F4F0
S1132170FD01158214829B838A83F601D383C28373
S113218010C0FD01358324830097B9F30F5F1F4FFF
S113219076016C0180916D0290E00817190718F21E
S11321A0ECCF80916D028F5F80936D02DF91CF91B0
S11321B01F910F91FF90EF90DF90CF90089588E0EA
S11321C00E9470098823B9F410926D0210926F0274
S11321D010926E021092F6011092F70180E167EE00
S11321E071E10E9408110E94EE110E94FE1088E025
S11321F061E00E94B80988E091E00895EEE6F0E01D
S1132200808182608083089581E08093F70108953E
S1132210803218F020E030E00AC0E82FF0E0EE0F42
S1132220FF1FEA56FE4F2081318171836083C9010B
S11322300895249A2C9A089583E58CBD81E08DBD80
S11322408DE08A95F1F7089583E58CBD1DBC84EF7C
S113225091E00197F1F708958FE78CBD1DBC84EFE1
S113226091E00197F1F7089583E58CBD81E08DBD80
S11322708DE08A95F1F7089583E58CBD81E08DBDED
S113228084EF91E00197F1F70895259A2698279A0B
S1132290209A219A229A08951F93162F0E94E604E9
S11322A082E00E947009813011F080E005C01EBDFB
S11322B00DB407FEFDCF8EB51F910895823029F429
S11322C0809181008E7F809381008091E60181302E
S11322D031F48091E701813011F400000895809178
S11322E0E601813021F08091E701813011F45F989B
S11322F057980895EF92FF920F931F93CF93DF9314
S1132300EB01882321F0813009F05AC02DC09A01D5
S113231040E050E0CA01B9010E94FE202091200251
S113232030912102220F331F40E050E00E940E2121
S113233079018A01A8019701220F331F441F551FF9
S1132340CE01A0E0B0E082179307A407B50728F0F8
S1132350F0922D02E0922C0233C0D695C795D0930B
S11323602D02C0932C022CC09A0140E050E0CA0117
S1132370B9010E94FE202091220230912302220FF3
S1132380331F40E050E00E940E2179018A01A80128
S11323909701220F331F441F551FCE01A0E0B0E068
S11323A082179307A407B50728F0F0922F02E09252
S11323B02E0206C0D695C795D0932F02C0932E0245
S11323C0DF91CF911F910F91FF90EF9008950E949C
S11323D0F7110E9437120E941012089584B582608A
S11323E084BD85B5846085BD8EE487BD089588E08D
S11323F00E947009882311F484E008958091F70104
S1132400882311F483E008958091F601882311F064
S113241082E008950E9484148130E1F380E00895FD
S11324208091E701813011F58091F0019091F101E3
S11324302091F2013091F301280F391F3093F101FB
S11324402093F0018091F0019091F101885E934016
S11324506CF08BB180588BB98091F0019091F101AF
S1132460885E93409093F1018093F001089587E092
S11324700E947009813009F0AAC0809120029091D5
S11324802102892B09F18091440290914502209107
S1132490200230912102820F931F90934502809372
S11324A044028091440290914502885E9340A4F0D6
S11324B08091440290914502885E93409093450236
S11324C08093440241E009C080911802909119025E
S11324D090931D0280931C0240E08091220290910F
S11324E02302892B09F180914602909147022091A1
S11324F0220230912302820F931F9093470280930C
S113250046028091460290914702885E9340A4F06F
S11325108091460290914702885E934090934702CF
S11325208093460261E009C080911A0290911B02D7
S113253090931F0280931E0260E0842F0E94E81291
S1132540809140029091410220911C0230911D0221
S1132550280F391F3093410220934002809140029A
S113256090914102885E934014F440E00BC0809146
S1132570400290914102885E93409093410280937F
S1132580400241E0809142029091430220911E0258
S113259030911F02280F391F3093430220934202C7
S11325A08091420290914302885E934014F460E06B
S11325B00BC08091420290914302885E93409093B5
S11325C043028093420261E0842F0E942D130895F8
S11325D08823F1F0209118023091190280911C0295
S11325E090911D02281B390B1216130634F48091A6
S11325F01C0290911D02019607C0232B49F0809183
S11326001C0290911D02019790931D0280931C025D
S1132610662311F120911A0230911B0280911E024F
S113262090911F02281B390B1216130654F4809143
S11326301E0290911F02019690931F0280931E0226
S11326400895232B49F080911E0290911F02019757
S113265090931F0280931E0208950F931F93182FC7
S1132660062F80914C02882309F0E7C08091340240
S1132670882309F05AC080911C0290911D02892B75
S1132680E9F48091F801837E8093F80110923D0271
S113269080914802882309F45DC06091360280E08D
S11326A00E94FD08E0914A02F0914B02309709F430
S11326B051C081E08083109248024CC08091160280
S11326C0813041F48091280290912902019711F4FC
S11326D011E002C01123F1F1E0913B02F0E0EB5E66
S11326E0FE4F9091F801937E8081892B8093F801AD
S11326F080913902882321F480913B028F5F03C0CB
S113270080913B02815080933B0280913B02837015
S113271080933B0281E080933D02809116028130D8
S1132720C9F480E00E94301415C09091F801937EA2
S11327309093F801E0913B02F0E0EB5EFE4F808164
S1132740892B8093F80182E080933D0210921D0250
S113275010921C0280913502882309F059C080919F
S11327601E0290911F02892BE9F48091F8018F7168
S11327708093F80110923E0280914902882309F463
S11327805CC06091370281E00E94FD08E0914A023A
S1132790F0914B02309709F450C081E0818310928C
S11327A049024BC080911702813041F480912A0282
S11327B090912B02019711F401E002C00023E9F18A
S11327C0E0913C02F0E0E75EFE4F9091F8019F71CA
S11327D08081892B8093F80180913A02882321F427
S11327E080913C028F5F03C080913C0281508093B2
S11327F03C0280913C02837080933C0281E0809390
S11328003E02809117028130C1F40E94301415C039
S11328109091F8019F719093F801E0913C02F0E0EF
S1132820E75EFE4F8081892B8093F80182E08093DC
S11328303E0210921F0210921E0280913F028823D2
S113284031F488EF91E0612F402F0E94F21488B197
S113285083709091F801892B88B91F910F91089585
S1132860882321F0813009F04EC027C080912802CE
S113287090912902892B49F0809128029091290294
S1132880019790932902809328028091480288231B
S1132890D1F5209128023091290280912C02909147
S11328A02D022817390779F580E060E070E00E9476
S11328B04F0881E080934802089580912A02909104
S11328C02B02892B49F080912A0290912B020197C7
S11328D090932B0280932A0280914902882399F4D1
S11328E020912A0230912B0280912E0290912F0286
S11328F02817390741F481E060E070E00E944F0836
S113290081E0809349020895FF920F931F93CF9320
S1132910DF9380916D02882309F459C000916E02FF
S113292010916F02F801C081D1818C819D81019742
S11329309D838C83181619060CF449C0898180FF85
S113294005C08E81882311F481E08E83898181FF03
S113295003C0EF81F885099580916D028230A8F05B
S1132960F8018281938190936F0280936E021382A7
S11329701282E0910000F091010084819581181683
S113298019063CF0FF24F39405C010926F021092D4
S11329906E02FF2480916D02815080936D028091BC
S11329A06D02882311F40E94EF14898182FF08C00C
S11329B08A819B819D838C83C8010E94761008C004
S11329C0C8010E94192289818F7E898301C0FF2456
S11329D08F2DDF91CF911F910F91FF900895109249
S11329E0F7010895FC0180913D02823069F48091E1
S11329F0FC0191E089278093FC01882309F03EC003
S1132A008081837E80833AC080911C0290911D0254
S1132A10C397A4F56623D1F020911C0230911D02C6
S1132A2080E690E0BC01269FC001279F900D369F51
S1132A30900D1124880F892F881F990B90933102D0
S1132A408093300281E08093FA0118C08091FA01EA
S1132A508823A1F0809130029091310201979093E4
S1132A603102809330028091300290913102892B9F
S1132A7029F48081837E80831092FA0180913E0242
S1132A80823069F48091FB0191E089278093FB01F6
S1132A90882309F03EC080818F71808308958091DE
S1132AA01E0290911F02C397A4F54423D1F02091F4
S1132AB01E0230911F0280E690E0AC01249FC00109
S1132AC0259F900D349F900D1124880F892F881F06
S1132AD0990B909333028093320281E08093F90141
S1132AE008958091F9018823A1F080913202909198
S1132AF03302019790933302809332028091320221
S1132B0090913302892B29F480818F7180831092F4
S1132B10F901089581E00E94D80384E00E94A10392
S1132B200E948403BC0180E090E00E94781A20E0B7
S1132B3030E040EA50E40E9443199B01AC0160E09C
S1132B4070E286E395E40E94101A20E030E040E849
S1132B505FE30E9442192CE033E949EC5EE30E94F2
S1132B60931B089581E00E94D80383E00E94A1038F
S1132B700E948403BC0180E090E00E94781A20E067
S1132B8030E040EA50E40E9443199B01AC0160E04C
S1132B9070E286E395E40E94101A20E030E040E8F9
S1132BA05FE30E9442192CE033E949EC5EE30E94A2
S1132BB0931B089581E00E94D80387E00E94A1033B
S1132BC00E948403BC0180E090E00E94781A20E017
S1132BD030E040EA50E40E9443199B01AC0160E0FC
S1132BE070E286E395E40E94101A20E030E040E8A9
S1132BF05FE30E9442192CE033E949EC5EE30E9452
S1132C00931B08952F923F924F925F926F927F92FF
S1132C108F929F92AF92BF92CF92DF92EF92FF92E8
S1132C200F931F93CF93DF93CDB7DEB7AF970FB654
S1132C30F894DEBF0FBECDBFE82EF62E682F77279F
S1132C4067FD7095872F972F0E947A1A6E8B7F8B62
S1132C50888F998F6F2D772767FD7095872F972F12
S1132C600E947A1A6A8F7B8F8C8F9D8F2E893F8961
S1132C70488D598D0E94B61969837A838B839C830E
S1132C8020E030E0A9016E897F89888D998D0E94AA
S1132C90881B18160CF095C220E030E0A9016A8D5B
S1132CA07B8D8C8D9D8D0E94881B18160CF089C21B
S1132CB01D8A1D861E861F86188A1D821E821F82FB
S1132CC018860F2EF4E62F2E312CF02DB12CA12CCA
S1132CD018EC02E4912C812C0F2EF8EC7F2EF02DB1
S1132CE00F2EF2E46F2EF02D8E2D992787FD9095EF
S1132CF09C0122503109A901662757FD6095762F62
S1132D004E8F5F8F68A379A302969C01442737FDF9
S1132D104095542F2AA33BA34CA35DA32F2D332707
S1132D2027FD3095C9010297AC01662757FD6095D0
S1132D30762F4EA35FA368A779A704969C01442726
S1132D4037FD4095542F2AA73BA74CA75DA73FA664
S1132D502EA60E94DA156B017C010E94B215698BC4
S1132D607A8B8B8B9C8B0E948A1569877A878B87D9
S1132D709C876E8D7F8D88A199A10E947A1ABD814E
S1132D80AE815F8048842B2F3A2F452D542D0E940D
S1132D90091A8823DCF56AA17BA18CA19DA10E945C
S1132DA07A1ABD81AE812B2F3A2F452D542D0E94C6
S1132DB0881B18165CF56EA17FA188A599A50E94B1
S1132DC07A1ABD85AE855F8448882B2F3A2F452D0E
S1132DD0542D0E94091A8823CCF46AA57BA58CA5DE
S1132DE09DA50E947A1ABD85AE852B2F3A2F452DBD
S1132DF0542D0E94881B18164CF460E082E00E9457
S1132E00FD08212C312C1FA61EA6A7C020E030E00F
S1132E1040EE50E4C701B6010E94091A88230CF45D
S1132E20A0C02B2D3A2D412F502F69857A858B8593
S1132E309C850E94421920E030E0A9010E94881B71
S1132E401816B4F420E030E040EA50E469857A854D
S1132E508B859C850E94091A882354F43FE0230E35
S1132E60311C4EA55FA54F5051095FA74EA775C0F1
S1132E70292D382D472D562D69897A898B899C896E
S1132E800E94421920E030E0A9010E94881B181614
S1132E90B4F420E030E040EA50E469897A898B890F
S1132EA09C890E94091A882354F46EA57FA5615F4A
S1132EB07F4F7FA76EA77FE0271A31084EC07D8120
S1132EC06E819F818885272F362F492F582F6E8931
S1132ED07F89888D998D0E9442196B017C017D85C3
S1132EE06E859F858889272F362F492F582F6A8D05
S1132EF07B8D8C8D9D8D0E944219A70196010E94A5
S1132F00B61929813A814B815C810E9442196B0177
S1132F107C0120E030E040E450E40E94881B181655
S1132F2024F48FE0280E311C18C020E030E040E487
S1132F3050ECC701B6010E94091A882334F4AEA5E7
S1132F40BFA51F96BFA7AEA708C00F2EF4E62F2E6D
S1132F50F02D312CB4E6BEA71FA6ED89E13091F522
S1132F6002C0F1E0FD8B1F921F921F9221E02F936C
S1132F7080E98F931F9288EC8F931F921F9288246D
S1132F808394A12CB12CC12C0F2EF0E9EF2EFF2439
S1132F90F394F02D08EC10E020E030E040E062E033
S1132FA082E00E94EE060FB6F894DEBF0FBECDBFDE
S1132FB00F2EF8EC2F2E312CF02D58E35EA76FEF77
S1132FC06FA724C01F921F921F9271E07F9380E924
S1132FD08F938FA58F939EA59F931F921F92812CF1
S1132FE0A12CB12CC12C0F2EF0E9EF2EFF24F39469
S1132FF0F02D810120E030E040E062E082E00E94B8
S1133000EE060FB6F894DEBF0FBECDBF82E390E0AC
S11330100E949C0AEEA5FFA5BF01882777FD809535
S1133020982F0E947A1A2DEC3CEC4CE45DE30E944C
S1133030931B2BE13FE24DED5DE30E94931B6B017B
S11330407C01B101882777FD8095982F0E947A1A18
S11330502DEC3CEC4CE45DE30E94931B2BE13FE23E
S11330604DED5DE30E94931B9B01AC01C701B601CA
S11330700E94431920E030E040E05FE30E94931B8C
S11330806B017C01B1012EA53FA5621B730B882740
S113309077FD8095982F0E947A1A20E030E044E072
S11330A051E40E94B6199B01AC0169817A818B813C
S11330B09C810E94431969837A838B839C830E9439
S11330C00D1A2B013C0169817A818B819C810E94BC
S11330D0F61B4B015C01A7019601C301B2010E94DA
S11330E0931B9B01AC01BD81AE811F8108856B2FB1
S11330F07A2F812F902F0E944319662E772E082F46
S1133100192F6D837E838F839887A7019601C5014C
S1133110B4010E94931B9B01AC01BD85AE85FF8465
S1133120E8886B2F7A2F8F2D9E2D0E944319C62E6F
S1133130D72EE82EF92E6D877E878F87988B0E9475
S1133140EC03FF92EF92DF92CF921F930F937F9243
S11331506F92A3E2B1E0BF93AF930E94C8230FB66E
S1133160F894DEBF0FBECDBF3D89313049F41D8ACE
S11331700F2EF4E62F2EF02D312C44E64EA71FA679
S1133180262D372D402F512F6E897F89888D998D5B
S11331900E94881B1816ACF42C2D3D2D4E2D5F2D4E
S11331A06A8D7B8D8C8D9D8D0E94881B18164CF426
S11331B0B984AA841B850C8599888A887B886C8845
S11331C0C8CDAF960FB6F894DEBF0FBECDBFDF916A
S11331D0CF911F910F91FF90EF90DF90CF90BF9010
S11331E0AF909F908F907F906F905F904F903F90A3
S11331F02F9008950E94090489E291E09F938F9390
S11332000E94C8230E944D0A0F900F90913051F0F4
S11332100E94EC0387E391E09F938F930E94C8235D
S11332200F900F9081E00E94D7050E94760381E001
S11332300E94D8030E94950782E591E09F938F93A3
S11332400E94C8230E94EC030F900F900AE511E03E
S1133250C4E6D1E01F930F930E94C823DF93CF935A
S11332600E94C8230E94EC0380E00E94FF090F9093
S11332700F900F900F90882369F364E284E20E9418
S11332800216E8CF5058BB27AA270ED0F6C1BFD1EB
S113329030F0C4D120F031F49F3F11F41EF48FC1FB
S11332A00EF4E095E7FB85C1E92F09D280F3BA1744
S11332B0620773078407950718F071F49EF521C21D
S11332C00EF4E0950B2EBA2FA02D0B01B90190013D
S11332D00C01CA01A0011124FF27591B99F0593F81
S11332E050F4503E68F11A16F040A22F232F342FC9
S11332F04427585FF3CF469537952795A795F04017
S11333005395C9F77EF41F16BA0B620B730B840B2B
S1133310BAF09150A1F0FF0FBB1F661F771F881FE3
S1133320C2F70EC0BA0F621F731F841F48F487953B
S113333077956795B795F7959E3F08F0B3CF93952A
S1133340880F08F09927EE0F9795879508955FD118
S113335058F080E891E009F49EEF60D128F040E84D
S113336051E059F45EEF09C02AC1CBC1E92FE078DE
S1133370A6D168F3092E052AC1F326173707480793
S1133380590738F00E2E07F8E02569F0E025E064CF
S11333900AC0EF6307F8009407FADB01B9019D0145
S11333A0DC01CA01AD01EF934AD067D10AD05F9125
S11333B0552331F02BED3FE049E450FD49EC63CF58
S11333C00895DF93DD27B92FBF7740E85FE3161632
S11333D0170648075B0710F4D92F9ED19F938F934C
S11333E07F936F9309D2ECE7F0E0ECD046D12F91B4
S11333F03F914F915F91A3D1DD2349F09058A2EA08
S11334002AED3FE049EC5FE3D0785D274DDFDF91A3
S113341034C1ABD008F481E0089508D1E3953EC1EE
S11334200CD02BC1FBD040F0F2D030F021F45F3F40
S113343019F0BFC0511166C1C2C041D198F399239C
S1133440C9F35523B1F3951B550BBB27AA27621764
S11334507307840738F09F5F5F4F220F331F441FA9
S1133460AA1FA9F333D00E2E3AF0E0E830D09150E1
S11334705040E695001CCAF729D0FE2F27D0660FCE
S1133480771F881FBB1F261737074807AB07B0E80D
S113349009F0BB0B802DBF01FF2793585F4F2AF023
S11334A09E3F510568F085C02DC15F3FECF3983E07
S11334B0DCF3869577956795B795F7959F5FC9F780
S11334C0880F911D9695879597F90895E1E0660F09
S11334D0771F881FBB1F621773078407BA0720F082
S11334E0621B730B840BBA0BEE1F88F7E0950895EB
S11334F0E89409C097FB3EF490958095709561958A
S11335007F4F8F4F9F4F9923A9F0F92F96E9BB273F
S11335109395F695879577956795B795F111F8CFBB
S1133520FAF4BB0F11F460FF1BC06F5F7F4F8F4F26
S11335309F4F16C0882311F096E911C0772321F01C
S11335409EE8872F762F05C0662371F096E8862FB4
S113355070E060E02AF09A95660F771F881FDAF70B
S1133560880F9695879597F90895990F0008550F38
S1133570AA0BE0E8FEEF16161706E807F907C0F0F5
S113358012161306E407F50798F0621B730B840BFD
S1133590950B39F40A2661F0232B242B252B21F4D7
S11335A008950A2609F4A140A6958FEF811D811D77
S11335B0089597F99F6780E870E060E008959FEFB1
S11335C080EC0895DF93CF931F930F93FF92EF92B4
S11335D0DF927B018C01689405C0DA2EEF01AFD035
S11335E0FE01E894A5912591359145915591AEF34D
S11335F0EF015ADEFE019701A801DA9479F7DF9012
S1133600EF90FF900F911F91CF91DF9108950024C7
S11336100A941616170618060906089500240A9433
S113362012161306140605060895C9CF50D0E8F300
S1133630E894E0E0BB279F57F0F02AED3FE049EC27
S113364006C0EE0FBB0F661F771F881F28F0B23A23
S113365062077307840728F0B25A620B730B840B5A
S1133660E3959A9572F7803830F49A95BB0F661FEC
S1133670771F881FD2F79048C4C0092E0394000C0A
S113368011F4882352F0BB0F40F4BF2B11F460FFF8
S113369004C06F5F7F4F8F4F9F4F0895EF93E0FFFC
S11336A006C0A2EA2AED3FE049EC5FEBFDDDE5DF71
S11336B00F90039401FC9058E9EAF0E0AEC057FD86
S11336C09058440F551F59F05F3F71F04795880F8C
S11336D097FB991F61F09F3F79F087950895121623
S11336E013061406551FF2CF4695F1DF08C01616CF
S11336F017061806991FF1CF869571056105089480
S11337000895E894BB2766277727CB0197F9089596
S11337102CDF08F48FEF08959B01AC0160E070E0AA
S113372080E89FE37DCE0BD0A8CF71DF28F076DF51
S113373018F0952309F03DCF42CF1124E3CFBFDF2A
S1133740A0F3959FD1F3950F50E0551F629FF001B0
S1133750729FBB27F00DB11D639FAA27F00DB11D09
S1133760AA1F649F6627B00DA11D661F829F222792
S1133770B00DA11D621F739FB00DA11D621F839F19
S1133780A00D611D221F749F3327A00D611D231FEF
S1133790849F600D211D822F762F6A2F11249F573D
S11337A050408AF0E1F088234AF0EE0FFF1FBB1F60
S11337B0661F771F881F91505040A9F79E3F5105FF
S11337C070F0F7CE9FCF5F3FECF3983EDCF3869525
S11337D077956795B795F795E7959F5FC1F7FE2BAA
S11337E0880F911D9695879597F908959F931EDFED
S11337F00F9007FCEE5F52CF9B01AC0194CF9F3F2B
S113380031F0915020F4879577956795B795880F97
S1133810911D9695879597F908959F938F937F931C
S11338206F93FF93EF939B01AC017DDFEF91FF91C9
S1133830C9DE2F913F914F915F9175CFA3E1B0E025
S1133840E4E2FCE10C943B217C011B016A01FC01D4
S113385017821682838181FF66C3BE016F5F7F4F2B
S11338604B01F7019381F10193FD859193FF8191C0
S11338701F01882309F453C3853239F493FD8591DC
S113388093FF81911F01853239F4B70190E00E94C2
S1133890962356016501E5CF10E0512C20E020323B
S11338A0A0F48B3269F030F4803259F0833269F439
S11338B020612CC08D3239F0803339F4216026C068
S11338C02260246023C0286021C027FD27C030ED7A
S11338D0380F3A3078F426FF06C0FAE01F9F300D07
S11338E01124132F13C06AE0569E300D1124532E59
S11338F020620CC08E3221F426FD11C3206406C060
S11339008C3611F4206802C0883641F4F10193FD2D
S1133910859193FF81911F018111C1CF9BEB980F7A
S1133920933018F42061805E06C09BE9980F9330B1
S113393008F0AAC12F7E26FF16E02F73722E85365B
S113394021F4F22FF0647F2E08C0863621F4622F12
S11339506068762E02C01111115077FE07C01C3327
S113396048F444244394410E27E00BC0183030F44B
S1133970212F06C027E04CE3442E03C027E017E0C4
S1133980412C560174E0A70EB11CF60160817181CF
S113399082819381042DA4010E94A8226C010981D3
S11339A000FF02C003FF06C071FC07C072FC08C020
S11339B0612C08C03DE2632E05C02BE2622E02C0DA
S11339C090E2692E802F8C7099F1662011F084E0CA
S11339D001C083E0851510F0512C0BC0581A73FCFC
S11339E008C0B70180E290E00E9496235A94C9F778
S11339F0F3CF662029F0B701862D90E00E9496232C
S1133A0003FD03C00FEA15E002C00BEA15E0F72D31
S1133A10F0717F2EF8018491882309F476C2711025
S1133A208052B70190E00E9496230F5F1F4FF2CFA0
S1133A3077FE0FC04C0C04FF04C08A81813309F463
S1133A404A94141474F5F8E0F41578F588E0482ED7
S1133A502CC076FC2AC0812F90E08C159D059CF02B
S1133A606CEFC6166FEFD60674F0772D7068772E5C
S1133A700AC0E2E0F0E0EC0FFD1FE10FF11D8081D0
S1133A80803319F411501111F4CF77FE0EC0442481
S1133A904394410E812F90E0C816D9062CF41C19CA
S1133AA004C04424439401C010E077FE07C01C14F2
S1133AB01D043CF496012F5F3F4F05C025E030E024
S1133AC002C021E030E0662011F02F5F3F4F112348
S1133AD031F0412F50E04F5F5F4F240F351F452DCC
S1133AE050E02417350714F4521A01C0512C872DC5
S1133AF0897049F4552039F0B70180E290E00E94C2
S1133B0096235A94F7CF662029F0B701862D90E0CA
S1133B100E94962373FC09C0552039F0B70180E355
S1133B2090E00E9496235A94F7CF77FE5FC09C2DB5
S1133B308D2DD7FE02C090E080E0692E782E40E003
S1133B4050E0C601841991099D878C879601261936
S1133B503709280D391D812F90E0EE27FF27E81B38
S1133B60F90BFF87EE87FFEF6F167F0669F4B70145
S1133B708EE290E02B8B3A8B488B598B0E949623D4
S1133B80598948893A892B89C614D70454F06C851D
S1133B907D85661577052CF4F901E40FF51F818105
S1133BA001C080E371E0671A71084F5F5F4FEE85D3
S1133BB0FF856E167F066CF0B70190E02B8B3A8B75
S1133BC0488B598B0E9496232B893A8948895989B5
S1133BD0CACF6C147D0439F49A81963318F4953362
S1133BE011F404FF81E3B70190E04BC08A81813373
S1133BF009F00F7EB70190E00E949623111105C0D1
S1133C0074FE18C085E490E017C0B7018EE290E01E
S1133C100E94962382E066246394680EF401E80F00
S1133C20F11D8081B70190E00E949623115041F369
S1133C30862DF1CF85E690E0B7010E949623D7FC4C
S1133C4005C0C114D10439F404FF05C0D194C19452
S1133C50D1088DE201C08BE2B70190E00E94962367
S1133C6080E36AE0C616D1042CF08F5FFAE0CF1A25
S1133C70D108F7CFB70190E00E949623B701C6019F
S1133C80C0960E94962341C1833631F0833779F080
S1133C90833509F058C021C0560172E0A70EB11C4B
S1133CA0F6018081898301E010E0640114C05601AB
S1133CB0F2E0AF0EB11CF601C080D18026FF03C034
S1133CC0612F70E002C06FEF7FEFC6012B8B0E9463
S1133CD08B238C012B892F7715C05601F2E0AF0E90
S1133CE0B11CF601C080D18026FF03C0612F70E0B3
S1133CF002C06FEF7FEFC6012B8B0E9480238C01E3
S1133D002B892068722E23FD1AC0852D90E0081798
S1133D101907A8F4B70180E290E00E9496235A9410
S1133D20F4CFF60177FC859177FE81916F01B7019D
S1133D3090E00E94962351105A94015011090115E4
S1133D40110579F7E2C0843611F0893651F5560130
S1133D5027FF09C0F4E0AF0EB11CF6016081718148
S1133D60828193810AC0F2E0AF0EB11CF60160813A
S1133D707181882777FD8095982F022F0F7697FF02
S1133D8008C090958095709561957F4F8F4F9F4F98
S1133D9000682AE030E0A4010E94DC23C82EC81881
S1133DA03EC0022F853721F40F7E2AE030E01DC08B
S1133DB0097F8F3691F018F4883559F0B0C08037F8
S1133DC019F0883711F0ABC0006104FF09C004602A
S1133DD007C024FF08C0066006C028E030E005C024
S1133DE020E130E002C020E132E0560107FF09C0C3
S1133DF0F4E0AF0EB11CF601608171818281938180
S1133E0008C0F2E0AF0EB11CF6016081718180E060
S1133E1090E0A4010E94DC23C82EC8180F7706FF87
S1133E200BC0202F2E7FC11650F404FF0AC002FDE0
S1133E3008C0202F2E7E05C0DC2C202F03C0DC2CD4
S1133E4001C0D12E24FF0DC0FE01EC0DF11D8081B7
S1133E50803311F4297E09C022FF06C0D394D39481
S1133E6004C0822F867809F0D39423FD13C020FF69
S1133E7006C01C2DD51418F4150D1D19D52CD514F8
S1133E8068F4B70180E290E02B8B0E949623D394D0
S1133E902B89F5CFD51410F45D1801C0512C24FFE3
S1133EA012C0B70180E390E02B8B0E9496232B89EC
S1133EB022FF17C021FF03C088E590E002C088E715
S1133EC090E0B7010CC0822F867859F021FD02C022
S1133ED080E201C08BE227FD8DE2B70190E00E94F1
S1133EE09623C11638F4B70180E390E00E9496232C
S1133EF01150F7CFCA94F401EC0DF11D8081B70184
S1133F0090E00E949623C110F5CF552009F4C2CC4D
S1133F10B70180E290E00E9496235A94F6CFF7010D
S1133F208681978102C08FEF9FEF6396E2E10C9444
S1133F305721CDDBA8F19E57A8F1985160F039F1D3
S1133F40983070F5092E9927660F771F881F991FDF
S1133F500A94D1F71CC0BB27993F4CF4B111B1E0CE
S1133F60B62B672F782F8827985FB1F708C08695FE
S1133F7077956795B79508F4B1609395C1F7BB0F32
S1133F8030F411F460FF03C06F5F7F4F8F4F3EF436
S1133F9090958095709561957F4F8F4F9F4F0895B1
S1133FA06894B0CBAECBFA01EE0FFF1F309621051B
S1133FB0310599F16115710561F48038BFE39B0700
S1133FC049F168949038810561F08038BFEF9B0710
S1133FD041F0992342F5FF3FE1053105210511F137
S1133FE0E8940894E795D901AA2329F4AB2FBE2FAE
S1133FF0F85FD0F310C0FF5F70F4A695E0F7F739CF
S113400050F019F0FF3A38F49F779F930CD00F903B
S113401007FC905808953EF0D2CA60E070E080E852
S11340209FE308954FE79F775F934F933F932F93B9
S113403072D02F913F914F915F9175DB05C019F4B8
S11340400EF0B7CA5ECBBBCA42DBC8F39638C0F7E2
S113405007F80F92E8942BE33AEA48EB5FE771DB49
S11340600F920F920F924DB75EB70F9294D0E4E186
S1134070F1E0A8DA4F915F91EF91FF91E595EE1F82
S1134080FF1F49F0FE57E0684427EE0F441FFA95DE
S1134090E1F74195550B06D00F9007FE3DCB0895EF
S11340A088CAADCB14DBE8F39923D9F3940F511DDF
S11340B0BBF39150504094F059F0882332F0660FCE
S11340C0771F881F91505040C1F79E3F510544F718
S11340D0880F911D9695879597F908955F3FACF0E9
S11340E0983E9CF0BB27869577956795B79508F41D
S11340F0B1609395C1F7BB0F58F711F460FFE8CF97
S11341006F5F7F4F8F4F9F4FE3CFFCCA0EF077CB8B
S113411056CA68944ECADBDAC8F39923D1F3C6F3BE
S1134120DF93CF931F930F93FF92C92FDD2788232B
S11341302AF02197660F771F881FDAF720E030E016
S113414040E85FEB9FE3883920F0803E30F0219611
S11341508F7799D8ECE3F1E003C095D8E9E6F1E074
S113416031DA8B01BE01EC01FB2E6F577109759595
S1134170771F880B990BBED928E132E741E35FE34F
S1134180DEDAAF2D9801AE01FF900F911F91CF9110
S1134190DF918AD872CAFA01DC01AA0FBB1F9B0106
S11341A0AC01BF5728F422273327442750781FC077
S11341B0B75188F4AB2F0024469537952795011CF9
S11341C0A395D2F3002069F0220F331F441FB39547
S11341D0DAF30DD057C861307105A0E88A07B946F3
S11341E030F49B01AC0166277727882790783096B6
S11341F021F020833183428353830895DB018F931D
S11342009F930E943021BF91AF91A29F800D911D79
S1134210A39F900DB29F900D11240895A1E21A2E30
S1134220AA1BBB1BFD010DC0AA1FBB1FEE1FFF1F56
S1134230A217B307E407F50720F0A21BB30BE40BA6
S1134240F50B661F771F881F991F1A9469F76095ED
S11342507095809590959B01AC01BD01CF010895A7
S11342600E947221A59F900DB49F900DA49F800D74
S1134270911D112408952F923F924F925F926F9255
S11342807F928F929F92AF92BF92CF92DF92EF92E2
S1134290FF920F931F93CF93DF93CDB7DEB7CA1B63
S11342A0DB0B0FB6F894DEBF0FBECDBF09942A888E
S11342B0398848885F846E847D848C849B84AA8436
S11342C0B984C884DF80EE80FD800C811B81AA81C3
S11342D0B981CE0FD11D0FB6F894DEBF0FBECDBF8E
S11342E0ED010895A29FB001B39FC001A39F700D7B
S11342F0811D1124911DB29F700D811D1124911DEA
S11343000895CF93DF938230910510F482E090E01A
S1134310E0917202F091730220E030E0A0E0B0E09E
S1134320309739F14081518148175907B8F048173F
S1134330590771F482819381109729F013969C9305
S11343408E9312972CC0909373028093720227C0AD
S11343502115310531F04217530718F0A901DB018B
S113436001C0EF019A01BD01DF010280F381E02D5C
S1134370D7CF21153105F9F0281B390B243031052D
S113438080F48A819B816115710521F0FB0193837F
S1134390828304C09093730280937202FE0132966A
S11343A044C0FE01E20FF31F81939193225031091F
S11343B0398328833AC02091700230917102232BF3
S11343C041F420911F013091200130937102209318
S11343D0700220911D0130911E012115310541F417
S11343E02DB73EB74091210150912201241B350B7A
S11343F0E0917002F0917102E217F307A0F42E1B12
S11344003F0B2817390778F0AC014E5F5F4F241734
S1134410350748F04E0F5F1F5093710240937002AE
S11344208193919302C0E0E0F0E0CF01DF91CF915E
S11344300895CF93DF93009709F487C0FC01329766
S113444013821282C0917202D0917302209781F478
S113445020813181280F391F80917002909171025F
S11344608217930779F5F0937102E09370026DC09F
S1134470DE0120E030E0AE17BF0750F412964D91F4
S11344805C9113979D014115510509F1DA01F3CFB0
S1134490B383A28340815181840F951F8A179B07A0
S11344A071F48D919C911197840F951F02969183BD
S11344B0808312968D919C91139793838283211507
S11344C0310529F4F0937302E09372023EC0D901DE
S11344D01396FC93EE9312974D915D91A40FB51F23
S11344E0EA17FB0779F480819181840F951F029666
S11344F0D90111969C938E938281938113969C93F8
S11345008E931297E0E0F0E08A819B81009719F086
S1134510FE01EC01F9CFCE01029628813981820F88
S1134520931F20917002309171022817390769F4A2
S1134530309729F4109273021092720202C013820F
S11345401282D0937102C0937002DF91CF910895CB
S1134550283008F027E03327DA01990F311D87FD51
S1134560916000966105710539F432602E5F3D93C8
S113457030E32A95E1F708959F3F30F080387105C4
S1134580610509F03C5F3C5F3D93913008F0806821
S1134590911DDF93CF931F930F93FF92EF92192FE7
S11345A0987F9695E92F96959695E90FFF27E35FF7
S11345B0F94F99273327EE24FF24A701E70105903B
S11345C00894079428F4360FE71EF81E491F511D5E
S11345D0660F771F881F991F0694A1F7059007940B
S11345E028F4E70EF81E491F561FC11D770F881FB8
S11345F0991F661F0694A1F70590079428F4F80EF6
S1134600491F561FC71FD11D880F991F661F771F8B
S11346100694A1F70590079420F4490F561FC71F6D
S1134620D81F990F661F771F881F0694A9F78491D6
S11346301095177041F0D695C79557954795F794FF
S1134640E7941A95C1F7E3EBF5E06894159015919A
S113465035916591959105907FE27395E118F10A82
S1134660430B560BC90BD009C0F7E10CF11E431FD5
S1134670561FC91FD01D7EF4703311F48A95E6CFFE
S1134680E894015030F0080F0AF40027021708F4E8
S1134690202F2395022F7A3328F079E37D932A95EE
S11346A0E9F710C07D932A9589F606949795679546
S11346B0379517951794E118F10A430B560BC90B5C
S11346C0D00998F023957E9173957A3308F070E3BE
S11346D07C932013B8F77E9170617D9330F08395BD
S11346E071E37D9370E32A95E1F71124EF90FF9035
S11346F00F911F91CF91DF91992787FD9095089590
S1134700FC010590615070400110D8F78095909598
S11347108E0F9F1F0895FC0161507040019001109D
S1134720D8F7809590958E0F9F1F08950F931F9330
S1134730CF93DF93182F092FEB018B8181FD03C0E9
S11347408FEF9FEF20C082FF10C04E815F812C81CC
S11347503D81421753077CF4E881F9819F012F5F63
S11347603F4F39832883108306C0E885F985812F5C
S11347700995892B29F72E813F812F5F3F4F3F8376
S11347802E83812F902FDF91CF911F910F91089548
S1134790A0E0B0E0EEECF3E20C944B21FE01359680
S11347A061917191AF0180917602909177020E949C
S11347B01E1CE2E00C946721FA01AA27283051F16B
S11347C0203181F1E8946F936E7F6E5F7F4F8F4F3E
S11347D09F4FAF4FB1E03ED0B4E03CD0670F781F9D
S11347E0891F9A1FA11D680F791F8A1F911DA11D82
S11347F06A0F711D811D911DA11D20D009F46894BB
S11348003F912AE0269F11243019305D3193DEF662
S1134810CF010895462F4770405D4193B3E00FD018
S1134820C9F7F6CF462F4F70405D4A3318F0495D03
S113483031FD4052419302D0A9F7EACFB4E0A695E6
S11348409795879577956795BA95C9F70097610508
S1134850710508959B01AC010A2E0694579547955E
S113486037952795BA95C9F7620F731F841F951F53
S10B4870A01D0895F894FFCF88
S11348781F01010110080400000002000000007E6E
S11348880D00000000180C0410C080206000007A9D
S113489802200025660A25660053657474696E67EC
S11348A82075702E2E2E004572726F7220776865FF
S11348B86E206F70656E696E6720415454494E5975
S11348C821000A526561647921005357333A204B19
S11348D8696473000A5357343A204F746865722028
S11348E864656D6F730025662C2025662C2025666B
S10948F82C2025660000DF
S9030000FC
