:100000000C9431030C944E030C944E030C944E0349
:100010000C948A0C0C94B30C0C94DC0C0C94050D11
:100020000C944E030C946B0B0C94940B0C94BD0B22
:100030000C94380C0C94E60B0C940F0C0C94610C83
:100040000C94F00A0C94190B0C94420B0C944E0374
:100050000C944E030C944E030C944E030C944E03DC
:100060000C944E030C944E030C944E030C944E03CC
:100070000C944E030C944E030C944E0359095C09E6
:100080005F0962096B09650968096E0971097409DC
:1000900077097A097D0980098309860989098C090C
:1000A0008F09A009A309A609A909B209AC09AF09DA
:1000B000B509B809BB09BE09C109C409C709CA09FC
:1000C000CD09D009D309D60907634236B79BD8A713
:1000D0001A39685618AEBAAB558C1D3CB7CC57636D
:1000E000BD6DEDFD753EF6177231BF000000803F1B
:1000F00008000000BE922449123EABAAAA2ABECD37
:10010000CCCC4C3E00000080BEABAAAAAA3E0000A8
:100110000000BF000000803F0000000000084178A0
:10012000D3BB4387D1133D190E3CC3BD4282AD2BD7
:100130003E68EC8276BED98FE1A93E4C80EFFFBECF
:1001400001C4FF7F3F000000000016050100000011
:1001500000000000FA000000E000E00028FE28FE99
:10016000282454FE5448C4C81026466C92AA44A0C1
:1001700000A0C000000038448200008244380028FB
:10018000107C102810107C1010000A0C00001010B9
:10019000101010000606000004081020407C8A920F
:1001A000A27C0042FE020042868A92628482A2D22F
:1001B0008C182848FE08E4A2A2A29C3C5292920C01
:1001C000808E90A0C06C9292926C60929294780013
:1001D0006C6C0000006A6C00001028448200282823
:1001E000282828008244281040808A90604C929EE3
:1001F000827C7E8888887EFE9292926C7C8282824B
:1002000044FE82824438FE92929282FE90909080C8
:100210007C8292925EFE101010FE0082FE8200042C
:100220000282FC80FE10284482FE02020202FE408E
:100230003040FEFE201008FE7C8282827CFE909080
:1002400090607C828A847AFE909894626292929204
:100250008C8080FE8080FC020202FCF8040204F81C
:10026000FC021C02FCC6281028C6E0100E10E08616
:100270008A92A2C200FE82820040201008040082FE
:1002800082FE0020408040200202020202008040E4
:100290002000042A2A2A1EFE1222221C1C222222AC
:1002A000041C222212FE1C2A2A2A18107E9080404A
:1002B000304A4A4A7CFE1020201E0022BE02000462
:1002C0000222BC00FE081422000082FE02003E2032
:1002D00018201E3E1020201E1C2222221C3E2828F0
:1002E0002810102828183E3E10202010122A2A2AF2
:1002F0000420FC2202043C0202043E3804020438BA
:100300003C020C023C2214081422300A0A0A3C2245
:10031000262A322200106C82000000FE00000082BB
:100320006C1000081010081000000000007F818190
:10033000817F7F8383837F7F8787877F7F8F8F8F77
:100340007F7F9F9F9F7F7FBFBFBF7F7FFFFFFF7F1D
:100350002040FF4020621517156500FBFB000000E0
:1003600000000000C0FF0300E0FF0700F0FF0F00E7
:10037000F8FF1F0078001E0078001E0078001E00A5
:1003800078001E0078001E0078001E0078001E0015
:1003900078001E0078001E00000000000000000031
:1003A00080FF0300E0FF0700F0FF0F00F8FF1F00D1
:1003B000F83C1F00783C1E00783C1E00783C1E0074
:1003C000783C1E00783C1E00783C1E00783C1E00E5
:1003D000783C1E00783C1E00783C1E0000000000A7
:1003E00000000000E0FF0300F0FF0700F8FF0F002F
:1003F000F8FF1F00783C1E00783C1E00783C1E0071
:10040000783C1E00783C1E00783C1E00783C1E00A4
:10041000783C1E00783C1E00783C1E000000000066
:1004200000000000F8FF0300F8FF0F00F8FF1F00B6
:10043000F8FF1F0000001E0000001E0000801F00CB
:1004400000F01F0000FF0F00E0FF0700F0FF0000BA
:10045000F80F0000F80000007800000078000000AD
:10046000F8FF1F00F8FF1F00F0FF1F00E0FF1F0054
:100470000000000000000000F8FF1F00F8FF1F0050
:10048000F8FF1F00F8FF1F0078001E00783C1E00D8
:10049000783C1E00783C1E00783C1E00783C1E0014
:1004A000783C1E00F87E1F00F8FF1F00F0FF0F00D1
:1004B000E0E703000000000000003800EEFF6C00E1
:1004C0002A8045003A0047FC03FF6CFC83FF39009B
:1004D000DEFF0B7CD0810BFCD0810BC0D0810BFCEC
:1004E000D0810B7CDEFF0B0082FF397002FF6CF8BD
:1004F0003A0047DC2A8045CCEEFF6CCC0000380087
:100500000000000C00001E0C00001E0000001E0079
:1005100000001E0000001E00F8FF1F00F8FF1F0073
:10052000F8FF1F00F8FF1F0000001E0000001E0063
:1005300000001E0000001E0000005E0000004000E1
:1005400000007C00000040000000400000007C0033
:1005500000003000000010000000300000007C6E41
:10056000616E00696E660000407A10F35A00A07256
:100570004E18090010A5D4E80000E87648170000DE
:10058000E40B54020000CA9A3B000000E1F50500AC
:100590000080969800000040420F000000A08601F5
:1005A000000000102700000000E8030000000064C5
:1005B00000000000000A0000000000010000000030
:1005C000002C76D888DC674F0823DFC1DFAE59E105
:1005D000B1B796E5E3E453C63AE651997696E8E674
:1005E000C28426EB898C9B62ED407C6FFCEFBC9C47
:1005F0009F40F2BAA56FA5F490055A2AF75C936B59
:100600006CF9676DC11BFCE0E40D47FEF520E6B513
:1006100000D0ED902E0300943577050080841E08ED
:100620000000204E0A000000C80C333333330F980B
:100630006E12831141EF8D2114893BE65516CFFED2
:10064000E6DB18D1844B381BF77C1D901DA4BBE45E
:1006500024203284725E228100C9F124ECA1E53DA0
:10066000270011241FBECFEFD8E0DEBFCDBF11E0C1
:10067000A0E0B1E0E6EBF7E402C005900D92A838E7
:10068000B107D9F722E0A8E8B1E001C01D92AC376C
:10069000B207E1F70E94BD030C94D9230C9400002B
:1006A0008FE00E944A09882331F40E94D50A8FE026
:1006B00061E00E9492098FE091E008958FE00E942E
:1006C0004A09813019F020E030E013C080917A00AF
:1006D000806480937A0080917A0086FDFCCF30910F
:1006E000780020917900922F80E0232F30E0282B92
:1006F000392BC9010895582F809100018830D8F412
:1007000040917E0021E030E0B90102C0660F771F02
:100710008A95E2F7CB018095842380937E008091B7
:100720007E00052E02C0220F331F0A94E2F7822BAF
:1007300080937E000DC020917E0081E090E0052E28
:1007400002C0880F991F0A94E2F7282B20937E009D
:100750005093000180917C005F71807E852B809397
:100760007C000895ECE7F0E090818295880F880F77
:10077000807C9F73982B908308950E94EE0A0E94BC
:10078000E00A0E94581980E090E008950F931F93AB
:1007900080E460E00E94A50400E0802F60E00E94F9
:1007A0008C0410E080E061E00E94A5041F5F103817
:1007B000C9F70F5F043089F783E060E00E94850489
:1007C0001F910F9108950F931F9382E00E944A0991
:1007D000882311F482E006C081E00E944A09882340
:1007E00019F481E090E06DC00E94560D85E061E053
:1007F0000E9492098EEA60E00E94A50482EA60E00D
:100800000E94A50480EA60E00E94A50400E513ECC4
:10081000C8010197F1F780EC60E00E94A5048FE227
:1008200060E00E94A50481E860E00E94A50486E1E2
:1008300060E00E94A50482E260E00E94A504C80175
:100840000197F1F78FEA60E00E94A50486EA60E074
:100850000E94A50485EA60E00E94A50480E090E083
:1008600028E833E1F9013197F1F7019643E0883E3A
:100870009407C1F783EB60E00E94A50480E460E088
:100880000E94A50483E060E00E948C0483E060E0A5
:100890000E94850410921402109216021092150202
:1008A00087E091E0909379028093780288E10E943A
:1008B00064040E94C60384EA60E00E94A50485E007
:1008C00091E01F910F9108951F93182F85E00E94CA
:1008D0004A098130C1F487E00E94C00482E06AE0E6
:1008E0000E94110582E061EB0E941105612F113217
:1008F00008F060E282E00E94110589EE8A95F1F726
:1009000087E00E94C0041F91089583706F77609301
:1009100012028093130208950F931F93062F162F30
:100920001F778370806B60E00E94A50412951F7092
:10093000812F806160E00E94A504802F8F7060E0AD
:100940000E94A5041F910F9108950F931F93082FE4
:10095000162F85E00E944A09813079F4112319F09D
:10096000113021F402C02B9801C02B9A86E08A95A1
:10097000F1F780E0602F0E9411051F910F910895FB
:100980001F93182F82E00E944A09813009F047C066
:10099000912F977080911702981709F440C0909397
:1009A000170285B1887F892B85B9933011F1943076
:1009B00028F4913051F0923090F40CC0953019F138
:1009C0009530E0F0963021F50FC0E091DA01F0911A
:1009D000DB0122C0E091D801F091D9011DC0E09166
:1009E000DC01F091DD0118C0E091E401F091E50136
:1009F00013C0E091DE01F091DF010EC0E091E00153
:100A0000F091E10109C0E091E201F091E30104C03D
:100A1000E091E601F091E701309709F009951F9107
:100A200008951F93162F0E94C00482E00E944A0975
:100A3000813021F41EBD0DB407FEFDCF1F91089536
:100A40000F931F93CF93DF9380E291E00E942021C8
:100A50009C019093F7018093F601892B11F480E0BB
:100A600039C08901C0E0D0E0BE0180E090E00E9482
:100A70006E1A20E030E040EA51E40E94061A27EFA7
:100A800035E740E05FE30E94201B9B01AC0160E082
:100A900070E080E291E40E94381F9B01AC01CA0122
:100AA000B9012DEC3CEC42E851E40E94201B0E946D
:100AB000FE1E2AE030E040E050E00E949D20F80158
:100AC00061937193819391938F012196C834D105DD
:100AD00059F681E0DF91CF911F910F9108958AE03F
:100AE0000E944A09882371F41092F3011092F201D6
:100AF00081E00E94400F81E08093E9018AE061E09B
:100B00000E9492098AE091E008951F938BE00E9471
:100B10004A09882311F090E021C089E00E944A0927
:100B20008823D9F40E942005182F8130B1F4109247
:100B3000EA011092EB011092EC011092ED018DE0B0
:100B40006CEA7EE00E942E0D82E00E94400F10931E
:100B5000E80189E061E00E94920991E089E01F913B
:100B60000895813029F0823031F090E089E00895D5
:100B70000E946F0508950E94850508958F929F92A7
:100B8000AF92BF92CF92DF92EF92FF920F931F939B
:100B9000CF93DF934B015C01EA01B90121153105C7
:100BA00039F19E01442737FD4095542F6536710574
:100BB00010F064E670E080E090E00E949D2024E662
:100BC00030E040E050E00E94AD2079018A01C5018B
:100BD000B4010E94AF0EC7010E94760A60E070E087
:100BE00080E090E00E94AF0ECE018E199F0904C0F4
:100BF0004115510519F0CA010E94760ADF91CF9183
:100C00001F910F91FF90EF90DF90CF90BF90AF902A
:100C10009F908F9008952F923F924F925F926F9284
:100C20007F928F929F92AF92BF92CF92DF92EF927C
:100C3000FF920F931F93DF93CF93CDB7DEB7582E5C
:100C4000962E442E39013C2CC98CDA8C2B8C81E0F9
:100C5000681739F1681728F092E0691709F085C024
:100C600049C080E061E00E94140880E0B7010E9462
:100C7000DD0780E0642DA3019801032DEE24E394A9
:100C8000EFE4CE2EE2E0DE2E0E944B08552009F064
:100C90006CC000D00F92EDB7FEB71182B382A28272
:100CA00023C081E061E00E94140881E0B6010E9447
:100CB000DD0781E0682D4D895E892F89388D022DF1
:100CC000EE24E3947FE4C72E72E0D72E0E944B08F7
:100CD000552009F04AC000D00F92EDB7FEB79182BF
:100CE0008C8D9D8D938382830E94FC080F900F90C2
:100CF0000F903BC082E061E00E94140880E0B701E1
:100D00000E94DD0781E0B6010E94DD0780E0642DCE
:100D1000A3019801032DEE24E3949FE4C92E92E0F1
:100D2000D92E0E944B0881E0682D4D895E892F895C
:100D3000388D022D0E944B085520B9F400D000D008
:100D40000F92ADB7BEB71196EDB7FEB79182FD0118
:100D5000B282A1828C8D9D8D948383830E94FC0836
:100D60000F900F900F900F900F90CF91DF911F91E8
:100D70000F91FF90EF90DF90CF90BF90AF909F903A
:100D80008F907F906F905F904F903F902F9008953D
:100D90006F927F928F929F92AF92BF92CF92DF928B
:100DA000EF92FF920F931F93DF93CF93CDB7DEB7F0
:100DB000942E7C2DD50149895A89AB88BC88CD8871
:100DC000DE889F89813009F457C08130B8F18230C4
:100DD00009F076C0613091F0613020F0623009F0A6
:100DE0006FC015C080E060E00E94140880E0B70189
:100DF0000E94DD0780E0692DA8011DC081E060E050
:100E00000E94140881E0B6010E94DD0711C082E053
:100E100060E00E94140880E0B7010E94DD0781E0D5
:100E2000B6010E94DD0780E0692DA8010E94C60777
:100E300081E0682DA5010E94C60742C0EDB7FEB74C
:100E400039970FB6F894FEBF0FBEEDBF6DB67EB6F4
:100E50000894611C711C52834183F301B382A28206
:100E6000D582C4829683888D998D9087878380E010
:100E7000492DC72E5D011AC0EDB7FEB739970FB6E1
:100E8000F894FEBF0FBEEDBFADB7BEB7119652834B
:100E90004183FD01B382A282D582C48296831086EB
:100EA000178281E0492DC72EAA24BB240E940B067D
:100EB0008DB79EB709960FB6F8949EBF0FBE8DBF33
:100EC000CF91DF911F910F91FF90EF90DF90CF9026
:100ED000BF90AF909F908F907F906F9008950E94E9
:100EE000850F81E080934E02E8E1F2E011921192C9
:100EF00011821082329611821082329611821082F3
:100F000032961182108232961182108232961182AC
:100F1000108232961182108232961182108232969D
:100F200011821082329611821082329611821082C2
:100F3000329611821082369611921192119210827D
:100F40003296119211921192119211921192119264
:100F50001182108232961182108232961182108292
:100F60003296118210827697118210823296118207
:100F7000108210924D0210924C0210924E0287E0A5
:100F800061E00E94920987E091E00895EF92FF925C
:100F90000F931F93182F062F7A0160E00E94140808
:100FA000812F602F0E94FF07812FB7010E9429081F
:100FB0001F910F91FF90EF900895482F81E080934B
:100FC0004E02CB0123E0693E720710F088EE93E0F9
:100FD000413071F0413018F0423071F405C0909307
:100FE00023028093220208C090932302809322025E
:100FF000909325028093240210924E020895982F18
:1010000081E080934E02913051F0913018F092308F
:1010100041F403C060933B0204C060933B026093C1
:101020003C0210924E020895982F81E080934E0268
:10103000913051F0913018F0923041F403C0609338
:10104000180204C0609318026093190210924E02B5
:101050000895482F81E080934E02CB0121E0613951
:10106000720710F080E991E0413071F0413018F0E2
:10107000423071F405C090931B0280931A0208C09D
:1010800090931B0280931A0290931D0280931C027E
:1010900010924E0208958F929F92AF92BF92CF927C
:1010A000DF92EF92FF920F931F93CF93DF93182F4E
:1010B000F62E5A014901E60161E00E941408812FD1
:1010C000B501A4010E94BF0F812F6F2D0E94FF0761
:1010D000812F602F0E94AA0F812FB5010E948F0FD0
:1010E000C114D10499F0113049F0113018F01230C8
:1010F00069F406C0188210924A0208C0198204C01E
:101100001882198210924A0210924B02D0934D021B
:10111000C0934C02EE20B9F588E891E090934D021F
:1011200080934C02812FB4010E942908812F0E94D4
:10113000700F113071F0113018F0123059F512C0E3
:101140001092880110924A02809188018823E1F36D
:1011500021C01092890110924B028091890188234D
:10116000E1F318C0109288011092890110924A028E
:1011700010924B02809188018823E1F380918901CC
:101180008823C1F307C0812FB4010E942908812F51
:101190000E94700FDF91CF911F910F91FF90EF9000
:1011A000DF90CF90BF90AF909F908F9008950F9356
:1011B0001F93182F062F662349F460E070E00E9409
:1011C0002908812F60E070E00E948F0F81E08093FA
:1011D0004E02113051F0113018F0123041F403C0BA
:1011E0000093360204C00093360200933702109237
:1011F0004E021F910F910895CF92DF92EF92FF92CE
:101200000F931F93DF93CF93CDB7DEB78B858130DC
:1012100061F0813018F08230A1F511C0EC85FD85B8
:1012200080914F028823E1F306C0EC85FD85809113
:1012300050028823E1F3309721F1099522C0CC8434
:10124000DD84EE84FF8400E010E0002351F48091FF
:101250004F02882331F0C114D10411F0F601099531
:1012600001E0112351F480915002882331F0E11400
:10127000F10411F0F701099511E0002331F3112376
:1012800021F3CF91DF911F910F91FF90EF90DF90AD
:10129000CF900895E82FF0E0E331F10540F4E25CEF
:1012A000FF4FEE0FFF1F0590F491E02D099480E0B1
:1012B00008958091FF010895809100020895809122
:1012C0000102089580910202089580910302089519
:1012D000809105020895809104020895809106028C
:1012E00008958091070208958091080208958091E1
:1012F0000902089580910A02089580910B020895D1
:1013000080910C02089580910D02089580910E0243
:10131000089580910F0208958091100208958091A0
:1013200011020895E82FF0E0E331F10508F040C024
:10133000EF5AFF4FEE0FFF1F0590F491E02D099437
:101340006093FF0108956093000208956093010285
:1013500008956093020208956093030208956093D4
:1013600005020895609304020895609306020895AB
:10137000609307020895609308020895609309023C
:10138000089560930A02089560930B020895609394
:101390000C02089560930D02089560930E02089563
:1013A00060930F02089560931002089560930F02F6
:1013B00008951F93CF93DF93182F80918B0188237B
:1013C00041F080919501882399F010928B01109241
:1013D00095010E941F1080938A018FE891E061E0DF
:1013E00040E022E330E00E94970A81E080938B0185
:1013F00090918A01A12FB0E0ED01CF5FDE4F88818F
:10140000882369F0FD01EC5FFE4F80819823C1F0D5
:10141000FD01E457FE4F81E08083188211C0FD0179
:10142000E457FE4F808181111082FD01EC5FFE4F79
:101430008081982329F4FD01EF5FFE4F81E08083D6
:10144000A457BE4F8C91DF91CF911F91089582E0F8
:101450000E944A09882319F490E082E008951092CE
:101460006602109265021092680210926702109252
:101470006A021092690210926C0210926B02109232
:101480006E0210926D0280E991E090935202809377
:10149000510290935402809353029093560280938A
:1014A0005502909358028093570290935A0280936A
:1014B000590284E398E090935C0280935B029093DE
:1014C0005E0280935D029093600280935F0290932E
:1014D000620280936102909364028093630281E0D0
:1014E00061E00E94920991E081E00895DF93CF933B
:1014F000CDB7DEB729970FB6F894DEBF0FBECDBFCC
:101500009C01CE01019661E040E00E94970A982F6D
:10151000882319F48F818823E9F3892F29960FB640
:10152000F894DEBF0FBECDBFCF91DF910895EF924B
:10153000FF920F931F93CF93DF93EC01F62EE42ECF
:10154000890188E00E944A09813011F081E026C0BB
:1015500084E090E00E942021FC01009711F482E0D9
:101560001DC0F982F0FC1E8281E0E81619F4898121
:10157000846089838981886089831B830A831D83B2
:101580000C83D183C0831382128281E08093F8019F
:10159000CF010E9450101092F80180E0DF91CF91AE
:1015A0001F910F91FF90EF9008958FE180937C0041
:1015B000EAE7F0E087E08083808180688083089597
:1015C0000E94FC0F0E94050E0E94420D0E94B9105D
:1015D0000E946A0E0E94270A7894089500000895D8
:1015E0001F920F920FB60F9211242F933F934F9398
:1015F0005F936F937F938F939F93AF93BF93EF937B
:10160000FF93E091B801F091B901309709F0099585
:10161000FF91EF91BF91AF919F918F917F916F91CA
:101620005F914F913F912F910F900FBE0F901F90A0
:1016300018951F920F920FB60F9211242F933F937C
:101640004F935F936F937F938F939F93AF93BF93CA
:10165000EF93FF93E091BA01F091BB01309709F04D
:101660000995FF91EF91BF91AF919F918F917F91DC
:101670006F915F914F913F912F910F900FBE0F90FF
:101680001F9018951F920F920FB60F9211242F934F
:101690003F934F935F936F937F938F939F93AF93FA
:1016A000BF93EF93FF93E091BC01F091BD013097A0
:1016B00009F00995FF91EF91BF91AF919F918F91A3
:1016C0007F916F915F914F913F912F910F900FBE3E
:1016D0000F901F9018951F920F920FB60F92112422
:1016E0002F933F934F935F936F937F938F939F932A
:1016F000AF93BF93EF93FF93E091AA01F091AB01F9
:10170000309709F00995FF91EF91BF91AF919F91AB
:101710008F917F916F915F914F913F912F910F909A
:101720000FBE0F901F9018951F920F920FB60F9239
:1017300011242F933F934F935F936F937F938F93D6
:101740009F93AF93BF93EF93FF93E091AC01F09120
:10175000AD01309709F00995FF91EF91BF91AF91DD
:101760009F918F917F916F915F914F913F912F91B9
:101770000F900FBE0F901F9018951F920F920FB6EB
:101780000F9211242F933F934F935F936F937F9307
:101790008F939F93AF93BF93EF93FF93E091AE012D
:1017A000F091AF01309709F00995FF91EF91BF914A
:1017B000AF919F918F917F916F915F914F913F91E9
:1017C0002F910F900FBE0F901F9018951F920F92A0
:1017D0000FB60F9211242F933F934F935F936F9304
:1017E0007F938F939F93AF93BF93EF93FF93E0917A
:1017F000B201F091B301309709F00995FF91EF9193
:10180000BF91AF919F918F917F916F915F914F9118
:101810003F912F910F900FBE0F901F9018951F9220
:101820000F920FB60F9211242F933F934F935F9314
:101830006F937F938F939F93AF93BF93EF93FF9398
:10184000E091B401F091B501309709F00995FF914D
:10185000EF91BF91AF919F918F917F916F915F9128
:101860004F913F912F910F900FBE0F901F901895A1
:101870001F920F920FB60F9211242F933F934F9305
:101880005F936F937F938F939F93AF93BF93EF93E8
:10189000FF93E091B001F091B101309709F0099503
:1018A000FF91EF91BF91AF919F918F917F916F9138
:1018B0005F914F913F912F910F900FBE0F901F900E
:1018C00018951F920F920FB60F9211242F933F93EA
:1018D0004F935F936F937F938F939F93AF93BF9338
:1018E000EF93FF93E091B601F091B701309709F0C3
:1018F0000995FF91EF91BF91AF919F918F917F914A
:101900006F915F914F913F912F910F900FBE0F906C
:101910001F9018951F920F920FB60F9211242F93BC
:101920003F934F935F936F937F938F939F93AF9367
:10193000BF93EF93FF93E091A001F091A101309745
:1019400009F00995FF91EF91BF91AF919F918F9110
:101950007F916F915F914F913F912F910F900FBEAB
:101960000F901F9018951F920F920FB60F9211248F
:101970002F933F934F935F936F937F938F939F9397
:10198000AF93BF93EF93FF93E091A201F091A30176
:10199000309709F00995FF91EF91BF91AF919F9119
:1019A0008F917F916F915F914F913F912F910F9008
:1019B0000FBE0F901F9018951F920F920FB60F92A7
:1019C00011242F933F934F935F936F937F938F9344
:1019D0009F93AF93BF93EF93FF93E091A401F09196
:1019E000A501309709F00995FF91EF91BF91AF9153
:1019F0009F918F917F916F915F914F913F912F9127
:101A00000F900FBE0F901F9018951F920F920FB658
:101A10000F9211242F933F934F935F936F937F9374
:101A20008F939F93AF93BF93EF93FF93E091A601A2
:101A3000F091A701309709F00995FF91EF91BF91BF
:101A4000AF919F918F917F916F915F914F913F9156
:101A50002F910F900FBE0F901F901895E82F803296
:101A600068F48051833050F0F0E0EE0FFF1FE8562D
:101A7000FE4F208131817183608302C020E030E01D
:101A8000C901089580E10E944A09882361F4E8E9C8
:101A9000F1E01192119281E0E83DF807D1F780E181
:101AA00061E00E94920980E191E00895239A0895EF
:101AB000FF920F931F93CF93DF93F82E8AE0F816CF
:101AC000B1F08F1548F0E8E0FE16B9F1EF1538F1E6
:101AD000F7E0FF1651F43BC08DE0F81659F0EBE14A
:101AE000FE1689F0FCE0FF1641F001E041C01092C3
:101AF000120203C0109212023AC080911302815068
:101B00008093130234C00E94C60314C080E061E0D9
:101B10000E94A504809112028F5F8093120280912F
:101B2000120287FFF3CF10921202809113028150AC
:101B30008093130200E011E01CC080911202882300
:101B4000B1F08091120286508093120210C081E0A1
:101B50000E94B10564EF71E080E090E04DE750E055
:101B600024E630E00E94BE0581E00E94360F00E0CE
:101B700010E080911302609112020E948C040023F5
:101B800051F185E0F89EC0011124EC01C355DF4FEF
:101B90008C010E541F4FFE01849161E00E94A50448
:101BA0002196C017D107B9F780E061E00E94A50433
:101BB000809112028A5F809312028091120290E05B
:101BC0008C3791053CF010921202809113028150E3
:101BD0008093130211E080911302837080931302AB
:101BE000113059F480911402813039F4E0911502DA
:101BF000F0911602309709F0099580E090E0DF91AE
:101C0000CF911F910F91FF90089580E00E944A09A3
:101C1000882351F4F8940E94F31081E00E94170E7B
:101C200080E061E00E94920980E091E008958130B7
:101C300049F0F894813020F18230B1F0833009F01E
:101C400045C017C02C9A80E8809361001092610013
:101C500080E090E00000019688329105D9F710925B
:101C6000680010926B00089580E88093610083E023
:101C700004C080E88093610088E08093610028C000
:101C800080E090E0000001962DE680369207D1F7C3
:101C90002C9880E090E0000001962DE680369207B7
:101CA000D1F710927A008FEF8093640080916800E2
:101CB00081608093680080916B00846080936B00EA
:101CC000789483B7816083BF88950895823008F047
:101CD000789408950F931F930E941F1180E06EE087
:101CE00071E10E94A30E81E066E071E10E94A30E03
:101CF00082E06EEF70E10E94A30E86E066E171E182
:101D00000E94A30E06EF10E183E0B8010E94A30E2B
:101D100084E0B8010E94A30E85E0B8010E94A30EE2
:101D200087E0B8010E94A30E82E061E00E94920960
:101D30008FEF8093170287E00E94C00482E091E059
:101D40001F910F910895E82FF0E0EE0FFF1FE8526A
:101D5000FE4F7183608308950E94C60E08959B0113
:101D6000AC018091E901882381F0DA01C901880F73
:101D7000991FAA1FBB1F9093F5018093F4012115B1
:101D800031054105510509F45F9808958091EA01F4
:101D90009091EB01A091EC01B091ED012091EE0149
:101DA0003091EF014091F0015091F101280F391F5E
:101DB0004A1F5B1F2093EA013093EB014093EC0133
:101DC0005093ED018091EA019091EB01A091EC011B
:101DD000B091ED018851964FA040B040BCF08BB15E
:101DE00080588BB98091EA019091EB01A091EC01B0
:101DF000B091ED018851964FA040B0408093EA0128
:101E00009093EB01A093EC01B093ED0108958AE06B
:101E10000E944A09813041F40E9438111092E90170
:101E20008AE060E00E949209089589E00E944A09D0
:101E30008130D9F48091E801882311F00E946A0F63
:101E400082E00E9438118091F6019091F70100978D
:101E500031F00E94B8211092F7011092F601109211
:101E6000E80189E060E00E9492090895813029F03C
:101E7000823029F40E94150F08950E94070F0895DB
:101E8000982F8091E801882331F48091E90188231B
:101E900011F4579A5F988091E8018823D1F4923029
:101EA000C1F41092800010928100809181008860BE
:101EB00080938100809181008160809381001092E5
:101EC00085001092840081E08093890080E98093EE
:101ED00088000895EFE6F0E080818D7F808308958B
:101EE000982F81E080934E02913051F0913018F09C
:101EF000923041F403C01092360204C010923602B0
:101F00001092370210924E0208953A9A3B9A3C9AE8
:101F10003D9A3E9A3F9A88B1837088B90895982F68
:101F200081E080934E02913071F0913018F0923040
:101F300071F405C070932B0260932A0208C070935D
:101F40002B0260932A0270932D0260932C02109250
:101F50004E020895982F81E080934E02913051F007
:101F6000913018F0923041F403C06093380204C0FD
:101F7000609338026093390210924E0208950F93D5
:101F80001F93CF93DF93EB018A01813001F1813000
:101F900018F0823061F50DC08091220290912302E9
:101FA000892B11F080E01AC010922F0210922E029D
:101FB0001EC08091220290912302892B21F080E0A3
:101FC0000E94541104C010922F0210922E02809190
:101FD000240290912502892B31F081E0BE01A801F5
:101FE0000E94541104C01092310210923002DF910D
:101FF000CF911F910F9108951092FF01109200024E
:102000001092040210920102109203021092050233
:102010001092060210920702109208021092090212
:1020200010920A0210920B0210920C0210920D02F2
:1020300010920E0210920F021092100208950F9348
:102040001F9381E00E944A09813011F000E024C012
:1020500087E00E94C00482E06AE00E94110582E0ED
:1020600062EB0E94110518EC812F8A95F1F782E04E
:1020700060E00E942611082F812F8A95F1F782E0F7
:1020800060E00E9426111A95F1F787E00E94C004D3
:1020900088E893E10197F1F7802F1F910F91089540
:1020A000CF92DF92EF92FF920F931F93CF93DF9324
:1020B000EC0180916F02882339F4D0937102C093B0
:1020C00070020E94DE1047C0C0907002D090710272
:1020D00000E010E0EE24FF2437C0A881B981FD01A3
:1020E00064817581F60140815181FA018481958175
:1020F0009B01281B390B37FF0FC0861B970B95835D
:102100008483DB82CA82012B29F4D0937102C093AD
:10211000700221C0F7010CC0F60182819381211564
:10212000310549F4FD01158214829B838A83F601EF
:10213000D383C28310C0FD01358324830097B9F394
:102140000F5F1F4F76016C0180916F0290E00817BE
:10215000190718F2ECCF80916F028F5F80936F02A6
:10216000DF91CF911F910F91FF90EF90DF90CF9073
:10217000089588E00E944A098823B9F410926F02FA
:1021800010927102109270021092F8011092F901EF
:1021900080E161EC71E10E94E2100E94C8110E948E
:1021A000D81088E061E00E94920988E091E00895EB
:1021B000EEE6F0E0808182608083089581E0809384
:1021C000F9010895803218F020E030E00AC0E82FCD
:1021D000F0E0EE0FFF1FE856FE4F20813181718342
:1021E0006083C9010895249A2C9A089583E58CBDD3
:1021F00081E08DBD8DE08A95F1F7089583E58CBD72
:102200001DBC84EF91E00197F1F708958FE78CBD35
:102210001DBC84EF91E00197F1F7089583E58CBD33
:1022200081E08DBD8DE08A95F1F7089583E58CBD41
:1022300081E08DBD84EF91E00197F1F70895259A33
:102240002698279A209A219A229A08951F93162F4A
:102250000E94C00482E00E944A09813011F080E0AF
:1022600005C01EBD0DB407FEFDCF8EB51F910895AC
:10227000823029F4809181008E7F8093810080914B
:10228000E801813031F48091E901813011F40000DE
:1022900008958091E801813021F08091E901813039
:1022A00011F45F9857980895EF92FF920F931F9340
:1022B000CF93DF93EB01882321F0813009F05AC0DE
:1022C0002DC09A0140E050E0CA01B9010E949D2052
:1022D0002091220230912302220F331F40E050E070
:1022E0000E94AD2079018A01A8019701220F331FB6
:1022F000441F551FCE01A0E0B0E082179307A4074A
:10230000B50728F0F0922F02E0922E0233C0D69546
:10231000C795D0932F02C0932E022CC09A0140E0A3
:1023200050E0CA01B9010E949D2020912402309101
:102330002502220F331F40E050E00E94AD207901BA
:102340008A01A8019701220F331F441F551FCE0198
:10235000A0E0B0E082179307A407B50728F0F09239
:102360003102E092300206C0D695C795D093310273
:10237000C0933002DF91CF911F910F91FF90EF90AA
:1023800008950E94D1110E9411120E94EA1108952D
:1023900084B5826084BD85B5846085BD8EE487BDCB
:1023A000089588E00E944A09882311F484E0089582
:1023B0008091F901882311F483E008958091F80158
:1023C000882311F082E008950E945E148130E1F3C9
:1023D00080E008958091E901813011F58091F2014A
:1023E0009091F3012091F4013091F501280F391FEC
:1023F0003093F3012093F2018091F2019091F30167
:10240000885E93406CF08BB180588BB98091F2015B
:102410009091F301885E93409093F3018093F201D1
:10242000089587E00E944A09813009F0AAC080918E
:10243000220290912302892B09F18091460290910A
:1024400047022091220230912302820F931F909322
:102450004702809346028091460290914702885E2F
:102460009340A4F08091460290914702885E934089
:10247000909347028093460241E009C080911A027E
:1024800090911B0290931F0280931E0240E0809166
:10249000240290912502892B09F1809148029091A4
:1024A00049022091240230912502820F931F9093BC
:1024B0004902809348028091480290914902885EC7
:1024C0009340A4F08091480290914902885E934025
:1024D000909349028093480261E009C080911C02F8
:1024E00090911D02909321028093200260E0842F3E
:1024F0000E94C212809142029091430220911E02DA
:1025000030911F02280F391F30934302209342025B
:102510008091420290914302885E934014F440E01F
:102520000BC08091420290914302885E9340909349
:1025300043028093420241E080914402909145021F
:102540002091200230912102280F391F309345023B
:10255000209344028091440290914502885E93400A
:1025600014F460E00BC08091440290914502885EB3
:102570009340909345028093440261E0842F0E942F
:10258000071308958823F1F020911A0230911B025D
:1025900080911E0290911F02281B390B1216130600
:1025A00034F480911E0290911F02019607C0232BE4
:1025B00049F080911E0290911F02019790931F0293
:1025C00080931E02662311F120911C0230911D029E
:1025D0008091200290912102281B390B12161306BC
:1025E00054F480912002909121020196909321024F
:1025F000809320020895232B49F08091200290912E
:1026000021020197909321028093200208950F9355
:102610001F93182F062F80914E02882309F0E7C0E0
:1026200080913602882309F05AC080911E02909151
:102630001F02892BE9F48091FA01837E8093FA01CD
:1026400010923F0280914A02882309F45DC0609194
:10265000380280E00E94D708E0914C02F0914D02D0
:10266000309709F451C081E0808310924A024CC037
:1026700080911802813041F480912A0290912B02BE
:10268000019711F411E002C01123F1F1E0913D0234
:10269000F0E0EB5EFE4F9091FA01937E8081892BF2
:1026A0008093FA0180913B02882321F480913D02BE
:1026B0008F5F03C080913D02815080933D028091E5
:1026C0003D02837080933D0281E080933F028091C0
:1026D00018028130C9F480E00E940A1415C090915C
:1026E000FA01937E9093FA01E0913D02F0E0EB5EF7
:1026F000FE4F8081892B8093FA0182E080933F0214
:1027000010921F0210921E0280913702882309F056
:1027100059C08091200290912102892BE9F4809187
:10272000FA018F718093FA011092400280914B025E
:10273000882309F45CC06091390281E00E94D708C7
:10274000E0914C02F0914D02309709F450C081E0C5
:10275000818310924B024BC080911902813041F469
:1027600080912C0290912D02019711F401E002C09A
:102770000023E9F1E0913E02F0E0E75EFE4F909128
:10278000FA019F718081892B8093FA0180913C022C
:10279000882321F480913E028F5F03C080913E0226
:1027A000815080933E0280913E02837080933E026E
:1027B00081E080934002809119028130C1F40E942F
:1027C0000A1415C09091FA019F719093FA01E0915B
:1027D0003E02F0E0E75EFE4F8081892B8093FA0194
:1027E00082E0809340021092210210922002809198
:1027F0004102882331F48AEF91E0612F402F0E943B
:10280000CC1488B183709091FA01892B88B91F91FB
:102810000F910895882321F0813009F04EC027C020
:1028200080912A0290912B02892B49F080912A02F3
:1028300090912B02019790932B0280932A02809112
:102840004A028823D1F520912A0230912B028091EF
:102850002E0290912F022817390779F580E060E069
:1028600070E00E94290881E080934A0208958091D7
:102870002C0290912D02892B49F080912C0290918D
:102880002D02019790932D0280932C0280914B0290
:10289000882399F420912C0230912D0280913002EE
:1028A000909131022817390741F481E060E070E02F
:1028B0000E94290881E080934B020895FF920F93B4
:1028C0001F93CF93DF9380916F02882309F459C03F
:1028D0000091700210917102F801C081D1818C8148
:1028E0009D8101979D838C83181619060CF449C0AD
:1028F000898180FF05C08E81882311F481E08E8359
:10290000898181FF03C0EF81F885099580916F026D
:102910008230A8F0F80182819381909371028093B4
:10292000700213821282E0910000F0910100848114
:102930009581181619063CF0FF24F39405C01092F7
:10294000710210927002FF2480916F028150809377
:102950006F0280916F02882311F40E94C91489814B
:1029600082FF08C08A819B819D838C83C8010E945D
:10297000501008C0C8010E94B82189818F7E8983C8
:1029800001C0FF248F2DDF91CF911F910F91FF90F8
:1029900008951092F9010895FC0180913F02823060
:1029A00069F48091FE0191E089278093FE018823DC
:1029B00009F03EC08081837E80833AC080911E02F0
:1029C00090911F02C397A4F56623D1F020911E02B7
:1029D00030911F0280E690E0BC01269FC001279F36
:1029E000900D369F900D1124880F892F881F990B09
:1029F000909333028093320281E08093FC0118C0EF
:102A00008091FC018823A1F08091320290913302E1
:102A10000197909333028093320280913202909119
:102A20003302892B29F48081837E80831092FC01FC
:102A300080914002823069F48091FD0191E0892704
:102A40008093FD01882309F03EC080818F718083CF
:102A500008958091200290912102C397A4F5442308
:102A6000D1F0209120023091210280E690E0AC016B
:102A7000249FC001259F900D349F900D1124880F35
:102A8000892F881F990B909335028093340281E03F
:102A90008093FB0108958091FB018823A1F0809130
:102AA000340290913502019790933502809334025D
:102AB0008091340290913502892B29F480818F71A5
:102AC00080831092FB0108958F92AF92BF92CF92B4
:102AD000EF92FF920F931F931F921F921F9281E01C
:102AE0008F9380E98F931F9288EC8F931F921F9290
:102AF000812CA12CB12CC12C0F2EF0E9EF2EFF243C
:102B0000F394F02D08EC10E020E030E040E062E0CB
:102B100082E00E94C80684EF91E00E94760A60E09D
:102B200082E00E94D7088DB79EB709960FB6F89439
:102B30009EBF0FBE8DBF1F910F91FF90EF90CF9062
:102B4000BF90AF908F9008958F92AF92BF92CF9227
:102B5000EF92FF920F931F931F921F921F9281E09B
:102B60008F9380E98F931F9288EC8F931F921F920F
:102B700088248394A12CB12CC12C0F2EF0E9EF2EC8
:102B8000FF24F394F02D08EC10E020E030E041E069
:102B900062E082E00E94C80684EF91E00E94760A1B
:102BA00060E082E00E94D7088DB79EB709960FB605
:102BB000F8949EBF0FBE8DBF1F910F91FF90EF90B5
:102BC000CF90BF90AF908F9008958F92AF92BF92A9
:102BD000CF92EF92FF920F931F93CF931F921F926A
:102BE0001F9283E08F9380E28F931F92C8ECCF9364
:102BF0001F9282E88F9388248394A12CB12CC12C3E
:102C00000F2EF0E2EF2EF3E0FF2EF02D08EC10E097
:102C100022E830E040E062E080E00E94C8061F92B7
:102C20001F921F9281E08F9380E98F931F92CF9321
:102C30001F921F92812C0F2EF0E9EF2EFF24F394A8
:102C4000F02D20E030E040E062E082E00E94C80623
:102C500084EF91E00E94760A60E082E00E94D7084B
:102C60008DB79EB742960FB6F8949EBF0FBE8DBF2C
:102C7000CF911F910F91FF90EF90CF90BF90AF90A9
:102C80008F9008958F92AF92BF92CF92EF92FF9262
:102C90000F931F93CF931F921F921F9283E08F93E6
:102CA00080E28F931F92C8ECCF931F9282E88F939C
:102CB000812CA12CB12CC12C0F2EF0E2EF2EF3E0D1
:102CC000FF2EF02D08EC10E022E830E041E062E059
:102CD00080E00E94C8061F921F921F9281E08F938E
:102CE00080E98F931F92CF931F921F920F2EF0E9CE
:102CF000EF2EFF24F394F02D20E030E040E062E07E
:102D000082E00E94C80684EF91E00E94760A60E0AB
:102D100082E00E94D7088DB79EB742960FB6F8940E
:102D20009EBF0FBE8DBFCF911F910F91FF90EF906F
:102D3000CF90BF90AF908F9008958F92AF92BF9237
:102D4000CF92EF92FF920F931F931F921F921F92A9
:102D500081E08F9380E98F931F9286E98F931F9272
:102D60001F92812CA12CB12CC12C0F2EF0E9EF2E3B
:102D7000FF24F394F02D08EC10E020E030E040E078
:102D800062E082E00E94C80684EF91E00E94760A29
:102D900060E082E00E94D7088DB79EB709960FB613
:102DA000F8949EBF0FBE8DBF1F910F91FF90EF90C3
:102DB000CF90BF90AF908F9008958F92AF92BF92B7
:102DC000CF92EF92FF920F931F931F921F921F9229
:102DD00081E08F9380E98F931F9288EC8F931F92ED
:102DE0001F92812CA12CB12CC12C0F2EF0E9EF2EBB
:102DF000FF24F394F02D06E910E020E030E040E0FD
:102E000062E082E00E94C80684EF91E00E94760AA8
:102E100060E082E00E94D7088DB79EB709960FB692
:102E2000F8949EBF0FBE8DBF1F910F91FF90EF9042
:102E3000CF90BF90AF908F9008958F92AF92BF9236
:102E4000CF92EF92FF920F931F931F921F921F92A8
:102E500081E08F9380E98F931F9286E98F931F9271
:102E60001F9288248394A12CB12CC12C0F2EF0E941
:102E7000EF2EFF24F394F02D08EC10E020E030E07A
:102E800041E062E082E00E94C80684EF91E00E9487
:102E9000760A60E082E00E94D7088DB79EB7099657
:102EA0000FB6F8949EBF0FBE8DBF1F910F91FF907C
:102EB000EF90CF90BF90AF908F9008958F92AF9288
:102EC000BF92CF92EF92FF920F931F931F921F9288
:102ED0001F9281E08F9380E98F931F9288EC8F93EC
:102EE0001F921F9288248394A12CB12CC12C0F2EE9
:102EF000F0E9EF2EFF24F394F02D06E910E020E036
:102F000030E041E062E082E00E94C80684EF91E098
:102F10000E94760A60E082E00E94D7088DB79EB7D3
:102F200009960FB6F8949EBF0FBE8DBF1F910F91EB
:102F3000FF90EF90CF90BF90AF908F90089522E3D5
:102F400030E044EF51E06AEF70E080E090E00E94F2
:102F5000BE0508950F93023069F11CF4013041F071
:102F600079C0033009F456C0043009F471C072C04E
:102F7000813049F461111BC0411119C0211117C0E2
:102F80000E94A41567C0811112C0613039F441114B
:102F90000EC021110CC00E9464155CC0611107C0F5
:102FA000411105C0213019F40E949D1653C00E94A2
:102FB000DD1650C0813081F4611120C0411105C07F
:102FC000213029F50E941D1745C0413001F521111E
:102FD0001EC00E945E173EC0811119C06130B9F455
:102FE000411105C0213099F40E949D1633C0413033
:102FF00071F421110CC00E94DD162CC0613039F42F
:10300000411105C0211103C00E94E51523C00E9493
:10301000641520C08130C9F4613071F4411105C0DC
:10302000213099F40E94E51515C0413071F4211149
:103030000CC00E9442160EC0611107C0413029F435
:10304000213019F40E94A41505C00E94641502C025
:103050000E949F170F910895CF93DF9381E00E9404
:10306000B20384E00E947B030E945E03EC01DF93C5
:10307000CF9383E291E09F938F930E946723BE01D9
:1030800080E090E00E946E1A20E030E040EA50E4D8
:103090000E949E199B01AC0160E070E286E395E41A
:1030A0000E94061A20E030E040E85FE30E949D198C
:1030B0002CE033E949EC5EE30E94201B0F900F9057
:1030C0000F900F90DF91CF91089581E00E94B2039D
:1030D00083E00E947B030E945E03BC0180E090E0DD
:1030E0000E946E1A20E030E040EA50E40E949E19EF
:1030F0009B01AC0160E070E286E395E40E94061A51
:1031000020E030E040E85FE30E949D192CE033E9C5
:1031100049EC5EE30E94201B089581E00E94B20307
:1031200087E00E947B030E945E03BC0180E090E088
:103130000E946E1A20E030E040EA50E40E949E199E
:103140009B01AC0160E070E286E395E40E94061A00
:1031500020E030E040E85FE30E949D192CE033E975
:1031600049EC5EE30E94201B089581E00E94B203B7
:1031700085E00E947B030E945E03BC0180E090E03A
:103180000E946E1A20E030E040EA50E40E949E194E
:103190009B01AC0160E070E286E395E40E94061AB0
:1031A00020E030E040E85FE30E949D192CE033E925
:1031B00049EC5EE30E94201B0895C1E00E948D1837
:1031C000362E472E582E692E0E94B518762E872E41
:1031D000982EA92E0E946518B62EC72ED82EE92E3D
:1031E0000E942C18F62E072F182FD92F0E94C603E5
:1031F000DF931F930F93FF92EF92DF92CF92BF92D4
:10320000AF929F928F927F926F925F924F923F9276
:10321000ACE2B1E0BF93AF930E946723ADB7BEB7F6
:1032200052960FB6F894BEBF0FBEADBF20E030E09F
:1032300040EA50E4632D742D852D962D0E94021ACC
:10324000880F880B682E6C2220E030E040EA50E4C2
:10325000672D782D892D9A2D0E94021A880F880BD0
:10326000A82EAC2220E030E040EA50E46B2D7C2D0B
:103270008D2D9E2D0E94021A880F880BE82EEC22BD
:1032800020E030E040EA50E46F2D702F812F9D2F19
:103290000E94021A880F880B282F2C230A2D060D56
:1032A0000E0D020F4E2D6A2D862D0E94AA1786CF75
:1032B0000E94E3038BE391E09F938F930E94672327
:1032C0000E94270A0F900F90913051F00E94C60380
:1032D00089E491E09F938F930E9467230F900F9052
:1032E00081E00E94B1050E94500381E00E94B20378
:1032F0000E946F0784E691E09F938F930E9467235B
:103300000E94C6030F900F900CE611E0C6E7D1E0D3
:103310001F930F930E946723DF93CF930E9467232D
:103320000E94C60380E00E94D9090F900F900F9071
:103330000F90882369F30E94DD185058BB27AA27F5
:103340000ED044C135D130F03AD120F031F49F3F56
:1033500011F41EF42AC10EF4E095E7FB20C1E92F19
:1033600046D180F3BA17620773078407950718F0F0
:1033700071F49EF55EC10EF4E0950B2EBA2FA02DD0
:103380000B01B90190010C01CA01A0011124FF2712
:10339000591B99F0593F50F4503E68F11A16F0400D
:1033A000A22F232F342F4427585FF3CF469537950C
:1033B0002795A795F0405395C9F77EF41F16BA0BD1
:1033C000620B730B840BBAF09150A1F0FF0FBB1F7F
:1033D000661F771F881FC2F70EC0BA0F621F731FC8
:1033E000841F48F4879577956795B795F7959E3F25
:1033F00008F0B3CF9395880F08F09927EE0F9795B3
:1034000087950895A8D008F481E008950CD0DEC017
:10341000D6D040F0CDD030F021F45F3F19F0BFC0DE
:10342000511108C1C2C0E3D098F39923C9F35523C1
:10343000B1F3951B550BBB27AA27621773078407A7
:1034400038F09F5F5F4F220F331F441FAA1FA9F35D
:1034500033D00E2E3AF0E0E830D091505040E6954F
:10346000001CCAF729D0FE2F27D0660F771F881FB0
:10347000BB1F261737074807AB07B0E809F0BB0B9F
:10348000802DBF01FF2793585F4F2AF09E3F5105C3
:1034900068F085C0CFC05F3FECF3983EDCF38695C3
:1034A00077956795B795F7959F5FC9F7880F911D39
:1034B0009695879597F90895E1E0660F771F881F25
:1034C000BB1F621773078407BA0720F0621B730BD8
:1034D000840BBA0BEE1F88F7E0950895E89409C0B5
:1034E00097FB3EF490958095709561957F4F8F4F37
:1034F0009F4F9923A9F0F92F96E9BB279395F6954D
:10350000879577956795B795F111F8CFFAF4BB0FCA
:1035100011F460FF1BC06F5F7F4F8F4F9F4F16C02E
:10352000882311F096E911C0772321F09EE8872FB8
:10353000762F05C0662371F096E8862F70E060E074
:103540002AF09A95660F771F881FDAF7880F9695ED
:10355000879597F90895990F0008550FAA0BE0E891
:10356000FEEF16161706E807F907C0F01216130645
:10357000E407F50798F0621B730B840B950B39F485
:103580000A2661F0232B242B252B21F408950A26EB
:1035900009F4A140A6958FEF811D811D089597F92B
:1035A0009F6780E870E060E008959FEF80EC0895E9
:1035B00000240A9416161706180609060895002412
:1035C0000A9412161306140605060895092E03948C
:1035D000000C11F4882352F0BB0F40F4BF2B11F400
:1035E00060FF04C06F5F7F4F8F4F9F4F089557FD5F
:1035F0009058440F551F59F05F3F71F04795880F61
:1036000097FB991F61F09F3F79F0879508951216F7
:1036100013061406551FF2CF4695F1DF08C01616A3
:1036200017061806991FF1CF869571056105089454
:103630000895E894BB2766277727CB0197F908956B
:103640000BD0C4CFB5DF28F0BADF18F0952309F00E
:10365000A6CFABCF1124EECFCADFA0F3959FD1F355
:10366000950F50E0551F629FF001729FBB27F00D30
:10367000B11D639FAA27F00DB11DAA1F649F662785
:10368000B00DA11D661F829F2227B00DA11D621FD4
:10369000739FB00DA11D621F839FA00D611D221F8E
:1036A000749F3327A00D611D231F849F600D211D72
:1036B000822F762F6A2F11249F5750408AF0E1F015
:1036C00088234AF0EE0FFF1FBB1F661F771F881F5E
:1036D00091505040A9F79E3F510570F060CFAACF9E
:1036E0005F3FECF3983EDCF3869577956795B79549
:1036F000F795E7959F5FC1F7FE2B880F911D969573
:10370000879597F90895A3E1B0E0E9E8FBE10C940F
:10371000DA207C011B016A01FC0117821682838179
:1037200081FF66C3BE016F5F7F4F4B01F70193813D
:10373000F10193FD859193FF81911F01882309F485
:1037400053C3853239F493FD859193FF81911F0115
:10375000853239F4B70190E00E94352356016501A6
:10376000E5CF10E0512C20E02032A0F48B3269F03C
:1037700030F4803259F0833269F420612CC08D32EC
:1037800039F0803339F4216026C02260246023C0E0
:10379000286021C027FD27C030ED380F3A3078F47B
:1037A00026FF06C0FAE01F9F300D1124132F13C00F
:1037B0006AE0569E300D1124532E20620CC08E32CA
:1037C00021F426FD11C3206406C08C3611F4206854
:1037D00002C0883641F4F10193FD859193FF8191F8
:1037E0001F018111C1CF9BEB980F933018F420611A
:1037F000805E06C09BE9980F933008F0AAC12F7E27
:1038000026FF16E02F73722E853621F4F22FF06416
:103810007F2E08C0863621F4622F6068762E02C0A3
:103820001111115077FE07C01C3348F4442443940F
:10383000410E27E00BC0183030F4212F06C027E0DE
:103840004CE3442E03C027E017E0412C560174E0FE
:10385000A70EB11CF6016081718182819381042DD4
:10386000A4010E9447226C01098100FF02C003FFEE
:1038700006C071FC07C072FC08C0612C08C03DE2A4
:10388000632E05C02BE2622E02C090E2692E802FCB
:103890008C7099F1662011F084E001C083E08515F9
:1038A00010F0512C0BC0581A73FC08C0B70180E20D
:1038B00090E00E9435235A94C9F7F3CF662029F08F
:1038C000B701862D90E00E94352303FD03C003E677
:1038D00015E002C00FE515E0F72DF0717F2EF8011D
:1038E0008491882309F476C271108052B70190E068
:1038F0000E9435230F5F1F4FF2CF77FE0FC04C0C95
:1039000004FF04C08A81813309F44A94141474F5C5
:10391000F8E0F41578F588E0482E2CC076FC2AC033
:10392000812F90E08C159D059CF06CEFC6166FEF13
:10393000D60674F0772D7068772E0AC0E2E0F0E0CA
:10394000EC0FFD1FE10FF11D8081803319F4115040
:103950001111F4CF77FE0EC044244394410E812F01
:1039600090E0C816D9062CF41C1904C044244394D2
:1039700001C010E077FE07C01C141D043CF4960142
:103980002F5F3F4F05C025E030E002C021E030E06E
:10399000662011F02F5F3F4F112331F0412F50E08F
:1039A0004F5F5F4F240F351F452D50E0241735071B
:1039B00014F4521A01C0512C872D897049F45520F6
:1039C00039F0B70180E290E00E9435235A94F7CF96
:1039D000662029F0B701862D90E00E94352373FC04
:1039E00009C0552039F0B70180E390E00E943523EB
:1039F0005A94F7CF77FE5FC09C2D8D2DD7FE02C065
:103A000090E080E0692E782E40E050E0C6018419F5
:103A100091099D878C87960126193709280D391D34
:103A2000812F90E0EE27FF27E81BF90BFF87EE8739
:103A3000FFEF6F167F0669F4B7018EE290E02B8BE3
:103A40003A8B488B598B0E943523598948893A898A
:103A50002B89C614D70454F06C857D8566157705CF
:103A60002CF4F901E40FF51F818101C080E371E0BE
:103A7000671A71084F5F5F4FEE85FF856E167F06F0
:103A80006CF0B70190E02B8B3A8B488B598B0E94DE
:103A900035232B893A8948895989CACF6C147D040A
:103AA00039F49A81963318F4953311F404FF81E3C5
:103AB000B70190E04BC08A81813309F00F7EB701D6
:103AC00090E00E943523111105C074FE18C085E4F2
:103AD00090E017C0B7018EE290E00E94352382E0AB
:103AE00066246394680EF401E80FF11D8081B7012C
:103AF00090E00E943523115041F3862DF1CF85E6E9
:103B000090E0B7010E943523D7FC05C0C114D10451
:103B100039F404FF05C0D194C194D1088DE201C0ED
:103B20008BE2B70190E00E94352380E36AE0C6167D
:103B3000D1042CF08F5FFAE0CF1AD108F7CFB7018C
:103B400090E00E943523B701C601C0960E9435233C
:103B500041C1833631F0833779F0833509F058C09D
:103B600021C0560172E0A70EB11CF6018081898345
:103B700001E010E0640114C05601F2E0AF0EB11C88
:103B8000F601C080D18026FF03C0612F70E002C023
:103B90006FEF7FEFC6012B8B0E942A238C012B89AC
:103BA0002F7715C05601F2E0AF0EB11CF601C080B0
:103BB000D18026FF03C0612F70E002C06FEF7FEF5E
:103BC000C6012B8B0E941F238C012B892068722E2B
:103BD00023FD1AC0852D90E008171907A8F4B70136
:103BE00080E290E00E9435235A94F4CFF60177FCEE
:103BF000859177FE81916F01B70190E00E94352396
:103C000051105A94015011090115110579F7E2C0BC
:103C1000843611F0893651F5560127FF09C0F4E0CA
:103C2000AF0EB11CF60160817181828193810AC05F
:103C3000F2E0AF0EB11CF60160817181882777FD3B
:103C40008095982F022F0F7697FF08C0909580954A
:103C5000709561957F4F8F4F9F4F00682AE030E04D
:103C6000A4010E947B23C82EC8183EC0022F8537AE
:103C700021F40F7E2AE030E01DC0097F8F3691F0DD
:103C800018F4883559F0B0C0803719F0883711F032
:103C9000ABC0006104FF09C0046007C024FF08C076
:103CA000066006C028E030E005C020E130E002C038
:103CB00020E132E0560107FF09C0F4E0AF0EB11C6D
:103CC000F601608171818281938108C0F2E0AF0EBC
:103CD000B11CF6016081718180E090E0A4010E9436
:103CE0007B23C82EC8180F7706FF0BC0202F2E7F0E
:103CF000C11650F404FF0AC002FD08C0202F2E7E1A
:103D000005C0DC2C202F03C0DC2C01C0D12E24FFE9
:103D10000DC0FE01EC0DF11D8081803311F4297E70
:103D200009C022FF06C0D394D39404C0822F8678A2
:103D300009F0D39423FD13C020FF06C01C2DD51419
:103D400018F4150D1D19D52CD51468F4B70180E2AF
:103D500090E02B8B0E943523D3942B89F5CFD5147B
:103D600010F45D1801C0512C24FF12C0B70180E38C
:103D700090E02B8B0E9435232B8922FF17C021FF57
:103D800003C088E590E002C088E790E0B7010CC06E
:103D9000822F867859F021FD02C080E201C08BE2BB
:103DA00027FD8DE2B70190E00E943523C11638F45B
:103DB000B70180E390E00E9435231150F7CFCA94F9
:103DC000F401EC0DF11D8081B70190E00E943523D4
:103DD000C110F5CF552009F4C2CCB70180E290E0C4
:103DE0000E9435235A94F6CFF7018681978102C04D
:103DF0008FEF9FEF6396E2E10C94F62000DCA8F1D0
:103E00009E57A8F1985160F039F1983070F5092E5D
:103E10009927660F771F881F991F0A94D1F71CC036
:103E2000BB27993F4CF4B111B1E0B62B672F782F27
:103E30008827985FB1F708C0869577956795B795FD
:103E400008F4B1609395C1F7BB0F30F411F460FF33
:103E500003C06F5F7F4F8F4F3EF4909580957095B4
:103E600061957F4F8F4F9F4F08956894E3CBE1CBCF
:103E7000FA01EE0FFF1F30962105310599F161150A
:103E8000710561F48038BFE39B0749F1689490386D
:103E9000810561F08038BFEF9B0741F0992342F51F
:103EA000FF3FE1053105210511F1E8940894E795FC
:103EB000D901AA2329F4AB2FBE2FF85FD0F310C08D
:103EC000FF5F70F4A695E0F7F73950F019F0FF3A6C
:103ED00038F49F779F930CD00F9007FC905808956B
:103EE0003EF063CB60E070E080E89FE308954FE729
:103EF0009F775F934F933F932F939ED02F913F9146
:103F00004F915F919DDB05C019F40EF048CB91CB2A
:103F10004CCB75DBC8F39638C0F707F80F92E894DE
:103F20002BE33AEA48EB5FE799DB0F920F920F928F
:103F30004DB75EB70F92C0D0E8ECF0E016D04F91CD
:103F40005F91EF91FF91E595EE1FFF1F49F0FE573E
:103F5000E0684427EE0F441FFA95E1F74195550BB1
:103F600032D00F9007FE26C00895DF93CF931F93A2
:103F70000F93FF92EF92DF927B018C01689405C052
:103F8000DA2EEF0169DBFE01E894A59125913591C8
:103F900045915591AEF3EF01E2D9FE019701A801D9
:103FA000DA9479F7DF90EF90FF900F911F91CF9106
:103FB000DF9108959B01AC0160E070E080E89FE331
:103FC00025CAEDCAACC01BDBE8F39923D9F3940FE3
:103FD000511DBBF39150504094F059F0882332F0BA
:103FE000660F771F881F91505040C1F79E3F5105C3
:103FF00044F7880F911D9695879597F908955F3F2F
:10400000ACF0983E9CF0BB27869577956795B79561
:1040100008F4B1609395C1F7BB0F58F711F460FF36
:10402000E8CF6F5F7F4F8F4F9F4FE3CF03CB0EF0F3
:1040300076C0BBCA6894B3CAE2DAC8F39923D1F355
:10404000C6F3DF93CF931F930F93FF92C92FDD2702
:1040500088232AF02197660F771F881FDAF720E060
:1040600030E040E85FEB9FE3883920F0803E30F09D
:1040700021968F7763D9E0EFF0E003C05FD9EDE1DF
:10408000F1E073DF8B01BE01EC01FB2E6F5771096C
:104090007595771F880B990B23DA28E132E741E306
:1040A0005FE3DADAAF2D9801AE01FF900F911F9117
:1040B000CF91DF9154D98ACAFA01DC01AA0FBB1F44
:1040C0009B01AC01BF5728F422273327442750789F
:1040D0001FC0B75188F4AB2F00244695379527951C
:1040E000011CA395D2F3002069F0220F331F441F57
:1040F000B395DAF30DD021C961307105A0E88A07C4
:10410000B94630F49B01AC01662777278827907861
:10411000309621F0208331834283538308959F3F5B
:1041200031F0915020F4879577956795B795880F72
:10413000911D9695879597F90895DB018F939F932D
:104140000E94CF20BF91AF91A29F800D911DA39F90
:10415000900DB29F900D11240895A1E21A2EAA1B72
:10416000BB1BFD010DC0AA1FBB1FEE1FFF1FA21727
:10417000B307E407F50720F0A21BB30BE40BF50B24
:10418000661F771F881F991F1A9469F760957095AD
:10419000809590959B01AC01BD01CF0108950E94CF
:1041A0001121A59F900DB49F900DA49F800D911D8E
:1041B000112408952F923F924F925F926F927F92B7
:1041C0008F929F92AF92BF92CF92DF92EF92FF9227
:1041D0000F931F93CF93DF93CDB7DEB7CA1BDB0BD3
:1041E0000FB6F894DEBF0FBECDBF09942A88398878
:1041F00048885F846E847D848C849B84AA84B9847F
:10420000C884DF80EE80FD800C811B81AA81B9818A
:10421000CE0FD11D0FB6F894DEBF0FBECDBFED019E
:104220000895A29FB001B39FC001A39F700D811D8F
:104230001124911DB29F700D811D1124911D0895AF
:10424000CF93DF938230910510F482E090E0E0910B
:104250007402F091750220E030E0A0E0B0E0309709
:1042600039F14081518148175907B8F0481759076B
:1042700071F482819381109729F013969C938E9309
:1042800012972CC0909375028093740227C0211559
:10429000310531F04217530718F0A901DB0101C0C5
:1042A000EF019A01BD01DF010280F381E02DD7CF3C
:1042B00021153105F9F0281B390B2430310580F424
:1042C0008A819B816115710521F0FB0193838283B3
:1042D00004C09093750280937402FE01329644C02C
:1042E000FE01E20FF31F819391932250310939832C
:1042F00028833AC02091720230917302232B41F43B
:1043000020911F013091200130937302209372029B
:1043100020911D0130911E012115310541F42DB769
:104320003EB74091210150912201241B350BE091B1
:104330007202F0917302E217F307A0F42E1B3F0BF9
:104340002817390778F0AC014E5F5F4F2417350707
:1043500048F04E0F5F1F5093730240937202819397
:10436000919302C0E0E0F0E0CF01DF91CF9108959A
:10437000CF93DF93009709F487C0FC013297138233
:104380001282C0917402D0917502209781F420812D
:104390003181280F391F8091720290917302821728
:1043A000930779F5F0937302E09372026DC0DE011A
:1043B00020E030E0AE17BF0750F412964D915C91AB
:1043C00013979D014115510509F1DA01F3CFB3832C
:1043D000A28340815181840F951F8A179B0771F436
:1043E0008D919C911197840F951F029691838083E4
:1043F00012968D919C911397938382832115310599
:1044000029F4F0937502E09374023EC0D90113962B
:10441000FC93EE9312974D915D91A40FB51FEA178F
:10442000FB0779F480819181840F951F0296D90151
:1044300011969C938E938281938113969C938E9375
:104440001297E0E0F0E08A819B81009719F0FE016D
:10445000EC01F9CFCE01029628813981820F931F9A
:1044600020917202309173022817390769F430974E
:1044700029F4109275021092740202C01382128203
:10448000D0937302C0937202DF91CF9108952830C8
:1044900008F027E03327DA01990F311D87FD91607D
:1044A00000966105710539F432602E5F3D9330E36B
:1044B0002A95E1F708959F3F30F080387105610536
:1044C00009F03C5F3C5F3D93913008F08068911D9E
:1044D000DF93CF931F930F93FF92EF92192F987F43
:1044E0009695E92F96959695E90FFF27EF53FA4F8A
:1044F00099273327EE24FF24A701E70105900894AC
:10450000079428F4360FE71EF81E491F511D660F49
:10451000771F881F991F0694A1F70590079428F428
:10452000E70EF81E491F561FC11D770F881F991FE0
:10453000661F0694A1F70590079428F4F80E491F0A
:10454000561FC71FD11D880F991F661F771F06941E
:10455000A1F70590079420F4490F561FC71FD81FD5
:10456000990F661F771F881F0694A9F784911095ED
:10457000177041F0D695C79557954795F794E794EE
:104580001A95C1F7E7E6F5E0689415901591359115
:104590006591959105907FE27395E118F10A430BBF
:1045A000560BC90BD009C0F7E10CF11E431F561F73
:1045B000C91FD01D7EF4703311F48A95E6CFE894BC
:1045C000015030F0080F0AF40027021708F4202FDA
:1045D0002395022F7A3328F079E37D932A95E9F722
:1045E00010C07D932A9589F606949795679537951F
:1045F00017951794E118F10A430B560BC90BD00914
:1046000098F023957E9173957A3308F070E37C934C
:104610002013B8F77E9170617D9330F0839571E33C
:104620007D9370E32A95E1F71124EF90FF900F91AD
:104630001F91CF91DF91992787FD90950895FC01F7
:104640000590615070400110D8F7809590958E0FBD
:104650009F1F0895FC016150704001900110D8F730
:10466000809590958E0F9F1F08950F931F93CF9362
:10467000DF93182F092FEB018B8181FD03C08FEF92
:104680009FEF20C082FF10C04E815F812C813D8151
:10469000421753077CF4E881F9819F012F5F3F4F58
:1046A00039832883108306C0E885F985812F099511
:1046B000892B29F72E813F812F5F3F4F3F832E8328
:1046C000812F902FDF91CF911F910F910895A0E03E
:1046D000B0E0EDE6F3E20C94EA20FE01359661913C
:1046E0007191AF0180917802909179020E94831BB1
:1046F000E2E00C940621FA01AA27283051F120317A
:1047000081F1E8946F936E7F6E5F7F4F8F4F9F4F65
:10471000AF4FB1E03ED0B4E03CD0670F781F891FA7
:104720009A1FA11D680F791F8A1F911DA11D6A0F75
:10473000711D811D911DA11D20D009F468943F9128
:104740002AE0269F11243019305D3193DEF6CF0127
:104750000895462F4770405D4193B3E00FD0C9F7ED
:10476000F6CF462F4F70405D4A3318F0495D31FD5A
:104770004052419302D0A9F7EACFB4E0A6959795AD
:10478000879577956795BA95C9F700976105710583
:1047900008959B01AC010A2E0694579547953795CD
:1047A0002795BA95C9F7620F731F841F951FA01D27
:0647B0000895F894FFCF0C
:1047B6001F0101011008040000000200000000585B
:1047C6000D00000000180C0410C080206000007C62
:1047D6000220004144433A2025690A0025662C2020
:1047E60025662C2025662C20256600536574746981
:1047F6006E672075702E2E2E004572726F722077AE
:1048060068656E206F70656E696E67204154544905
:104816004E5921000A526561647921005357333A93
:10482600204B696473000A5357343A204F74686505
:08483600722064656D6F7300D0
:00000001FF
