S01000006C61623464656D6F2E737265630C
S11300000C9431030C944E030C944E030C944E0345
S11300100C948A0C0C94B30C0C94DC0C0C94050D0D
S11300200C944E030C946B0B0C94940B0C94BD0B1E
S11300300C94380C0C94E60B0C940F0C0C94610C7F
S11300400C94F00A0C94190B0C94420B0C944E0370
S11300500C944E030C944E030C944E030C944E03D8
S11300600C944E030C944E030C944E030C944E03C8
S11300700C944E030C944E030C944E0359095C09E2
S11300805F0962096B09650968096E0971097409D8
S113009077097A097D0980098309860989098C0908
S11300A08F09A009A309A609A909B209AC09AF09D6
S11300B0B509B809BB09BE09C109C409C709CA09F8
S11300C0CD09D009D309D60907634236B79BD8A70F
S11300D01A39685618AEBAAB558C1D3CB7CC576369
S11300E0BD6DEDFD753EF6177231BF000000803F17
S11300F008000000BE922449123EABAAAA2ABECD33
S1130100CCCC4C3E00000080BEABAAAAAA3E0000A4
S11301100000BF000000803F00000000000841789C
S1130120D3BB4387D1133D190E3CC3BD4282AD2BD3
S11301303E68EC8276BED98FE1A93E4C80EFFFBECB
S113014001C4FF7F3F00000000001605010000000D
S113015000000000FA000000E000E00028FE28FE95
S1130160282454FE5448C4C81026466C92AA44A0BD
S113017000A0C000000038448200008244380028F7
S1130180107C102810107C1010000A0C00001010B5
S1130190101010000606000004081020407C8A920B
S11301A0A27C0042FE020042868A92628482A2D22B
S11301B08C182848FE08E4A2A2A29C3C5292920CFD
S11301C0808E90A0C06C9292926C6092929478000F
S11301D06C6C0000006A6C0000102844820028281F
S11301E0282828008244281040808A90604C929EDF
S11301F0827C7E8888887EFE9292926C7C82828247
S113020044FE82824438FE92929282FE90909080C4
S11302107C8292925EFE101010FE0082FE82000428
S11302200282FC80FE10284482FE02020202FE408A
S11302303040FEFE201008FE7C8282827CFE90907C
S113024090607C828A847AFE909894626292929200
S11302508C8080FE8080FC020202FCF8040204F818
S1130260FC021C02FCC6281028C6E0100E10E08612
S11302708A92A2C200FE82820040201008040082FA
S113028082FE0020408040200202020202008040E0
S11302902000042A2A2A1EFE1222221C1C222222A8
S11302A0041C222212FE1C2A2A2A18107E90804046
S11302B0304A4A4A7CFE1020201E0022BE0200045E
S11302C00222BC00FE081422000082FE02003E202E
S11302D018201E3E1020201E1C2222221C3E2828EC
S11302E02810102828183E3E10202010122A2A2AEE
S11302F00420FC2202043C0202043E3804020438B6
S11303003C020C023C2214081422300A0A0A3C2241
S1130310262A322200106C82000000FE00000082B7
S11303206C1000081010081000000000007F81818C
S1130330817F7F8383837F7F8787877F7F8F8F8F73
S11303407F7F9F9F9F7F7FBFBFBF7F7FFFFFFF7F19
S11303502040FF4020621517156500FBFB000000DC
S113036000000000C0FF0300E0FF0700F0FF0F00E3
S1130370F8FF1F0078001E0078001E0078001E00A1
S113038078001E0078001E0078001E0078001E0011
S113039078001E0078001E0000000000000000002D
S11303A080FF0300E0FF0700F0FF0F00F8FF1F00CD
S11303B0F83C1F00783C1E00783C1E00783C1E0070
S11303C0783C1E00783C1E00783C1E00783C1E00E1
S11303D0783C1E00783C1E00783C1E0000000000A3
S11303E000000000E0FF0300F0FF0700F8FF0F002B
S11303F0F8FF1F00783C1E00783C1E00783C1E006D
S1130400783C1E00783C1E00783C1E00783C1E00A0
S1130410783C1E00783C1E00783C1E000000000062
S113042000000000F8FF0300F8FF0F00F8FF1F00B2
S1130430F8FF1F0000001E0000001E0000801F00C7
S113044000F01F0000FF0F00E0FF0700F0FF0000B6
S1130450F80F0000F80000007800000078000000A9
S1130460F8FF1F00F8FF1F00F0FF1F00E0FF1F0050
S11304700000000000000000F8FF1F00F8FF1F004C
S1130480F8FF1F00F8FF1F0078001E00783C1E00D4
S1130490783C1E00783C1E00783C1E00783C1E0010
S11304A0783C1E00F87E1F00F8FF1F00F0FF0F00CD
S11304B0E0E703000000000000003800EEFF6C00DD
S11304C02A8045003A0047FC03FF6CFC83FF390097
S11304D0DEFF0B7CD0810BFCD0810BC0D0810BFCE8
S11304E0D0810B7CDEFF0B0082FF397002FF6CF8B9
S11304F03A0047DC2A8045CCEEFF6CCC0000380083
S11305000000000C00001E0C00001E0000001E0075
S113051000001E0000001E00F8FF1F00F8FF1F006F
S1130520F8FF1F00F8FF1F0000001E0000001E005F
S113053000001E0000001E0000005E0000004000DD
S113054000007C00000040000000400000007C002F
S113055000003000000010000000300000007C6E3D
S1130560616E00696E660000407A10F35A00A07252
S11305704E18090010A5D4E80000E87648170000DA
S1130580E40B54020000CA9A3B000000E1F50500A8
S11305900080969800000040420F000000A08601F1
S11305A0000000102700000000E8030000000064C1
S11305B000000000000A000000000001000000002C
S11305C0002C76D888DC674F0823DFC1DFAE59E101
S11305D0B1B796E5E3E453C63AE651997696E8E670
S11305E0C28426EB898C9B62ED407C6FFCEFBC9C43
S11305F09F40F2BAA56FA5F490055A2AF75C936B55
S11306006CF9676DC11BFCE0E40D47FEF520E6B50F
S113061000D0ED902E0300943577050080841E08E9
S11306200000204E0A000000C80C333333330F9807
S11306306E12831141EF8D2114893BE65516CFFECE
S1130640E6DB18D1844B381BF77C1D901DA4BBE45A
S113065024203284725E228100C9F124ECA1E53D9C
S1130660270011241FBECFEFD8E0DEBFCDBF12E0BC
S1130670A0E0B1E0E6EBF7E402C005900D92A23DE4
S1130680B107D9F723E0A2EDB2E001C01D92A63C68
S1130690B207E1F70E94BD030C94D9230C94000027
S11306A08FE00E944A09882331F40E94D50A8FE022
S11306B061E00E9492098FE091E008958FE00E942A
S11306C04A09813019F020E030E013C080917A00AB
S11306D0806480937A0080917A0086FDFCCF30910B
S11306E0780020917900922F80E0232F30E0282B8E
S11306F0392BC9010895582F809100018830D8F40E
S113070040917E0021E030E0B90102C0660F771FFE
S11307108A95E2F7CB018095842380937E008091B3
S11307207E00052E02C0220F331F0A94E2F7822BAB
S113073080937E000DC020917E0081E090E0052E24
S113074002C0880F991F0A94E2F7282B20937E0099
S11307505093000180917C005F71807E852B809393
S11307607C000895ECE7F0E090818295880F880F73
S1130770807C9F73982B908308950E94EE0A0E94B8
S1130780E00A0E94F51880E090E008950F931F930B
S113079080E460E00E94A50400E0802F60E00E94F5
S11307A08C0410E080E061E00E94A5041F5F103813
S11307B0C9F70F5F043089F783E060E00E94850485
S11307C01F910F9108950F931F9382E00E944A098D
S11307D0882311F482E006C081E00E944A0988233C
S11307E019F481E090E06DC00E94560D85E061E04F
S11307F00E9492098EEA60E00E94A50482EA60E009
S11308000E94A50480EA60E00E94A50400E513ECC0
S1130810C8010197F1F780EC60E00E94A5048FE223
S113082060E00E94A50481E860E00E94A50486E1DE
S113083060E00E94A50482E260E00E94A504C80171
S11308400197F1F78FEA60E00E94A50486EA60E070
S11308500E94A50485EA60E00E94A50480E090E07F
S113086028E833E1F9013197F1F7019643E0883E36
S11308709407C1F783EB60E00E94A50480E460E084
S11308800E94A50483E060E00E948C0483E060E0A1
S11308900E94850410929703109299031092980372
S11308A08FE091E09093C3038093C20388E10E9498
S11308B064040E94C60384EA60E00E94A50485E003
S11308C091E01F910F9108951F93182F85E00E94C6
S11308D04A098130C1F487E00E94C00482E06AE0E2
S11308E00E94110582E061EB0E941105612F113213
S11308F008F060E282E00E94110589EE8A95F1F722
S113090087E00E94C0041F91089583706F776093FD
S113091095038093960308950F931F93062F162F24
S11309201F778370806B60E00E94A50412951F708E
S1130930812F806160E00E94A504802F8F7060E0A9
S11309400E94A5041F910F9108950F931F93082FE0
S1130950162F85E00E944A09813079F4112319F099
S1130960113021F402C02B9801C02B9A86E08A959D
S1130970F1F780E0602F0E9411051F910F910895F7
S11309801F93182F82E00E944A09813009F047C062
S1130990912F977080919A03981709F440C090930F
S11309A09A0385B1887F892B85B9933011F19430EE
S11309B028F4913051F0923090F40CC0953019F134
S11309C09530E0F0963021F50FC0E0912403F091CA
S11309D0250322C0E0912203F09123031DC0E0917E
S11309E02603F091270318C0E0912E03F0912F0302
S11309F013C0E0912803F09129030EC0E0912A036B
S1130A00F0912B0309C0E0912C03F0912D0304C055
S1130A10E0913003F0913103309709F009951F916B
S1130A2008951F93162F0E94C00482E00E944A0971
S1130A30813021F41EBD0DB407FEFDCF1F91089532
S1130A400F931F93CF93DF9380E291E00E94F320F2
S1130A509C019093410380934003892B11F480E01F
S1130A6039C08901C0E0D0E0BE0180E090E00E947E
S1130A703D1A20E030E040EA51E40E94A91927EF32
S1130A8035E740E05FE30E941F1B9B01AC0160E07F
S1130A9070E080E291E40E94451F9B01AC01CA0111
S1130AA0B9012DEC3CEC42E851E40E941F1B0E946A
S1130AB00B1F2AE030E040E050E00E947020F80173
S1130AC061937193819391938F012196C834D105D9
S1130AD059F681E0DF91CF911F910F9108958AE03B
S1130AE00E944A09882371F410923D0310923C033A
S1130AF081E00E94400F81E0809333038AE061E04B
S1130B000E9492098AE091E008951F938BE00E946D
S1130B104A09882311F090E021C089E00E944A0923
S1130B208823D9F40E942005182F8130B1F4109243
S1130B3034031092350310923603109237038DE07C
S1130B406CEA7EE00E942E0D82E00E94400F10931A
S1130B50320389E061E00E94920991E089E01F91EB
S1130B600895813029F0823031F090E089E00895D1
S1130B700E946F0508950E94850508958F929F92A3
S1130B80AF92BF92CF92DF92EF92FF920F931F9397
S1130B90CF93DF934B015C01EA01B90121153105C3
S1130BA039F19E01442737FD4095542F6536710570
S1130BB010F064E670E080E090E00E94702024E68B
S1130BC030E040E050E00E94802079018A01C501B4
S1130BD0B4010E94AF0EC7010E94760A60E070E083
S1130BE080E090E00E94AF0ECE018E199F0904C0F0
S1130BF04115510519F0CA010E94760ADF91CF917F
S1130C001F910F91FF90EF90DF90CF90BF90AF9026
S1130C109F908F9008952F923F924F925F926F9280
S1130C207F928F929F92AF92BF92CF92DF92EF9278
S1130C30FF920F931F93DF93CF93CDB7DEB7582E58
S1130C40962E442E39013C2CC98CDA8C2B8C81E0F5
S1130C50681739F1681728F092E0691709F085C020
S1130C6049C080E061E00E94140880E0B7010E945E
S1130C70DD0780E0642DA3019801032DEE24E394A5
S1130C80E0E8CE2EE3E0DE2E0E944B08552009F06A
S1130C906CC000D00F92EDB7FEB71182B382A2826E
S1130CA023C081E061E00E94140881E0B6010E9443
S1130CB0DD0781E0682D4D895E892F89388D022DED
S1130CC0EE24E39470E8C72E73E0D72E0E944B08FD
S1130CD0552009F04AC000D00F92EDB7FEB79182BB
S1130CE08C8D9D8D938382830E94FC080F900F90BE
S1130CF00F903BC082E061E00E94140880E0B701DD
S1130D000E94DD0781E0B6010E94DD0780E0642DCA
S1130D10A3019801032DEE24E39490E8C92E93E0F7
S1130D20D92E0E944B0881E0682D4D895E892F8958
S1130D30388D022D0E944B085520B9F400D000D004
S1130D400F92ADB7BEB71196EDB7FEB79182FD0114
S1130D50B282A1828C8D9D8D948383830E94FC0832
S1130D600F900F900F900F900F90CF91DF911F91E4
S1130D700F91FF90EF90DF90CF90BF90AF909F9036
S1130D808F907F906F905F904F903F902F90089539
S1130D906F927F928F929F92AF92BF92CF92DF9287
S1130DA0EF92FF920F931F93DF93CF93CDB7DEB7EC
S1130DB0942E7C2DD50149895A89AB88BC88CD886D
S1130DC0DE889F89813009F457C08130B8F18230C0
S1130DD009F076C0613091F0613020F0623009F0A2
S1130DE06FC015C080E060E00E94140880E0B70185
S1130DF00E94DD0780E0692DA8011DC081E060E04C
S1130E000E94140881E0B6010E94DD0711C082E04F
S1130E1060E00E94140880E0B7010E94DD0781E0D1
S1130E20B6010E94DD0780E0692DA8010E94C60773
S1130E3081E0682DA5010E94C60742C0EDB7FEB748
S1130E4039970FB6F894FEBF0FBEEDBF6DB67EB6F0
S1130E500894611C711C52834183F301B382A28202
S1130E60D582C4829683888D998D9087878380E00C
S1130E70492DC72E5D011AC0EDB7FEB739970FB6DD
S1130E80F894FEBF0FBEEDBFADB7BEB71196528347
S1130E904183FD01B382A282D582C48296831086E7
S1130EA0178281E0492DC72EAA24BB240E940B0679
S1130EB08DB79EB709960FB6F8949EBF0FBE8DBF2F
S1130EC0CF91DF911F910F91FF90EF90DF90CF9022
S1130ED0BF90AF909F908F907F906F9008950E94E5
S1130EE0850F81E080937F03E9E4F3E0119211928E
S1130EF011821082329611821082329611821082EF
S1130F0032961182108232961182108232961182A8
S1130F101082329611821082329611821082329699
S1130F2011821082329611821082329611821082BE
S1130F303296118210823696119211921192108279
S1130F403296119211921192119211921192119260
S1130F50118210823296118210823296118210828E
S1130F603296118210827697118210823296118203
S1130F70108210927E0310927D0310927F0387E00B
S1130F8061E00E94920987E091E00895EF92FF9258
S1130F900F931F93182F062F7A0160E00E94140804
S1130FA0812F602F0E94FF07812FB7010E9429081B
S1130FB01F910F91FF90EF900895482F81E0809347
S1130FC07F03CB0123E0693E720710F088EE93E0C3
S1130FD0413071F0413018F0423071F405C0909303
S1130FE054038093530308C0909354038093530392
S1130FF0909356038093550310927F030895982F7E
S113100081E080937F03913051F0913018F0923059
S113101041F403C060936C0304C060936C03609359
S11310206D0310927F030895982F81E080937F03CE
S1131030913051F0913018F0923041F403C0609334
S1131040490304C06093490360934A0310927F03E9
S11310500895482F81E080937F03CB0121E061391B
S1131060720710F080E991E0413071F0413018F0DE
S1131070423071F405C090934C0380934B0308C035
S113108090934C0380934B0390934E0380934D03B2
S113109010927F0308958F929F92AF92BF92CF9246
S11310A0DF92EF92FF920F931F93CF93DF93182F4A
S11310B0F62E5A014901E60161E00E941408812FCD
S11310C0B501A4010E94BF0F812F6F2D0E94FF075D
S11310D0812F602F0E94AA0F812FB5010E948F0FCC
S11310E0C114D10499F0113049F0113018F01230C4
S11310F069F406C0188210927B0308C0198204C0E8
S11311001882198210927B0310927C03D0937E0381
S1131110C0937D03EE20B9F582ED92E090937E03B7
S113112080937D03812FB4010E942908812F0E949E
S1131130700F113071F0113018F0123059F512C0DF
S11311401092D20210927B038091D2028823E1F3A1
S113115021C01092D30210927C038091D302882381
S1131160E1F318C01092D2021092D30210927B03C2
S113117010927C038091D2028823E1F38091D30200
S11311808823C1F307C0812FB4010E942908812F4D
S11311900E94700FDF91CF911F910F91FF90EF90FC
S11311A0DF90CF90BF90AF909F908F9008950F9352
S11311B01F93182F062F662349F460E070E00E9405
S11311C02908812F60E070E00E948F0F81E08093F6
S11311D07F03113051F0113018F0123041F403C084
S11311E00093670304C0009367030093680310929D
S11311F07F031F910F910895CF92DF92EF92FF9298
S11312000F931F93DF93CF93CDB7DEB78B858130D8
S113121061F0813018F08230A1F511C0EC85FD85B4
S1131220809180038823E1F306C0EC85FD858091DD
S113123081038823E1F3309721F1099522C0CC84FE
S1131240DD84EE84FF8400E010E0002351F48091FB
S11312508003882331F0C114D10411F0F6010995FB
S113126001E0112351F480918103882331F0E114CA
S1131270F10411F0F701099511E0002331F3112372
S113128021F3CF91DF911F910F91FF90EF90DF90A9
S1131290CF900895E82FF0E0E331F10540F4E25CEB
S11312A0FF4FEE0FFF1F0590F491E02D099480E0AD
S11312B00895809182030895809183030895809115
S11312C08403089580918503089580918603089589
S11312D080918803089580918703089580918903FC
S11312E0089580918A03089580918B0308958091D5
S11312F08C03089580918D03089580918E03089541
S113130080918F03089580919003089580919103B3
S11313100895809192030895809193030895809194
S113132094030895E82FF0E0E331F10508F040C09C
S1131330EF5AFF4FEE0FFF1F0590F491E02D099433
S113134060938203089560938303089560938403F4
S113135008956093850308956093860308956093C8
S1131360880308956093870308956093890308951B
S113137060938A03089560938B03089560938C03AC
S1131380089560938D03089560938E030895609388
S11313908F030895609390030895609391030895D3
S11313A06093920308956093930308956093920366
S11313B008951F93CF93DF93182F8091D50288232C
S11313C041F08091DF02882399F01092D5021092A7
S11313D0DF020E941F108093D40289ED92E061E045
S11313E040E022E330E00E94970A81E08093D50236
S11313F09091D402A12FB0E0ED01C75FDE4F888148
S1131400882369F0FD01E45FFE4F80819823C1F0D9
S1131410FD01EA52FD4F81E08083188211C0FD0175
S1131420EA52FD4F808181111082FD01E45FFE4F7D
S11314308081982329F4FD01E75FFE4F81E08083DA
S1131440AA52BD4F8C91DF91CF911F91089582E0F4
S11314500E944A09882319F490E082E008951092CA
S1131460B0031092AF031092B2031092B103109222
S1131470B4031092B3031092B6031092B503109202
S1131480B8031092B70380E991E090939C03809392
S11314909B0390939E0380939D039093A00380935A
S11314A09F039093A2038093A1039093A40380933A
S11314B0A30384E398E09093A6038093A5039093F9
S11314C0A8038093A7039093AA038093A9039093FE
S11314D0AC038093AB039093AE038093AD0381E0A0
S11314E061E00E94920991E081E00895DF93CF9337
S11314F0CDB7DEB729970FB6F894DEBF0FBECDBFC8
S11315009C01CE01019661E040E00E94970A982F69
S1131510882319F48F818823E9F3892F29960FB63C
S1131520F894DEBF0FBECDBFCF91DF910895EF9247
S1131530FF920F931F93CF93DF93EC01F62EE42ECB
S1131540890188E00E944A09813011F081E026C0B7
S113155084E090E00E94F320FC01009711F482E003
S11315601DC0F982F0FC1E8281E0E81619F489811D
S1131570846089838981886089831B830A831D83AE
S11315800C83D183C0831382128281E0809342034F
S1131590CF010E9450101092420380E0DF91CF915E
S11315A01F910F91FF90EF9008958FE180937C003D
S11315B0EAE7F0E087E08083808180688083089593
S11315C00E94FC0F0E94050E0E94420D0E94B91059
S11315D00E946A0E0E94270A7894089500000895D4
S11315E01F920F920FB60F9211242F933F934F9394
S11315F05F936F937F938F939F93AF93BF93EF9377
S1131600FF93E0910203F0910303309709F00995E9
S1131610FF91EF91BF91AF919F918F917F916F91C6
S11316205F914F913F912F910F900FBE0F901F909C
S113163018951F920F920FB60F9211242F933F9378
S11316404F935F936F937F938F939F93AF93BF93C6
S1131650EF93FF93E0910403F0910503309709F0B1
S11316600995FF91EF91BF91AF919F918F917F91D8
S11316706F915F914F913F912F910F900FBE0F90FB
S11316801F9018951F920F920FB60F9211242F934B
S11316903F934F935F936F937F938F939F93AF93F6
S11316A0BF93EF93FF93E0910603F0910703309704
S11316B009F00995FF91EF91BF91AF919F918F919F
S11316C07F916F915F914F913F912F910F900FBE3A
S11316D00F901F9018951F920F920FB60F9211241E
S11316E02F933F934F935F936F937F938F939F9326
S11316F0AF93BF93EF93FF93E091F402F091F5025F
S1131700309709F00995FF91EF91BF91AF919F91A7
S11317108F917F916F915F914F913F912F910F9096
S11317200FBE0F901F9018951F920F920FB60F9235
S113173011242F933F934F935F936F937F938F93D2
S11317409F93AF93BF93EF93FF93E091F602F091D1
S1131750F702309709F00995FF91EF91BF91AF918E
S11317609F918F917F916F915F914F913F912F91B5
S11317700F900FBE0F901F9018951F920F920FB6E7
S11317800F9211242F933F934F935F936F937F9303
S11317908F939F93AF93BF93EF93FF93E091F802DE
S11317A0F091F902309709F00995FF91EF91BF91FB
S11317B0AF919F918F917F916F915F914F913F91E5
S11317C02F910F900FBE0F901F9018951F920F929C
S11317D00FB60F9211242F933F934F935F936F9300
S11317E07F938F939F93AF93BF93EF93FF93E09176
S11317F0FC02F091FD02309709F00995FF91EF91F9
S1131800BF91AF919F918F917F916F915F914F9114
S11318103F912F910F900FBE0F901F9018951F921C
S11318200F920FB60F9211242F933F934F935F9310
S11318306F937F938F939F93AF93BF93EF93FF9394
S1131840E091FE02F091FF02309709F00995FF91B3
S1131850EF91BF91AF919F918F917F916F915F9124
S11318604F913F912F910F900FBE0F901F9018959D
S11318701F920F920FB60F9211242F933F934F9301
S11318805F936F937F938F939F93AF93BF93EF93E4
S1131890FF93E091FA02F091FB02309709F0099569
S11318A0FF91EF91BF91AF919F918F917F916F9134
S11318B05F914F913F912F910F900FBE0F901F900A
S11318C018951F920F920FB60F9211242F933F93E6
S11318D04F935F936F937F938F939F93AF93BF9334
S11318E0EF93FF93E0910003F0910103309709F027
S11318F00995FF91EF91BF91AF919F918F917F9146
S11319006F915F914F913F912F910F900FBE0F9068
S11319101F9018951F920F920FB60F9211242F93B8
S11319203F934F935F936F937F938F939F93AF9363
S1131930BF93EF93FF93E091EA02F091EB023097AB
S113194009F00995FF91EF91BF91AF919F918F910C
S11319507F916F915F914F913F912F910F900FBEA7
S11319600F901F9018951F920F920FB60F9211248B
S11319702F933F934F935F936F937F938F939F9393
S1131980AF93BF93EF93FF93E091EC02F091ED02DC
S1131990309709F00995FF91EF91BF91AF919F9115
S11319A08F917F916F915F914F913F912F910F9004
S11319B00FBE0F901F9018951F920F920FB60F92A3
S11319C011242F933F934F935F936F937F938F9340
S11319D09F93AF93BF93EF93FF93E091EE02F09147
S11319E0EF02309709F00995FF91EF91BF91AF9104
S11319F09F918F917F916F915F914F913F912F9123
S1131A000F900FBE0F901F9018951F920F920FB654
S1131A100F9211242F933F934F935F936F937F9370
S1131A208F939F93AF93BF93EF93FF93E091F00253
S1131A30F091F102309709F00995FF91EF91BF9170
S1131A40AF919F918F917F916F915F914F913F9152
S1131A502F910F900FBE0F901F901895E82F803292
S1131A6068F48051833050F0F0E0EE0FFF1FEE5128
S1131A70FD4F208131817183608302C020E030E01A
S1131A80C901089580E10E944A09882361F4E2EEC5
S1131A90F2E01192119283E0E232F807D1F780E18B
S1131AA061E00E94920980E191E00895239A0895EB
S1131AB0FF920F931F93CF93DF93F82E8AE0F816CB
S1131AC0B1F08F1548F0E8E0FE16B9F1EF1538F1E2
S1131AD0F7E0FF1651F43BC08DE0F81659F0EBE146
S1131AE0FE1689F0FCE0FF1641F001E041C01092BF
S1131AF0950303C0109295033AC0809196038150D8
S1131B008093960334C00E94C60314C080E061E051
S1131B100E94A504809195038F5F80939503809123
S1131B20950387FFF3CF109295038091960381501C
S1131B308093960300E011E01CC0809195038823F4
S1131B40B1F08091950386508093950310C081E095
S1131B500E94B10564EF71E080E090E04DE750E051
S1131B6024E630E00E94BE0581E00E94360F00E0CA
S1131B7010E080919603609195030E948C040023E9
S1131B8051F185E0F89EC0011124EC01C355DF4FEB
S1131B908C010E541F4FFE01849161E00E94A50444
S1131BA02196C017D107B9F780E061E00E94A5042F
S1131BB0809195038A5F809395038091950390E0CB
S1131BC08C3791053CF010929503809196038150D7
S1131BD08093960311E0809196038370809396031B
S1131BE0113059F480919703813039F4E0919803CE
S1131BF0F0919903309709F0099580E090E0DF9126
S1131C00CF911F910F91FF90089580E00E944A099F
S1131C10882351F4F8940E94F31081E00E94170E77
S1131C2080E061E00E94920980E091E008958130B3
S1131C3049F0F894813020F18230B1F0833009F01A
S1131C4045C017C02C9A80E880936100109261000F
S1131C5080E090E00000019688329105D9F7109257
S1131C60680010926B00089580E88093610083E01F
S1131C7004C080E88093610088E08093610028C0FC
S1131C8080E090E0000001962DE680369207D1F7BF
S1131C902C9880E090E0000001962DE680369207B3
S1131CA0D1F710927A008FEF8093640080916800DE
S1131CB081608093680080916B00846080936B00E6
S1131CC0789483B7816083BF88950895823008F043
S1131CD0789408950F931F930E941F1180E06EE083
S1131CE071E10E94A30E81E066E071E10E94A30EFF
S1131CF082E06EEF70E10E94A30E86E066E171E17E
S1131D000E94A30E06EF10E183E0B8010E94A30E27
S1131D1084E0B8010E94A30E85E0B8010E94A30EDE
S1131D2087E0B8010E94A30E82E061E00E9492095C
S1131D308FEF80939A0387E00E94C00482E091E0D1
S1131D401F910F910895E82FF0E0EE0FFF1FEE5D55
S1131D50FC4F7183608308950E94C60E08959B0111
S1131D60AC0180913303882381F0DA01C901880F23
S1131D70991FAA1FBB1F90933F0380933E03211515
S1131D8031054105510509F45F98089580913403A4
S1131D9090913503A0913603B09137032091380315
S1131DA03091390340913A0350913B03280F391F76
S1131DB04A1F5B1F2093340330933503409336034B
S1131DC0509337038091340390913503A0913603E7
S1131DD0B09137038851964FA040B040BCF08BB10E
S1131DE080588BB98091340390913503A0913603C8
S1131DF0B09137038851964FA040B040809334038C
S1131E0090933503A0933603B093370308958AE083
S1131E100E944A09813041F40E9438111092330320
S1131E208AE060E00E949209089589E00E944A09CC
S1131E308130D9F480913203882311F00E946A0F13
S1131E4082E00E94381180914003909141030097F1
S1131E5031F00E948B2110924103109240031092A2
S1131E60320389E060E00E9492090895813029F0EC
S1131E70823029F40E94150F08950E94070F0895D7
S1131E80982F80913203882331F48091330388237F
S1131E9011F4579A5F98809132038823D1F49230D9
S1131EA0C1F41092800010928100809181008860BA
S1131EB080938100809181008160809381001092E1
S1131EC085001092840081E08093890080E98093EA
S1131ED088000895EFE6F0E080818D7F8083089587
S1131EE0982F81E080937F03913051F0913018F066
S1131EF0923041F403C01092670304C01092670348
S1131F001092680310927F0308953A9A3B9A3C9A80
S1131F103D9A3E9A3F9A88B1837088B90895982F64
S1131F2081E080937F03913071F0913018F092300A
S1131F3071F405C070935C0360935B0308C07093F5
S1131F405C0360935B0370935E0360935D03109284
S1131F507F030895982F81E080937F03913051F09F
S1131F60913018F0923041F403C06093690304C0C7
S1131F706093690360936A0310927F0308950F933B
S1131F801F93CF93DF93EB018A01813001F18130FC
S1131F9018F0823061F50DC0809153039091540381
S1131FA0892B11F080E01AC01092600310925F0335
S1131FB01EC08091530390915403892B21F080E03B
S1131FC00E94541104C01092600310925F03809128
S1131FD0550390915603892B31F081E0BE01A8018D
S1131FE00E94541104C01092620310926103DF91A5
S1131FF0CF911F910F910895109282031092830341
S1132000109287031092840310928603109288031F
S11320101092890310928A0310928B0310928C03FE
S113202010928D0310928E0310928F0310929003DE
S113203010929103109292031092930308950F93B8
S11320401F9381E00E944A09813011F000E024C00E
S113205087E00E94C00482E06AE00E94110582E0E9
S113206062EB0E94110518EC812F8A95F1F782E04A
S113207060E00E942611082F812F8A95F1F782E0F3
S113208060E00E9426111A95F1F787E00E94C004CF
S113209088E893E10197F1F7802F1F910F9108953C
S11320A0CF92DF92EF92FF920F931F93CF93DF9320
S11320B0EC018091B903882339F4D093BB03C09316
S11320C0BA030E94DE1047C0C090BA03D090BB038D
S11320D000E010E0EE24FF2437C0A881B981FD019F
S11320E064817581F60140815181FA018481958171
S11320F09B01281B390B37FF0FC0861B970B958359
S11321008483DB82CA82012B29F4D093BB03C0935E
S1132110BA0321C0F7010CC0F60182819381211515
S1132120310549F4FD01158214829B838A83F601EB
S1132130D383C28310C0FD01358324830097B9F390
S11321400F5F1F4F76016C018091B90390E008176F
S1132150190718F2ECCF8091B9038F5F8093B9030C
S1132160DF91CF911F910F91FF90EF90DF90CF906F
S1132170089588E00E944A098823B9F41092B903AB
S11321801092BB031092BA031092420310924303BD
S113219080E161EC71E10E94E2100E94C8110E948A
S11321A0D81088E061E00E94920988E091E00895E7
S11321B0EEE6F0E0808182608083089581E0809380
S11321C043030895803218F020E030E00AC0E82F7D
S11321D0F0E0EE0FFF1FEE51FD4F2081318171833E
S11321E06083C9010895249A2C9A089583E58CBDCF
S11321F081E08DBD8DE08A95F1F7089583E58CBD6E
S11322001DBC84EF91E00197F1F708958FE78CBD31
S11322101DBC84EF91E00197F1F7089583E58CBD2F
S113222081E08DBD8DE08A95F1F7089583E58CBD3D
S113223081E08DBD84EF91E00197F1F70895259A2F
S11322402698279A209A219A229A08951F93162F46
S11322500E94C00482E00E944A09813011F080E0AB
S113226005C01EBD0DB407FEFDCF8EB51F910895A8
S1132270823029F4809181008E7F80938100809147
S11322803203813031F480913303813011F4000042
S1132290089580913203813021F08091330381309D
S11322A011F45F9857980895EF92FF920F931F933C
S11322B0CF93DF93EB01882321F0813009F05AC0DA
S11322C02DC09A0140E050E0CA01B9010E9470207B
S11322D02091530330915403220F331F40E050E008
S11322E00E94802079018A01A8019701220F331FDF
S11322F0441F551FCE01A0E0B0E082179307A40746
S1132300B50728F0F0926003E0925F0333C0D695DE
S1132310C795D0936003C0935F032CC09A0140E03B
S113232050E0CA01B9010E947020209155033091F8
S11323305603220F331F40E050E00E9480207901B1
S11323408A01A8019701220F331F441F551FCE0194
S1132350A0E0B0E082179307A407B50728F0F09235
S11323606203E092610306C0D695C795D0936203D9
S1132370C0936103DF91CF911F910F91FF90EF9074
S113238008950E94D1110E9411120E94EA11089529
S113239084B5826084BD85B5846085BD8EE487BDC7
S11323A0089588E00E944A09882311F484E008957E
S11323B080914303882311F483E0089580914203BC
S11323C0882311F082E008950E945E148130E1F3C5
S11323D080E0089580913303813011F580913C03AE
S11323E090913D0320913E0330913F03280F391F04
S11323F030933D0320933C0380913C0390913D0333
S1132400885E93406CF08BB180588BB980913C030B
S113241090913D03885E934090933D0380933C03E9
S1132420089587E00E944A09813009F0AAC080918A
S1132430530390915403892B09F180917703909170
S113244078032091530330915403820F931F909388
S11324507803809377038091770390917803885E63
S11324609340A4F08091770390917803885E934021
S1132470909378038093770341E009C080914B03E4
S113248090914C039093500380934F0340E08091CC
S1132490550390915603892B09F18091790390910A
S11324A07A032091550330915603820F931F909322
S11324B07A03809379038091790390917A03885EFB
S11324C09340A4F08091790390917A03885E9340BD
S11324D090937A038093790361E009C080914D035E
S11324E090914E03909352038093510360E0842FA4
S11324F00E94C212809173039091740320914F0340
S113250030915003280F391F3093740320937303C1
S11325108091730390917403885E934014F440E0B7
S11325200BC08091730390917403885E93409093E1
S113253074038093730341E0809175039091760353
S11325402091510330915203280F391F30937603A1
S1132550209375038091750390917603885E934070
S113256014F460E00BC08091750390917603885E4B
S11325709340909376038093750361E0842F0E94C7
S1132580071308958823F1F020914B0330914C03F5
S113259080914F0390915003281B390B1216130698
S11325A034F480914F0390915003019607C0232B7C
S11325B049F080914F0390915003019790935003F9
S11325C080934F03662311F120914D0330914E0304
S11325D08091510390915203281B390B1216130654
S11325E054F48091510390915203019690935203B5
S11325F0809351030895232B49F0809151039091C6
S113260052030197909352038093510308950F93BB
S11326101F93182F062F80917F03882309F0E7C0AA
S113262080916703882309F05AC080914F039091E9
S11326305003892BE9F480914403837E80934403FF
S11326401092700380917B03882309F45DC060912C
S1132650690380E00E94D708E0917D03F0917E0336
S1132660309709F451C081E0808310927B034CC001
S113267080914903813041F480915B0390915C0324
S1132680019711F411E002C01123F1F1E0916E03FE
S1132690F0E0EF5FFE4F90914403937E8081892B9D
S11326A08093440380916C03882321F480916E030A
S11326B08F5F03C080916E03815080936E0380917D
S11326C06E03837080936E0381E080937003809126
S11326D049038130C9F480E00E940A1415C0909126
S11326E04403937E90934403E0916E03F0E0EF5F24
S11326F0FE4F8081892B8093440382E08093700392
S11327001092500310924F0380916803882309F0BC
S113271059C08091510390915203892BE9F480911F
S113272044038F71809344031092710380917C035E
S1132730882309F45CC060916A0381E00E94D70891
S1132740E0917D03F0917E03309709F450C081E05D
S1132750818310927C034BC080914A03813041F401
S113276080915D0390915E03019711F401E002C032
S11327700023E9F1E0916F03F0E0EB5FFE4F9091ED
S113278044039F718081892B8093440380916D035E
S1132790882321F480916F038F5F03C080916F03BE
S11327A0815080936F0380916F03837080936F03D4
S11327B081E08093710380914A038130C1F40E94C7
S11327C00A1415C0909144039F7190934403E091BF
S11327D06F03F0E0EB5FFE4F8081892B809344030D
S11327E082E08093710310925203109251038091FE
S11327F07203882331F484E493E0612F402F0E9414
S1132800CC1488B1837090914403892B88B91F91AB
S11328100F910895882321F0813009F04EC027C01C
S113282080915B0390915C03892B49F080915B0359
S113283090915C03019790935C0380935B03809178
S11328407B038823D1F520915B0330915C03809155
S11328505F03909160032817390779F580E060E001
S113286070E00E94290881E080937B0308958091A1
S11328705D0390915E03892B49F080915D039091F3
S11328805E03019790935E0380935D0380917C03C4
S1132890882399F420915D0330915E038091610354
S11328A0909162032817390741F481E060E070E0F9
S11328B00E94290881E080937C030895FF920F937E
S11328C01F93CF93DF938091B903882309F459C0F0
S11328D00091BA031091BB03F801C081D1818C81AE
S11328E09D8101979D838C83181619060CF449C0A9
S11328F0898180FF05C08E81882311F481E08E8355
S1132900898181FF03C0EF81F88509958091B9031E
S11329108230A8F0F801828193819093BB03809365
S1132920BA0313821282E0910000F09101008481C5
S11329309581181619063CF0FF24F39405C01092F3
S1132940BB031092BA03FF248091B9038150809392
S1132950B9038091B903882311F40E94C9148981B1
S113296082FF08C08A819B819D838C83C8010E9459
S1132970501008C0C8010E948B2189818F7E8983F1
S113298001C0FF248F2DDF91CF911F910F91FF90F4
S11329900895109243030895FC01809170038230DE
S11329A069F48091480391E0892780934803882340
S11329B009F03EC08081837E80833AC080914F03BA
S11329C090915003C397A4F56623D1F020914F034F
S11329D03091500380E690E0BC01269FC001279F00
S11329E0900D369F900D1124880F892F881F990B05
S11329F0909364038093630381E08093460318C03B
S1132A00809146038823A1F080916303909164032D
S1132A10019790936403809363038091630390917F
S1132A206403892B29F48081837E8083109246037A
S1132A3080917103823069F48091470391E0892782
S1132A4080934703882309F03EC080818F7180837F
S1132A5008958091510390915203C397A4F54423A0
S1132A60D1F0209151033091520380E690E0AC0103
S1132A70249FC001259F900D349F900D1124880F31
S1132A80892F881F990B909366038093650381E0D7
S1132A90809345030895809145038823A1F0809194
S1132AA06503909166030197909366038093650391
S1132AB08091650390916603892B29F480818F713D
S1132AC0808310924503089581E00E94B20384E05C
S1132AD00E947B030E945E03BC0180E090E00E94A0
S1132AE03D1A20E030E040EA50E40E9441199B0185
S1132AF0AC0160E070E286E395E40E94A91920E04D
S1132B0030E040E85FE30E9440192CE033E949ECEF
S1132B105EE30E941F1B089581E00E94B20383E0DC
S1132B200E947B030E945E03BC0180E090E00E944F
S1132B303D1A20E030E040EA50E40E9441199B0134
S1132B40AC0160E070E286E395E40E94A91920E0FC
S1132B5030E040E85FE30E9440192CE033E949EC9F
S1132B605EE30E941F1B089581E00E94B20387E088
S1132B700E947B030E945E03BC0180E090E00E94FF
S1132B803D1A20E030E040EA50E40E9441199B01E4
S1132B90AC0160E070E286E395E40E94A91920E0AC
S1132BA030E040E85FE30E9440192CE033E949EC4F
S1132BB05EE30E941F1B0895C1E0D0E90F2EF8ECDC
S1132BC09F2EF02D0E94B4156B017C010E948C1580
S1132BD02B013C010E94641520E030E040E151E407
S1132BE0C701B6010E94A51988230CF4B5C020E0E2
S1132BF030E040E151E4C301B2010E94A5198823E9
S1132C000CF09FC020E030E040E850E4C301B20182
S1132C100E94A5198823C4F40E94C60383E192E0AC
S1132C200E944E2381E292E00E944E23A30192016E
S1132C3060E070E080E890E40E9440196B017C0140
S1132C4060E070E0CB012FC020E030E040EC50E4C5
S1132C50C301B2010E94141B1816B4F40E94C603E7
S1132C6087E292E00E944E2381E292E00E944E238A
S1132C7020E030E040EC50E4C301B2010E9440196E
S1132C80C12CD12C76010FC00E94C60386E392E0CA
S1132C900E944E2381E292E00E944E23C12CD12C4B
S1132CA07601C701B60120E030E040EA51E40E9419
S1132CB01F1B20E030E0A9010E94411920E030E010
S1132CC040EF52E40E9441190E94111A2B013C0169
S1132CD01F921F921F92CF93DF9320E030E040EACF
S1132CE051E4C701B6010E941F1B20E030E0A90196
S1132CF00E94411920E030E040EF52E40E94411963
S1132D000E94111A7F936F931F921F92812CA12C02
S1132D10B12CC12C0F2EF0E9EF2EFF24F394F02DEB
S1132D20820120E030E040E062E082E00E94C806D8
S1132D308DB79EB709960FB6F8949EBF0FBE8DBF90
S1132D4041CF20E030E040E151E4C701B6010E94E8
S1132D50A51988230CF042C020E030E040E151E4A2
S1132D60C301B2010E94A51988230CF02BCF0E9445
S1132D70C60380E492E00E944E238EE492E00E9417
S1132D804E2380ED97E00E94760A1F921F921F92B5
S1132D90CF93DF931F929F921F921F92812CA12C9D
S1132DA0B12CC12C0F2EF0E9EF2EFF24F394F02D5B
S1132DB008EC10E020E030E04C2F62E082E00E945A
S1132DC0C80684EF91E00E94760A8DB79EB70996F3
S1132DD00FB6F8949EBF0FBE8DBFF4CE20E030E056
S1132DE040E151E4C701B6010E94A51988230CF4FF
S1132DF0E9CE20E030E040E151E4C301B2010E9499
S1132E00A51988230CF4DECE0E94C6038BE592E05C
S1132E100E944E2388E692E00E944E2380ED97E0C4
S1132E200E94760A1F921F921F92CF93DF931F92E4
S1132E309F921F921F928C2EA12CB12CC12C0F2E6D
S1132E40F0E9EF2EFF24F394F02D08EC10E020E0DD
S1132E5030E040E062E082E00E94C80684EF91E046
S1132E600E94760A1F921F921F92CF93DF931F92A4
S1132E709F921F921F92812C20E030E040E062E09C
S1132E8082E00E94C8068DB79EB742960FB6F894AA
S1132E909EBF0FBE8DBF20E030E040E151E4C3018E
S1132EA0B2010E94A51988230CF48CCE0E948C15C3
S1132EB06B017C0184E690E00E94760A20E030E019
S1132EC040E151E4C701B6010E94A519882374F7B3
S1132ED079CEC1E0D0E90F2EF8EC9F2EF02D0E94A0
S1132EE0B4156B017C010E948C150E9464152B01A2
S1132EF03C0120E030E040E151E4C701B6010E940A
S1132F00A51988230CF4B5C020E030E040E151E479
S1132F10C301B2010E94A51988230CF09FC020E0D0
S1132F2030E040E850E4C301B2010E94A5198823AF
S1132F30B4F40E94C60383E192E00E944E2381E22E
S1132F4092E00E944E23A301920160E070E080E8C9
S1132F5090E40E944019C12CD12C760131C020E0AC
S1132F6030E040EC50E4C301B2010E94141B181677
S1132F70C4F40E94C60387E292E00E944E2381E2D9
S1132F8092E00E944E2320E030E040EC50E4C30184
S1132F90B2010E9440196B017C0160E070E0CB013A
S1132FA00FC00E94C60386E392E00E944E2381E292
S1132FB092E00E944E23C12CD12C7601C701B601A8
S1132FC020E030E040E251E40E941F1B20E030E0AA
S1132FD0A9010E94411920E030E040EF52E40E9430
S1132FE041190E94111A2B013C011F921F921F923A
S1132FF0CF93DF9320E030E040E251E4C701B60113
S11330000E941F1B20E030E0A9010E94411920E02A
S113301030E040EF52E40E9441190E94111A7F935C
S11330206F931F921F92812CA12CB12CC12C0F2EB7
S1133030F0E9EF2EFF24F394F02D820120E030E03C
S113304040E062E082E00E94C8068DB79EB7099610
S11330500FB6F8949EBF0FBE8DBF41CF20E030E085
S113306040E151E4C701B6010E94A51988230CF080
S113307042C020E030E040E151E4C301B2010E94CB
S1133080A51988230CF02BCF0E94C60380E492E09C
S11330900E944E2388E692E00E944E2380ED97E042
S11330A00E94760A1F921F921F92CF93DF931F9262
S11330B09F921F921F928C2EA12CB12CC12C0F2EEB
S11330C0F0E9EF2EFF24F394F02D08EC10E020E05B
S11330D030E040E062E082E00E94C80684EF91E0C4
S11330E00E94760A8DB79EB709960FB6F8949EBFD4
S11330F00FBE8DBFF4CE20E030E040E151E4C701C3
S1133100B6010E94A51988230CF4E9CE20E030E032
S113311040E151E4C301B2010E94A51988230CF4D3
S1133120DECE0E94C6038BE592E00E944E238EE41D
S113313092E00E944E2380ED97E00E94760A1F924F
S11331401F921F92CF93DF931F929F921F921F9201
S1133150812CA12CB12CC12C0F2EF0E9EF2EFF24D1
S1133160F394F02D08EC10E020E030E04C2F62E006
S113317082E00E94C80684EF91E00E94760A1F92C2
S11331801F921F92CF93DF931F929F921F921F92C1
S113319020E030E040E062E082E00E94C8068DB7A3
S11331A09EB742960FB6F8949EBF0FBE8DBF20E027
S11331B030E040E151E4C301B2010E94A519882323
S11331C00CF48DCE0E9464156B017C0184E690E0C2
S11331D00E94760A20E030E040E151E4C701B601E4
S11331E00E94A519882374F77ACE0E94E30386E728
S11331F092E09F938F930E943A230E94270A0F9094
S11332000F90913051F00E94C60384E892E09F939E
S11332108F930E943A230F900F9081E00E94B10592
S11332200E94500381E00E94B2030E946F078FE95D
S113323092E09F938F930E943A230E94C6030F90BB
S11332400F90CBECD2E087EA92E00E944E2389EB08
S113325092E00E944E23DF93CF930E943A230E9470
S1133260C60380E00E94D9090F900F9081110E943B
S1133270DC1581E00E94D909882329F30E9469178B
S11332805058BB27AA270ED095C186D130F08BD1D8
S113329020F031F49F3F11F41EF456C10EF4E09572
S11332A0E7FB4CC1E92F97D180F3BA176207730784
S11332B08407950718F071F49EF5AFC10EF4E095FC
S11332C00B2EBA2FA02D0B01B90190010C01CA01DC
S11332D0A0011124FF27591B99F0593F50F4503E87
S11332E068F11A16F040A22F232F342F4427585F79
S11332F0F3CF469537952795A795F0405395C9F791
S11333007EF41F16BA0B620B730B840BBAF0915048
S1133310A1F0FF0FBB1F661F771F881FC2F70EC0E7
S1133320BA0F621F731F841F48F4879577956795BA
S1133330B795F7959E3F08F0B3CF9395880F08F0A3
S11333409927EE0F979587950895D4D008F481E0D6
S113335008950CD02FC127D140F01ED130F021F4B4
S11333605F3F19F0EBC0511159C1EEC034D198F34D
S11333709923C9F35523B1F3951B550BBB27AA27F2
S113338062177307840738F09F5F5F4F220F331F64
S1133390441FAA1FA9F333D00E2E3AF0E0E830D030
S11333A091505040E695001CCAF729D0FE2F27D033
S11333B0660F771F881FBB1F261737074807AB0701
S11333C0B0E809F0BB0B802DBF01FF2793585F4F76
S11333D02AF09E3F510568F0B1C020C15F3FECF375
S11333E0983EDCF3869577956795B795F7959F5F3B
S11333F0C9F7880F911D9695879597F90895E1E08F
S1133400660F771F881FBB1F621773078407BA07ED
S113341020F0621B730B840BBA0BEE1F88F7E09548
S11334200895E1D088F09F5790F0B92F9927B751AC
S1133430A0F0D1F0660F771F881F991F1AF0BA9574
S1133440C9F712C0B13081F0E8D0B1E00895E5C009
S1133450672F782F8827B85F39F0B93FCCF386956A
S113346077956795B395D9F73EF4909580957095C7
S113347061957F4F8F4F9F4F0895E89409C097FB44
S11334803EF490958095709561957F4F8F4F9F4F37
S11334909923A9F0F92F96E9BB279395F69587957B
S11334A077956795B795F111F8CFFAF4BB0F11F43E
S11334B060FF1BC06F5F7F4F8F4F9F4F16C08823E5
S11334C011F096E911C0772321F09EE8872F762F1B
S11334D005C0662371F096E8862F70E060E02AF05C
S11334E09A95660F771F881FDAF7880F9695879548
S11334F097F90895990F0008550FAA0BE0E8FEEF1D
S113350016161706E807F907C0F012161306E407A3
S1133510F50798F0621B730B840B950B39F40A269C
S113352061F0232B242B252B21F408950A2609F47A
S1133530A140A6958FEF811D811D089597F99F677E
S113354080E870E060E008959FEF80EC0895DF93D9
S1133550CF931F930F93FF92EF92DF927B018C0125
S1133560689405C0DA2EEF0176D0FE01E894A591A7
S11335702591359145915591AEF3EF0193DEFE010E
S11335809701A801DA9479F7DF90EF90FF900F91FB
S11335901F91CF91DF91089500240A9416161706FF
S11335A018060906089500240A9412161306140630
S11335B005060895092E0394000C11F4882352F093
S11335C0BB0F40F4BF2B11F460FF04C06F5F7F4F4B
S11335D08F4F9F4F089557FD9058440F551F59F032
S11335E05F3F71F04795880F97FB991F61F09F3FEC
S11335F079F087950895121613061406551FF2CF15
S11336004695F1DF08C0161617061806991FF1CF64
S113361086957105610508940895E894BB2766278B
S11336207727CB0197F9089565DF08F48FEF0895A4
S11336309B01AC0160E070E080E89FE38ACE0BD090
S1133640B9CFAADF28F0AFDF18F0952309F076CFC1
S11336507BCF1124E3CFBFDFA0F3959FD1F3950F68
S113366050E0551F629FF001729FBB27F00DB11D02
S1133670639FAA27F00DB11DAA1F649F6627B00D92
S1133680A11D661F829F2227B00DA11D621F739F7B
S1133690B00DA11D621F839FA00D611D221F749F89
S11336A03327A00D611D231F849F600D211D822FD0
S11336B0762F6A2F11249F5750408AF0E1F0882317
S11336C04AF0EE0FFF1FBB1F661F771F881F915024
S11336D05040A9F79E3F510570F030CF9FCF5F3F18
S11336E0ECF3983EDCF3869577956795B795F79557
S11336F0E7959F5FC1F7FE2B880F911D96958795DF
S113370097F908959F3F31F0915020F4879577956C
S11337106795B795880F911D9695879597F90895A4
S1133720A3E1B0E0E6E9FBE10C94AD207C011B01D0
S11337306A01FC0117821682838181FF66C3BE0180
S11337406F5F7F4F4B01F7019381F10193FD8591E9
S113375093FF81911F01882309F453C3853239F4FF
S113376093FD859193FF81911F01853239F4B7014F
S113377090E00E94082356016501E5CF10E0512C2A
S113378020E02032A0F48B3269F030F4803259F01A
S1133790833269F420612CC08D3239F0803339F4DE
S11337A0216026C02260246023C0286021C027FD38
S11337B027C030ED380F3A3078F426FF06C0FAE01F
S11337C01F9F300D1124132F13C06AE0569E300D35
S11337D01124532E20620CC08E3221F426FD11C315
S11337E0206406C08C3611F4206802C0883641F487
S11337F0F10193FD859193FF81911F018111C1CF47
S11338009BEB980F933018F42061805E06C09BE90F
S1133810980F933008F0AAC12F7E26FF16E02F736D
S1133820722E853621F4F22FF0647F2E08C086367E
S113383021F4622F6068762E02C01111115077FEB8
S113384007C01C3348F444244394410E27E00BC0C2
S1133850183030F4212F06C027E04CE3442E03C077
S113386027E017E0412C560174E0A70EB11CF601C5
S11338706081718182819381042DA4010E941A22A6
S11338806C01098100FF02C003FF06C071FC07C080
S113389072FC08C0612C08C03DE2632E05C02BE217
S11338A0622E02C090E2692E802F8C7099F16620FE
S11338B011F084E001C083E0851510F0512C0BC099
S11338C0581A73FC08C0B70180E290E00E940823F4
S11338D05A94C9F7F3CF662029F0B701862D90E0FA
S11338E00E94082303FD03C003E615E002C00FE5B0
S11338F015E0F72DF0717F2EF8018491882309F4E7
S113390076C271108052B70190E00E9408230F5FC5
S11339101F4FF2CF77FE0FC04C0C04FF04C08A8106
S1133920813309F44A94141474F5F8E0F41578F525
S113393088E0482E2CC076FC2AC0812F90E08C159C
S11339409D059CF06CEFC6166FEFD60674F0772DCC
S11339507068772E0AC0E2E0F0E0EC0FFD1FE10F83
S1133960F11D8081803319F411501111F4CF77FEC9
S11339700EC044244394410E812F90E0C816D9060A
S11339802CF41C1904C04424439401C010E077FEB5
S113399007C01C141D043CF496012F5F3F4F05C063
S11339A025E030E002C021E030E0662011F02F5F16
S11339B03F4F112331F0412F50E04F5F5F4F240FF1
S11339C0351F452D50E02417350714F4521A01C051
S11339D0512C872D897049F4552039F0B70180E2C4
S11339E090E00E9408235A94F7CF662029F0B7018B
S11339F0862D90E00E94082373FC09C0552039F0FD
S1133A00B70180E390E00E9408235A94F7CF77FE31
S1133A105FC09C2D8D2DD7FE02C090E080E0692E02
S1133A20782E40E050E0C601841991099D878C8767
S1133A30960126193709280D391D812F90E0EE27AC
S1133A40FF27E81BF90BFF87EE87FFEF6F167F0652
S1133A5069F4B7018EE290E02B8B3A8B488B598B3B
S1133A600E940823598948893A892B89C614D704A6
S1133A7054F06C857D85661577052CF4F901E40F07
S1133A80F51F818101C080E371E0671A71084F5FFF
S1133A905F4FEE85FF856E167F066CF0B70190E0F0
S1133AA02B8B3A8B488B598B0E9408232B893A899C
S1133AB048895989CACF6C147D0439F49A819633A4
S1133AC018F4953311F404FF81E3B70190E04BC07F
S1133AD08A81813309F00F7EB70190E00E940823A8
S1133AE0111105C074FE18C085E490E017C0B70139
S1133AF08EE290E00E94082382E066246394680EBC
S1133B00F401E80FF11D8081B70190E00E940823C1
S1133B10115041F3862DF1CF85E690E0B7010E9464
S1133B200823D7FC05C0C114D10439F404FF05C02F
S1133B30D194C194D1088DE201C08BE2B70190E029
S1133B400E94082380E36AE0C616D1042CF08F5F3C
S1133B50FAE0CF1AD108F7CFB70190E00E9408230A
S1133B60B701C601C0960E94082341C1833631F0D3
S1133B70833779F0833509F058C021C0560172E0CB
S1133B80A70EB11CF6018081898301E010E0640175
S1133B9014C05601F2E0AF0EB11CF601C080D18012
S1133BA026FF03C0612F70E002C06FEF7FEFC601F4
S1133BB02B8B0E94FD228C012B892F7715C0560177
S1133BC0F2E0AF0EB11CF601C080D18026FF03C025
S1133BD0612F70E002C06FEF7FEFC6012B8B0E9454
S1133BE0F2228C012B892068722E23FD1AC0852DA8
S1133BF090E008171907A8F4B70180E290E00E944A
S1133C0008235A94F4CFF60177FC859177FE8191CD
S1133C106F01B70190E00E94082351105A9401509B
S1133C2011090115110579F7E2C0843611F08936BE
S1133C3051F5560127FF09C0F4E0AF0EB11CF6019F
S1133C4060817181828193810AC0F2E0AF0EB11C60
S1133C50F60160817181882777FD8095982F022F66
S1133C600F7697FF08C090958095709561957F4F6A
S1133C708F4F9F4F00682AE030E0A4010E947B230D
S1133C80C82EC8183EC0022F853721F40F7E2AE0C3
S1133C9030E01DC0097F8F3691F018F4883559F053
S1133CA0B0C0803719F0883711F0ABC0006104FF51
S1133CB009C0046007C024FF08C0066006C028E0ED
S1133CC030E005C020E130E002C020E132E05601DE
S1133CD007FF09C0F4E0AF0EB11CF60160817181E9
S1133CE08281938108C0F2E0AF0EB11CF6016081BD
S1133CF0718180E090E0A4010E947B23C82EC81843
S1133D000F7706FF0BC0202F2E7FC11650F404FF3F
S1133D100AC002FD08C0202F2E7E05C0DC2C202FF7
S1133D2003C0DC2C01C0D12E24FF0DC0FE01EC0D1C
S1133D30F11D8081803311F4297E09C022FF06C061
S1133D40D394D39404C0822F867809F0D39423FDAE
S1133D5013C020FF06C01C2DD51418F4150D1D1911
S1133D60D52CD51468F4B70180E290E02B8B0E9427
S1133D700823D3942B89F5CFD51410F45D1801C012
S1133D80512C24FF12C0B70180E390E02B8B0E94DA
S1133D9008232B8922FF17C021FF03C088E590E088
S1133DA002C088E790E0B7010CC0822F867859F0F2
S1133DB021FD02C080E201C08BE227FD8DE2B70144
S1133DC090E00E940823C11638F4B70180E390E024
S1133DD00E9408231150F7CFCA94F401EC0DF11D91
S1133DE08081B70190E00E940823C110F5CF5520CF
S1133DF009F4C2CCB70180E290E00E9408235A94EF
S1133E00F6CFF7018681978102C08FEF9FEF63960B
S1133E10E2E10C94C920E7DBA8F19E57A8F1985180
S1133E2060F039F1983070F5092E9927660F771FE5
S1133E30881F991F0A94D1F71CC0BB27993F4CF4E3
S1133E40B111B1E0B62B672F782F8827985FB1F7AF
S1133E5008C0869577956795B79508F4B1609395F2
S1133E60C1F7BB0F30F411F460FF03C06F5F7F4FE5
S1133E708F4F3EF490958095709561957F4F8F4F4D
S1133E809F4F08956894CACBC8CBFA01EE0FFF1F69
S1133E9030962105310599F16115710561F4803879
S1133EA0BFE39B0749F168949038810561F080383D
S1133EB0BFEF9B0741F0992342F5FF3FE105310530
S1133EC0210511F1E8940894E795D901AA2329F46E
S1133ED0AB2FBE2FF85FD0F310C0FF5F70F4A69530
S1133EE0E0F7F73950F019F0FF3A38F49F779F93D1
S1133EF00CD00F9007FC905808953EF025CB60E05D
S1133F0070E080E89FE308954FE79F775F934F93B6
S1133F103F932F9372D02F913F914F915F918FDBFD
S1133F2005C019F40EF00ACB78CB0ECB5CDBC8F3DA
S1133F309638C0F707F80F92E8942BE33AEA48EB77
S1133F405FE78BDB0F920F920F924DB75EB70F9224
S1133F5094D0E8ECF0E0FBDA4F915F91EF91FF91A0
S1133F60E595EE1FFF1F49F0FE57E0684427EE0F6A
S1133F70441FFA95E1F74195550B06D00F9007FEC3
S1133F8057CB0895DBCABECB2EDBE8F39923D9F3D4
S1133F90940F511DBBF39150504094F059F0882375
S1133FA032F0660F771F881F91505040C1F79E3F33
S1133FB0510544F7880F911D9695879597F90895B3
S1133FC05F3FACF0983E9CF0BB278695779567954C
S1133FD0B79508F4B1609395C1F7BB0F58F711F486
S1133FE060FFE8CF6F5F7F4F8F4F9F4FE3CF16CBBC
S1133FF00EF088CBA9CA6894A1CAF5DAC8F399234C
S1134000D1F3C6F3DF93CF931F930F93FF92C92F7E
S1134010DD2788232AF02197660F771F881FDAF798
S113402020E030E040E85FEB9FE3883920F0803EF9
S113403030F021968F7725D9E0EFF0E003C021D945
S1134040EDE1F1E084DA8B01BE01EC01FB2E6F5748
S113405071097595771F880B990B11DA28E132E7FE
S113406041E35FE3F8DAAF2D9801AE01FF900F91C1
S11340701F91CF91DF9116D99DCAFA01DC01AA0FD5
S1134080BB1F9B01AC01BF5728F4222733274427C9
S113409050781FC0B75188F4AB2F0024469537954C
S11340A02795011CA395D2F3002069F0220F331F3A
S11340B0441FB395DAF30DD0E3C861307105A0E86D
S11340C08A07B94630F49B01AC0166277727882715
S11340D09078309621F0208331834283538308956E
S11340E0DB018F939F930E94A220BF91AF91A29F67
S11340F0800D911DA39F900DB29F900D11240895E2
S1134100A1E21A2EAA1BBB1BFD010DC0AA1FBB1FD7
S1134110EE1FFF1FA217B307E407F50720F0A21B49
S1134120B30BE40BF50B661F771F881F991F1A94B6
S113413069F760957095809590959B01AC01BD01E0
S1134140CF0108950E94E420A59F900DB49F900D87
S1134150A49F800D911D112408952F923F924F9298
S11341605F926F927F928F929F92AF92BF92CF9203
S1134170DF92EF92FF920F931F93CF93DF93CDB70C
S1134180DEB7CA1BDB0B0FB6F894DEBF0FBECDBF84
S113419009942A88398848885F846E847D848C8455
S11341A09B84AA84B984C884DF80EE80FD800C815E
S11341B01B81AA81B981CE0FD11D0FB6F894DEBF41
S11341C00FBECDBFED010895A29FB001B39FC00102
S11341D0A39F700D811D1124911DB29F700D811D2F
S11341E01124911D0895CF93DF938230910510F42B
S11341F082E090E0E091BE03F091BF0320E030E064
S1134200A0E0B0E0309739F1408151814817590757
S1134210B8F04817590771F482819381109729F0F7
S113422013969C938E9312972CC09093BF03809304
S1134230BE0327C02115310531F04217530718F08A
S1134240A901DB0101C0EF019A01BD01DF01028078
S1134250F381E02DD7CF21153105F9F0281B390B57
S11342602430310580F48A819B816115710521F028
S1134270FB019383828304C09093BF038093BE03A6
S1134280FE01329644C0FE01E20FF31F8193919325
S113429022503109398328833AC02091BC033091DC
S11342A0BD03232B41F420911F0130912001309351
S11342B0BD032093BC0320911D0130911E012115E3
S11342C0310541F42DB73EB74091210150912201AF
S11342D0241B350BE091BC03F091BD03E217F307F7
S11342E0A0F42E1B3F0B2817390778F0AC014E5F62
S11342F05F4F2417350748F04E0F5F1F5093BD03DF
S11343004093BC038193919302C0E0E0F0E0CF01BD
S1134310DF91CF910895CF93DF93009709F487C07D
S1134320FC01329713821282C091BE03D091BF0365
S1134330209781F420813181280F391F8091BC039B
S11343409091BD038217930779F5F093BD03E09331
S1134350BC036DC0DE0120E030E0AE17BF0750F4AF
S113436012964D915C9113979D014115510509F1E8
S1134370DA01F3CFB383A28340815181840F951F67
S11343808A179B0771F48D919C911197840F951F47
S113439002969183808312968D919C9113979383B7
S11343A082832115310529F4F093BF03E093BE0302
S11343B03EC0D9011396FC93EE9312974D915D91F3
S11343C0A40FB51FEA17FB0779F480819181840F4C
S11343D0951F0296D90111969C938E9382819381A5
S11343E013969C938E931297E0E0F0E08A819B8170
S11343F0009719F0FE01EC01F9CFCE010296288155
S11344003981820F931F2091BC033091BD0328177B
S1134410390769F4309729F41092BF031092BE0350
S113442002C013821282D093BD03C093BC03DF91F8
S1134430CF910895283008F027E03327DA01990F47
S1134440311D87FD916000966105710539F4326074
S11344502E5F3D9330E32A95E1F708959F3F30F0B6
S113446080387105610509F03C5F3C5F3D939130F4
S113447008F08068911DDF93CF931F930F93FF92F1
S1134480EF92192F987F9695E92F96959695E90FB7
S1134490FF27EF53FA4F99273327EE24FF24A70170
S11344A0E70105900894079428F4360FE71EF81ED8
S11344B0491F511D660F771F881F991F0694A1F786
S11344C00590079428F4E70EF81E491F561FC11DD6
S11344D0770F881F991F661F0694A1F7059007940C
S11344E028F4F80E491F561FC71FD11D880F991FA6
S11344F0661F771F0694A1F70590079420F4490FCF
S1134500561FC71FD81F990F661F771F881F069451
S1134510A9F784911095177041F0D695C7955795D2
S11345204795F794E7941A95C1F7E7E6F5E06894A0
S11345301590159135916591959105907FE273954C
S1134540E118F10A430B560BC90BD009C0F7E10C73
S1134550F11E431F561FC91FD01D7EF4703311F482
S11345608A95E6CFE894015030F0080F0AF400274A
S1134570021708F4202F2395022F7A3328F079E3C9
S11345807D932A95E9F710C07D932A9589F60694C0
S113459097956795379517951794E118F10A430B8A
S11345A0560BC90BD00998F023957E9173957A33F5
S11345B008F070E37C932013B8F77E9170617D93CB
S11345C030F0839571E37D9370E32A95E1F711242C
S11345D0EF90FF900F911F91CF91DF91992787FD65
S11345E090950895FC010590615070400110D8F732
S11345F0809590958E0F9F1F0895FC016150704027
S113460001900110D8F7809590958E0F9F1F089503
S11346100F931F93CF93DF93182F092FEB018B81F7
S113462081FD03C08FEF9FEF20C082FF10C04E8139
S11346305F812C813D81421753077CF4E881F98125
S11346409F012F5F3F4F39832883108306C0E8857D
S1134650F985812F0995892B29F72E813F812F5FB9
S11346603F4F3F832E83812F902FDF91CF911F9156
S11346700F910895A0E0B0E0E0E4F3E20C94BD20D3
S1134680FE01359661917191AF018091C2039091C1
S1134690C3030E94901BE2E00C94D9200F931F9354
S11346A0CF93DF93E091C203F091C303238121FFF1
S11346B01BC0EC0100E010E089916091C20370918D
S11346C0C303DB011896ED91FC911997882331F00F
S11346D00995892B89F30FEF1FEFEECF8AE0099537
S11346E0892B11F4C80102C08FEF9FEFDF91CF91A6
S11346F01F910F910895FA01AA27283051F1203112
S113470081F1E8946F936E7F6E5F7F4F8F4F9F4F61
S1134710AF4FB1E03ED0B4E03CD0670F781F891FA3
S11347209A1FA11D680F791F8A1F911DA11D6A0F71
S1134730711D811D911DA11D20D009F468943F9124
S11347402AE0269F11243019305D3193DEF6CF0123
S11347500895462F4770405D4193B3E00FD0C9F7E9
S1134760F6CF462F4F70405D4A3318F0495D31FD56
S11347704052419302D0A9F7EACFB4E0A6959795A9
S1134780879577956795BA95C9F70097610571057F
S113479008959B01AC010A2E0694579547953795C9
S11347A02795BA95C9F7620F731F841F951FA01D23
S10947B00895F894FFCF08
S11347B61F180C0410C080206001010110080400B9
S11347C600000200000000580D000000000000C6B2
S11347D60320004D6F76696E6720466F72776172AB
S11347E6642E2E2E004D6F76696E67204261636BD0
S11347F6776172642E2E2E004861726420526967B6
S113480668742E2E2E0048617264204C6566742EE0
S11348162E2E00536F667420466F72776172642081
S113482652696768742E2E2E00536F667420466F85
S11348367277617264204C6566742E2E2E00536F57
S11348466674204261636B7761726420526967689B
S1134856742E2E2E00536F6674204261636B77614B
S11348667264204C6566742E2E2E000A4572726F91
S113487672207768656E206F70656E696E67205367
S11348865445505045522073756273797374656D3F
S1134896210053696465206F62737461636C6520DB
S11348A664657465637465642E0046726F6E742065
S11348B66F62737461636C652064657465637465A3
S11348C6642E00496E736964652054617267657469
S11348D60052616E6765004F757473696465205490
S11348E6617267657400417420546172676574006F
S11348F657616C6C20696E2046726F6E7400547535
S1134906726E696E67204C656674004C61636B2039
S11349166F662057616C6C005475726E696E672001
S113492652696768740053657474696E672075709C
S11349362E2E2E004572726F72207768656E206F78
S113494670656E696E6720415454494E5921000AB8
S1134956526561647921005357333A205269676876
S11349667420466F6C6C6F77000A5357343A204CA8
S113497665667420466F6C6C6F77000A5357353A38
S105498620000B
S9030000FC
