S01000006C61623464656D6F2E737265630C
S11300000C9457030C9474030C9474030C947403AD
S11300100C94BE0C0C94E70C0C94100D0C94390D3C
S11300200C9474030C949F0B0C94C80B0C94F10B5C
S11300300C946C0C0C941A0C0C94430C0C94950CAE
S11300400C94240B0C944D0B0C94760B0C947403AD
S11300500C9474030C9474030C9474030C94740340
S11300600C9474030C9474030C9474030C94740330
S11300700C9474030C9474030C947403084AD73BD3
S11300803BCE016E84BCBFFDC12F3D6C74319ABD63
S113009056833DDA3D00C77F11BED9E4BB4C3E9187
S11300A06BAAAABE000000803F05A84CCDB2D44E76
S11300B0B93836A9020C50B9918688083CA6AAAA78
S11300C02ABE000000803F008D099009930996091B
S11300D09F0999099C09A209A509A809AB09AE09B8
S11300E0B109B409B709BA09BD09C009C309D409DA
S11300F0D709DA09DD09E609E009E309E909EC09A8
S1130100EF09F209F509F809FB09FE09010A040AD5
S1130110070A0A0A07634236B79BD8A71A396856F2
S113012018AEBAAB558C1D3CB7CC5763BD6DEDFD15
S1130130753EF6177231BF000000803F08000000D2
S1130140BE922449123EABAAAA2ABECDCCCC4C3EC8
S113015000000080BEABAAAAAA3E00000000BF00B7
S11301600000803F0000000000084178D3BB4387B3
S1130170D1133D190E3CC3BD4282AD2B3E68EC82C7
S113018076BED98FE1A93E4C80EFFFBE01C4FF7F4C
S11301903F00000000001605010000000000000000
S11301A0FA000000E000E00028FE28FE282454FEA7
S11301B05448C4C81026466C92AA44A000A0C000AB
S11301C0000038448200008244380028107C102843
S11301D010107C1010000A0C0000101010101000F9
S11301E00606000004081020407C8A92A27C00428B
S11301F0FE020042868A92628482A2D28C18284827
S1130200FE08E4A2A2A29C3C5292920C808E90A082
S1130210C06C9292926C6092929478006C6C000024
S1130220006A6C000010284482002828282828002E
S11302308244281040808A90604C929E827C7E8802
S113024088887EFE9292926C7C82828244FE8282B4
S11302504438FE92929282FE909090807C82929298
S11302605EFE101010FE0082FE8200040282FC80FA
S1130270FE10284482FE02020202FE403040FEFECE
S1130280201008FE7C8282827CFE909090607C82AA
S11302908A847AFE90989462629292928C8080FE14
S11302A08080FC020202FCF8040204F8FC021C0236
S11302B0FCC6281028C6E0100E10E0868A92A2C25E
S11302C000FE8282004020100804008282FE00208A
S11302D04080402002020202020080402000042AE2
S11302E02A2A1EFE1222221C1C222222041C222242
S11302F012FE1C2A2A2A18107E908040304A4A4A4C
S11303007CFE1020201E0022BE0200040222BC003B
S1130310FE081422000082FE02003E2018201E3E29
S11303201020201E1C2222221C3E282828101028BF
S113033028183E3E10202010122A2A2A0420FC22CB
S113034002043C0202043E38040204383C020C025B
S11303503C2214081422300A0A0A3C22262A322299
S113036000106C82000000FE000000826C10000887
S11303701010081000000000007F8181817F7F83BE
S113038083837F7F8787877F7F8F8F8F7F7F9F9FE9
S11303909F7F7FBFBFBF7F7FFFFFFF7F2040FF4066
S11303A020621517156500FBFB000000000000002B
S11303B0C0FF0300E0FF0700F0FF0F00F8FF1F007D
S11303C078001E0078001E0078001E0078001E00D1
S11303D078001E0078001E0078001E0078001E00C1
S11303E078001E00000000000000000080FF0300F1
S11303F0E0FF0700F0FF0F00F8FF1F00F83C1F00AC
S1130400783C1E00783C1E00783C1E00783C1E00A0
S1130410783C1E00783C1E00783C1E00783C1E0090
S1130420783C1E00783C1E00000000000000000024
S1130430E0FF0300F0FF0700F8FF0F00F8FF1F00C4
S1130440783C1E00783C1E00783C1E00783C1E0060
S1130450783C1E00783C1E00783C1E00783C1E0050
S1130460783C1E00783C1E000000000000000000E4
S1130470F8FF0300F8FF0F00F8FF1F00F8FF1F004C
S113048000001E0000001E0000801F0000F01F007E
S113049000FF0F00E0FF0700F0FF0000F80F00006E
S11304A0F80000007800000078000000F8FF1F004A
S11304B0F8FF1F00F0FF1F00E0FF1F000000000016
S11304C000000000F8FF1F00F8FF1F00F8FF1F00E6
S11304D0F8FF1F0078001E00783C1E00783C1E00C8
S11304E0783C1E00783C1E00783C1E00783C1E00C0
S11304F0F87E1F00F8FF1F00F0FF0F00E0E7030085
S11305000000000000003800EEFF6C002A80450067
S11305103A0047FC03FF6CFC83FF3900DEFF0B7CD1
S1130520D0810BFCD0810BC0D0810BFCD0810B7C23
S1130530DEFF0B0082FF397002FF6CF83A0047DCE3
S11305402A8045CCEEFF6CCC000038000000000C83
S113055000001E0C00001E0000001E0000001E0013
S113056000001E00F8FF1F00F8FF1F00F8FF1F0027
S1130570F8FF1F0000001E0000001E0000001E0007
S113058000001E0000005E000000400000007C002F
S1130590000040000000400000007C00000030002B
S11305A0000010000000300000007C6E616E0069E5
S11305B06E660000407A10F35A00A0724E180900CB
S11305C010A5D4E80000E87648170000E40B5402B4
S11305D00000CA9A3B000000E1F5050000809698EF
S11305E000000040420F000000A08601000000103F
S11305F02700000000E80300000000640000000081
S1130600000A00000000000100000000002C76D861
S113061088DC674F0823DFC1DFAE59E1B1B796E547
S1130620E3E453C63AE651997696E8E6C28426EBAB
S1130630898C9B62ED407C6FFCEFBC9C9F40F2BABE
S1130640A56FA5F490055A2AF75C936B6CF9676D56
S1130650C11BFCE0E40D47FEF520E6B500D0ED90AB
S11306602E0300943577050080841E080000204E78
S11306700A000000C80C333333330F986E12831111
S113068041EF8D2114893BE65516CFFEE6DB18D1E8
S1130690844B381BF77C1D901DA4BBE424203284BA
S11306A0725E228100C9F124ECA1E53D27001124EA
S11306B01FBECFEFD8E0DEBFCDBF13E0A0E0B1E0B6
S11306C0EEE4FBE602C005900D92A43AB107D9F717
S11306D024E0A4EAB3E001C01D92A03AB207E1F716
S11306E00E94E3030C94A5350C9400008FE00E9453
S11306F07E09882331F40E94090B8FE061E00E9497
S1130700C6098FE091E008958FE00E947E09813050
S113071019F020E030E013C080917A008064809367
S11307207A0080917A0086FDFCCF30917800209188
S11307307900922F80E0232F30E0282B392BC90138
S11307400895582F809100018830D8F440917E009C
S113075021E030E0B90102C0660F771F8A95E2F705
S1130760CB018095842380937E0080917E00052EAA
S113077002C0220F331F0A94E2F7822B80937E007B
S11307800DC020917E0081E090E0052E02C0880F0C
S1130790991F0A94E2F7282B20937E0050930001BE
S11307A080917C005F71807E852B80937C0008950E
S11307B0ECE7F0E090818295880F880F807C9F732E
S11307C0982B908308950E94220B0E94140B0E9480
S11307D0232780E090E008950F931F9380E460E066
S11307E00E94CB0400E0802F60E00E94B20410E07D
S11307F080E061E00E94CB041F5F1038C9F70F5FEF
S1130800043089F783E060E00E94AB041F910F91EC
S113081008950F931F9382E00E947E09882311F4A8
S113082082E006C081E00E947E09882319F481E0F9
S113083090E06DC00E948A0D85E061E00E94C609C7
S11308408EEA60E00E94CB0482EA60E00E94CB045E
S113085080EA60E00E94CB0400E513ECC801019734
S1130860F1F780EC60E00E94CB048FE260E00E942C
S1130870CB0481E860E00E94CB0486E160E00E9442
S1130880CB0482E260E00E94CB04C8010197F1F737
S11308908FEA60E00E94CB0486EA60E00E94CB0409
S11308A085EA60E00E94CB0480E090E028E833E130
S11308B0F9013197F1F7019643E0883E9407C1F7B7
S11308C083EB60E00E94CB0480E460E00E94CB04F0
S11308D083E060E00E94B20483E060E00E94AB0425
S11308E01092710410927304109272048FE091E0DC
S11308F090939D0480939C0488E10E948A040E9442
S1130900EC0384EA60E00E94CB0485E091E01F914F
S11309100F9108951F93182F85E00E947E0981305E
S1130920C1F487E00E94E60482E06AE00E94370591
S113093082E061EB0E943705612F113208F060E21A
S113094082E00E94370589EE8A95F1F787E00E94DC
S1130950E6041F91089583706F7760936F0480930A
S1130960700408950F931F93062F162F1F7783701B
S1130970806B60E00E94CB0412951F70812F806110
S113098060E00E94CB04802F8F7060E00E94CB0453
S11309901F910F9108950F931F93082F162F85E031
S11309A00E947E09813079F4112319F0113021F469
S11309B002C02B9801C02B9A86E08A95F1F780E05B
S11309C0602F0E9437051F910F9108951F93182FD0
S11309D082E00E947E09813009F047C0912F977010
S11309E080917404981709F440C09093740485B1FD
S11309F0887F892B85B9933011F1943028F4913094
S1130A0051F0923090F40CC0953019F19530E0F02B
S1130A10963021F50FC0E091F603F091F70322C060
S1130A20E091F403F091F5031DC0E091F803F09117
S1130A30F90318C0E0910004F091010413C0E0919F
S1130A40FA03F091FB030EC0E091FC03F091FD0367
S1130A5009C0E091FE03F091FF0304C0E091020499
S1130A60F0910304309709F009951F9108951F939D
S1130A70162F0E94E60482E00E947E09813021F450
S1130A801EBD0DB407FEFDCF1F9108950F931F9354
S1130A90CF93DF9380E291E00E943A329C019093DD
S1130AA0130480931204892B11F480E039C0890166
S1130AB0C0E0D0E0BE0180E090E00E94092B20E07D
S1130AC030E040EA51E40E94702A27EF35E740E025
S1130AD05FE30E94242C9B01AC0160E070E080E2A3
S1130AE091E40E9464309B01AC01CA01B9012DEC70
S1130AF03CEC42E851E40E94242C0E942A302AE073
S1130B0030E040E050E00E948F31F801619371932E
S1130B10819391938F012196C834D10559F681E0D0
S1130B20DF91CF911F910F9108958AE00E947E0971
S1130B30882371F410920F0410920E0481E00E9435
S1130B40740F81E0809305048AE061E00E94C60985
S1130B508AE091E008951F938BE00E947E09882328
S1130B6011F090E021C089E00E947E098823D9F425
S1130B700E944605182F8130B1F410920604109299
S1130B80070410920804109209048DE060EE7EE0E0
S1130B900E94620D82E00E94740F1093040489E0A5
S1130BA061E00E94C60991E089E01F9108958130B7
S1130BB029F0823031F090E089E008950E94950593
S1130BC008950E94AB0508958F929F92AF92BF92B1
S1130BD0CF92DF92EF92FF920F931F93CF93DF9305
S1130BE04B015C01EA01B9012115310539F19E017E
S1130BF0442737FD4095542F6536710510F064E69F
S1130C0070E080E090E00E948F3124E630E040E024
S1130C1050E00E94B33179018A01C501B4010E94F8
S1130C20E30EC7010E94AA0A60E070E080E090E051
S1130C300E94E30ECE018E199F0904C0411551058F
S1130C4019F0CA010E94AA0ADF91CF911F910F9156
S1130C50FF90EF90DF90CF90BF90AF909F908F90D8
S1130C60089587E00E947E09813041F480935904FD
S1130C700E94A40F87E060E00E94C60908952F92A5
S1130C803F924F925F926F927F928F929F92AF9218
S1130C90BF92CF92DF92EF92FF920F931F93DF9355
S1130CA0CF93CDB7DEB7582E962E442E39013C2C67
S1130CB0C98CDA8C2B8C81E0681739F1681728F01D
S1130CC092E0691709F085C049C080E061E00E94A4
S1130CD0480880E0B7010E94110880E0642DA30158
S1130CE09801032DEE24E394EAE5CE2EE4E0DE2E13
S1130CF00E947F08552009F06CC000D00F92EDB718
S1130D00FEB71182B382A28223C081E061E00E9417
S1130D10480881E0B6010E94110881E0682D4D89E0
S1130D205E892F89388D022DEE24E3947AE5C72E4F
S1130D3074E0D72E0E947F08552009F04AC000D0E5
S1130D400F92EDB7FEB791828C8D9D8D9383828334
S1130D500E9430090F900F900F903BC082E061E039
S1130D600E94480880E0B7010E94110881E0B601A2
S1130D700E94110880E0642DA3019801032DEE2444
S1130D80E3949AE5C92E94E0D92E0E947F0881E06D
S1130D90682D4D895E892F89388D022D0E947F0828
S1130DA05520B9F400D000D00F92ADB7BEB711965C
S1130DB0EDB7FEB79182FD01B282A1828C8D9D8D2B
S1130DC0948383830E9430090F900F900F900F90AB
S1130DD00F90CF91DF911F910F91FF90EF90DF90D3
S1130DE0CF90BF90AF909F908F907F906F905F90C7
S1130DF04F903F902F9008956F927F928F929F9281
S1130E00AF92BF92CF92DF92EF92FF920F931F9314
S1130E10DF93CF93CDB7DEB7942E7C2DD5014989CE
S1130E205A89AB88BC88CD88DE889F89813009F4D3
S1130E3057C08130B8F1823009F076C0613091F04A
S1130E40613020F0623009F06FC015C080E060E0CE
S1130E500E94480880E0B7010E94110880E0692DD3
S1130E60A8011DC081E060E00E94480881E0B6014D
S1130E700E94110811C082E060E00E94480880E0EE
S1130E80B7010E94110881E0B6010E94110880E0B8
S1130E90692DA8010E94FA0781E0682DA5010E942E
S1130EA0FA0742C0EDB7FEB739970FB6F894FEBF04
S1130EB00FBEEDBF6DB67EB60894611C711C5283E3
S1130EC04183F301B382A282D582C4829683888D42
S1130ED0998D9087878380E0492DC72E5D011AC0C4
S1130EE0EDB7FEB739970FB6F894FEBF0FBEEDBF4E
S1130EF0ADB7BEB7119652834183FD01B382A2827E
S1130F00D582C48296831086178281E0492DC72E2C
S1130F10AA24BB240E943F068DB79EB709960FB63C
S1130F20F8949EBF0FBE8DBFCF91DF911F910F919B
S1130F30FF90EF90DF90CF90BF90AF909F908F90F5
S1130F407F906F9008950E94C30F81E080935904AD
S1130F50E3E2F4E01192119211821082329611822E
S1130F601082329611821082329611821082329649
S1130F70118210823296118210823296118210826E
S1130F803296118210823296118210823296118228
S1130F901082329611821082329611821082369615
S1130FA01192119211921082329611921192119211
S1130FB01192119211921192118210823296118221
S1130FC010823296118210823296118210827697A4
S1130FD0118210823296118210821092580410925B
S1130FE057041092590487E061E00E94C60987E023
S1130FF091E00895EF92FF920F931F93182F062FFD
S11310007A0160E00E944808812F602F0E94330813
S1131010812FB7010E945D081F910F91FF90EF90FF
S11310200895482F81E080935904CB0123E0693E61
S1131030720710F088EE93E0413071F0413018F0FF
S1131040423071F405C090932E0480932D0408C09F
S113105090932E0480932D049093300480932F0456
S1131060109259040895982F81E080935904913087
S113107051F0913018F0923041F403C0609346046B
S113108004C0609346046093470410925904089581
S1131090982F81E080935904913051F0913018F0E9
S11310A0923041F403C06093230404C0609323048A
S11310B060932404109259040895482F81E080938A
S11310C05904CB0121E06139720710F080E991E005
S11310D0413071F0413018F0423071F405C0909302
S11310E026048093250408C0909326048093250445
S11310F090932804809327041092590408958F92A2
S11311009F92AF92BF92CF92DF92EF92FF920F9392
S11311101F93CF93DF93182FF62E5A014901E6014E
S113112061E00E944808812FB501A4010E94FD0FCF
S1131130812F6F2D0E943308812F602F0E94E80FAA
S1131140812FB5010E94CD0FC114D10499F0113043
S113115049F0113018F0123069F406C01882109268
S1131160550408C0198204C01882198210925504CB
S113117010925604D0935804C0935704EE20B9F546
S113118084EA93E09093580480935704812FB40128
S11311900E945D08812F0E94AE0F113071F0113052
S11311A018F0123059F512C01092A403109255048D
S11311B08091A4038823E1F321C01092A503109227
S11311C056048091A5038823E1F318C01092A40368
S11311D01092A50310925504109256048091A40312
S11311E08823E1F38091A5038823C1F307C0812FED
S11311F0B4010E945D08812F0E94AE0FDF91CF9150
S11312001F910F91FF90EF90DF90CF90BF90AF9020
S11312109F908F9008950F931F93182F062F662386
S113122049F460E070E00E945D08812F60E070E0A6
S11312300E94CD0F81E080935904113051F0113098
S113124018F0123041F403C00093410404C0009329
S1131250410400934204109259041F910F91089580
S1131260CF92DF92EF92FF920F931F93DF93CF936E
S1131270CDB7DEB78B85813061F0813018F08230D4
S1131280A1F511C0EC85FD8580915A048823E1F312
S113129006C0EC85FD8580915B048823E1F33097DB
S11312A021F1099522C0CC84DD84EE84FF8400E022
S11312B010E0002351F480915A04882331F0C114C2
S11312C0D10411F0F601099501E0112351F4809144
S11312D05B04882331F0E114F10411F0F70109955E
S11312E011E0002331F3112321F3CF91DF911F91FA
S11312F00F91FF90EF90DF90CF900895E82FF0E0EA
S1131300E331F10540F4EC59FF4FEE0FFF1F059058
S1131310F491E02D099480E0089580915C0408958F
S113132080915D04089580915E04089580915F0426
S113133008958091600408958091620408958091D5
S1131340610408958091630408958091640408956C
S113135080916504089580916604089580916704DE
S11313600895809168040895809169040895809196
S11313706A04089580916B04089580916C04089523
S113138080916D04089580916E040895E82FF0E033
S1131390E331F10508F040C0E958FF4FEE0FFF1F9D
S11313A00590F491E02D099460935C040895609392
S11313B05D04089560935E04089560935F04089546
S11313C060936004089560936204089560936104D7
S11313D0089560936304089560936404089560938A
S11313E065040895609366040895609367040895FE
S11313F060936804089560936904089560936A048F
S1131400089560936B04089560936C040895609349
S11314106D04089560936C0408951F93CF93DF9334
S1131420182F8091A703882341F08091B10388236A
S113143099F01092A7031092B1030E945D1080935B
S1131440A6038BEA93E061E040E022E330E00E94EF
S1131450CB0A81E08093A7039091A603A12FB0E06B
S1131460ED01C75FDE4F8881882369F0FD01E45FE9
S1131470FE4F80819823C1F0FD01E855FC4F81E0C7
S11314808083188211C0FD01E855FC4F80818111D1
S11314901082FD01E45FFE4F8081982329F4FD0151
S11314A0E75FFE4F81E08083A855BC4F8C91DF91AC
S11314B0CF911F91089582E00E947E09882319F438
S11314C090E082E0089510928A04109289041092A8
S11314D08C0410928B0410928E0410928D0410923E
S11314E0900410928F04109292041092910480E957
S11314F091E090937604809375049093780480939C
S1131500770490937A048093790490937C04809375
S11315107B0490937E0480937D0484E398E090930D
S1131520800480937F049093820480938104909339
S11315308404809383049093860480938504909319
S113154088048093870481E061E00E94C60991E0E9
S113155081E00895DF93CF93CDB7DEB729970FB617
S1131560F894DEBF0FBECDBF9C01CE01019661E0B1
S113157040E00E94CB0A982F882319F48F81882396
S1131580E9F3892F29960FB6F894DEBF0FBECDBFBD
S1131590CF91DF910895EF92FF920F931F93CF9312
S11315A0DF93EC01F62EE42E890188E00E947E0987
S11315B0813011F081E026C084E090E00E943A324C
S11315C0FC01009711F482E01DC0F982F0FC1E8238
S11315D081E0E81619F489818460898389818860AF
S11315E089831B830A831D830C83D183C083138265
S11315F0128281E080931404CF010E948E10109215
S1131600140480E0DF91CF911F910F91FF90EF9030
S113161008958FE180937C00EAE7F0E087E080831F
S113162080818068808308950E943A100E94390E58
S11316300E94760D0E94F7100E949E0E0E945B0A83
S113164078940895000008951F920F920FB60F9298
S113165011242F933F934F935F936F937F938F93B3
S11316609F93AF93BF93EF93FF93E091D403F091D3
S1131670D503309709F00995FF91EF91BF91AF9190
S11316809F918F917F916F915F914F913F912F9196
S11316900F900FBE0F901F9018951F920F920FB6C8
S11316A00F9211242F933F934F935F936F937F93E4
S11316B08F939F93AF93BF93EF93FF93E091D603E0
S11316C0F091D703309709F00995FF91EF91BF91FD
S11316D0AF919F918F917F916F915F914F913F91C6
S11316E02F910F900FBE0F901F9018951F920F927D
S11316F00FB60F9211242F933F934F935F936F93E1
S11317007F938F939F93AF93BF93EF93FF93E09156
S1131710D803F091D903309709F00995FF91EF911F
S1131720BF91AF919F918F917F916F915F914F91F5
S11317303F912F910F900FBE0F901F9018951F92FD
S11317400F920FB60F9211242F933F934F935F93F1
S11317506F937F938F939F93AF93BF93EF93FF9375
S1131760E091C603F091C703309709F00995FF9102
S1131770EF91BF91AF919F918F917F916F915F9105
S11317804F913F912F910F900FBE0F901F9018957E
S11317901F920F920FB60F9211242F933F934F93E2
S11317A05F936F937F938F939F93AF93BF93EF93C5
S11317B0FF93E091C803F091C903309709F00995AC
S11317C0FF91EF91BF91AF919F918F917F916F9115
S11317D05F914F913F912F910F900FBE0F901F90EB
S11317E018951F920F920FB60F9211242F933F93C7
S11317F04F935F936F937F938F939F93AF93BF9315
S1131800EF93FF93E091CA03F091CB03309709F073
S11318100995FF91EF91BF91AF919F918F917F9126
S11318206F915F914F913F912F910F900FBE0F9049
S11318301F9018951F920F920FB60F9211242F9399
S11318403F934F935F936F937F938F939F93AF9344
S1131850BF93EF93FF93E091CE03F091CF033097C2
S113186009F00995FF91EF91BF91AF919F918F91ED
S11318707F916F915F914F913F912F910F900FBE88
S11318800F901F9018951F920F920FB60F9211246C
S11318902F933F934F935F936F937F938F939F9374
S11318A0AF93BF93EF93FF93E091D003F091D103F3
S11318B0309709F00995FF91EF91BF91AF919F91F6
S11318C08F917F916F915F914F913F912F910F90E5
S11318D00FBE0F901F9018951F920F920FB60F9284
S11318E011242F933F934F935F936F937F938F9321
S11318F09F93AF93BF93EF93FF93E091CC03F09149
S1131900CD03309709F00995FF91EF91BF91AF9105
S11319109F918F917F916F915F914F913F912F9103
S11319200F900FBE0F901F9018951F920F920FB635
S11319300F9211242F933F934F935F936F937F9351
S11319408F939F93AF93BF93EF93FF93E091D20351
S1131950F091D303309709F00995FF91EF91BF916E
S1131960AF919F918F917F916F915F914F913F9133
S11319702F910F900FBE0F901F9018951F920F92EA
S11319800FB60F9211242F933F934F935F936F934E
S11319907F938F939F93AF93BF93EF93FF93E091C4
S11319A0BC03F091BD03309709F00995FF91EF91C5
S11319B0BF91AF919F918F917F916F915F914F9163
S11319C03F912F910F900FBE0F901F9018951F926B
S11319D00F920FB60F9211242F933F934F935F935F
S11319E06F937F938F939F93AF93BF93EF93FF93E3
S11319F0E091BE03F091BF03309709F00995FF9180
S1131A00EF91BF91AF919F918F917F916F915F9172
S1131A104F913F912F910F900FBE0F901F901895EB
S1131A201F920F920FB60F9211242F933F934F934F
S1131A305F936F937F938F939F93AF93BF93EF9332
S1131A40FF93E091C003F091C103309709F0099529
S1131A50FF91EF91BF91AF919F918F917F916F9182
S1131A605F914F913F912F910F900FBE0F901F9058
S1131A7018951F920F920FB60F9211242F933F9334
S1131A804F935F936F937F938F939F93AF93BF9382
S1131A90EF93FF93E091C203F091C303309709F0F1
S1131AA00995FF91EF91BF91AF919F918F917F9194
S1131AB06F915F914F913F912F910F900FBE0F90B7
S1131AC01F901895E82F803268F48051833050F0CD
S1131AD0F0E0EE0FFF1FEC54FC4F20813181718345
S1131AE0608302C020E030E0C901089580E10E94D3
S1131AF07E09882361F4E4EBF3E01192119283E010
S1131B00E43FF807D1F780E161E00E94C60980E173
S1131B1091E00895239A0895FF920F931F93CF9312
S1131B20DF93F82E8AE0F816B1F08F1548F0E8E05C
S1131B30FE16B9F1EF1538F1F7E0FF1651F43BC08A
S1131B408DE0F81659F0EBE1FE1689F0FCE0FF1683
S1131B5041F001E041C010926F0403C010926F0481
S1131B603AC08091700481508093700434C00E9404
S1131B70EC0314C080E061E00E94CB0480916F0408
S1131B808F5F80936F0480916F0487FFF3CF10926F
S1131B906F048091700481508093700400E011E020
S1131BA01CC080916F048823B1F080916F0486502B
S1131BB080936F0410C081E00E94D70564EF71E048
S1131BC080E090E04DE750E024E630E00E94E40538
S1131BD081E00E946A0F00E010E08091700460913F
S1131BE06F040E94B204002351F185E0F89EC00105
S1131BF01124EC01C750DF4F8C0102501F4FFE012E
S1131C00849161E00E94CB042196C017D107B9F7F3
S1131C1080E061E00E94CB0480916F048A5F80932E
S1131C206F0480916F0490E08C3791053CF0109222
S1131C306F048091700481508093700411E080914E
S1131C407004837080937004113059F4809171048E
S1131C50813039F4E0917204F0917304309709F003
S1131C60099580E090E0DF91CF911F910F91FF9053
S1131C70089580E00E947E09882351F4F8940E941C
S1131C80311181E00E944B0E80E061E00E94C609A0
S1131C9080E091E00895813049F0F894813020F19A
S1131CA08230B1F0833009F045C017C02C9A80E827
S1131CB0809361001092610080E090E00000019642
S1131CC088329105D9F71092680010926B0008953C
S1131CD080E88093610083E004C080E88093610021
S1131CE088E08093610028C080E090E000000196C5
S1131CF02DE680369207D1F72C9880E090E0000022
S1131D0001962DE680369207D1F710927A008FEF74
S1131D108093640080916800816080936800809162
S1131D206B00846080936B00789483B7816083BF79
S1131D3088950895823008F0789408950F931F933E
S1131D400E945D1180E06CE471E10E94D70E81E095
S1131D5064E471E10E94D70E82E06CE371E10E94B9
S1131D60D70E86E064E571E10E94D70E04E311E129
S1131D7083E0B8010E94D70E84E0B8010E94D70E18
S1131D8085E0B8010E94D70E87E0B8010E94D70E03
S1131D9082E061E00E94C6098FEF8093740487E0BB
S1131DA00E94E60482E091E01F910F910895E82FCC
S1131DB0F0E0EE0FFF1FEC50FC4F71836083089539
S1131DC00E94FA0E08959B01AC01809105048823BA
S1131DD081F0DA01C901880F991FAA1FBB1F9093D4
S1131DE0110480931004211531054105510509F4AE
S1131DF05F9808958091060490910704A0910804C7
S1131E00B091090420910A0430910B0440910C0410
S1131E1050910D04280F391F4A1F5B1F209306049D
S1131E2030930704409308045093090480910604F6
S1131E3090910704A0910804B09109048851964F29
S1131E40A040B040BCF08BB180588BB9809106049F
S1131E5090910704A0910804B09109048851964F09
S1131E60A040B0408093060490930704A093080414
S1131E70B093090408958AE00E947E09813041F4F8
S1131E800E947611109205048AE060E00E94C6095F
S1131E90089589E00E947E098130D9F48091040478
S1131EA0882311F00E949E0F82E00E947611809197
S1131EB0120490911304009731F00E94D2321092D0
S1131EC01304109212041092040489E060E00E944A
S1131ED0C6090895813029F0823029F40E94490FFF
S1131EE008950E943B0F0895982F8091040488233D
S1131EF031F480910504882311F4579A5F988091F6
S1131F0004048823D1F49230C1F41092800010921A
S1131F10810080918100886080938100809181009C
S1131F20816080938100109285001092840081E08A
S1131F308093890080E9809388000895EFE6F0E0BB
S1131F4080818D7F8083089588B1837088B93A98A1
S1131F503B983C983D983E983F980895982F81E08F
S1131F6080935904913051F0913018F0923041F43B
S1131F7003C01092410404C0109241041092420420
S1131F801092590408953A9A3B9A3C9A3D9A3E9A83
S1131F903F9A88B1837088B90895982F81E080931F
S1131FA05904913071F0913018F0923071F405C0F9
S1131FB0709336046093350408C0709336046093BC
S1131FC035047093380460933704109259040895CB
S1131FD0982F81E080935904913051F0913018F09A
S1131FE0923041F403C06093430404C060934304FB
S1131FF0609344041092590408950F931F93CF9350
S1132000DF93EB018A01813001F1813018F08230D5
S113201061F50DC080912D0490912E04892B11F04F
S113202080E01AC010923A04109239041EC08091C4
S11320302D0490912E04892B21F080E00E949211AE
S113204004C010923A041092390480912F049091A4
S11320503004892B31F081E0BE01A8010E94921165
S113206004C010923C0410923B04DF91CF911F9165
S11320700F91089510925C0410925D041092610413
S113208010925E0410926004109262041092630431
S1132090109264041092650410926604109267040E
S11320A0109268041092690410926A0410926B04EE
S11320B010926C0410926D0408950F931F9381E0A5
S11320C00E947E09813011F000E024C087E00E9464
S11320D0E60482E06AE00E94370582E062EB0E9437
S11320E0370518EC812F8A95F1F782E060E00E94B1
S11320F06411082F812F8A95F1F782E060E00E9435
S113210064111A95F1F787E00E94E60488E893E1E8
S11321100197F1F7802F1F910F910895CF92DF92CD
S1132120EF92FF920F931F93CF93DF93EC01809173
S11321309304882339F4D0939504C09394040E94A3
S11321401C1147C0C0909404D090950400E010E0A6
S1132150EE24FF2437C0A881B981FD016481758113
S1132160F60140815181FA01848195819B01281BEC
S1132170390B37FF0FC0861B970B95838483DB8253
S1132180CA82012B29F4D0939504C093940421C0EE
S1132190F7010CC0F601828193812115310549F4C0
S11321A0FD01158214829B838A83F601D383C28343
S11321B010C0FD01358324830097B9F30F5F1F4FCF
S11321C076016C018091930490E00817190718F2C6
S11321D0ECCF809193048F5F80939304DF91CF9130
S11321E01F910F91FF90EF90DF90CF90089588E0BA
S11321F00E947E098823B9F41092930410929504E6
S113220010929404109214041092150480E16FEF5C
S113221071E10E9420110E9406120E94161188E0AA
S113222061E00E94C60988E091E00895EEE6F0E0DE
S1132230808182608083089581E0809315040895ED
S1132240803218F020E030E00AC0E82FF0E0EE0F12
S1132250FF1FEC54FC4F2081318171836083C901DD
S11322600895249A2C9A089583E58CBD81E08DBD50
S11322708DE08A95F1F7089583E58CBD1DBC84EF4C
S113228091E00197F1F708958FE78CBD1DBC84EFB1
S113229091E00197F1F7089583E58CBD81E08DBD50
S11322A08DE08A95F1F7089583E58CBD81E08DBDBD
S11322B084EF91E00197F1F70895259A2698279ADB
S11322C0209A219A229A08951F93162F0E94E604B9
S11322D082E00E947E09813011F080E005C01EBDBD
S11322E00DB407FEFDCF8EB51F910895823029F4F9
S11322F0809181008E7F80938100809104048130DD
S113230031F480910504813011F400000895809126
S11323100404813021F080910504813011F45F9828
S113232057980895EF92FF920F931F93CF93DF93E3
S1132330EB01882321F0813009F05AC02DC09A01A5
S113234040E050E0CA01B9010E948F3120912D0470
S113235030912E04220F331F40E050E00E94B3312D
S113236079018A01A8019701220F331F441F551FC9
S1132370CE01A0E0B0E082179307A407B50728F0C8
S1132380F0923A04E092390433C0D695C795D093BD
S11323903A04C09339042CC09A0140E050E0CA01C9
S11323A0B9010E948F3120912F0430913004220F03
S11323B0331F40E050E00E94B33179018A01A80143
S11323C09701220F331F441F551FCE01A0E0B0E038
S11323D082179307A407B50728F0F0923C04E09213
S11323E03B0406C0D695C795D0933C04C0933B04E8
S11323F0DF91CF911F910F91FF90EF9008950E946C
S11324000F120E944F120E942812089584B5826010
S113241084BD85B5846085BD8EE487BD089588E05C
S11324200E947E09882311F484E0089580911504A4
S1132430882311F483E0089580911404882311F013
S113244082E008950E949C148130E1F380E00895B5
S113245080910504813011F580910E0490910F0450
S11324602091100430911104280F391F30930F0468
S113247020930E0480910E0490910F04885E934083
S11324806CF08BB180588BB980910E0490910F043D
S1132490885E934090930F0480930E04089587E020
S11324A00E947E09813009F0AAC080912D04909188
S11324B02E04892B09F180915104909152042091AA
S11324C02D0430912E04820F931F90935204809315
S11324D051048091510490915204885E9340A4F079
S11324E08091510490915204885E934090935204D9
S11324F08093510441E009C0809125049091260401
S113250090932A048093290440E080912F049091B1
S11325103004892B09F18091530490915404209143
S11325202F0430913004820F931F909354048093AE
S113253053048091530490915404885E9340A4F012
S11325408091530490915404885E93409093540472
S11325508093530461E009C080912704909128047A
S113256090932C0480932B0460E0842F0E9400132A
S113257080914D0490914E042091290430912A04B5
S1132580280F391F30934E0420934D0480914D043D
S113259090914E04885E934014F440E00BC0809107
S11325A04D0490914E04885E934090934E04809322
S11325B04D0441E080914F049091500420912B04EC
S11325C030912C04280F391F3093500420934F046A
S11325D080914F0490915004885E934014F460E01D
S11325E00BC080914F0490915004885E9340909367
S11325F0500480934F0461E0842F0E944513089592
S11326008823F1F020912504309126048091290437
S113261090912A04281B390B1216130634F4809166
S1132620290490912A04019607C0232B49F0809134
S1132630290490912A04019790932A0480932904F1
S1132640662311F1209127043091280480912B04F2
S113265090912C04281B390B1216130654F4809104
S11326602B0490912C04019690932C0480932B04BA
S11326700895232B49F080912B0490912C04019709
S113268090932C0480932B0408950F931F93182F79
S1132690062F80915904882309F0E7C080914104F2
S11326A0882309F05AC08091290490912A04892B27
S11326B0E9F480911604837E8093160410924A04F0
S11326C080915504882309F45DC06091430480E03F
S11326D00E940B09E0915704F0915804309709F4D3
S11326E051C081E08083109255044CC08091230432
S11326F0813041F48091350490913604019711F4AE
S113270011E002C01123F1F1E0914804F0E0EF5F21
S1132710FE4F90911604937E8081892B809316043A
S113272080914604882321F4809148048F5F03C07C
S113273080914804815080934804809148048370B8
S11327408093480481E080934A048091230481307B
S1132750C9F480E00E94481415C090911604937E39
S113276090931604E0914804F0E0EF5FFE4F8081FF
S1132770892B8093160482E080934A0410922A04E1
S11327801092290480914204882309F059C0809151
S11327902B0490912C04892BE9F4809116048F71F9
S11327A08093160410924B0480915604882309F4F4
S11327B05CC06091440481E00E940B09E0915704DD
S11327C0F0915804309709F450C081E0818310924D
S11327D056044BC080912404813041F48091370425
S11327E090913804019711F401E002C00023E9F14B
S11327F0E0914904F0E0EB5FFE4F909116049F7165
S11328008081892B8093160480914704882321F4C6
S1132810809149048F5F03C0809149048150809363
S113282049048091490483708093490481E0809332
S11328304B04809124048130C1F40E94481415C0D3
S1132840909116049F7190931604E0914904F0E06E
S1132850EB5FFE4F8081892B8093160482E0809386
S11328604B0410922C0410922B0480914C04882366
S113287031F486E194E0612F402F0E940A1588B15B
S1132880837090911604892B88B91F910F91089534
S1132890882321F0813009F04EC027C0809135048F
S11328A090913604892B49F0809135049091360437
S11328B001979093360480933504809155048823BE
S11328C0D1F52091350430913604809139049091EA
S11328D03A042817390779F580E060E070E00E9437
S11328E05D0881E0809355040895809137049091A8
S11328F03804892B49F0809137049091380401976A
S1132900909338048093370480915604882399F473
S1132910209137043091380480913B0490913C0419
S11329202817390741F481E060E070E00E945D08F7
S113293081E0809356040895FF920F931F93CF93E1
S1132940DF9380919304882309F459C0009194047F
S113295010919504F801C081D1818C819D810197EA
S11329609D838C83181619060CF449C0898180FF55
S113297005C08E81882311F481E08E83898181FFD3
S113298003C0EF81F8850995809193048230A8F003
S1132990F801828193819093950480939404138227
S11329A01282E0910000F091010084819581181653
S11329B019063CF0FF24F39405C01092950410927C
S11329C09404FF2480919304815080939304809114
S11329D09304882311F40E940715898182FF08C09B
S11329E08A819B819D838C83C8010E948E1008C0BC
S11329F0C8010E94D23289818F7E898301C0FF245D
S1132A008F2DDF91CF911F910F91FF900895109218
S1132A1015040895FC0180914A04823069F4809180
S1132A201A0491E0892780931A04882309F03EC090
S1132A308081837E80833AC08091290490912A0406
S1132A40C397A4F56623D1F02091290430912A0478
S1132A5080E690E0BC01269FC001279F900D369F21
S1132A60900D1124880F892F881F990B90933E0491
S1132A7080933D0481E08093180418C08091180469
S1132A808823A1F080913D0490913E040197909396
S1132A903E0480933D0480913D0490913E04892B33
S1132AA029F48081837E80831092180480914B04E2
S1132AB0823069F48091190491E089278093190484
S1132AC0882309F03EC080818F71808308958091AE
S1132AD02B0490912C04C397A4F54423D1F02091A6
S1132AE02B0430912C0480E690E0AC01249FC001BB
S1132AF0259F900D349F900D1124880F892F881FD6
S1132B00990B9093400480933F0481E080931704D1
S1132B100895809117048823A1F080913F04909137
S1132B20400401979093400480933F0480913F04B4
S1132B3090914004892B29F480818F7180831092B5
S1132B40170408958F92AF92BF92CF92EF92FF92A3
S1132B500F931F93649F9001659F300D749F300DF8
S1132B6011241F921F921F92E1E0EF93E0E9EF938B
S1132B709F938F93849FF001859FF00D949FF00D98
S1132B801124FF93EF93812CA12CB12CC12C0F2E77
S1132B90F0E9EF2EFF24F394F02D8B0140E062E086
S1132BA080E00E94FC068DB79EB709960FB6F89494
S1132BB09EBF0FBE8DBF1F910F91FF90EF90CF90DE
S1132BC0BF90AF908F900895CF92DF92EF92FF92D3
S1132BD00F931F93CF93DF938B01E901BA01681B15
S1132BE0790B882777FD8095982F0E940B2B6B011A
S1132BF07C01BE01601B710B882777FD8095982F9F
S1132C000E940B2BA70196010E94162A20E030E0B7
S1132C1044E353E40E94242C2BED3FE049E450E4C8
S1132C200E94702A0E94D82A882777FD8095982FC1
S1132C300E940B2BDF91CF911F910F91FF90EF908A
S1132C40DF90CF9008958F92AF92BF92CF92EF9280
S1132C50FF920F931F93CF93DF930E94AF33EC0146
S1132C600E94AF3329EC30E0B9010E949F318C01FE
S1132C7011271F921F921F9281E08F9380E98F93F7
S1132C80CE01B9010E949F3199279F938F931F9280
S1132C901F92812CA12CB12CC12C0F2EF0E9EF2E08
S1132CA0FF24F394F02D20E030E040E062E082E085
S1132CB00E94FC0684EF91E00E94AA0A8DB79EB799
S1132CC009960FB6F8949EBF0FBE8DBFDF91CF91CA
S1132CD01F910F91FF90EF90CF90BF90AF908F9086
S1132CE0089581E00E94D80384E00E94A1030E9419
S1132CF08403BC0180E090E00E94092B20E030E0D6
S1132D0040EA50E40E94A3299B01AC0160E070E218
S1132D1086E395E40E94702A20E030E040E85FE317
S1132D200E94A2292CE033E949EC5EE30E94242CA2
S1132D30089581E00E94D80383E00E94A1030E94C9
S1132D408403BC0180E090E00E94092B20E030E085
S1132D5040EA50E40E94A3299B01AC0160E070E2C8
S1132D6086E395E40E94702A20E030E040E85FE3C7
S1132D700E94A2292CE033E949EC5EE30E94242C52
S1132D80089581E00E94D80387E00E94A1030E9475
S1132D908403BC0180E090E00E94092B20E030E035
S1132DA040EA50E40E94A3299B01AC0160E070E278
S1132DB086E395E40E94702A20E030E040E85FE377
S1132DC00E94A2292CE033E949EC5EE30E94242C02
S1132DD008958F92AF92BF92CF92EF92FF920F938A
S1132DE01F93CF93DF93D82FC92F062F172F0E943D
S1132DF0A307913041F04FEB51E05F934F930E9452
S1132E00DF340F900F901F921F921F9281E08F93D7
S1132E1080E98F931F930F93CF93DF93812CA12C81
S1132E20B12CC12C0F2EF0E9EF2EFF24F394F02DDA
S1132E302D2F3C2F40E062E080E00E94FC068DB71D
S1132E409EB709960FB6F8949EBF0FBE8DBFDF9153
S1132E50CF911F910F91FF90EF90CF90BF90AF90C3
S1132E608F9008958F92AF92BF92CF92EF92FF927C
S1132E700F931F93CF93DF93EC01062F172F0E941C
S1132E80A307913041F08FEB91E09F938F930E94C1
S1132E90DF340F900F9022E82C9FC0012D9F900DDE
S1132EA011246AE570E00E949F31262F372F1F926C
S1132EB01F921F9283E08F9380E28F931F930F934F
S1132EC07F936F93812CA12CB12CC12C0F2EF0E297
S1132ED0EF2EF3E0FF2EF02D41E062E080E00E944F
S1132EE0FC060E9431068DB79EB709960FB6F8947A
S1132EF09EBF0FBE8DBFDF91CF911F910F91FF90A9
S1132F00EF90CF90BF90AF908F9008958F92AF9233
S1132F10BF92CF92EF92FF920F931F93CF93DF93C1
S1132F20EC01062F172F0E94A307913041F08FEB7D
S1132F3091E09F938F930E94DF340F900F9022E8CB
S1132F402C9FC0012D9F900D11246AE570E00E9412
S1132F509F31262F372F1F921F921F9283E08F934A
S1132F6080E28F931F930F937F936F9388248394AE
S1132F70A12CB12CC12C0F2EF0E2EF2EF3E0FF2E8A
S1132F80F02D40E062E080E00E94FC060E943106E1
S1132F908DB79EB709960FB6F8949EBF0FBE8DBF2E
S1132FA0DF91CF911F910F91FF90EF90CF90BF9041
S1132FB0AF908F900895CF93DF9318161906DCF421
S1132FC0853B91052CF460E971E00E94321732C010
S1132FD09C01992314F42F5F3F4FE901D595C795C0
S1132FE060E971E0CE010E94321760E971E0CE0120
S1132FF00E9432171FC09923ECF491958195910991
S1133000853B91052CF460E971E00E94861712C09B
S11330109C01992314F42F5F3F4FE901D595C7957F
S113302060E971E0CE010E94861760E971E0CE018B
S11330300E948617DF91CF9108958F929F92AF924D
S1133040BF92CF92DF92EF92FF920F931F93CF9391
S1133050DF936B017C01042F152F20E030E0A901E0
S11330600E94192C18160CF04DC020E030E04AEFF5
S113307053E4C701B6010E94242C20E030E044E36D
S113308052E40E94702A962ED72FC82FD92E0E9460
S1133090EC03DF92CF93DF939F9227E132E03F93DB
S11330A02F930E94DF341F921F921F9281E08F930F
S11330B080E98F931F930F931F921F928824839408
S11330C0A12CB12CC12C0F2EF0E9EF2EFF24F39488
S11330D0F02D20E030E040E062E082E00E94FC0657
S11330E0692D7D2F8C2F9D2D0E94D82ACB010E9403
S11330F0AA0A8DB79EB70F960FB6F8949EBF0FBE5F
S11331008DBF4CC0C701B601905820E030E04AEFB3
S113311053E40E94242C20E030E044E352E40E9473
S1133120702A962ED72ED82FC92F0E94EC03CF9346
S1133130DF93DF929F9227E132E03F932F930E9427
S1133140DF341F921F921F9281E08F9380E98F9347
S11331501F930F931F921F92812CA12CB12CC12C71
S11331600F2EF0E9EF2EFF24F394F02D20E030E051
S113317041E062E082E00E94FC06692D7D2D8D2FE6
S11331809C2F0E94D82ACB010E94AA0A8DB79EB711
S11331900F960FB6F8949EBF0FBE8DBF60E082E01D
S11331A00E940B09DF91CF911F910F91FF90EF9037
S11331B0DF90CF90BF90AF909F908F900895CF9362
S11331C0DF9300D000D01F92CDB7DEB7212C312C75
S11331D01A821B82912C19821D821C820E94C116A4
S11331E02B013C010E9499166B017C010E9471160F
S11331F020E030E040E451E4C301B2010E94192C04
S113320018160CF0FEC020E030E040E451E4C701A1
S1133210B6010E94692A88230CF0F3C020E030E054
S113322040E850E4C701B6010E94692A8823E4F407
S11332300E94EC038AE192E00E94F33487E292E078
S11332400E94F33485E392E00E94F334A7019601CF
S113325060E070E080E890E40E94A2292B013C0128
S113326060E070E0CB0137C020E030E040EA50E499
S1133270C701B6010E94192C1816D4F40E94EC035D
S11332808AE192E00E94F3348BE392E00E94F334EB
S113329085E392E00E94F33420E030E040EA50E419
S11332A0C701B6010E94A229412C512C320113C03E
S11332B00E94EC038AE192E00E94F3348AE492E0F3
S11332C00E94F33485E392E00E94F334412C512CA4
S11332D03201C301B20120E030E0A9010E94A32918
S11332E020E030E040EF52E40E94A329E62EF72EBE
S11332F0082F192F20E030E0A901C301B2010E9478
S1133300A32920E030E040EF52E40E94A329462E96
S1133310572E682E792E20E030E0A901692D79819D
S11333208D819C810E94692A811108C0242C352C2E
S11333306A827B829E2CF9820D831C832E2D3F2D65
S1133340402F512F692D79818D819C810E94A22962
S113335020E030E0A9010E94242C2E2D3F2D402F87
S1133360512F0E94A329962E79838D839C83242D2B
S1133370352D462D572D622D732D8A819B810E94F8
S1133380A22920E030E0A9010E94242C242D352D0F
S1133390462D572D0E94A329262E372E8A839B83E0
S11333A0692D79818D819C810E94DD2A2B013C014C
S11333B01F921F921F9221E02F9330E93F93622DB9
S11333C0732D8A819B810E94DD2A7F936F931F92C4
S11333D01F92812CA12CB12CC12C0F2EF0E9EF2EC1
S11333E0FF24F394F02D820120E030E040E062E01D
S11333F082E00E94FC060FB6F894DEBF0FBECDBF7C
S1133400EDCE20E030E040E451E4C301B2010E947B
S1133410692A88230CF04AC020E030E040E451E4FB
S1133420C701B6010E94692A88230CF03FC00E949C
S1133430EC038AE192E00E94F33484E592E00E9476
S1133440F33482E692E00E94F3341F921F921F929B
S113345091E09F93E0E9EF931F92F6E9FF931F92A7
S11334601F92812CA12CB12CC12C0F2EF0E9EF2E30
S1133470FF24F394F02D06E910E020E030E040E072
S113348062E082E00E94FC0684EF91E00E94AA0AB6
S113349044E650E060E070E084EB92EC0E941D187A
S11334A00FB6F894DEBF0FBECDBF98CE20E030E05B
S11334B040E451E4C301B2010E94192C18160CF027
S11334C08DCE20E030E040E451E4C701B6010E9413
S11334D0192C18160CF082CE0E94EC038AE192E0BB
S11334E00E94F3348FE692E00E94F3348CE792E07A
S11334F00E94F3341F921F921F9231E03F9380E9A0
S11335008F931F9296E99F931F921F92812CA12C57
S1133510B12CC12C0F2EF0E9EF2EFF24F394F02DE3
S113352006E910E020E030E040E062E082E00E9442
S1133530FC0684EF91E00E94AA0A0E9499160FB635
S1133540F894DEBF0FBECDBF20E030E040E451E48C
S11335500E94192C18160CF041CE44E650E060E0AD
S113356070E084EB92E40E941D181F921F921F9238
S1133570F1E0FF9320E92F931F9236E93F931F92C6
S11335801F9220E030E040E062E082E00E94FC060E
S11335900E9499160FB6F894DEBF0FBECDBF20E08F
S11335A030E040E451E40E94192C18160CF016CEB9
S11335B084E690E00E94AA0A0E94991620E030E076
S11335C040E451E40E94192C181694F307CECF93CB
S11335D0DF9300D000D01F92CDB7DEB7212C312C61
S11335E01A821B82912C19821D821C820E94C11690
S11335F02B013C010E9499160E9471166B017C01FB
S113360020E030E040E451E4C301B2010E94192CEF
S113361018160CF0FEC020E030E040E451E4C7018D
S1133620B6010E94692A88230CF0F3C020E030E040
S113363040E850E4C701B6010E94692A8823D4F403
S11336400E94EC038AE892E00E94F33487E292E05D
S11336500E94F33485E392E00E94F334A7019601BB
S113366060E070E080E890E40E94A229412C512C93
S1133670320139C020E030E040EA50E4C701B6012D
S11336800E94192C1816E4F40E94EC038AE892E0D4
S11336900E94F3348BE392E00E94F33485E392E0DA
S11336A00E94F33420E030E040EA50E4C701B60160
S11336B00E94A2292B013C0160E070E0CB0113C001
S11336C00E94EC038AE892E00E94F3348AE492E0D8
S11336D00E94F33485E392E00E94F334412C512C90
S11336E03201C301B20120E030E0A9010E94A32904
S11336F020E030E040EF52E40E94A329E62EF72EAA
S1133700082F192F20E030E0A901C301B2010E9463
S1133710A32920E030E040EF52E40E94A329462E82
S1133720572E682E792E20E030E0A901692D798189
S11337308D819C810E94692A811108C0242C352C1A
S11337406A827B829E2CF9820D831C832E2D3F2D51
S1133750402F512F692D79818D819C810E94A2294E
S113376020E030E0A9010E94242C2E2D3F2D402F73
S1133770512F0E94A329962E79838D839C83242D17
S1133780352D462D572D622D732D8A819B810E94E4
S1133790A22920E030E0A9010E94242C242D352DFB
S11337A0462D572D0E94A329262E372E8A839B83CC
S11337B0692D79818D819C810E94DD2A2B013C0138
S11337C01F921F921F9221E02F9330E93F93622DA5
S11337D0732D8A819B810E94DD2A7F936F931F92B0
S11337E01F92812CA12CB12CC12C0F2EF0E9EF2EAD
S11337F0FF24F394F02D820120E030E040E062E009
S113380082E00E94FC060FB6F894DEBF0FBECDBF67
S1133810EDCE20E030E040E451E4C301B2010E9467
S1133820692A88230CF04AC020E030E040E451E4E7
S1133830C701B6010E94692A88230CF03FC00E9488
S1133840EC038AE892E00E94F33484E592E00E945B
S1133850F3348CE792E00E94F3341F921F921F927C
S113386091E09F93E0E9EF931F92F6E9FF931F9293
S11338701F92812CA12CB12CC12C0F2EF0E9EF2E1C
S1133880FF24F394F02D06E910E020E030E040E05E
S113389062E082E00E94FC0684EF91E00E94AA0AA2
S11338A044E650E060E070E084EB92E40E941D186E
S11338B00FB6F894DEBF0FBECDBF98CE20E030E047
S11338C040E451E4C301B2010E94192C18160CF013
S11338D08DCE20E030E040E451E4C701B6010E94FF
S11338E0192C18160CF082CE0E94EC038AE892E0A0
S11338F00E94F3348FE692E00E94F33482E692E071
S11339000E94F3341F921F921F9231E03F9380E98B
S11339108F931F9296E99F931F921F92812CA12C43
S1133920B12CC12C0F2EF0E9EF2EFF24F394F02DCF
S113393006E910E020E030E040E062E082E00E942E
S1133940FC0684EF91E00E94AA0A0E9471160FB649
S1133950F894DEBF0FBECDBF20E030E040E451E478
S11339600E94192C18160CF041CE44E650E060E099
S113397070E084EB92EC0E941D181F921F921F921C
S1133980F1E0FF9320E92F931F9236E93F931F92B2
S11339901F9220E030E040E062E082E00E94FC06FA
S11339A00E9471160FB6F894DEBF0FBECDBF20E0A3
S11339B030E040E451E40E94192C18160CF016CEA5
S11339C084E690E00E94AA0A0E94711620E030E08A
S11339D040E451E40E94192C181694F307CE2F9258
S11339E03F924F925F926F927F928F929F92AF928B
S11339F0BF92CF92DF92EF92FF920F931F93CF93D8
S1133A00DF93CDB7DEB72F970FB6F894DEBF0FBEA6
S1133A10CDBF0E9499166B017C010E94711620E0B3
S1133A2030E040E451E40E94692A88230CF05DC12F
S1133A3020E030E040E451E4C701B6010E94692A65
S1133A4088230CF052C11D821E821F821886312CDD
S1133A50212C00E010E00E871F870E9499162B018D
S1133A603C010E9471166A877B878C879D879B0126
S1133A70AC01C301B2010E94A32920E030E040E080
S1133A805FE30E94242C4B015C019B01AC01C30148
S1133A90B2010E94A2296B017C0120E030E0A9015F
S1133AA00E94192C181694F40E94EC0386E992E003
S1133AB00E94F33484EA92E00E94F3348CEA92E0A8
S1133AC00E94F334812C912C54013CC0A301920137
S1133AD0C501B4010E94A22920E030E0A9010E949E
S1133AE0192C1816E4F40E94EC0386E992E00E9473
S1133AF0F33483EB92E00E94F3348CEA92E00E9468
S1133B00F334A50194016A857B858C859D850E948B
S1133B10A2294B015C01C12CD12C760113C00E9457
S1133B20EC038CEB92E00E94F33484EC92E00E946C
S1133B30F3348CEC92E00E94F334812C912C5401E8
S1133B407501640120E030E0A901C701B6010E94BB
S1133B50A3296B017C0120E030E0A901632D722DC3
S1133B608E859F850E94242C9B01AC01C701B60160
S1133B700E94A32920E030E040EF52E40E94A329F0
S1133B8069837987182F092F20E030E0A901C50146
S1133B90B4010E94A3296B017C0120E030E0A9015B
S1133BA06D817E818F8198850E94242C9B01AC01BC
S1133BB0C701B6010E94A32920E030E040EF52E49F
S1133BC00E94A329C62ED72EE82EF92E20E030E03D
S1133BD0A901632D722D8E859F850E94692A81110A
S1133BE008C0CD82DE82EF82F886398029841E8760
S1133BF00F8729813985412F502F632D722D8E8592
S1133C009F850E94A22920E030E0A9010E94242C73
S1133C1029813985412F502F0E94A329362E272E22
S1133C208E879F872C2D3D2D4E2D5F2D6D817E819E
S1133C308F8198850E94A22920E030E0A9010E948A
S1133C40242C2C2D3D2D4E2D5F2D0E94A3296D83F8
S1133C507E838F839887632D722D8E859F850E9426
S1133C60DD2A69837A838B839C831F921F921F9220
S1133C7081E08F9390E99F936D817E818F819885F8
S1133C800E94DD2A7F936F931F921F92812CA12C97
S1133C90B12CC12C0F2EF0E9EF2EFF24F394F02D5C
S1133CA009811A8120E030E040E062E082E00E9475
S1133CB0FC060FB6F894DEBF0FBECDBF20E030E0A7
S1133CC040E451E46A857B858C859D850E94692A40
S1133CD088235CF420E030E040E451E4C301B20105
S1133CE00E94692A88230CF4B8CE2F960FB6F89454
S1133CF0DEBF0FBECDBFDF91CF911F910F91FF901B
S1133D00EF90DF90CF90BF90AF909F908F907F9077
S1133D106F905F904F903F902F9008952F923F9215
S1133D204F925F926F927F928F929F92AF92BF92C7
S1133D30CF92DF92EF92FF920F931F93CF93DF9373
S1133D40CDB7DEB762970FB6F894DEBF0FBECDBF16
S1133D509E838D8378876F835C834B8309871A875F
S1133D602B873C87312C212C19821A82A12CB12C4F
S1133D7010E000E0CD86DE86EF86F88AAA8AB98A4A
S1133D800E94C1166B017C010E9499164B015C01D3
S1133D900E94711620E030E040E451E4C701B6010E
S1133DA00E94192C18160CF03FC120E030E040E4CA
S1133DB051E4C501B4010E94692A88230CF034C17E
S1133DC020E030E040EA50E4C501B4010E94692AD1
S1133DD08823E4F40E94EC038AE192E00E94F33425
S1133DE087E292E00E94F33485E392E00E94F33488
S1133DF0A501940160E070E080EA90E40E94A229A9
S1133E006B017C0160E070E0CB0137C020E030E062
S1133E1040EA50E4C501B4010E94192C1816D4F4E8
S1133E200E94EC038AE192E00E94F3348BE392E077
S1133E300E94F33485E392E00E94F33420E030E002
S1133E4040EA50E4C501B4010E94A229C12CD12C3E
S1133E50760113C00E94EC038AE192E00E94F334DD
S1133E608AE492E00E94F33485E392E00E94F33402
S1133E70C12CD12C7601C701B60120E030E0A901A4
S1133E800E94A32920E030E040EF52E40E94A329DD
S1133E90862E972EA82EB92E20E030E0A901C70166
S1133EA0B6010E94A32920E030E040EF52E40E94D2
S1133EB0A329C62ED72EE82EF92E20E030E0A90142
S1133EC06A897989812F902F0E94692A811108C0FB
S1133ED03C2C2D2CE982FA828A8A998A1A2D0B2D80
S1133EE0282D392D4A2D5B2D6A897989812F902FB0
S1133EF00E94A22920E030E0A9010E94242C282D50
S1133F00392D4A2D5B2D0E94A3296A8B798B182F9A
S1133F10092F2C2D3D2D4E2D5F2D632D722D898162
S1133F209A810E94A22920E030E0A9010E94242C59
S1133F302C2D3D2D4E2D5F2D0E94A329362E272E8C
S1133F4089839A836A897989812F902F0E94D82A3C
S1133F506B017C01632D722D89819A810E94D82A7C
S1133F60DC01CB0140E050E0B6010E94A215EB81D8
S1133F70FC8160817181828193810E946D2A4B0151
S1133F805C012A893989412F502F632D722D898133
S1133F909A810E94A3292DEC3CEC4CEC5DE30E9439
S1133FA0242C2BE13FE24DED5DE30E94242C20E024
S1133FB030E040E05FE30E94242C6B017C019B0114
S1133FC0AC01C501B4010E94242C9B01AC01ED811C
S1133FD0FE8160817181828193810E94A329ED8198
S1133FE0FE816083718382839383EB81FC81608192
S1133FF07181828193810E94872C9B01AC01C7014E
S1134000B6010E94242C9B01AC01EF81F8856081EC
S11340107181828193810E94A329EF81F885608355
S1134020718382839383ACCE20E030E040E451E49A
S1134030C701B6010E94692A88230CF091C020E0D0
S113404030E040E451E4C501B4010E94692A8823A8
S11340500CF086C00E94EC038AE192E00E94F334E3
S113406084E592E00E94F33482E692E00E94F33405
S113407040E050E066E970E086E990E00E94A21515
S1134080EF81F88560817181828193810E94D82AB1
S11340906B017C01ED81FE8160817181828193815C
S11340A00E94D82A2B013C016D857E858F859889D5
S11340B00E94D82A4B015C0169857A858B859C8591
S11340C00E94D82ADC01CB019601A201B4010E940E
S11340D0E4152B013C01EB81FC8180809180A2805E
S11340E0B380A50194010E94192C882314F120E0C7
S11340F030E044EB52E4C501B4010E94A3299B01C2
S1134100AC01C301B2010E94692A181694F0A501FA
S11341109401C301B2010E94A2290E94D82ACB01B2
S11341200E94DB17EB81FC814082518262827382A0
S11341305AC18AE590E00E94DB1720E030E044EBAE
S113414052E4EB81FC8160817181828193810E94C0
S1134150A329EB81FC81608371838283938310CED6
S113416020E030E040E451E4C701B6010E94192C7C
S113417018160CF005CE20E030E040E451E4C5010F
S1134180B4010E94192C18160CF0FACD0E94EC030D
S11341908AE192E00E94F3348FE692E00E94F334C5
S11341A08CE792E00E94F33440E050E066E970E06E
S11341B086E990E00E94A215EB81FC816081718107
S11341C0828193810E946D2A2AE939E941E051E410
S11341D00E94242C9B01AC01ED81FE8160817181E0
S11341E0828193810E94A329ED81FE816083718382
S11341F082839383EB81FC816081718182819381CD
S11342000E94872C2AE939E941E051E40E94242CD8
S11342109B01AC01EF81F88560817181828193817A
S11342200E94A329EF81F88560837183828393833D
S11342300E94991620E030E040E451E40E94192CD9
S113424018160CF09DCDEF81F88560817181828113
S113425093810E94D82A6B017C01ED81FE816081EB
S11342607181828193810E94D82A2B013C016D8542
S11342707E858F8598890E94D82A4B015C016985C7
S11342807A858B859C850E94D82ADC01CB01960116
S1134290A201B4010E94E4152B013C01EB81FC81D5
S11342A080809180A280B38020E030E044EB52E42F
S11342B0C501B4010E94A2299B01AC01C301B20152
S11342C00E94192C8823D4F0A5019401C301B201E2
S11342D00E94692A181694F0A5019401C301B20141
S11342E00E94A2290E94D82ACB010E94DB17EB81ED
S11342F0FC81408251826282738275C086EA9FEF9C
S11343000E94DB1720E030E044EB52E4EB81FC81B7
S113431060817181828193810E94A229EB81FC8159
S113432060837183828393830E94991620E030E036
S113433040E451E40E94192C18160CF021CDEF80B2
S1134340F884CB80DC80BA88A9888D809E8040E088
S113435050E066E970E086E990E00E94A215F6015B
S113436060817181828193810E946D2A29E23CE5FA
S11343704FEC5FE30E94242C9B01AC01F4016081AB
S11343807181828193810E94A329F40160837183E6
S113439082839383F60160817181828193810E947B
S11343A0872C29E23CE54FEC5FE30E94242C9B011F
S11343B0AC01F70160817181828193810E94A329FC
S11343C0F70160837183828393830E94991620E0AE
S11343D030E040E451E40E94192C18160CF4B7CFD5
S11343E0BA8AA98ACDCC62960FB6F894DEBF0FBE06
S11343F0CDBFDF91CF911F910F91FF90EF90DF9090
S1134400CF90BF90AF909F908F907F906F905F9070
S11344104F903F902F9008952F923F924F925F922A
S11344206F927F928F929F92AF92BF92CF92DF92C0
S1134430EF92FF920F931F93CF93DF93CDB7DEB725
S113444062970FB6F894DEBF0FBECDBF78876F8337
S11344505C834B8309871A872B873C87312C212C5B
S11344601D821E8219821A8210E000E09A8B898BC9
S1134470CD86DE86EF86F88A0E94C1166B017C0128
S11344800E9499160E9471164B015C0120E030E0F5
S113449040E451E4C701B6010E94192C18160CF02F
S11344A03FC120E030E040E451E4C501B4010E9482
S11344B0692A88230CF034C120E030E040E850E45D
S11344C0C501B4010E94692A8823D4F40E94EC0334
S11344D08AE892E00E94F33487E292E00E94F33487
S11344E085E392E00E94F334A501940160E070E05A
S11344F080E890E40E94A229C12CD12C760139C015
S113450020E030E040EA50E4C501B4010E94192CD7
S11345101816E4F40E94EC038AE892E00E94F33453
S11345208BE392E00E94F33485E392E00E94F3343B
S113453020E030E040EA50E4C501B4010E94A22921
S11345406B017C0160E070E0CB0113C00E94EC03BE
S11345508AE892E00E94F3348AE492E00E94F33401
S113456085E392E00E94F334C12CD12C7601C7017B
S1134570B60120E030E0A9010E94A32920E030E048
S113458040EF52E40E94A329862E972EA82EB92E1E
S113459020E030E0A901C701B6010E94A32920E070
S11345A030E040EF52E40E94A329C62ED72EE82E15
S11345B0F92E20E030E0A90169817A81812F902FC2
S11345C00E94692A811108C03C2C2D2CED82FE82A8
S11345D089829A821A2D0B2D282D392D4A2D5B2D77
S11345E069817A81812F902F0E94A22920E030E0F6
S11345F0A9010E94242C282D392D4A2D5B2D0E94BF
S1134600A32969837A83182F092F2C2D3D2D4E2D34
S11346105F2D632D722D8D819E810E94A22920E041
S113462030E0A9010E94242C2C2D3D2D4E2D5F2D10
S11346300E94A329362E272E8D839E8369817A8139
S1134640812F902F0E94D82A6B017C01632D722D3B
S11346508D819E810E94D82ADC01CB0140E050E08C
S1134660B6010E94A215EB81FC8160817181828177
S113467093810E946D2A4B015C0129813A81412F6B
S1134680502F632D722D8D819E810E94A3292DECC4
S11346903CEC4CEC5DE30E94242C2BE13FE24DED1D
S11346A05DE30E94242C20E030E040E05FE30E94C0
S11346B0242C6B017C019B01AC01C501B4010E9457
S11346C0242C9B01AC01E989FA8960817181828182
S11346D093810E94A329E989FA8960837183828383
S11346E09383EB81FC8160817181828193810E943B
S11346F0872C9B01AC01C701B6010E94242C9B01AD
S1134700AC01EF81F88560817181828193810E947F
S1134710A329EF81F8856083718382839383ACCE70
S113472020E030E040E451E4C701B6010E94692A68
S113473088230CF0C7C020E030E040E451E4C50118
S1134740B4010E94692A88230CF0BCC00E94EC03C7
S11347508AE892E00E94F33484E592E00E94F33404
S11347608CE792E00E94F33440E050E066E970E0A8
S113477086E990E00E94A215EB81FC816081718141
S1134780828193810E946D2A2AE939E941E051E44A
S11347900E94242C9B01AC01E989FA896081718112
S11347A0828193810E94A329E989FA8960837183B4
S11347B082839383EB81FC81608171818281938107
S11347C00E94872C2AE939E941E051E40E94242C13
S11347D0EF81F88520813181428153810E94A32990
S11347E0EF81F88560837183828393830E94D82A42
S11347F06B017C01E989FA896081718182819381ED
S11348000E94D82A2B013C016D857E858F8598896D
S11348100E94D82A4B015C0169857A858B859C8529
S11348200E94D82ADC01CB019601A201B4010E94A6
S1134830E4152B013C01EB81FC8180809180A280F6
S1134840B38020E030E044EB52E4C501B4010E949F
S1134850A2299B01AC01C301B2010E94192C882337
S1134860D4F0A5019401C301B2010E94692A18166B
S113487094F0A5019401C301B2010E94A2290E94EF
S1134880D82ACB010E94DB17EB81FC814082518244
S11348906282738256C186EA9FEF0E94DB1720E092
S11348A030E044EB52E4EB81FC81608171818281D0
S11348B093810E94A229EB81FC81608371838283AE
S11348C09383DACD20E030E040E451E4C701B6013F
S11348D00E94192C18160CF0CFCD20E030E040E4F3
S11348E051E4C501B4010E94192C18160CF0C4CD72
S11348F00E94EC038AE892E00E94F3348FE692E08F
S11349000E94F33482E692E00E94F33440E050E0E7
S113491066E970E086E990E00E94A215EB81FC81D3
S113492060817181828193810E946D2A2AE939E92B
S113493041E051E40E94242C9B01AC01E989FA89ED
S113494060817181828193810E94A329E989FA8916
S11349506083718382839383EB81FC8160817181A5
S1134960828193810E94872C2AE939E941E051E44C
S11349700E94242C9B01AC01EF81F8856081718138
S1134980828193810E94A329EF81F88560837183DA
S1134990828393830E94711620E030E040E451E466
S11349A00E94192C18160CF067CDEF81F8856081F0
S11349B07181828193810E94D82A6B017C01E989EB
S11349C0FA8960817181828193810E94D82A2B01A6
S11349D03C016D857E858F8598890E94D82A4B017C
S11349E05C0169857A858B859C850E94D82ADC01C7
S11349F0CB019601A201B4010E94E4152B013C01F4
S1134A00EB81FC8180809180A280B380A501940118
S1134A100E94192C882314F120E030E044EB52E486
S1134A20C501B4010E94A3299B01AC01C301B201D9
S1134A300E94692A181694F0A5019401C301B201D9
S1134A400E94A2290E94D82ACB010E94DB17EB8185
S1134A50FC81408251826282738273C08AE590E055
S1134A600E94DB1720E030E044EB52E4EB81FC8150
S1134A7060817181828193810E94A329EB81FC81F1
S1134A8060837183828393830E94711620E030E0F7
S1134A9040E451E40E94192C18160CF0EDCCA988BE
S1134AA0BA88EF80F884CB80DC8040E050E066E98F
S1134AB070E086E990E00E94A215F60160817181A0
S1134AC0828193810E946D2A29E23CE54FEC5FE3E9
S1134AD00E94242C9B01AC01F501608171818281CB
S1134AE093810E94A329F501608371838283938358
S1134AF0F60160817181828193810E94872C29E271
S1134B003CE54FEC5FE30E94242C9B01AC01F701D0
S1134B1060817181828193810E94A329F70160835E
S1134B207183828393830E94711620E030E040E415
S1134B3051E40E94192C18160CF4B7CFBA8AA98A2A
S1134B409BCC62960FB6F894DEBF0FBECDBFDF914B
S1134B50CF911F910F91FF90EF90DF90CF90BF9076
S1134B60AF909F908F907F906F905F904F903F9009
S1134B702F9008952F923F924F925F926F927F925F
S1134B808F929F92AF92BF92CF92DF92EF92FF9259
S1134B900F931F93CF93DF93CDB7DEB762970FB612
S1134BA0F894DEBF0FBECDBF962F682F660F680F37
S1134BB0660F660FF92EFF0C9F0DF92EFF0CFF0CEC
S1134BC0772767FD7095872F972F0E940B2B2091D5
S1134BD01F043091200440912104509122040E942A
S1134BE0A2296B877C878D879E8769837A838B83D1
S1134BF09C836F2D772767FD7095872F972F0E94D1
S1134C000B2B20911B0430911C0440911D045091E6
S1134C101E040E94A2296F87788B898B9A8B6D83DF
S1134C207E838F8398871A861986CE0101961C018C
S1134C300E94C1166B017C010E9499164B015C0114
S1134C400E9471162B013C0120E030E040EC50E45E
S1134C50C701B6010E94192C18164CF568EC70E0D7
S1134C6084E690E00E94E91689859A85181619064B
S1134C707CF42DEC3CEC4CE251E46D817E818F811F
S1134C8098850E94A2296D837E838F839887ACC008
S1134C902DEC3CEC4CE251E46D817E818F81988552
S1134CA00E94A3296D837E838F8398879DC0A3016F
S1134CB09201C501B4010E94692A88230CF056C0F0
S1134CC020E030E0A9016D817E818F8198850E946A
S1134CD0192C88238CF189859A85865A9F4F9A8747
S1134CE089870E94DB17CF84D888E988FA880B85E6
S1134CF01C852D853E85AE01475F5F4FBE016B5F0E
S1134D007F4FC1010E948E1E0E94EC038C818F9301
S1134D108B818F938A818F9389818F933F922F9276
S1134D20A1EDB2E0BF93AF930E94DF340FB6F894C5
S1134D30DEBF0FBECDBF58C089859A858A559109BB
S1134D409A8789870E94DB17CF84D888E988FA88F4
S1134D500B851C852D853E85AE01475F5F4FBE01E7
S1134D606B5F7F4FC1010E940C223EC020E030E007
S1134D70A9016D817E818F8198850E94192C8823D9
S1134D80D4F089859A858A5591099A8789870E94E2
S1134D90DB17CF84D888E988FA880B851C852D8594
S1134DA03E85AE01475F5F4FBE016B5F7F4FC10120
S1134DB00E940C2219C089859A85865A9F4F9A872A
S1134DC089870E94DB17CF84D888E988FA880B8505
S1134DD01C852D853E85AE01475F5F4FBE016B5F2D
S1134DE07F4FC1010E948E1E20E030E0A90169813D
S1134DF07A818B819C810E94692A811119CF20E0DC
S1134E0030E0A9016D817E818F8198850E94692A95
S1134E1081110ECF62960FB6F894DEBF0FBECDBFE0
S1134E20DF91CF911F910F91FF90EF90DF90CF9082
S1134E30BF90AF909F908F907F906F905F904F90B6
S1134E403F902F9008950E94090488ED92E09F936B
S1134E508F930E94DF340E945B0A0F900F90913071
S1134E6051F00E94EC0386EE92E09F938F930E9490
S1134E70DF340F900F9081E00E94D7050E947603E3
S1134E8081E00E94D8030E94A30781E093E09F93EE
S1134E908F930E94DF340E94EC0360E082E00E9462
S1134EA048080F900F90C4E6D3E00F2EF0E7EF2EE2
S1134EB0F3E0FF2EF02D0F2EF4E18F2EF02D0F2EA8
S1134EC0FCEE9F2EF02D09E813E00E94EC0389E02C
S1134ED093E00E94F3348AE193E00E94F3348BE27E
S1134EE093E00E94F33480E00E940D0A882309F4C1
S1134EF0ADC00E94C1162B013C010E9499164B01C2
S1134F005C010E9471166B017C0120E030E040E2FC
S1134F1051E40E94692A882374F420E030E040E2DE
S1134F2051E4C501B4010E94692A88230CF0F2C13E
S1134F300E94EF1CDECF20E030E040E251E4C501E6
S1134F40B4010E94692A882314F40E94DF1820E027
S1134F5030E040E251E4C701B6010E94692A882387
S1134F6014F40E94E71A20E030E040E251E4C30167
S1134F70B2010E94692A88230CF05BC00E94EC03F2
S1134F808EE393E09F938F930E94DF3487E493E052
S1134F909F938F930E94DF341F921F921F9281E090
S1134FA08F9380E98F931F9286E98F931F921F92AC
S1134FB0812CA12CB12CC12C0F2EF0E9EF2EFF2453
S1134FC0F394F02D06E910E020E030E040E062E0E8
S1134FD082E00E94FC0684EF91E00E94AA0A0E94EB
S1134FE099166B017C010E9471169B01AC018DB76F
S1134FF09EB70D960FB6F8949EBF0FBE8DBFC70126
S1135000B6010E94692A882354F444E650E060E023
S113501070E084EB92EC0E941D180E94E71A44E6AB
S113502050E060E070E084EB92E40E941D180E945E
S1135030DF180E94EC0384E593E00E94F3348BE5CF
S113504093E00E94F3340E94231653CF81E00E9420
S11350500D0A882309F4DBC00E94C1162B013C0110
S11350600E9499164B015C010E9471166B017C0130
S113507020E030E040E251E40E94692A882374F47D
S113508020E030E040E251E4C501B4010E94692A05
S113509088230CF04BC10E94EF1CDECF20E030E0EF
S11350A040E251E4C501B4010E94692A882314F442
S11350B00E94DF1820E030E040E251E4C701B6016D
S11350C00E94692A882314F40E94E71A20E030E041
S11350D040E251E4C301B2010E94692A88230CF022
S11350E089C01F921F921F92D1E0DF93C0E9CF9332
S11350F01F921F921F921F92812CA12CB12CC12CA4
S11351000F2EF0E9EF2EFF24F394F02D00E010E0D1
S113511020E030E040E062E082E00E94FC0644E6E9
S113512050E060E070E084E392E40E941D180E9465
S1135130C11644E650E060E070E084EB92EC0E941B
S11351401D180E94C11644E650E060E070E084E35C
S113515092E40E941D180E94EC038EE393E09F9357
S11351608F930E94DF3487E493E09F938F930E9490
S1135170DF341F921F921F92DF93CF931F9286E911
S11351808F931F921F9206E910E020E030E040E088
S113519062E082E00E94FC0684EF91E00E94AA0A89
S11351A00E9499166B017C010E9471169B01AC014F
S11351B08DB79EB746960FB6F8949EBF0FBE8DBFAF
S11351C0C701B6010E94692A882354F444E650E0DA
S11351D060E070E084EB92EC0E941D180E94E71AD4
S11351E044E650E060E070E084EB92E40E941D1815
S11351F00E94DF180E94EC0384E593E00E94F334DC
S11352008BE593E00E94F3340E94231625CF82E0BD
S11352100E940D0A882309F458CEB12C32C00E9492
S1135220EC031F921F922B2D332727FD30953F93BC
S1135230BF92DF93CF930E94DF34FF92EF920E94DC
S1135240DF3480E00E940D0A2DB73EB7285F3F4F40
S11352500FB6F8943EBF0FBE2DBF882329F0B39438
S113526034E13B155CF00DC081E00E940D0A8823F7
S113527041F0BA948CEEB8161CF003C0B92C01C0EE
S1135280B82C82E00E940D0A882349F2A12CCB2C71
S1135290DD24C7FCD09432C00E94EC032A2D3327AE
S11352A027FD30953F93AF92DF92BF92DF93CF9368
S11352B00E94DF341F930F930E94DF3480E00E942A
S11352C00D0A2DB73EB7285F3F4F0FB6F8943EBF87
S11352D00FBE2DBF882329F0A39434E13A155CF066
S11352E00DC081E00E940D0A882341F0AA948CEE3F
S11352F0A8161CF003C0A92C01C0A82C82E00E94AF
S11353000D0A882349F26A2D8B2D0E94BA250E942A
S1135310EC03DBCD20E030E040E251E4C501B40110
S11353200E94692A88230CF01CCE0FCE20E030E0C6
S113533040E251E4C501B4010E94692A88230CF0BB
S1135340C3CEB6CE5058BB27AA270ED027C2F0D161
S113535030F0F5D120F031F49F3F11F41EF4C0C1B8
S11353600EF4E095E7FBB6C1E92F3AD280F3BA1701
S1135370620773078407950718F071F49EF552C20B
S11353800EF4E0950B2EBA2FA02D0B01B90190015C
S11353900C01CA01A0011124FF27591B99F0593FA0
S11353A050F4503E68F11A16F040A22F232F342FE8
S11353B04427585FF3CF469537952795A795F04036
S11353C05395C9F77EF41F16BA0B620B730B840B4B
S11353D0BAF09150A1F0FF0FBB1F661F771F881F03
S11353E0C2F70EC0BA0F621F731F841F48F487955B
S11353F077956795B795F7959E3F08F0B3CF93954A
S1135400880F08F09927EE0F97958795089590D106
S113541058F080E891E009F49EEF91D128F040E83B
S113542051E059F45EEF09C05BC1FCC1E92FE0789B
S1135430D7D168F3092E052AC1F326173707480781
S1135440590738F00E2E07F8E02569F0E025E064EE
S11354500AC0EF6307F8009407FADB01B9019D0164
S1135460DC01CA01AD01EF934AD098D10AD05F9113
S1135470552331F02BED3FE049E450FD49EC63CF77
S11354800895DF93DD27B92FBF7740E85FE3161651
S1135490170648075B0710F4D92FCFD19F938F933A
S11354A07F936F933AD2ECE7F0E01DD177D12F913F
S11354B03F914F915F91D4D1DD2349F09058A2EAF6
S11354C02AED3FE049EC5FE3D0785D274DDFDF91C3
S11354D065C1DCD008F481E0089539D1E3956FC14A
S11354E00CD05CC12CD140F023D130F021F45F3FCB
S11354F019F0F0C0511197C1F3C072D198F39923F8
S1135500C9F35523B1F3951B550BBB27AA27621783
S11355107307840738F09F5F5F4F220F331F441FC8
S1135520AA1FA9F333D00E2E3AF0E0E830D0915000
S11355305040E695001CCAF729D0FE2F27D0660FED
S1135540771F881FBB1F261737074807AB07B0E82C
S113555009F0BB0B802DBF01FF2793585F4F2AF042
S11355609E3F510568F0B6C05EC15F3FECF3983EC4
S1135570DCF3869577956795B795F7959F5FC9F79F
S1135580880F911D9695879597F90895E1E0660F28
S1135590771F881FBB1F621773078407BA0720F0A1
S11355A0621B730B840BBA0BEE1F88F7E09508950A
S11355B004D06894B11137C108951AD188F09F5767
S11355C090F0B92F9927B751A0F0D1F0660F771F4B
S11355D0881F991F1AF0BA95C9F712C0B13081F02B
S11355E021D1B1E008951EC1672F782F8827B85FB5
S11355F039F0B93FCCF3869577956795B395D9F78C
S11356003EF490958095709561957F4F8F4F9F4F95
S11356100895E89409C097FB3EF4909580957095A1
S113562061957F4F8F4F9F4F9923A9F0F92F96E9EA
S1135630BB279395F695879577956795B795F1115F
S1135640F8CFFAF4BB0F11F460FF1BC06F5F7F4FFC
S11356508F4F9F4F16C0882311F096E911C077230E
S113566021F09EE8872F762F05C0662371F096E817
S1135670862F70E060E02AF09A95660F771F881FE6
S1135680DAF7880F9695879597F90895990F00088A
S1135690550FAA0BE0E8FEEF16161706E807F90700
S11356A0C0F012161306E407F50798F0621B730B9B
S11356B0840B950B39F40A2661F0232B242B252B1C
S11356C021F408950A2609F4A140A6958FEF811DBF
S11356D0811D089597F99F6780E870E060E0089560
S11356E09FEF80EC0895DF93CF931F930F93FF9266
S11356F0EF92DF927B018C01689405C0DA2EEF01F2
S1135700AFD0FE01E894A59125913591459155912D
S1135710AEF3EF0129DEFE019701A801DA9479F7CF
S1135720DF90EF90FF900F911F91CF91DF9108953B
S113573000240A941616170618060906089500246C
S11357400A9412161306140605060895C9CF50D0FC
S1135750E8F3E894E0E0BB279F57F0F02AED3FE040
S113576049EC06C0EE0FBB0F661F771F881F28F099
S1135770B23A62077307840728F0B25A620B730BBC
S1135780840BE3959A9572F7803830F49A95BB0FA1
S1135790661F771F881FD2F79048C4C0092E039450
S11357A0000C11F4882352F0BB0F40F4BF2B11F40A
S11357B060FF04C06F5F7F4F8F4F9F4F0895EF933B
S11357C0E0FF06C0A2EA2AED3FE049EC5FEBCCDD46
S11357D0E5DF0F90039401FC9058E9EAF0E0AEC0D5
S11357E057FD9058440F551F59F05F3F71F047958E
S11357F0880F97FB991F61F09F3F79F08795089573
S1135800121613061406551FF2CF4695F1DF08C091
S1135810161617061806991FF1CF869571056105AE
S113582008940895E894BB2766277727CB0197F956
S113583008952CDF08F48FEF08959B01AC0160E01C
S113584070E080E89FE34CCE0BD0A8CF71DF28F046
S113585076DF18F0952309F03DCF42CF1124E3CF32
S1135860BFDFA0F3959FD1F3950F50E0551F629FC2
S1135870F001729FBB27F00DB11D639FAA27F00DA5
S1135880B11DAA1F649F6627B00DA11D661F829FCC
S11358902227B00DA11D621F739FB00DA11D621FB1
S11358A0839FA00D611D221F749F3327A00D611DCE
S11358B0231F849F600D211D822F762F6A2F1124B0
S11358C09F5750408AF0E1F088234AF0EE0FFF1F03
S11358D0BB1F661F771F881F91505040A9F79E3F3A
S11358E0510570F0F7CE9FCF5F3FECF3983EDCF3A9
S11358F0869577956795B795F795E7959F5FC1F777
S1135900FE2B880F911D9695879597F908959F937F
S11359101EDF0F9007FCEE5F52CF9B01AC0194CFCA
S11359209F3F31F0915020F4879577956795B7950F
S1135930880F911D9695879597F908959F938F9356
S11359407F936F93FF93EF939B01AC017DDFEF9106
S1135950FF91C9DE2F913F914F915F9175CFA3E1E4
S1135960B0E0E5EBFCE20C94E0317C011B016A0140
S1135970FC0117821682838181FF66C3BE016F5FBB
S11359807F4F4B01F7019381F10193FD859193FFC3
S113599081911F01882309F453C3853239F493FD9F
S11359A0859193FF81911F01853239F4B70190E00D
S11359B00E94AD3456016501E5CF10E0512C20E082
S11359C02032A0F48B3269F030F4803259F0833203
S11359D069F420612CC08D3239F0803339F42160B0
S11359E026C02260246023C0286021C027FD27C070
S11359F030ED380F3A3078F426FF06C0FAE01F9FE6
S1135A00300D1124132F13C06AE0569E300D11245B
S1135A10532E20620CC08E3221F426FD11C3206463
S1135A2006C08C3611F4206802C0883641F4F101B6
S1135A3093FD859193FF81911F018111C1CF9BEB50
S1135A40980F933018F42061805E06C09BE9980F8C
S1135A50933008F0AAC12F7E26FF16E02F73722E12
S1135A60853621F4F22FF0647F2E08C0863621F4A7
S1135A70622F6068762E02C01111115077FE07C0A4
S1135A801C3348F444244394410E27E00BC01830DF
S1135A9030F4212F06C027E04CE3442E03C027E056
S1135AA017E0412C560174E0A70EB11CF601608189
S1135AB0718182819381042DA4010E94BF336C0102
S1135AC0098100FF02C003FF06C071FC07C072FC1D
S1135AD008C0612C08C03DE2632E05C02BE2622E93
S1135AE002C090E2692E802F8C7099F1662011F02B
S1135AF084E001C083E0851510F0512C0BC0581AC6
S1135B0073FC08C0B70180E290E00E94AD345A945F
S1135B10C9F7F3CF662029F0B701862D90E00E94E3
S1135B20AD3403FD03C00FEA15E002C00BEA15E033
S1135B30F72DF0717F2EF8018491882309F476C241
S1135B4071108052B70190E00E94AD340F5F1F4F77
S1135B50F2CF77FE0FC04C0C04FF04C08A8181335E
S1135B6009F44A94141474F5F8E0F41578F588E00F
S1135B70482E2CC076FC2AC0812F90E08C159D0500
S1135B809CF06CEFC6166FEFD60674F0772D706834
S1135B90772E0AC0E2E0F0E0EC0FFD1FE10FF11DEB
S1135BA08081803319F411501111F4CF77FE0EC0A7
S1135BB044244394410E812F90E0C816D9062CF456
S1135BC01C1904C04424439401C010E077FE07C0AC
S1135BD01C141D043CF496012F5F3F4F05C025E0C3
S1135BE030E002C021E030E0662011F02F5F3F4F2B
S1135BF0112331F0412F50E04F5F5F4F240F351FC9
S1135C00452D50E02417350714F4521A01C0512CC5
S1135C10872D897049F4552039F0B70180E290E06E
S1135C200E94AD345A94F7CF662029F0B701862D2F
S1135C3090E00E94AD3473FC09C0552039F0B701DF
S1135C4080E390E00E94AD345A94F7CF77FE5FC0B2
S1135C509C2D8D2DD7FE02C090E080E0692E782E19
S1135C6040E050E0C601841991099D878C87960114
S1135C7026193709280D391D812F90E0EE27FF27BB
S1135C80E81BF90BFF87EE87FFEF6F167F0669F4B9
S1135C90B7018EE290E02B8B3A8B488B598B0E9494
S1135CA0AD34598948893A892B89C614D70454F0EC
S1135CB06C857D85661577052CF4F901E40FF51FD5
S1135CC0818101C080E371E0671A71084F5F5F4F03
S1135CD0EE85FF856E167F066CF0B70190E02B8B86
S1135CE03A8B488B598B0E94AD342B893A89488969
