:100000000C9431030C944E030C944E030C944E0349
:100010000C948A0C0C94B30C0C94DC0C0C94050D11
:100020000C944E030C946B0B0C94940B0C94BD0B22
:100030000C94380C0C94E60B0C940F0C0C94610C83
:100040000C94F00A0C94190B0C94420B0C944E0374
:100050000C944E030C944E030C944E030C944E03DC
:100060000C944E030C944E030C944E030C944E03CC
:100070000C944E030C944E030C944E0359095C09E6
:100080005F0962096B09650968096E0971097409DC
:1000900077097A097D0980098309860989098C090C
:1000A0008F09A009A309A609A909B209AC09AF09DA
:1000B000B509B809BB09BE09C109C409C709CA09FC
:1000C000CD09D009D309D60907634236B79BD8A713
:1000D0001A39685618AEBAAB558C1D3CB7CC57636D
:1000E000BD6DEDFD753EF6177231BF000000803F1B
:1000F00008000000BE922449123EABAAAA2ABECD37
:10010000CCCC4C3E00000080BEABAAAAAA3E0000A8
:100110000000BF000000803F0000000000084178A0
:10012000D3BB4387D1133D190E3CC3BD4282AD2BD7
:100130003E68EC8276BED98FE1A93E4C80EFFFBECF
:1001400001C4FF7F3F000000000016050100000011
:1001500000000000FA000000E000E00028FE28FE99
:10016000282454FE5448C4C81026466C92AA44A0C1
:1001700000A0C000000038448200008244380028FB
:10018000107C102810107C1010000A0C00001010B9
:10019000101010000606000004081020407C8A920F
:1001A000A27C0042FE020042868A92628482A2D22F
:1001B0008C182848FE08E4A2A2A29C3C5292920C01
:1001C000808E90A0C06C9292926C60929294780013
:1001D0006C6C0000006A6C00001028448200282823
:1001E000282828008244281040808A90604C929EE3
:1001F000827C7E8888887EFE9292926C7C8282824B
:1002000044FE82824438FE92929282FE90909080C8
:100210007C8292925EFE101010FE0082FE8200042C
:100220000282FC80FE10284482FE02020202FE408E
:100230003040FEFE201008FE7C8282827CFE909080
:1002400090607C828A847AFE909894626292929204
:100250008C8080FE8080FC020202FCF8040204F81C
:10026000FC021C02FCC6281028C6E0100E10E08616
:100270008A92A2C200FE82820040201008040082FE
:1002800082FE0020408040200202020202008040E4
:100290002000042A2A2A1EFE1222221C1C222222AC
:1002A000041C222212FE1C2A2A2A18107E9080404A
:1002B000304A4A4A7CFE1020201E0022BE02000462
:1002C0000222BC00FE081422000082FE02003E2032
:1002D00018201E3E1020201E1C2222221C3E2828F0
:1002E0002810102828183E3E10202010122A2A2AF2
:1002F0000420FC2202043C0202043E3804020438BA
:100300003C020C023C2214081422300A0A0A3C2245
:10031000262A322200106C82000000FE00000082BB
:100320006C1000081010081000000000007F818190
:10033000817F7F8383837F7F8787877F7F8F8F8F77
:100340007F7F9F9F9F7F7FBFBFBF7F7FFFFFFF7F1D
:100350002040FF4020621517156500FBFB000000E0
:1003600000000000C0FF0300E0FF0700F0FF0F00E7
:10037000F8FF1F0078001E0078001E0078001E00A5
:1003800078001E0078001E0078001E0078001E0015
:1003900078001E0078001E00000000000000000031
:1003A00080FF0300E0FF0700F0FF0F00F8FF1F00D1
:1003B000F83C1F00783C1E00783C1E00783C1E0074
:1003C000783C1E00783C1E00783C1E00783C1E00E5
:1003D000783C1E00783C1E00783C1E0000000000A7
:1003E00000000000E0FF0300F0FF0700F8FF0F002F
:1003F000F8FF1F00783C1E00783C1E00783C1E0071
:10040000783C1E00783C1E00783C1E00783C1E00A4
:10041000783C1E00783C1E00783C1E000000000066
:1004200000000000F8FF0300F8FF0F00F8FF1F00B6
:10043000F8FF1F0000001E0000001E0000801F00CB
:1004400000F01F0000FF0F00E0FF0700F0FF0000BA
:10045000F80F0000F80000007800000078000000AD
:10046000F8FF1F00F8FF1F00F0FF1F00E0FF1F0054
:100470000000000000000000F8FF1F00F8FF1F0050
:10048000F8FF1F00F8FF1F0078001E00783C1E00D8
:10049000783C1E00783C1E00783C1E00783C1E0014
:1004A000783C1E00F87E1F00F8FF1F00F0FF0F00D1
:1004B000E0E703000000000000003800EEFF6C00E1
:1004C0002A8045003A0047FC03FF6CFC83FF39009B
:1004D000DEFF0B7CD0810BFCD0810BC0D0810BFCEC
:1004E000D0810B7CDEFF0B0082FF397002FF6CF8BD
:1004F0003A0047DC2A8045CCEEFF6CCC0000380087
:100500000000000C00001E0C00001E0000001E0079
:1005100000001E0000001E00F8FF1F00F8FF1F0073
:10052000F8FF1F00F8FF1F0000001E0000001E0063
:1005300000001E0000001E0000005E0000004000E1
:1005400000007C00000040000000400000007C0033
:1005500000003000000010000000300000007C6E41
:10056000616E00696E660000407A10F35A00A07256
:100570004E18090010A5D4E80000E87648170000DE
:10058000E40B54020000CA9A3B000000E1F50500AC
:100590000080969800000040420F000000A08601F5
:1005A000000000102700000000E8030000000064C5
:1005B00000000000000A0000000000010000000030
:1005C000002C76D888DC674F0823DFC1DFAE59E105
:1005D000B1B796E5E3E453C63AE651997696E8E674
:1005E000C28426EB898C9B62ED407C6FFCEFBC9C47
:1005F0009F40F2BAA56FA5F490055A2AF75C936B59
:100600006CF9676DC11BFCE0E40D47FEF520E6B513
:1006100000D0ED902E0300943577050080841E08ED
:100620000000204E0A000000C80C333333330F980B
:100630006E12831141EF8D2114893BE65516CFFED2
:10064000E6DB18D1844B381BF77C1D901DA4BBE45E
:1006500024203284725E228100C9F124ECA1E53DA0
:10066000270011241FBECFEFD8E0DEBFCDBF13E0BF
:10067000A0E0B1E0E2ECF3E502C005900D92AE35EA
:10068000B107D9F724E0AEE5B3E001C01D92A23571
:10069000B207E1F70E94BD030C94DF290C9400001F
:1006A0008FE00E944A09882331F40E94D50A8FE026
:1006B00061E00E9492098FE091E008958FE00E942E
:1006C0004A09813019F020E030E013C080917A00AF
:1006D000806480937A0080917A0086FDFCCF30910F
:1006E000780020917900922F80E0232F30E0282B92
:1006F000392BC9010895582F809100018830D8F412
:1007000040917E0021E030E0B90102C0660F771F02
:100710008A95E2F7CB018095842380937E008091B7
:100720007E00052E02C0220F331F0A94E2F7822BAF
:1007300080937E000DC020917E0081E090E0052E28
:1007400002C0880F991F0A94E2F7282B20937E009D
:100750005093000180917C005F71807E852B809397
:100760007C000895ECE7F0E090818295880F880F77
:10077000807C9F73982B908308950E94EE0A0E94BC
:10078000E00A0E949B1C80E090E008950F931F9365
:1007900080E460E00E94A50400E0802F60E00E94F9
:1007A0008C0410E080E061E00E94A5041F5F103817
:1007B000C9F70F5F043089F783E060E00E94850489
:1007C0001F910F9108950F931F9382E00E944A0991
:1007D000882311F482E006C081E00E944A09882340
:1007E00019F481E090E06DC00E94560D85E061E053
:1007F0000E9492098EEA60E00E94A50482EA60E00D
:100800000E94A50480EA60E00E94A50400E513ECC4
:10081000C8010197F1F780EC60E00E94A5048FE227
:1008200060E00E94A50481E860E00E94A50486E1E2
:1008300060E00E94A50482E260E00E94A504C80175
:100840000197F1F78FEA60E00E94A50486EA60E074
:100850000E94A50485EA60E00E94A50480E090E083
:1008600028E833E1F9013197F1F7019643E0883E3A
:100870009407C1F783EB60E00E94A50480E460E088
:100880000E94A50483E060E00E948C0483E060E0A5
:100890000E948504109223041092250410922404CF
:1008A0008FE091E090934F0480934E0488E10E9482
:1008B00064040E94C60384EA60E00E94A50485E007
:1008C00091E01F910F9108951F93182F85E00E94CA
:1008D0004A098130C1F487E00E94C00482E06AE0E6
:1008E0000E94110582E061EB0E941105612F113217
:1008F00008F060E282E00E94110589EE8A95F1F726
:1009000087E00E94C0041F91089583706F77609301
:1009100021048093220408950F931F93062F162F0E
:100920001F778370806B60E00E94A50412951F7092
:10093000812F806160E00E94A504802F8F7060E0AD
:100940000E94A5041F910F9108950F931F93082FE4
:10095000162F85E00E944A09813079F4112319F09D
:10096000113021F402C02B9801C02B9A86E08A95A1
:10097000F1F780E0602F0E9411051F910F910895FB
:100980001F93182F82E00E944A09813009F047C066
:10099000912F977080912604981709F440C0909386
:1009A000260485B1887F892B85B9933011F1943065
:1009B00028F4913051F0923090F40CC0953019F138
:1009C0009530E0F0963021F50FC0E091B003F09142
:1009D000B10322C0E091AE03F091AF031DC0E091DE
:1009E000B203F091B30318C0E091BA03F091BB03D6
:1009F00013C0E091B403F091B5030EC0E091B603CB
:100A0000F091B70309C0E091B803F091B90304C0B5
:100A1000E091BC03F091BD03309709F009951F9157
:100A200008951F93162F0E94C00482E00E944A0975
:100A3000813021F41EBD0DB407FEFDCF1F91089536
:100A40000F931F93CF93DF9380E291E00E9474266F
:100A50009C019093CD038093CC03892B11F480E00B
:100A600039C08901C0E0D0E0BE0180E090E00E9482
:100A7000961F20E030E040EA51E40E94FD1E27EF7F
:100A800035E740E05FE30E9478209B01AC0160E025
:100A900070E080E291E40E949E249B01AC01CA01B7
:100AA000B9012DEC3CEC42E851E40E9478200E9410
:100AB00064242AE030E040E050E00E94C925F801BB
:100AC00061937193819391938F012196C834D105DD
:100AD00059F681E0DF91CF911F910F9108958AE03F
:100AE0000E944A09882371F41092C9031092C80326
:100AF00081E00E94400F81E08093BF038AE061E0C3
:100B00000E9492098AE091E008951F938BE00E9471
:100B10004A09882311F090E021C089E00E944A0927
:100B20008823D9F40E942005182F8130B1F4109247
:100B3000C0031092C1031092C2031092C3038DE050
:100B40006CEA7EE00E942E0D82E00E94400F10931E
:100B5000BE0389E061E00E94920991E089E01F9163
:100B60000895813029F0823031F090E089E00895D5
:100B70000E946F0508950E94850508958F929F92A7
:100B8000AF92BF92CF92DF92EF92FF920F931F939B
:100B9000CF93DF934B015C01EA01B90121153105C7
:100BA00039F19E01442737FD4095542F6536710574
:100BB00010F064E670E080E090E00E94C92524E631
:100BC00030E040E050E00E94ED2579018A01C50146
:100BD000B4010E94AF0EC7010E94760A60E070E087
:100BE00080E090E00E94AF0ECE018E199F0904C0F4
:100BF0004115510519F0CA010E94760ADF91CF9183
:100C00001F910F91FF90EF90DF90CF90BF90AF902A
:100C10009F908F9008952F923F924F925F926F9284
:100C20007F928F929F92AF92BF92CF92DF92EF927C
:100C3000FF920F931F93DF93CF93CDB7DEB7582E5C
:100C4000962E442E39013C2CC98CDA8C2B8C81E0F9
:100C5000681739F1681728F092E0691709F085C024
:100C600049C080E061E00E94140880E0B7010E9462
:100C7000DD0780E0642DA3019801032DEE24E394A9
:100C8000ECE0CE2EE4E0DE2E0E944B08552009F069
:100C90006CC000D00F92EDB7FEB71182B382A28272
:100CA00023C081E061E00E94140881E0B6010E9447
:100CB000DD0781E0682D4D895E892F89388D022DF1
:100CC000EE24E3947CE0C72E74E0D72E0E944B08FC
:100CD000552009F04AC000D00F92EDB7FEB79182BF
:100CE0008C8D9D8D938382830E94FC080F900F90C2
:100CF0000F903BC082E061E00E94140880E0B701E1
:100D00000E94DD0781E0B6010E94DD0780E0642DCE
:100D1000A3019801032DEE24E3949CE0C92E94E0F6
:100D2000D92E0E944B0881E0682D4D895E892F895C
:100D3000388D022D0E944B085520B9F400D000D008
:100D40000F92ADB7BEB71196EDB7FEB79182FD0118
:100D5000B282A1828C8D9D8D948383830E94FC0836
:100D60000F900F900F900F900F90CF91DF911F91E8
:100D70000F91FF90EF90DF90CF90BF90AF909F903A
:100D80008F907F906F905F904F903F902F9008953D
:100D90006F927F928F929F92AF92BF92CF92DF928B
:100DA000EF92FF920F931F93DF93CF93CDB7DEB7F0
:100DB000942E7C2DD50149895A89AB88BC88CD8871
:100DC000DE889F89813009F457C08130B8F18230C4
:100DD00009F076C0613091F0613020F0623009F0A6
:100DE0006FC015C080E060E00E94140880E0B70189
:100DF0000E94DD0780E0692DA8011DC081E060E050
:100E00000E94140881E0B6010E94DD0711C082E053
:100E100060E00E94140880E0B7010E94DD0781E0D5
:100E2000B6010E94DD0780E0692DA8010E94C60777
:100E300081E0682DA5010E94C60742C0EDB7FEB74C
:100E400039970FB6F894FEBF0FBEEDBF6DB67EB6F4
:100E50000894611C711C52834183F301B382A28206
:100E6000D582C4829683888D998D9087878380E010
:100E7000492DC72E5D011AC0EDB7FEB739970FB6E1
:100E8000F894FEBF0FBEEDBFADB7BEB7119652834B
:100E90004183FD01B382A282D582C48296831086EB
:100EA000178281E0492DC72EAA24BB240E940B067D
:100EB0008DB79EB709960FB6F8949EBF0FBE8DBF33
:100EC000CF91DF911F910F91FF90EF90DF90CF9026
:100ED000BF90AF909F908F907F906F9008950E94E9
:100EE000850F81E080930B04E5EDF3E01192119200
:100EF00011821082329611821082329611821082F3
:100F000032961182108232961182108232961182AC
:100F1000108232961182108232961182108232969D
:100F200011821082329611821082329611821082C2
:100F3000329611821082369611921192119210827D
:100F40003296119211921192119211921192119264
:100F50001182108232961182108232961182108292
:100F60003296118210827697118210823296118207
:100F7000108210920A041092090410920B0487E068
:100F800061E00E94920987E091E00895EF92FF925C
:100F90000F931F93182F062F7A0160E00E94140808
:100FA000812F602F0E94FF07812FB7010E9429081F
:100FB0001F910F91FF90EF900895482F81E080934B
:100FC0000B04CB0123E0693E720710F088EE93E03A
:100FD000413071F0413018F0423071F405C0909307
:100FE000E0038093DF0308C09093E0038093DF0366
:100FF0009093E2038093E10310920B040895982FDD
:1010000081E080930B04913051F0913018F09230D0
:1010100041F403C06093F80304C06093F803609345
:10102000F90310920B040895982F81E080930B042C
:10103000913051F0913018F0923041F403C0609338
:10104000D50304C06093D5036093D60310920B04BC
:101050000895482F81E080930B04CB0121E0613992
:10106000720710F080E991E0413071F0413018F0E2
:10107000423071F405C09093D8038093D70308C021
:101080009093D8038093D7039093DA038093D90386
:1010900010920B0408958F929F92AF92BF92CF92BD
:1010A000DF92EF92FF920F931F93CF93DF93182F4E
:1010B000F62E5A014901E60161E00E941408812FD1
:1010C000B501A4010E94BF0F812F6F2D0E94FF0761
:1010D000812F602F0E94AA0F812FB5010E948F0FD0
:1010E000C114D10499F0113049F0113018F01230C8
:1010F00069F406C018821092070408C0198204C05F
:10110000188219821092070410920804D0930A04DE
:10111000C0930904EE20B9F58EE593E090930A049C
:1011200080930904812FB4010E942908812F0E9415
:10113000700F113071F0113018F0123059F512C0E3
:1011400010925E031092070480915E038823E1F3FE
:1011500021C010925F031092080480915F038823DE
:10116000E1F318C010925E0310925F03109207041F
:101170001092080480915E038823E1F380915F035D
:101180008823C1F307C0812FB4010E942908812F51
:101190000E94700FDF91CF911F910F91FF90EF9000
:1011A000DF90CF90BF90AF909F908F9008950F9356
:1011B0001F93182F062F662349F460E070E00E9409
:1011C0002908812F60E070E00E948F0F81E08093FA
:1011D0000B04113051F0113018F0123041F403C0FB
:1011E0000093F30304C00093F3030093F4031092FD
:1011F0000B041F910F910895CF92DF92EF92FF920F
:101200000F931F93DF93CF93CDB7DEB78B858130DC
:1012100061F0813018F08230A1F511C0EC85FD85B8
:1012200080910C048823E1F306C0EC85FD85809154
:101230000D048823E1F3309721F1099522C0CC8475
:10124000DD84EE84FF8400E010E0002351F48091FF
:101250000C04882331F0C114D10411F0F601099572
:1012600001E0112351F480910D04882331F0E11441
:10127000F10411F0F701099511E0002331F3112376
:1012800021F3CF91DF911F910F91FF90EF90DF90AD
:10129000CF900895E82FF0E0E331F10540F4E25CEF
:1012A000FF4FEE0FFF1F0590F491E02D099480E0B1
:1012B000089580910E04089580910F0408958091FF
:1012C00010040895809111040895809112040895E6
:1012D0008091140408958091130408958091150459
:1012E00008958091160408958091170408958091BF
:1012F0001804089580911904089580911A0408959E
:1013000080911B04089580911C04089580911D0410
:10131000089580911E04089580911F04089580917E
:1013200020040895E82FF0E0E331F10508F040C013
:10133000EF5AFF4FEE0FFF1F0590F491E02D099437
:1013400060930E04089560930F0408956093100451
:1013500008956093110408956093120408956093B2
:101360001404089560931304089560931504089578
:101370006093160408956093170408956093180409
:10138000089560931904089560931A040895609372
:101390001B04089560931C04089560931D04089530
:1013A00060931E04089560931F04089560931E04C3
:1013B00008951F93CF93DF93182F809161038823A3
:1013C00041F080916B03882399F010926103109291
:1013D0006B030E941F108093600385E693E061E039
:1013E00040E022E330E00E94970A81E080936103AD
:1013F00090916003A12FB0E0ED01C75FDE4F8881BF
:10140000882369F0FD01E45FFE4F80819823C1F0DD
:10141000FD01EE59FC4F81E08083188211C0FD016F
:10142000EE59FC4F808181111082FD01E45FFE4F77
:101430008081982329F4FD01E75FFE4F81E08083DE
:10144000AE59BC4F8C91DF91CF911F91089582E0EE
:101450000E944A09882319F490E082E008951092CE
:101460003C0410923B0410923E0410923D041092F2
:10147000400410923F0410924204109241041092D2
:1014800044041092430480E991E0909328048093EF
:10149000270490932A048093290490932C0480932A
:1014A0002B0490932E0480932D049093300480930A
:1014B0002F0484E398E09093320480933104909356
:1014C00034048093330490933604809335049093CE
:1014D00038048093370490933A048093390481E070
:1014E00061E00E94920991E081E00895DF93CF933B
:1014F000CDB7DEB729970FB6F894DEBF0FBECDBFCC
:101500009C01CE01019661E040E00E94970A982F6D
:10151000882319F48F818823E9F3892F29960FB640
:10152000F894DEBF0FBECDBFCF91DF910895EF924B
:10153000FF920F931F93CF93DF93EC01F62EE42ECF
:10154000890188E00E944A09813011F081E026C0BB
:1015500084E090E00E947426FC01009711F482E080
:101560001DC0F982F0FC1E8281E0E81619F4898121
:10157000846089838981886089831B830A831D83B2
:101580000C83D183C0831382128281E08093CE03C7
:10159000CF010E9450101092CE0380E0DF91CF91D6
:1015A0001F910F91FF90EF9008958FE180937C0041
:1015B000EAE7F0E087E08083808180688083089597
:1015C0000E94FC0F0E94050E0E94420D0E94B9105D
:1015D0000E946A0E0E94270A7894089500000895D8
:1015E0001F920F920FB60F9211242F933F934F9398
:1015F0005F936F937F938F939F93AF93BF93EF937B
:10160000FF93E0918E03F0918F03309709F00995D5
:10161000FF91EF91BF91AF919F918F917F916F91CA
:101620005F914F913F912F910F900FBE0F901F90A0
:1016300018951F920F920FB60F9211242F933F937C
:101640004F935F936F937F938F939F93AF93BF93CA
:10165000EF93FF93E0919003F0919103309709F09D
:101660000995FF91EF91BF91AF919F918F917F91DC
:101670006F915F914F913F912F910F900FBE0F90FF
:101680001F9018951F920F920FB60F9211242F934F
:101690003F934F935F936F937F938F939F93AF93FA
:1016A000BF93EF93FF93E0919203F09193033097F0
:1016B00009F00995FF91EF91BF91AF919F918F91A3
:1016C0007F916F915F914F913F912F910F900FBE3E
:1016D0000F901F9018951F920F920FB60F92112422
:1016E0002F933F934F935F936F937F938F939F932A
:1016F000AF93BF93EF93FF93E0918003F091810349
:10170000309709F00995FF91EF91BF91AF919F91AB
:101710008F917F916F915F914F913F912F910F909A
:101720000FBE0F901F9018951F920F920FB60F9239
:1017300011242F933F934F935F936F937F938F93D6
:101740009F93AF93BF93EF93FF93E0918203F09148
:101750008303309709F00995FF91EF91BF91AF9105
:101760009F918F917F916F915F914F913F912F91B9
:101770000F900FBE0F901F9018951F920F920FB6EB
:101780000F9211242F933F934F935F936F937F9307
:101790008F939F93AF93BF93EF93FF93E091840355
:1017A000F0918503309709F00995FF91EF91BF9172
:1017B000AF919F918F917F916F915F914F913F91E9
:1017C0002F910F900FBE0F901F9018951F920F92A0
:1017D0000FB60F9211242F933F934F935F936F9304
:1017E0007F938F939F93AF93BF93EF93FF93E0917A
:1017F0008803F0918903309709F00995FF91EF91E3
:10180000BF91AF919F918F917F916F915F914F9118
:101810003F912F910F900FBE0F901F9018951F9220
:101820000F920FB60F9211242F933F934F935F9314
:101830006F937F938F939F93AF93BF93EF93FF9398
:10184000E0918A03F0918B03309709F00995FF919D
:10185000EF91BF91AF919F918F917F916F915F9128
:101860004F913F912F910F900FBE0F901F901895A1
:101870001F920F920FB60F9211242F933F934F9305
:101880005F936F937F938F939F93AF93BF93EF93E8
:10189000FF93E0918603F0918703309709F0099553
:1018A000FF91EF91BF91AF919F918F917F916F9138
:1018B0005F914F913F912F910F900FBE0F901F900E
:1018C00018951F920F920FB60F9211242F933F93EA
:1018D0004F935F936F937F938F939F93AF93BF9338
:1018E000EF93FF93E0918C03F0918D03309709F013
:1018F0000995FF91EF91BF91AF919F918F917F914A
:101900006F915F914F913F912F910F900FBE0F906C
:101910001F9018951F920F920FB60F9211242F93BC
:101920003F934F935F936F937F938F939F93AF9367
:10193000BF93EF93FF93E0917603F0917703309795
:1019400009F00995FF91EF91BF91AF919F918F9110
:101950007F916F915F914F913F912F910F900FBEAB
:101960000F901F9018951F920F920FB60F9211248F
:101970002F933F934F935F936F937F938F939F9397
:10198000AF93BF93EF93FF93E0917803F0917903C6
:10199000309709F00995FF91EF91BF91AF919F9119
:1019A0008F917F916F915F914F913F912F910F9008
:1019B0000FBE0F901F9018951F920F920FB60F92A7
:1019C00011242F933F934F935F936F937F938F9344
:1019D0009F93AF93BF93EF93FF93E0917A03F091BE
:1019E0007B03309709F00995FF91EF91BF91AF917B
:1019F0009F918F917F916F915F914F913F912F9127
:101A00000F900FBE0F901F9018951F920F920FB658
:101A10000F9211242F933F934F935F936F937F9374
:101A20008F939F93AF93BF93EF93FF93E0917C03CA
:101A3000F0917D03309709F00995FF91EF91BF91E7
:101A4000AF919F918F917F916F915F914F913F9156
:101A50002F910F900FBE0F901F901895E82F803296
:101A600068F48051833050F0F0E0EE0FFF1FE25930
:101A7000FC4F208131817183608302C020E030E01F
:101A8000C901089580E10E944A09882361F4EEE6C5
:101A9000F3E01192119283E0EE3AF807D1F780E17A
:101AA00061E00E94920980E191E00895239A0895EF
:101AB000FF920F931F93CF93DF93F82E8AE0F816CF
:101AC000B1F08F1548F0E8E0FE16B9F1EF1538F1E6
:101AD000F7E0FF1651F43BC08DE0F81659F0EBE14A
:101AE000FE1689F0FCE0FF1641F001E041C01092C3
:101AF000210403C0109221043AC080912204815035
:101B00008093220434C00E94C60314C080E061E0C8
:101B10000E94A504809121048F5F8093210480910D
:101B2000210487FFF3CF1092210480912204815079
:101B30008093220400E011E01CC0809121048823DE
:101B4000B1F08091210486508093210410C081E07F
:101B50000E94B10564EF71E080E090E04DE750E055
:101B600024E630E00E94BE0581E00E94360F00E0CE
:101B700010E080912204609121040E948C040023D3
:101B800051F185E0F89EC0011124EC01C355DF4FEF
:101B90008C010E541F4FFE01849161E00E94A50448
:101BA0002196C017D107B9F780E061E00E94A50433
:101BB000809121048A5F809321048091210490E028
:101BC0008C3791053CF010922104809122048150C1
:101BD0008093220411E08091220483708093220478
:101BE000113059F480912304813039F4E0912404B8
:101BF000F0912504309709F0099580E090E0DF919D
:101C0000CF911F910F91FF90089580E00E944A09A3
:101C1000882351F4F8940E94F31081E00E94170E7B
:101C200080E061E00E94920980E091E008958130B7
:101C300049F0F894813020F18230B1F0833009F01E
:101C400045C017C02C9A80E8809361001092610013
:101C500080E090E00000019688329105D9F710925B
:101C6000680010926B00089580E88093610083E023
:101C700004C080E88093610088E08093610028C000
:101C800080E090E0000001962DE680369207D1F7C3
:101C90002C9880E090E0000001962DE680369207B7
:101CA000D1F710927A008FEF8093640080916800E2
:101CB00081608093680080916B00846080936B00EA
:101CC000789483B7816083BF88950895823008F047
:101CD000789408950F931F930E941F1180E06EE087
:101CE00071E10E94A30E81E066E071E10E94A30E03
:101CF00082E06EEF70E10E94A30E86E066E171E182
:101D00000E94A30E06EF10E183E0B8010E94A30E2B
:101D100084E0B8010E94A30E85E0B8010E94A30EE2
:101D200087E0B8010E94A30E82E061E00E94920960
:101D30008FEF8093260487E00E94C00482E091E048
:101D40001F910F910895E82FF0E0EE0FFF1FE2556D
:101D5000FC4F7183608308950E94C60E08959B0115
:101D6000AC018091BF03882381F0DA01C901880F9B
:101D7000991FAA1FBB1F9093CB038093CA03211501
:101D800031054105510509F45F9808958091C0031C
:101D90009091C103A091C203B091C3032091C403E9
:101DA0003091C5034091C6035091C703280F391FD6
:101DB0004A1F5B1F2093C0033093C1034093C203AB
:101DC0005093C3038091C0039091C103A091C203BB
:101DD000B091C3038851964FA040B040BCF08BB186
:101DE00080588BB98091C0039091C103A091C20328
:101DF000B091C3038851964FA040B0408093C00378
:101E00009093C103A093C203B093C30308958AE0E3
:101E10000E944A09813041F40E9438111092BF0398
:101E20008AE060E00E949209089589E00E944A09D0
:101E30008130D9F48091BE03882311F00E946A0F8B
:101E400082E00E9438118091CC039091CD030097DD
:101E500031F00E940C271092CD031092CC03109207
:101E6000BE0389E060E00E9492090895813029F064
:101E7000823029F40E94150F08950E94070F0895DB
:101E8000982F8091BE03882331F48091BF0388236B
:101E900011F4579A5F988091BE038823D1F4923051
:101EA000C1F41092800010928100809181008860BE
:101EB00080938100809181008160809381001092E5
:101EC00085001092840081E08093890080E98093EE
:101ED00088000895EFE6F0E080818D7F808308958B
:101EE000982F81E080930B04913051F0913018F0DD
:101EF000923041F403C01092F30304C01092F30334
:101F00001092F40310920B0408953A9A3B9A3C9A6B
:101F10003D9A3E9A3F9A88B1837088B90895982F68
:101F200081E080930B04913071F0913018F0923081
:101F300071F405C07093E8036093E70308C07093E1
:101F4000E8036093E7037093EA036093E903109258
:101F50000B040895982F81E080930B04913051F089
:101F6000913018F0923041F403C06093F50304C03F
:101F70006093F5036093F60310920B0408950F939A
:101F80001F93CF93DF93EB018A01813001F1813000
:101F900018F0823061F50DC08091DF039091E0036D
:101FA000892B11F080E01AC01092EC031092EB0321
:101FB0001EC08091DF039091E003892B21F080E027
:101FC0000E94541104C01092EC031092EB03809114
:101FD000E1039091E203892B31F081E0BE01A80179
:101FE0000E94541104C01092EE031092ED03DF9191
:101FF000CF911F910F91089510920E0410920F042B
:1020000010921304109210041092120410921404EF
:1020100010921504109216041092170410921804CE
:102020001092190410921A0410921B0410921C04AE
:1020300010921D0410921E0410921F0408950F9315
:102040001F9381E00E944A09813011F000E024C012
:1020500087E00E94C00482E06AE00E94110582E0ED
:1020600062EB0E94110518EC812F8A95F1F782E04E
:1020700060E00E942611082F812F8A95F1F782E0F7
:1020800060E00E9426111A95F1F787E00E94C004D3
:1020900088E893E10197F1F7802F1F910F91089540
:1020A000CF92DF92EF92FF920F931F93CF93DF9324
:1020B000EC0180914504882339F4D0934704C09300
:1020C00046040E94DE1047C0C0904604D0904704EA
:1020D00000E010E0EE24FF2437C0A881B981FD01A3
:1020E00064817581F60140815181FA018481958175
:1020F0009B01281B390B37FF0FC0861B970B95835D
:102100008483DB82CA82012B29F4D0934704C093D5
:10211000460421C0F7010CC0F6018281938121158C
:10212000310549F4FD01158214829B838A83F601EF
:10213000D383C28310C0FD01358324830097B9F394
:102140000F5F1F4F76016C018091450490E00817E6
:10215000190718F2ECCF809145048F5F80934504F6
:10216000DF91CF911F910F91FF90EF90DF90CF9073
:10217000089588E00E944A098823B9F41092450422
:1021800010924704109246041092CE031092CF038F
:1021900080E161EC71E10E94E2100E94C8110E948E
:1021A000D81088E061E00E94920988E091E00895EB
:1021B000EEE6F0E0808182608083089581E0809384
:1021C000CF030895803218F020E030E00AC0E82FF5
:1021D000F0E0EE0FFF1FE259FC4F20813181718347
:1021E0006083C9010895249A2C9A089583E58CBDD3
:1021F00081E08DBD8DE08A95F1F7089583E58CBD72
:102200001DBC84EF91E00197F1F708958FE78CBD35
:102210001DBC84EF91E00197F1F7089583E58CBD33
:1022200081E08DBD8DE08A95F1F7089583E58CBD41
:1022300081E08DBD84EF91E00197F1F70895259A33
:102240002698279A209A219A229A08951F93162F4A
:102250000E94C00482E00E944A09813011F080E0AF
:1022600005C01EBD0DB407FEFDCF8EB51F910895AC
:10227000823029F4809181008E7F8093810080914B
:10228000BE03813031F48091BF03813011F400002E
:1022900008958091BE03813021F08091BF03813089
:1022A00011F45F9857980895EF92FF920F931F9340
:1022B000CF93DF93EB01882321F0813009F05AC0DE
:1022C0002DC09A0140E050E0CA01B9010E94C92521
:1022D0002091DF033091E003220F331F40E050E0F4
:1022E0000E94ED2579018A01A8019701220F331F71
:1022F000441F551FCE01A0E0B0E082179307A4074A
:10230000B50728F0F092EC03E092EB0333C0D695CA
:10231000C795D093EC03C093EB032CC09A0140E027
:1023200050E0CA01B9010E94C9252091E103309112
:10233000E203220F331F40E050E00E94ED257901B7
:102340008A01A8019701220F331F441F551FCE0198
:10235000A0E0B0E082179307A407B50728F0F09239
:10236000EE03E092ED0306C0D695C795D093EE0339
:10237000C093ED03DF91CF911F910F91FF90EF90EC
:1023800008950E94D1110E9411120E94EA1108952D
:1023900084B5826084BD85B5846085BD8EE487BDCB
:1023A000089588E00E944A09882311F484E0089582
:1023B0008091CF03882311F483E008958091CE03A8
:1023C000882311F082E008950E945E148130E1F3C9
:1023D00080E008958091BF03813011F58091C8039A
:1023E0009091C9032091CA033091CB03280F391F64
:1023F0003093C9032093C8038091C8039091C90307
:10240000885E93406CF08BB180588BB98091C80383
:102410009091C903885E93409093C9038093C80349
:10242000089587E00E944A09813009F0AAC080918E
:10243000DF039091E003892B09F1809103049091CF
:1024400004042091DF033091E003820F931F9093E7
:102450000404809303048091030490910404885E33
:102460009340A4F08091030490910404885E93400B
:10247000909304048093030441E009C08091D70342
:102480009091D8039093DC038093DB0340E080912C
:10249000E1039091E203892B09F180910504909169
:1024A00006042091E1033091E203820F931F909381
:1024B0000604809305048091050490910604885ECB
:1024C0009340A4F08091050490910604885E9340A7
:1024D000909306048093050461E009C08091D903BC
:1024E0009091DA039093DE038093DD0360E0842F04
:1024F0000E94C2128091FF03909100042091DB039F
:102500003091DC03280F391F309300042093FF0320
:102510008091FF0390910004885E934014F440E0A2
:102520000BC08091FF0390910004885E93409093CC
:1025300000048093FF0341E0809101049091020424
:102540002091DD033091DE03280F391F3093020400
:10255000209301048091010490910204885E9340CD
:1025600014F460E00BC08091010490910204885E35
:102570009340909302048093010461E0842F0E94B1
:10258000071308958823F1F02091D7033091D803E1
:102590008091DB039091DC03281B390B1216130684
:1025A00034F48091DB039091DC03019607C0232B68
:1025B00049F08091DB039091DC0301979093DC0359
:1025C0008093DB03662311F12091D9033091DA0364
:1025D0008091DD039091DE03281B390B1216130640
:1025E00054F48091DD039091DE0301969093DE0315
:1025F0008093DD030895232B49F08091DD039091B2
:10260000DE0301979093DE038093DD0308950F931B
:102610001F93182F062F80910B04882309F0E7C021
:102620008091F303882309F05AC08091DB039091D5
:10263000DC03892BE9F48091D003837E8093D0035F
:102640001092FC0380910704882309F45DC0609117
:10265000F50380E00E94D708E0910904F0910A0494
:10266000309709F451C081E08083109207044CC078
:102670008091D503813041F48091E7039091E80384
:10268000019711F411E002C01123F1F1E091FA0376
:10269000F0E0EF5FFE4F9091D003937E8081892B15
:1026A0008093D0038091F803882321F48091FA036A
:1026B0008F5F03C08091FA0381508093FA03809169
:1026C000FA0383708093FA0381E08093FC03809186
:1026D000D5038130C9F480E00E940A1415C090919E
:1026E000D003937E9093D003E091FA03F0E0EF5F84
:1026F000FE4F8081892B8093D00382E08093FC037E
:102700001092DC031092DB038091F403882309F01C
:1027100059C08091DD039091DE03892BE9F480910B
:10272000D0038F718093D0031092FD038091080431
:10273000882309F45CC06091F60381E00E94D70809
:10274000E0910904F0910A04309709F450C081E047
:102750008183109208044BC08091D603813041F4EC
:102760008091E9039091EA03019711F401E002C01E
:102770000023E9F1E091FB03F0E0EB5FFE4F909165
:10278000D0039F718081892B8093D0038091F903BE
:10279000882321F48091FB038F5F03C08091FB03AA
:1027A00081508093FB038091FB0383708093FB0334
:1027B00081E08093FD038091D6038130C1F40E94B3
:1027C0000A1415C09091D0039F719093D003E091AB
:1027D000FB03F0E0EB5FFE4F8081892B8093D003F9
:1027E00082E08093FD031092DE031092DD0380915E
:1027F000FE03882331F480ED93E0612F402F0E9487
:10280000CC1488B183709091D003892B88B91F9123
:102810000F910895882321F0813009F04EC027C020
:102820008091E7039091E803892B49F08091E703B9
:102830009091E80301979093E8038093E7038091D8
:1028400007048823D1F52091E7033091E8038091B4
:10285000EB039091EC032817390779F580E060E0ED
:1028600070E00E94290881E0809307040895809118
:10287000E9039091EA03892B49F08091E903909153
:10288000EA0301979093EA038093E9038091080497
:10289000882399F42091E9033091EA038091ED03B4
:1028A0009091EE032817390741F481E060E070E071
:1028B0000E94290881E0809308040895FF920F93F5
:1028C0001F93CF93DF9380914504882309F459C067
:1028D0000091460410914704F801C081D1818C8198
:1028E0009D8101979D838C83181619060CF449C0AD
:1028F000898180FF05C08E81882311F481E08E8359
:10290000898181FF03C0EF81F88509958091450495
:102910008230A8F0F80182819381909347048093DC
:10292000460413821282E0910000F091010084813C
:102930009581181619063CF0FF24F39405C01092F7
:10294000470410924604FF248091450481508093EF
:10295000450480914504882311F40E94C91489819B
:1029600082FF08C08A819B819D838C83C8010E945D
:10297000501008C0C8010E940C2789818F7E89836E
:1029800001C0FF248F2DDF91CF911F910F91FF90F8
:1029900008951092CF030895FC018091FC038230CA
:1029A00069F48091D40391E089278093D40388232C
:1029B00009F03EC08081837E80833AC08091DB0332
:1029C0009091DC03C397A4F56623D1F02091DB033B
:1029D0003091DC0380E690E0BC01269FC001279F78
:1029E000900D369F900D1124880F892F881F990B09
:1029F0009093F0038093EF0381E08093D20318C09B
:102A00008091D2038823A1F08091EF039091F0038D
:102A100001979093F0038093EF038091EF039091DF
:102A2000F003892B29F48081837E80831092D20366
:102A30008091FD03823069F48091D30391E089276E
:102A40008093D303882309F03EC080818F718083F7
:102A500008958091DD039091DE03C397A4F544238C
:102A6000D1F02091DD033091DE0380E690E0AC01EF
:102A7000249FC001259F900D349F900D1124880F35
:102A8000892F881F990B9093F2038093F10381E0C3
:102A90008093D10308958091D1038823A1F0809180
:102AA000F1039091F20301979093F2038093F10365
:102AB0008091F1039091F203892B29F480818F7129
:102AC00080831092D10308958F92AF92BF92CF92DC
:102AD000EF92FF920F931F93CF93DF930E94E9270A
:102AE000EC010E94E92729EC30E0B9010E94D925C8
:102AF0008C0111271F921F921F9281E08F9380E912
:102B00008F93CE01B9010E94D92599279F938F9366
:102B10001F921F92812CA12CB12CC12C0F2EF0E9F9
:102B2000EF2EFF24F394F02D20E030E040E062E04F
:102B300082E00E94C80684EF91E00E94760A8DB779
:102B40009EB709960FB6F8949EBF0FBE8DBFDF915A
:102B5000CF911F910F91FF90EF90CF90BF90AF90CA
:102B60008F90089581E00E94B20384E00E947B036D
:102B70000E945E03BC0180E090E00E94961F20E06E
:102B800030E040EA50E40E94951E9B01AC0160E0F9
:102B900070E286E395E40E94FD1E20E030E040E80C
:102BA0005FE30E94941E2CE033E949EC5EE30E944F
:102BB0007820089581E00E94B20383E00E947B03A5
:102BC0000E945E03BC0180E090E00E94961F20E01E
:102BD00030E040EA50E40E94951E9B01AC0160E0A9
:102BE00070E286E395E40E94FD1E20E030E040E8BC
:102BF0005FE30E94941E2CE033E949EC5EE30E94FF
:102C00007820089581E00E94B20387E00E947B0350
:102C10000E945E03BC0180E090E00E94961F20E0CD
:102C200030E040EA50E40E94951E9B01AC0160E058
:102C300070E286E395E40E94FD1E20E030E040E86B
:102C40005FE30E94941E2CE033E949EC5EE30E94AE
:102C5000782008958F929F92AF92BF92CF92DF9289
:102C6000EF92FF920F931F93CF93DF936B017C0141
:102C7000042F152F20E030E0A9010E946D201816C6
:102C80000CF04DC020E030E04AEF53E4C701B6013C
:102C90000E94782020E030E044E352E40E94FD1ED0
:102CA000962ED72FC82FD92E0E94C603DF92CF931E
:102CB000DF939F9227E132E03F932F930E941929DF
:102CC0001F921F921F9281E08F9380E98F931F9331
:102CD0000F931F921F9288248394A12CB12CC12C96
:102CE0000F2EF0E9EF2EFF24F394F02D20E030E0DA
:102CF00040E062E082E00E94C806692D7D2F8C2FA3
:102D00009D2D0E94651FCB010E94760A8DB79EB74C
:102D10000F960FB6F8949EBF0FBE8DBF4CC0C70173
:102D2000B601905820E030E04AEF53E40E9478204A
:102D300020E030E044E352E40E94FD1E962ED72EA0
:102D4000D82FC92F0E94C603CF93DF93DF929F92A3
:102D500027E132E03F932F930E9419291F921F927F
:102D60001F9281E08F9380E98F931F930F931F929F
:102D70001F92812CA12CB12CC12C0F2EF0E9EF2E2B
:102D8000FF24F394F02D20E030E041E062E082E0A7
:102D90000E94C806692D7D2D8D2F9C2F0E94651FD6
:102DA000CB010E94760A8DB79EB70F960FB6F894A6
:102DB0009EBF0FBE8DBF60E082E00E94D708DF910A
:102DC000CF911F910F91FF90EF90DF90CF90BF9028
:102DD000AF909F908F900895CF93DF9300D000D055
:102DE0001F92CDB7DEB7212C312C1A821B82912C79
:102DF00019821D821C820E9402162B013C010E9436
:102E0000DA156B017C010E94B21520E030E040E44D
:102E100051E4C301B2010E946D2018160CF0FEC0EF
:102E200020E030E040E451E4C701B6010E94F91E01
:102E300088230CF0F3C020E030E040EA50E4C70102
:102E4000B6010E94F91E8823E4F40E94C6038AE1B9
:102E500092E00E942D2987E292E00E942D2985E3CD
:102E600092E00E942D29A701960160E070E080EABF
:102E700090E40E94941E2B013C0160E070E0CB01C5
:102E800037C020E030E040EA50E4C701B6010E94BC
:102E90006D201816D4F40E94C6038AE192E00E94C5
:102EA0002D298BE392E00E942D2985E392E00E9478
:102EB0002D2920E030E040EA50E4C701B6010E942D
:102EC000941E412C512C320113C00E94C6038AE18A
:102ED00092E00E942D298AE492E00E942D2985E348
:102EE00092E00E942D29412C512C3201C301B201E4
:102EF00020E030E0A9010E94951E20E030E040EF84
:102F000052E40E94951EE62EF72E082F192F20E07E
:102F100030E0A901C301B2010E94951E20E030E01B
:102F200040EF52E40E94951E462E572E682E792EB1
:102F300020E030E0A901692D79818D819C810E947A
:102F4000F91E811108C0242C352C6A827B829E2CAC
:102F5000F9820D831C832E2D3F2D402F512F692D7B
:102F600079818D819C810E94941E20E030E0A9012E
:102F70000E9478202E2D3F2D402F512F0E94951E0C
:102F8000962E79838D839C83242D352D462D572DA8
:102F9000622D732D8A819B810E94941E20E030E077
:102FA000A9010E947820242D352D462D572D0E94F1
:102FB000951E262E372E8A839B83692D79818D81DC
:102FC0009C810E946A1F2B013C011F921F921F923D
:102FD00021E02F9330E93F93622D732D8A819B81ED
:102FE0000E946A1F7F936F931F921F92812CA12CC6
:102FF000B12CC12C0F2EF0E9EF2EFF24F394F02D0D
:10300000820120E030E040E062E082E00E94C806F9
:103010000FB6F894DEBF0FBECDBFEDCE20E030E09E
:1030200040E451E4C301B2010E94F91E88230CF070
:103030004AC020E030E040E451E4C701B6010E94FC
:10304000F91E88230CF03FC00E94C6038AE192E07B
:103050000E942D2984E592E00E942D2982E692E0CB
:103060000E942D291F921F921F9291E09F93E0E9E9
:10307000EF931F92F6E9FF931F921F92812CA12CD0
:10308000B12CC12C0F2EF0E9EF2EFF24F394F02D7C
:1030900006E910E020E030E040E062E082E00E94DB
:1030A000C80684EF91E00E94760A44E650E060E0B2
:1030B00070E084EB92EC0E942A160FB6F894DEBF03
:1030C0000FBECDBF98CE20E030E040E451E4C30114
:1030D000B2010E946D2018160CF08DCE20E030E079
:1030E00040E451E4C701B6010E946D2018160CF0AF
:1030F00082CE0E94C6038AE192E00E942D298FE6CB
:1031000092E00E942D298CE792E00E942D291F92C7
:103110001F921F9231E03F9380E98F931F9296E9AF
:103120009F931F921F92812CA12CB12CC12C0F2E8A
:10313000F0E9EF2EFF24F394F02D06E910E020E0F3
:1031400030E040E062E082E00E94C80684EF91E057
:103150000E94760A0E94DA150FB6F894DEBF0FBE01
:10316000CDBF20E030E040E451E40E946D2018160D
:103170000CF041CE44E650E060E070E084EB92E475
:103180000E942A161F921F921F92F1E0FF9320E9DE
:103190002F931F9236E93F931F921F9220E030E059
:1031A00040E062E082E00E94C8060E94DA150FB695
:1031B000F894DEBF0FBECDBF20E030E040E451E424
:1031C0000E946D2018160CF016CE84E690E00E9446
:1031D000760A0E94DA1520E030E040E451E40E94D3
:1031E0006D20181694F307CECF93DF9300D000D054
:1031F0001F92CDB7DEB7212C312C1A821B82912C65
:1032000019821D821C820E9402162B013C010E9421
:10321000DA150E94B2156B017C0120E030E040E439
:1032200051E4C301B2010E946D2018160CF0FEC0DB
:1032300020E030E040E451E4C701B6010E94F91EED
:1032400088230CF0F3C020E030E040EA50E4C701EE
:10325000B6010E94F91E8823D4F40E94C6038AE8AE
:1032600092E00E942D2987E292E00E942D2985E3B9
:1032700092E00E942D29A701960160E070E080EAAB
:1032800090E40E94941E412C512C320139C020E060
:1032900030E040EA50E4C701B6010E946D201816E4
:1032A000E4F40E94C6038AE892E00E942D298BE391
:1032B00092E00E942D2985E392E00E942D2920E0D2
:1032C00030E040EA50E4C701B6010E94941E2B0191
:1032D0003C0160E070E0CB0113C00E94C6038AE8A5
:1032E00092E00E942D298AE492E00E942D2985E334
:1032F00092E00E942D29412C512C3201C301B201D0
:1033000020E030E0A9010E94951E20E030E040EF6F
:1033100052E40E94951EE62EF72E082F192F20E06A
:1033200030E0A901C301B2010E94951E20E030E007
:1033300040EF52E40E94951E462E572E682E792E9D
:1033400020E030E0A901692D79818D819C810E9466
:10335000F91E811108C0242C352C6A827B829E2C98
:10336000F9820D831C832E2D3F2D402F512F692D67
:1033700079818D819C810E94941E20E030E0A9011A
:103380000E9478202E2D3F2D402F512F0E94951EF8
:10339000962E79838D839C83242D352D462D572D94
:1033A000622D732D8A819B810E94941E20E030E063
:1033B000A9010E947820242D352D462D572D0E94DD
:1033C000951E262E372E8A839B83692D79818D81C8
:1033D0009C810E946A1F2B013C011F921F921F9229
:1033E00021E02F9330E93F93622D732D8A819B81D9
:1033F0000E946A1F7F936F931F921F92812CA12CB2
:10340000B12CC12C0F2EF0E9EF2EFF24F394F02DF8
:10341000820120E030E040E062E082E00E94C806E5
:103420000FB6F894DEBF0FBECDBFEDCE20E030E08A
:1034300040E451E4C301B2010E94F91E88230CF05C
:103440004AC020E030E040E451E4C701B6010E94E8
:10345000F91E88230CF03FC00E94C6038AE892E060
:103460000E942D2984E592E00E942D298CE792E0AC
:103470000E942D291F921F921F9291E09F93E0E9D5
:10348000EF931F92F6E9FF931F921F92812CA12CBC
:10349000B12CC12C0F2EF0E9EF2EFF24F394F02D68
:1034A00006E910E020E030E040E062E082E00E94C7
:1034B000C80684EF91E00E94760A44E650E060E09E
:1034C00070E084EB92E40E942A160FB6F894DEBFF7
:1034D0000FBECDBF98CE20E030E040E451E4C30100
:1034E000B2010E946D2018160CF08DCE20E030E065
:1034F00040E451E4C701B6010E946D2018160CF09B
:1035000082CE0E94C6038AE892E00E942D298FE6AF
:1035100092E00E942D2982E692E00E942D291F92BE
:103520001F921F9231E03F9380E98F931F9296E99B
:103530009F931F921F92812CA12CB12CC12C0F2E76
:10354000F0E9EF2EFF24F394F02D06E910E020E0DF
:1035500030E040E062E082E00E94C80684EF91E043
:103560000E94760A0E94B2150FB6F894DEBF0FBE15
:10357000CDBF20E030E040E451E40E946D201816F9
:103580000CF041CE44E650E060E070E084EB92EC59
:103590000E942A161F921F921F92F1E0FF9320E9CA
:1035A0002F931F9236E93F931F921F9220E030E045
:1035B00040E062E082E00E94C8060E94B2150FB6A9
:1035C000F894DEBF0FBECDBF20E030E040E451E410
:1035D0000E946D2018160CF016CE84E690E00E9432
:1035E000760A0E94B21520E030E040E451E40E94E7
:1035F0006D20181694F307CE2F923F924F925F9250
:103600006F927F928F929F92AF92BF92CF92DF92F2
:10361000EF92FF920F931F93CF93DF93CDB7DEB757
:103620002F970FB6F894DEBF0FBECDBF0E94DA15FC
:103630006B017C010E94B21520E030E040E451E4CF
:103640000E94F91E88230CF05DC120E030E040E4C8
:1036500051E4C701B6010E94F91E88230CF052C143
:103660001D821E821F821886312C212C00E010E062
:103670000E871F870E94DA152B013C010E94B215AC
:103680006A877B878C879D879B01AC01C301B20150
:103690000E94951E20E030E040E05FE30E94782029
:1036A0004B015C019B01AC01C301B2010E94941E5D
:1036B0006B017C0120E030E0A9010E946D2018160A
:1036C00094F40E94C60386E992E00E942D2984EAC0
:1036D00092E00E942D298CEA92E00E942D29812CF3
:1036E000912C54013CC0A3019201C501B4010E9478
:1036F000941E20E030E0A9010E946D201816E4F429
:103700000E94C60386E992E00E942D2983EB92E095
:103710000E942D298CEA92E00E942D29A501940196
:103720006A857B858C859D850E94941E4B015C017A
:10373000C12CD12C760113C00E94C6038CEB92E001
:103740000E942D2984EC92E00E942D298CEC92E0BD
:103750000E942D29812C912C54017501640120E0D7
:1037600030E0A901C701B6010E94951E6B017C01E2
:1037700020E030E0A901632D722D8E859F850E9487
:1037800078209B01AC01C701B6010E94951E20E084
:1037900030E040EF52E40E94951E69837987182F2C
:1037A000092F20E030E0A901C501B4010E94951E57
:1037B0006B017C0120E030E0A9016D817E818F8169
:1037C00098850E9478209B01AC01C701B6010E9438
:1037D000951E20E030E040EF52E40E94951EC62E78
:1037E000D72EE82EF92E20E030E0A901632D722DAE
:1037F0008E859F850E94F91E811108C0CD82DE82D0
:10380000EF82F886398029841E870F8729813985C0
:10381000412F502F632D722D8E859F850E94941EFF
:1038200020E030E0A9010E94782029813985412FCC
:10383000502F0E94951E362E272E8E879F872C2D67
:103840003D2D4E2D5F2D6D817E818F8198850E944B
:10385000941E20E030E0A9010E9478202C2D3D2DFF
:103860004E2D5F2D0E94951E6D837E838F839887DA
:10387000632D722D8E859F850E946A1F69837A83CE
:103880008B839C831F921F921F9281E08F9390E9FC
:103890009F936D817E818F8198850E946A1F7F939F
:1038A0006F931F921F92812CA12CB12CC12C0F2E33
:1038B000F0E9EF2EFF24F394F02D09811A8120E026
:1038C00030E040E062E082E00E94C8060FB6F89463
:1038D000DEBF0FBECDBF20E030E040E451E46A859A
:1038E0007B858C859D850E94F91E88235CF420E0F1
:1038F00030E040E451E4C301B2010E94F91E882384
:103900000CF4B8CE2F960FB6F894DEBF0FBECDBF25
:10391000DF91CF911F910F91FF90EF90DF90CF90AB
:10392000BF90AF909F908F907F906F905F904F90DF
:103930003F902F9008950E94E30381ED92E09F93C2
:103940008F930E9419290E94270A0F900F9091309F
:1039500051F00E94C6038FED92E09F938F930E94D7
:1039600019290F900F9081E00E94B1050E94500329
:1039700081E00E94B2030E946F078AEF92E09F935A
:103980008F930E9419290E94C60360E082E00E9482
:1039900014080F900F900E94C60382E093E00E94EB
:1039A0002D2983E193E00E942D2984E293E00E9477
:1039B0002D2980E00E94D909882309F4ADC00E9416
:1039C00002162B013C010E94DA154B015C010E949A
:1039D000B2156B017C0120E030E040E251E40E942E
:1039E000F91E882374F420E030E040E251E4C50180
:1039F000B4010E94F91E88230CF07EC10E94FC1ABB
:103A0000DECF20E030E040E251E4C501B4010E9485
:103A1000F91E882314F40E94EC1620E030E040E206
:103A200051E4C701B6010E94F91E882314F40E94D4
:103A3000F41820E030E040E251E4C301B2010E94FA
:103A4000F91E88230CF05BC00E94C60387E393E055
:103A50009F938F930E94192980E493E09F938F9303
:103A60000E9419291F921F921F9281E08F9380E973
:103A70008F931F9286E98F931F921F92812CA12C06
:103A8000B12CC12C0F2EF0E9EF2EFF24F394F02D72
:103A900006E910E020E030E040E062E082E00E94D1
:103AA000C80684EF91E00E94760A0E94DA156B0145
:103AB0007C010E94B2159B01AC018DB79EB70D969B
:103AC0000FB6F8949EBF0FBE8DBFC701B6010E940E
:103AD000F91E882354F444E650E060E070E084EB83
:103AE00092EC0E942A160E94F41844E650E060E02E
:103AF00070E084EB92E40E942A160E94EC160E9469
:103B0000C6038DE493E00E942D2984E593E00E9492
:103B10002D290E94641553CF81E00E94D909882382
:103B200009F4DBC00E9402162B013C010E94DA1549
:103B30004B015C010E94B2156B017C0120E030E07A
:103B400040E251E40E94F91E882374F420E030E042
:103B500040E251E4C501B4010E94F91E88230CF033
:103B6000D7C00E94FC1ADECF20E030E040E251E4F2
:103B7000C501B4010E94F91E882314F40E94EC16BA
:103B800020E030E040E251E4C701B6010E94F91E96
:103B9000882314F40E94F41820E030E040E251E45D
:103BA000C301B2010E94F91E88230CF089C01F9244
:103BB0001F921F92D1E0DF93C0E9CF931F921F9213
:103BC0001F921F92812CA12CB12CC12C0F2EF0E939
:103BD000EF2EFF24F394F02D00E010E020E030E021
:103BE00040E062E082E00E94C80644E650E060E007
:103BF00070E084E392E40E942A160E94021644E6D2
:103C000050E060E070E084EB92EC0E942A160E9483
:103C1000021644E650E060E070E084E392E40E9423
:103C20002A160E94C60387E393E09F938F930E9416
:103C3000192980E493E09F938F930E9419291F9282
:103C40001F921F92DF93CF931F9286E98F931F924B
:103C50001F9206E910E020E030E040E062E082E000
:103C60000E94C80684EF91E00E94760A0E94DA154D
:103C70006B017C010E94B2159B01AC018DB79EB710
:103C800046960FB6F8949EBF0FBE8DBFC701B60112
:103C90000E94F91E882354F444E650E060E070E08E
:103CA00084EB92EC0E942A160E94F41844E650E03D
:103CB00060E070E084EB92E40E942A160E94EC1609
:103CC0000E94C6038DE493E00E942D2984E593E0D1
:103CD0000E942D290E94641525CF82E00E94D909F7
:103CE000882309F458CE44E650E060E070E084E3B5
:103CF00092EC0E942A164FCE20E030E040E251E4E0
:103D0000C501B4010E94F91E88230CF090CE83CE29
:103D100020E030E040E251E4C501B4010E94F91E08
:103D200088230CF037CF2ACF5058BB27AA270ED0B4
:103D30009AC18BD130F090D120F031F49F3F11F433
:103D40001EF45BC10EF4E095E7FB51C1E92F9CD155
:103D500080F3BA17620773078407950718F071F4A8
:103D60009EF5B4C10EF4E0950B2EBA2FA02D0B01D9
:103D7000B90190010C01CA01A0011124FF27591BB0
:103D800099F0593F50F4503E68F11A16F040A22FB6
:103D9000232F342F4427585FF3CF46953795279527
:103DA000A795F0405395C9F77EF41F16BA0B620B26
:103DB000730B840BBAF09150A1F0FF0FBB1F661F6D
:103DC000771F881FC2F70EC0BA0F621F731F841FB0
:103DD00048F4879577956795B795F7959E3F08F0D6
:103DE000B3CF9395880F08F09927EE0F9795879595
:103DF0000895D9D008F481E008950CD034C12CD1B5
:103E000040F023D130F021F45F3F19F0F0C05111A0
:103E10005EC1F3C039D198F39923C9F35523B1F3A7
:103E2000951B550BBB27AA2762177307840738F029
:103E30009F5F5F4F220F331F441FAA1FA9F333D088
:103E40000E2E3AF0E0E830D091505040E695001C3C
:103E5000CAF729D0FE2F27D0660F771F881FBB1FF8
:103E6000261737074807AB07B0E809F0BB0B802DD2
:103E7000BF01FF2793585F4F2AF09E3F510568F01E
:103E8000B6C025C15F3FECF3983EDCF3869577958D
:103E90006795B795F7959F5FC9F7880F911D969520
:103EA000879597F90895E1E0660F771F881FBB1F7C
:103EB000621773078407BA0720F0621B730B840B29
:103EC000BA0BEE1F88F7E095089504D06894B111FD
:103ED000FEC00895E1D088F09F5790F0B92F992740
:103EE000B751A0F0D1F0660F771F881F991F1AF005
:103EF000BA95C9F712C0B13081F0E8D0B1E00895A9
:103F0000E5C0672F782F8827B85F39F0B93FCCF329
:103F1000869577956795B395D9F73EF490958095FA
:103F2000709561957F4F8F4F9F4F0895E89409C01A
:103F300097FB3EF490958095709561957F4F8F4FDC
:103F40009F4F9923A9F0F92F96E9BB279395F695F2
:103F5000879577956795B795F111F8CFFAF4BB0F70
:103F600011F460FF1BC06F5F7F4F8F4F9F4F16C0D4
:103F7000882311F096E911C0772321F09EE8872F5E
:103F8000762F05C0662371F096E8862F70E060E01A
:103F90002AF09A95660F771F881FDAF7880F969593
:103FA000879597F90895990F0008550FAA0BE0E837
:103FB000FEEF16161706E807F907C0F012161306EB
:103FC000E407F50798F0621B730B840B950B39F42B
:103FD0000A2661F0232B242B252B21F408950A2691
:103FE00009F4A140A6958FEF811D811D089597F9D1
:103FF0009F6780E870E060E008959FEF80EC08958F
:10400000DF93CF931F930F93FF92EF92DF927B0189
:104010008C01689405C0DA2EEF0176D0FE01E89499
:10402000A5912591359145915591AEF3EF018EDE25
:10403000FE019701A801DA9479F7DF90EF90FF90E5
:104040000F911F91CF91DF91089500240A941616C5
:10405000170618060906089500240A941216130676
:10406000140605060895092E0394000C11F4882304
:1040700052F0BB0F40F4BF2B11F460FF04C06F5F20
:104080007F4F8F4F9F4F089557FD9058440F551FF6
:1040900059F05F3F71F04795880F97FB991F61F0CA
:1040A0009F3F79F087950895121613061406551F41
:1040B000F2CF4695F1DF08C0161617061806991FAD
:1040C000F1CF86957105610508940895E894BB27A2
:1040D00066277727CB0197F9089565DF08F48FEFFE
:1040E00008959B01AC0160E070E080E89FE385CE1D
:1040F0000BD0B9CFAADF28F0AFDF18F0952309F075
:1041000076CF7BCF1124E3CFBFDFA0F3959FD1F310
:10411000950F50E0551F629FF001729FBB27F00D75
:10412000B11D639FAA27F00DB11DAA1F649F6627CA
:10413000B00DA11D661F829F2227B00DA11D621F19
:10414000739FB00DA11D621F839FA00D611D221FD3
:10415000749F3327A00D611D231F849F600D211DB7
:10416000822F762F6A2F11249F5750408AF0E1F05A
:1041700088234AF0EE0FFF1FBB1F661F771F881FA3
:1041800091505040A9F79E3F510570F030CF9FCF1E
:104190005F3FECF3983EDCF3869577956795B7958E
:1041A000F795E7959F5FC1F7FE2B880F911D9695B8
:1041B000879597F908959F3F31F0915020F48795A6
:1041C00077956795B795880F911D9695879597F97F
:1041D0000895A3E1B0E0EFEEF0E20C941A267C0122
:1041E0001B016A01FC0117821682838181FF66C36D
:1041F000BE016F5F7F4F4B01F7019381F10193FD8A
:10420000859193FF81911F01882309F453C385325F
:1042100039F493FD859193FF81911F01853239F423
:10422000B70190E00E94E72856016501E5CF10E054
:10423000512C20E02032A0F48B3269F030F480322F
:1042400059F0833269F420612CC08D3239F080330B
:1042500039F4216026C02260246023C0286021C078
:1042600027FD27C030ED380F3A3078F426FF06C01E
:10427000FAE01F9F300D1124132F13C06AE0569EE1
:10428000300D1124532E20620CC08E3221F426FDF5
:1042900011C3206406C08C3611F4206802C0883631
:1042A00041F4F10193FD859193FF81911F018111EB
:1042B000C1CF9BEB980F933018F42061805E06C04D
:1042C0009BE9980F933008F0AAC12F7E26FF16E0D5
:1042D0002F73722E853621F4F22FF0647F2E08C0E2
:1042E000863621F4622F6068762E02C011111150BB
:1042F00077FE07C01C3348F444244394410E27E062
:104300000BC0183030F4212F06C027E04CE3442EB8
:1043100003C027E017E0412C560174E0A70EB11C42
:10432000F6016081718182819381042DA4010E9434
:10433000F9276C01098100FF02C003FF06C071FC70
:1043400007C072FC08C0612C08C03DE2632E05C0A6
:104350002BE2622E02C090E2692E802F8C7099F1C0
:10436000662011F084E001C083E0851510F0512C27
:104370000BC0581A73FC08C0B70180E290E00E949D
:10438000E7285A94C9F7F3CF662029F0B701862DA4
:1043900090E00E94E72803FD03C003E615E002C099
:1043A0000FE515E0F72DF0717F2EF8018491882339
:1043B00009F476C271108052B70190E00E94E7289C
:1043C0000F5F1F4FF2CF77FE0FC04C0C04FF04C0ED
:1043D0008A81813309F44A94141474F5F8E0F415D1
:1043E00078F588E0482E2CC076FC2AC0812F90E01A
:1043F0008C159D059CF06CEFC6166FEFD60674F019
:10440000772D7068772E0AC0E2E0F0E0EC0FFD1F18
:10441000E10FF11D8081803319F411501111F4CF97
:1044200077FE0EC044244394410E812F90E0C816BD
:10443000D9062CF41C1904C04424439401C010E094
:1044400077FE07C01C141D043CF496012F5F3F4FFC
:1044500005C025E030E002C021E030E0662011F028
:104460002F5F3F4F112331F0412F50E04F5F5F4FDF
:10447000240F351F452D50E02417350714F4521A28
:1044800001C0512C872D897049F4552039F0B701AE
:1044900080E290E00E94E7285A94F7CF662029F046
:1044A000B701862D90E00E94E72873FC09C05520D3
:1044B00039F0B70180E390E00E94E7285A94F7CFE3
:1044C00077FE5FC09C2D8D2DD7FE02C090E080E06E
:1044D000692E782E40E050E0C601841991099D872D
:1044E0008C87960126193709280D391D812F90E0F8
:1044F000EE27FF27E81BF90BFF87EE87FFEF6F160C
:104500007F0669F4B7018EE290E02B8B3A8B488BE3
:10451000598B0E94E728598948893A892B89C61402
:10452000D70454F06C857D85661577052CF4F90168
:10453000E40FF51F818101C080E371E0671A710803
:104540004F5F5F4FEE85FF856E167F066CF0B701FB
:1045500090E02B8B3A8B488B598B0E94E7282B8954
:104560003A8948895989CACF6C147D0439F49A81F3
:10457000963318F4953311F404FF81E3B70190E00A
:104580004BC08A81813309F00F7EB70190E00E9411
:10459000E728111105C074FE18C085E490E017C02B
:1045A000B7018EE290E00E94E72882E066246394DF
:1045B000680EF401E80FF11D8081B70190E00E94C0
:1045C000E728115041F3862DF1CF85E690E0B70141
:1045D0000E94E728D7FC05C0C114D10439F404FFB8
:1045E00005C0D194C194D1088DE201C08BE2B7011E
:1045F00090E00E94E72880E36AE0C616D1042CF020
:104600008F5FFAE0CF1AD108F7CFB70190E00E9490
:10461000E728B701C601C0960E94E72841C183364A
:1046200031F0833779F0833509F058C021C0560145
:1046300072E0A70EB11CF6018081898301E010E0D1
:10464000640114C05601F2E0AF0EB11CF601C08047
:10465000D18026FF03C0612F70E002C06FEF7FEFB3
:10466000C6012B8B0E94DC288C012B892F7715C06B
:104670005601F2E0AF0EB11CF601C080D18026FFDA
:1046800003C0612F70E002C06FEF7FEFC6012B8B7C
:104690000E94D1288C012B892068722E23FD1AC01C
:1046A000852D90E008171907A8F4B70180E290E083
:1046B0000E94E7285A94F4CFF60177FC859177FEA3
:1046C00081916F01B70190E00E94E72851105A9440
:1046D000015011090115110579F7E2C0843611F076
:1046E000893651F5560127FF09C0F4E0AF0EB11C21
:1046F000F60160817181828193810AC0F2E0AF0E80
:10470000B11CF60160817181882777FD8095982F13
:10471000022F0F7697FF08C0909580957095619550
:104720007F4F8F4F9F4F00682AE030E0A4010E9426
:104730005A29C82EC8183EC0022F853721F40F7E93
:104740002AE030E01DC0097F8F3691F018F48835DB
:1047500059F0B0C0803719F0883711F0ABC0006154
:1047600004FF09C0046007C024FF08C0066006C03B
:1047700028E030E005C020E130E002C020E132E076
:10478000560107FF09C0F4E0AF0EB11CF6016081CD
:1047900071818281938108C0F2E0AF0EB11CF601F5
:1047A0006081718180E090E0A4010E945A29C82EA6
:1047B000C8180F7706FF0BC0202F2E7FC11650F4AC
:1047C00004FF0AC002FD08C0202F2E7E05C0DC2C8D
:1047D000202F03C0DC2C01C0D12E24FF0DC0FE0110
:1047E000EC0DF11D8081803311F4297E09C022FF78
:1047F00006C0D394D39404C0822F867809F0D39452
:1048000023FD13C020FF06C01C2DD51418F4150D70
:104810001D19D52CD51468F4B70180E290E02B8BDC
:104820000E94E728D3942B89F5CFD51410F45D1896
:1048300001C0512C24FF12C0B70180E390E02B8B04
:104840000E94E7282B8922FF17C021FF03C088E5BB
:1048500090E002C088E790E0B7010CC0822F867814
:1048600059F021FD02C080E201C08BE227FD8DE2FC
:10487000B70190E00E94E728C11638F4B70180E341
:1048800090E00E94E7281150F7CFCA94F401EC0D94
:10489000F11D8081B70190E00E94E728C110F5CF9B
:1048A000552009F4C2CCB70180E290E00E94E728CD
:1048B0005A94F6CFF7018681978102C08FEF9FEF60
:1048C0006396E2E10C943626E7DBA8F19E57A8F147
:1048D000985160F039F1983070F5092E9927660FDC
:1048E000771F881F991F0A94D1F71CC0BB27993FD7
:1048F0004CF4B111B1E0B62B672F782F8827985F61
:10490000B1F708C0869577956795B79508F4B160BB
:104910009395C1F7BB0F30F411F460FF03C06F5FD4
:104920007F4F8F4F3EF490958095709561957F4FA6
:104930008F4F9F4F08956894CACBC8CBFA01EE0FF2
:10494000FF1F30962105310599F16115710561F45C
:104950008038BFE39B0749F168949038810561F086
:104960008038BFEF9B0741F0992342F5FF3FE105F7
:104970003105210511F1E8940894E795D901AA239E
:1049800029F4AB2FBE2FF85FD0F310C0FF5F70F497
:10499000A695E0F7F73950F019F0FF3A38F49F7711
:1049A0009F930CD00F9007FC905808953EF025CBB4
:1049B00060E070E080E89FE308954FE79F775F93A2
:1049C0004F933F932F9372D02F913F914F915F91CF
:1049D0008FDB05C019F40EF00ACB78CB0ECB5CDB75
:1049E000C8F39638C0F707F80F92E8942BE33AEA39
:1049F00048EB5FE78BDB0F920F920F924DB75EB7DC
:104A00000F9294D0E8ECF0E0FBDA4F915F91EF91D8
:104A1000FF91E595EE1FFF1F49F0FE57E068442720
:104A2000EE0F441FFA95E1F74195550B06D00F9014
:104A300007FE57CB0895DBCABECB2EDBE8F39923E4
:104A4000D9F3940F511DBBF39150504094F059F09D
:104A5000882332F0660F771F881F91505040C1F7AE
:104A60009E3F510544F7880F911D9695879597F9BC
:104A700008955F3FACF0983E9CF0BB2786957795F4
:104A80006795B79508F4B1609395C1F7BB0F58F7D8
:104A900011F460FFE8CF6F5F7F4F8F4F9F4FE3CFE1
:104AA00016CB0EF088CBA9CA6894A1CAF5DAC8F370
:104AB0009923D1F3C6F3DF93CF931F930F93FF9204
:104AC000C92FDD2788232AF02197660F771F881FBB
:104AD000DAF720E030E040E85FEB9FE3883920F030
:104AE000803E30F021968F7720D9E0EFF0E003C0D0
:104AF0001CD9EDE1F1E084DA8B01BE01EC01FB2E63
:104B00006F5771097595771F880B990B11DA28E19A
:104B100032E741E35FE3F8DAAF2D9801AE01FF9091
:104B20000F911F91CF91DF9111D99DCAFA01DC013C
:104B3000AA0FBB1F9B01AC01BF5728F422273327C4
:104B4000442750781FC0B75188F4AB2F00244695F6
:104B500037952795011CA395D2F3002069F0220F09
:104B6000331F441FB395DAF30DD0DEC861307105F1
:104B7000A0E88A07B94630F49B01AC016627772785
:104B800088279078309621F02083318342835383A5
:104B90000895DB018F939F930E940F26BF91AF91E1
:104BA000A29F800D911DA39F900DB29F900D112487
:104BB000089597FB072E16F4009407D077FD09D0CF
:104BC0000E94512607FC05D03EF4909581959F4F99
:104BD0000895709561957F4F0895A1E21A2EAA1B42
:104BE000BB1BFD010DC0AA1FBB1FEE1FFF1FA2179D
:104BF000B307E407F50720F0A21BB30BE40BF50B9A
:104C0000661F771F881F991F1A9469F76095709522
:104C1000809590959B01AC01BD01CF0108950E9444
:104C20006526A59F900DB49F900DA49F800D911DAA
:104C3000112408952F923F924F925F926F927F922C
:104C40008F929F92AF92BF92CF92DF92EF92FF929C
:104C50000F931F93CF93DF93CDB7DEB7CA1BDB0B48
:104C60000FB6F894DEBF0FBECDBF09942A883988ED
:104C700048885F846E847D848C849B84AA84B984F4
:104C8000C884DF80EE80FD800C811B81AA81B98100
:104C9000CE0FD11D0FB6F894DEBF0FBECDBFED0114
:104CA0000895AA1BBB1B51E107C0AA1FBB1FA61773
:104CB000B70710F0A61BB70B881F991F5A95A9F7C5
:104CC00080959095BC01CD010895A29FB001B39F3E
:104CD000C001A39F700D811D1124911DB29F700D05
:104CE000811D1124911D0895CF93DF93823091058A
:104CF00010F482E090E0E0914A04F0914B0420E04F
:104D000030E0A0E0B0E0309739F1408151814817A0
:104D10005907B8F04817590771F4828193811097A9
:104D200029F013969C938E9312972CC090934B046A
:104D300080934A0427C02115310531F042175307EB
:104D400018F0A901DB0101C0EF019A01BD01DF01EB
:104D50000280F381E02DD7CF21153105F9F0281B12
:104D6000390B2430310580F48A819B8161157105EE
:104D700021F0FB019383828304C090934B048093C2
:104D80004A04FE01329644C0FE01E20FF31F8193F4
:104D9000919322503109398328833AC020914804E5
:104DA00030914904232B41F420911F0130912001BF
:104DB000309349042093480420911D0130911E0135
:104DC0002115310541F42DB73EB740912101509195
:104DD0002201241B350BE0914804F0914904E217AD
:104DE000F307A0F42E1B3F0B2817390778F0AC010E
:104DF0004E5F5F4F2417350748F04E0F5F1F5093EB
:104E00004904409348048193919302C0E0E0F0E0AC
:104E1000CF01DF91CF910895CF93DF93009709F4ED
:104E200087C0FC01329713821282C0914A04D0914C
:104E30004B04209781F420813181280F391F809104
:104E40004804909149048217930779F5F093490437
:104E5000E09348046DC0DE0120E030E0AE17BF07EC
:104E600050F412964D915C9113979D014115510597
:104E700009F1DA01F3CFB383A28340815181840F1A
:104E8000951F8A179B0771F48D919C911197840F40
:104E9000951F02969183808312968D919C91139712
:104EA000938382832115310529F4F0934B04E09319
:104EB0004A043EC0D9011396FC93EE9312974D918C
:104EC0005D91A40FB51FEA17FB0779F480819181EA
:104ED000840F951F0296D90111969C938E9382811F
:104EE000938113969C938E931297E0E0F0E08A8171
:104EF0009B81009719F0FE01EC01F9CFCE010296DB
:104F000028813981820F931F2091480430914904F0
:104F10002817390769F4309729F410924B0410923E
:104F20004A0402C013821282D0934904C0934804F9
:104F3000DF91CF9108958F929F92AF92BF92CF92BF
:104F4000DF92EF92FF92CF93DF93EC01688179813A
:104F50008A819B81611571058105910521F464E2C7
:104F600079ED8BE597E02DE133EF41E050E00E94D1
:104F7000B82949015A019B01AC01A7EAB1E40E949A
:104F80000F266B017C01ACEEB4EFA50194010E94E9
:104F9000DA29C60ED71EE81EF91EF7FE06C081E00C
:104FA000C81AD108E10880E8F80AC882D982EA82E2
:104FB000FB82C6019F77DF91CF91FF90EF90DF904A
:104FC000CF90BF90AF909F908F9008950E949B27A5
:104FD000089583E291E00E949B270895A0E0B0E04D
:104FE0008093230190932401A0932501B09326017F
:104FF0000895283008F027E03327DA01990F311D92
:1050000087FD916000966105710539F432602E5F6D
:105010003D9330E32A95E1F708959F3F30F08038C3
:105020007105610509F03C5F3C5F3D93913008F0EC
:105030008068911DDF93CF931F930F93FF92EF92A0
:10504000192F987F9695E92F96959695E90FFF274A
:10505000EF53FA4F99273327EE24FF24A701E701E6
:1050600005900894079428F4360FE71EF81E491F90
:10507000511D660F771F881F991F0694A1F7059091
:10508000079428F4E70EF81E491F561FC11D770F1D
:10509000881F991F661F0694A1F70590079428F4AE
:1050A000F80E491F561FC71FD11D880F991F661F75
:1050B000771F0694A1F70590079420F4490F561F17
:1050C000C71FD81F990F661F771F881F0694A9F75F
:1050D00084911095177041F0D695C79557954795CF
:1050E000F794E7941A95C1F7E7E6F5E06894159010
:1050F000159135916591959105907FE27395E11831
:10510000F10A430B560BC90BD009C0F7E10CF11E95
:10511000431F561FC91FD01D7EF4703311F48A95AA
:10512000E6CFE894015030F0080F0AF40027021788
:1051300008F4202F2395022F7A3328F079E37D930A
:105140002A95E9F710C07D932A9589F606949795DC
:105150006795379517951794E118F10A430B560B8D
:10516000C90BD00998F023957E9173957A3308F096
:1051700070E37C932013B8F77E9170617D9330F0DB
:10518000839571E37D9370E32A95E1F71124EF9005
:10519000FF900F911F91CF91DF91992787FD9095F7
:1051A0000895FC010590615070400110D8F780957A
:1051B00090958E0F9F1F0895FC01615070400190E3
:1051C0000110D8F7809590958E0F9F1F08950F932B
:1051D0001F93CF93DF93182F092FEB018B8181FD54
:1051E00003C08FEF9FEF20C082FF10C04E815F8110
:1051F0002C813D81421753077CF4E881F9819F019E
:105200002F5F3F4F39832883108306C0E885F985D7
:10521000812F0995892B29F72E813F812F5F3F4FE1
:105220003F832E83812F902FDF91CF911F910F917C
:105230000895A0E0B0E0EFE1F9E20C942A26FE0127
:10524000359661917191AF0180914E0490914F0418
:105250000E94E920E2E00C9446260F931F93CF931F
:10526000DF93E0914E04F0914F04238121FF1BC096
:10527000EC0100E010E0899160914E0470914F04C0
:10528000DB011896ED91FC911997882331F009956F
:10529000892B89F30FEF1FEFEECF8AE00995892B59
:1052A00011F4C80102C08FEF9FEFDF91CF911F91E2
:1052B0000F910895FA01AA27283051F1203181F188
:1052C000E8946F936E7F6E5F7F4F8F4F9F4FAF4F0E
:1052D000B1E03ED0B4E03CD0670F781F891F9A1F21
:1052E000A11D680F791F8A1F911DA11D6A0F711DD5
:1052F000811D911DA11D20D009F468943F912AE0E1
:10530000269F11243019305D3193DEF6CF010895C8
:10531000462F4770405D4193B3E00FD0C9F7F6CFF9
:10532000462F4F70405D4A3318F0495D31FD4052C1
:10533000419302D0A9F7EACFB4E0A6959795879557
:1053400077956795BA95C9F7009761057105089536
:105350009B01AC010A2E06945795479537952795E2
:10536000BA95C9F7620F731F841F951FA01D08957A
:10537000052E97FB1EF400940E94CF2957FD07D0FD
:105380000E94ED2507FC03D04EF40C94CF295095D4
:105390004095309521953F4F4F4F5F4F0895909521
:1053A0008095709561957F4F8F4F9F4F0895B7FF00
:1053B0000C940F260E940F26821B930B0895F894DD
:0253C000FFCF1D
:1053C2001F180C0410C080206001010110080400A5
:1053D20000000200000000580D0000000000005212
:1053E200042000010000004D6F76696E6720466F51
:1053F20072776172642E2E2E004D6F76696E672071
:105402004261636B776172642E2E2E004861726472
:105412002052696768742E2E2E0048617264204CF7
:105422006566742E2E2E00536F667420466F727757
:105432006172642052696768742E2E2E00536F6663
:105442007420466F7277617264204C6566742E2EEA
:105452002E00536F6674204261636B776172642021
:1054620052696768742E2E2E00536F667420426153
:10547200636B77617264204C6566742E2E2E000A6F
:105482004572726F72207768656E206F70656E6903
:105492006E6720535445505045522073756273799C
:1054A2007374656D210053696465206F6273746162
:1054B200636C652064657465637465642E0046726E
:1054C2006F6E74206F62737461636C6520646574BF
:1054D20065637465642E00256600526967687420EE
:1054E200466F6C6C6F7700496E7369646520546116
:1054F200726765740052616E6765004F75747369F7
:10550200646520546172676574004174205461724D
:105512006765740057616C6C20696E2046726F6E0D
:1055220074005475726E696E67204C656674004C27
:1055320061636B206F662057616C6C005475726EEC
:10554200696E67205269676874004C65667420460C
:105552006F6C6C6F770043656E74657220466F6C7A
:105562006C6F77004C656674206F660043656E74DD
:105572006572005269676874206F6600492073681B
:10558200616C6C0066656172206E6F006576696C95
:105592000053657474696E672075702E2E2E004557
:1055A20072726F72207768656E206F70656E696EB9
:1055B2006720415454494E5921000A526561647969
:1055C20021005357333A2057616C6C20466F6C6C44
:1055D2006F77005357343A2041766F6964466F6C97
:1055E2006C6F77005357353A2054617267657420A7
:1055F200466F6C6C6F7700466F72776172642C0035
:105602000A7468656E20466F6C6C6F770052616E2B
:0E561200646F6D0057616E6465726572000012
:00000001FF
