:100000000C9457030C9474030C9474030C947403B1
:100010000C94BE0C0C94E70C0C94100D0C94390D40
:100020000C9474030C949F0B0C94C80B0C94F10B60
:100030000C946C0C0C941A0C0C94430C0C94950CB2
:100040000C94240B0C944D0B0C94760B0C947403B1
:100050000C9474030C9474030C9474030C94740344
:100060000C9474030C9474030C9474030C94740334
:100070000C9474030C9474030C947403084AD73BD7
:100080003BCE016E84BCBFFDC12F3D6C74319ABD67
:1000900056833DDA3D00C77F11BED9E4BB4C3E918B
:1000A0006BAAAABE000000803F05A84CCDB2D44E7A
:1000B000B93836A9020C50B9918688083CA6AAAA7C
:1000C0002ABE000000803F008D099009930996091F
:1000D0009F0999099C09A209A509A809AB09AE09BC
:1000E000B109B409B709BA09BD09C009C309D409DE
:1000F000D709DA09DD09E609E009E309E909EC09AC
:10010000EF09F209F509F809FB09FE09010A040AD9
:10011000070A0A0A07634236B79BD8A71A396856F6
:1001200018AEBAAB558C1D3CB7CC5763BD6DEDFD19
:10013000753EF6177231BF000000803F08000000D6
:10014000BE922449123EABAAAA2ABECDCCCC4C3ECC
:1001500000000080BEABAAAAAA3E00000000BF00BB
:100160000000803F0000000000084178D3BB4387B7
:10017000D1133D190E3CC3BD4282AD2B3E68EC82CB
:1001800076BED98FE1A93E4C80EFFFBE01C4FF7F50
:100190003F00000000001605010000000000000004
:1001A000FA000000E000E00028FE28FE282454FEAB
:1001B0005448C4C81026466C92AA44A000A0C000AF
:1001C000000038448200008244380028107C102847
:1001D00010107C1010000A0C0000101010101000FD
:1001E0000606000004081020407C8A92A27C00428F
:1001F000FE020042868A92628482A2D28C1828482B
:10020000FE08E4A2A2A29C3C5292920C808E90A086
:10021000C06C9292926C6092929478006C6C000028
:10022000006A6C0000102844820028282828280032
:100230008244281040808A90604C929E827C7E8806
:1002400088887EFE9292926C7C82828244FE8282B8
:100250004438FE92929282FE909090807C8292929C
:100260005EFE101010FE0082FE8200040282FC80FE
:10027000FE10284482FE02020202FE403040FEFED2
:10028000201008FE7C8282827CFE909090607C82AE
:100290008A847AFE90989462629292928C8080FE18
:1002A0008080FC020202FCF8040204F8FC021C023A
:1002B000FCC6281028C6E0100E10E0868A92A2C262
:1002C00000FE8282004020100804008282FE00208E
:1002D0004080402002020202020080402000042AE6
:1002E0002A2A1EFE1222221C1C222222041C222246
:1002F00012FE1C2A2A2A18107E908040304A4A4A50
:100300007CFE1020201E0022BE0200040222BC003F
:10031000FE081422000082FE02003E2018201E3E2D
:100320001020201E1C2222221C3E282828101028C3
:1003300028183E3E10202010122A2A2A0420FC22CF
:1003400002043C0202043E38040204383C020C025F
:100350003C2214081422300A0A0A3C22262A32229D
:1003600000106C82000000FE000000826C1000088B
:100370001010081000000000007F8181817F7F83C2
:1003800083837F7F8787877F7F8F8F8F7F7F9F9FED
:100390009F7F7FBFBFBF7F7FFFFFFF7F2040FF406A
:1003A00020621517156500FBFB000000000000002F
:1003B000C0FF0300E0FF0700F0FF0F00F8FF1F0081
:1003C00078001E0078001E0078001E0078001E00D5
:1003D00078001E0078001E0078001E0078001E00C5
:1003E00078001E00000000000000000080FF0300F5
:1003F000E0FF0700F0FF0F00F8FF1F00F83C1F00B0
:10040000783C1E00783C1E00783C1E00783C1E00A4
:10041000783C1E00783C1E00783C1E00783C1E0094
:10042000783C1E00783C1E00000000000000000028
:10043000E0FF0300F0FF0700F8FF0F00F8FF1F00C8
:10044000783C1E00783C1E00783C1E00783C1E0064
:10045000783C1E00783C1E00783C1E00783C1E0054
:10046000783C1E00783C1E000000000000000000E8
:10047000F8FF0300F8FF0F00F8FF1F00F8FF1F0050
:1004800000001E0000001E0000801F0000F01F0082
:1004900000FF0F00E0FF0700F0FF0000F80F000072
:1004A000F80000007800000078000000F8FF1F004E
:1004B000F8FF1F00F0FF1F00E0FF1F00000000001A
:1004C00000000000F8FF1F00F8FF1F00F8FF1F00EA
:1004D000F8FF1F0078001E00783C1E00783C1E00CC
:1004E000783C1E00783C1E00783C1E00783C1E00C4
:1004F000F87E1F00F8FF1F00F0FF0F00E0E7030089
:100500000000000000003800EEFF6C002A8045006B
:100510003A0047FC03FF6CFC83FF3900DEFF0B7CD5
:10052000D0810BFCD0810BC0D0810BFCD0810B7C27
:10053000DEFF0B0082FF397002FF6CF83A0047DCE7
:100540002A8045CCEEFF6CCC000038000000000C87
:1005500000001E0C00001E0000001E0000001E0017
:1005600000001E00F8FF1F00F8FF1F00F8FF1F002B
:10057000F8FF1F0000001E0000001E0000001E000B
:1005800000001E0000005E000000400000007C0033
:10059000000040000000400000007C00000030002F
:1005A000000010000000300000007C6E616E0069E9
:1005B0006E660000407A10F35A00A0724E180900CF
:1005C00010A5D4E80000E87648170000E40B5402B8
:1005D0000000CA9A3B000000E1F5050000809698F3
:1005E00000000040420F000000A086010000001043
:1005F0002700000000E80300000000640000000085
:10060000000A00000000000100000000002C76D865
:1006100088DC674F0823DFC1DFAE59E1B1B796E54B
:10062000E3E453C63AE651997696E8E6C28426EBAF
:10063000898C9B62ED407C6FFCEFBC9C9F40F2BAC2
:10064000A56FA5F490055A2AF75C936B6CF9676D5A
:10065000C11BFCE0E40D47FEF520E6B500D0ED90AF
:100660002E0300943577050080841E080000204E7C
:100670000A000000C80C333333330F986E12831115
:1006800041EF8D2114893BE65516CFFEE6DB18D1EC
:10069000844B381BF77C1D901DA4BBE424203284BE
:1006A000725E228100C9F124ECA1E53D27001124EE
:1006B0001FBECFEFD8E0DEBFCDBF13E0A0E0B1E0BA
:1006C000EAE1FEE602C005900D92AA3AB107D9F719
:1006D00024E0AAEAB3E001C01D92AE39B207E1F707
:1006E0000E94E3030C940B370C9400008FE00E94EF
:1006F0007E09882331F40E94090B8FE061E00E949B
:10070000C6098FE091E008958FE00E947E09813054
:1007100019F020E030E013C080917A00806480936B
:100720007A0080917A0086FDFCCF3091780020918C
:100730007900922F80E0232F30E0282B392BC9013C
:100740000895582F809100018830D8F440917E00A0
:1007500021E030E0B90102C0660F771F8A95E2F709
:10076000CB018095842380937E0080917E00052EAE
:1007700002C0220F331F0A94E2F7822B80937E007F
:100780000DC020917E0081E090E0052E02C0880F10
:10079000991F0A94E2F7282B20937E0050930001C2
:1007A00080917C005F71807E852B80937C00089512
:1007B000ECE7F0E090818295880F880F807C9F7332
:1007C000982B908308950E94220B0E94140B0E9484
:1007D000772880E090E008950F931F9380E460E015
:1007E0000E94CB0400E0802F60E00E94B20410E081
:1007F00080E061E00E94CB041F5F1038C9F70F5FF3
:10080000043089F783E060E00E94AB041F910F91F0
:1008100008950F931F9382E00E947E09882311F4AC
:1008200082E006C081E00E947E09882319F481E0FD
:1008300090E06DC00E948A0D85E061E00E94C609CB
:100840008EEA60E00E94CB0482EA60E00E94CB0462
:1008500080EA60E00E94CB0400E513ECC801019738
:10086000F1F780EC60E00E94CB048FE260E00E9430
:10087000CB0481E860E00E94CB0486E160E00E9446
:10088000CB0482E260E00E94CB04C8010197F1F73B
:100890008FEA60E00E94CB0486EA60E00E94CB040D
:1008A00085EA60E00E94CB0480E090E028E833E134
:1008B000F9013197F1F7019643E0883E9407C1F7BB
:1008C00083EB60E00E94CB0480E460E00E94CB04F4
:1008D00083E060E00E94B20483E060E00E94AB0429
:1008E00010926F0410927104109270048FE091E0E6
:1008F00090939B0480939A0488E10E948A040E944A
:10090000EC0384EA60E00E94CB0485E091E01F9153
:100910000F9108951F93182F85E00E947E09813062
:10092000C1F487E00E94E60482E06AE00E94370595
:1009300082E061EB0E943705612F113208F060E21E
:1009400082E00E94370589EE8A95F1F787E00E94E0
:10095000E6041F91089583706F7760936D04809310
:100960006E0408950F931F93062F162F1F77837021
:10097000806B60E00E94CB0412951F70812F806114
:1009800060E00E94CB04802F8F7060E00E94CB0457
:100990001F910F9108950F931F93082F162F85E035
:1009A0000E947E09813079F4112319F0113021F46D
:1009B00002C02B9801C02B9A86E08A95F1F780E05F
:1009C000602F0E9437051F910F9108951F93182FD4
:1009D00082E00E947E09813009F047C0912F977014
:1009E00080917204981709F440C09093720485B105
:1009F000887F892B85B9933011F1943028F4913098
:100A000051F0923090F40CC0953019F19530E0F02F
:100A1000963021F50FC0E091FC03F091FD0322C058
:100A2000E091FA03F091FB031DC0E091FE03F09109
:100A3000FF0318C0E0910604F091070413C0E09191
:100A40000004F09101040EC0E0910204F09103044F
:100A500009C0E0910404F091050404C0E091080489
:100A6000F0910904309709F009951F9108951F939B
:100A7000162F0E94E60482E00E947E09813021F454
:100A80001EBD0DB407FEFDCF1F9108950F931F9358
:100A9000CF93DF9380E291E00E94A0339C0190937A
:100AA000190480931804892B11F480E039C089015E
:100AB000C0E0D0E0BE0180E090E00E946F2C20E01A
:100AC00030E040EA51E40E94D62B27EF35E740E0C2
:100AD0005FE30E948A2D9B01AC0160E070E080E240
:100AE00091E40E94CA319B01AC01CA01B9012DEC0D
:100AF0003CEC42E851E40E948A2D0E9490312AE0A9
:100B000030E040E050E00E94F532F80161937193CB
:100B1000819391938F012196C834D10559F681E0D4
:100B2000DF91CF911F910F9108958AE00E947E0975
:100B3000882371F4109215041092140481E00E942D
:100B4000740F81E080930B048AE061E00E94C60983
:100B50008AE091E008951F938BE00E947E0988232C
:100B600011F090E021C089E00E947E098823D9F429
:100B70000E944605182F8130B1F410920C04109297
:100B80000D0410920E0410920F048DE060EE7EE0D2
:100B90000E94620D82E00E94740F10930A0489E0A3
:100BA00061E00E94C60991E089E01F9108958130BB
:100BB00029F0823031F090E089E008950E94950597
:100BC00008950E94AB0508958F929F92AF92BF92B5
:100BD000CF92DF92EF92FF920F931F93CF93DF9309
:100BE0004B015C01EA01B9012115310539F19E0182
:100BF000442737FD4095542F6536710510F064E6A3
:100C000070E080E090E00E94F53224E630E040E0C1
:100C100050E00E94193379018A01C501B4010E9494
:100C2000E30EC7010E94AA0A60E070E080E090E055
:100C30000E94E30ECE018E199F0904C04115510593
:100C400019F0CA010E94AA0ADF91CF911F910F915A
:100C5000FF90EF90DF90CF90BF90AF909F908F90DC
:100C6000089587E00E947E09813041F48093570403
:100C70000E94A40F87E060E00E94C60908952F92A9
:100C80003F924F925F926F927F928F929F92AF921C
:100C9000BF92CF92DF92EF92FF920F931F93DF9359
:100CA000CF93CDB7DEB7582E962E442E39013C2C6B
:100CB000C98CDA8C2B8C81E0681739F1681728F021
:100CC00092E0691709F085C049C080E061E00E94A8
:100CD000480880E0B7010E94110880E0642DA3015C
:100CE0009801032DEE24E394E8E5CE2EE4E0DE2E19
:100CF0000E947F08552009F06CC000D00F92EDB71C
:100D0000FEB71182B382A28223C081E061E00E941B
:100D1000480881E0B6010E94110881E0682D4D89E4
:100D20005E892F89388D022DEE24E39478E5C72E55
:100D300074E0D72E0E947F08552009F04AC000D0E9
:100D40000F92EDB7FEB791828C8D9D8D9383828338
:100D50000E9430090F900F900F903BC082E061E03D
:100D60000E94480880E0B7010E94110881E0B601A6
:100D70000E94110880E0642DA3019801032DEE2448
:100D8000E39498E5C92E94E0D92E0E947F0881E073
:100D9000682D4D895E892F89388D022D0E947F082C
:100DA0005520B9F400D000D00F92ADB7BEB7119660
:100DB000EDB7FEB79182FD01B282A1828C8D9D8D2F
:100DC000948383830E9430090F900F900F900F90AF
:100DD0000F90CF91DF911F910F91FF90EF90DF90D7
:100DE000CF90BF90AF909F908F907F906F905F90CB
:100DF0004F903F902F9008956F927F928F929F9285
:100E0000AF92BF92CF92DF92EF92FF920F931F9318
:100E1000DF93CF93CDB7DEB7942E7C2DD5014989D2
:100E20005A89AB88BC88CD88DE889F89813009F4D7
:100E300057C08130B8F1823009F076C0613091F04E
:100E4000613020F0623009F06FC015C080E060E0D2
:100E50000E94480880E0B7010E94110880E0692DD7
:100E6000A8011DC081E060E00E94480881E0B60151
:100E70000E94110811C082E060E00E94480880E0F2
:100E8000B7010E94110881E0B6010E94110880E0BC
:100E9000692DA8010E94FA0781E0682DA5010E9432
:100EA000FA0742C0EDB7FEB739970FB6F894FEBF08
:100EB0000FBEEDBF6DB67EB60894611C711C5283E7
:100EC0004183F301B382A282D582C4829683888D46
:100ED000998D9087878380E0492DC72E5D011AC0C8
:100EE000EDB7FEB739970FB6F894FEBF0FBEEDBF52
:100EF000ADB7BEB7119652834183FD01B382A28282
:100F0000D582C48296831086178281E0492DC72E30
:100F1000AA24BB240E943F068DB79EB709960FB640
:100F2000F8949EBF0FBE8DBFCF91DF911F910F919F
:100F3000FF90EF90DF90CF90BF90AF909F908F90F9
:100F40007F906F9008950E94C30F81E080935704B3
:100F5000E1E2F4E011921192118210823296118234
:100F6000108232961182108232961182108232964D
:100F70001182108232961182108232961182108272
:100F8000329611821082329611821082329611822C
:100F90001082329611821082329611821082369619
:100FA0001192119211921082329611921192119215
:100FB0001192119211921192118210823296118225
:100FC00010823296118210823296118210827697A8
:100FD0001182108232961182108210925604109261
:100FE00055041092570487E061E00E94C60987E02B
:100FF00091E00895EF92FF920F931F93182F062F01
:101000007A0160E00E944808812F602F0E94330817
:10101000812FB7010E945D081F910F91FF90EF9003
:101020000895482F81E080935704CB0123E0693E67
:10103000720710F088EE93E0413071F0413018F003
:10104000423071F405C090932C0480932B0408C0A7
:1010500090932C0480932B0490932E0480932D0462
:10106000109257040895982F81E08093570491308F
:1010700051F0913018F0923041F403C06093440471
:1010800004C060934404609345041092570408958B
:10109000982F81E080935704913051F0913018F0EF
:1010A000923041F403C06093210404C06093210492
:1010B00060932204109257040895482F81E0809392
:1010C0005704CB0121E06139720710F080E991E00B
:1010D000413071F0413018F0423071F405C0909306
:1010E00024048093230408C0909324048093230451
:1010F00090932604809325041092570408958F92AC
:101100009F92AF92BF92CF92DF92EF92FF920F9396
:101110001F93CF93DF93182FF62E5A014901E60152
:1011200061E00E944808812FB501A4010E94FD0FD3
:10113000812F6F2D0E943308812F602F0E94E80FAE
:10114000812FB5010E94CD0FC114D10499F0113047
:1011500049F0113018F0123069F406C0188210926C
:10116000530408C0198204C01882198210925304D3
:1011700010925404D0935604C0935504EE20B9F550
:101180008AEA93E09093560480935504812FB4012A
:101190000E945D08812F0E94AE0F113071F0113056
:1011A00018F0123059F512C01092AA03109253048D
:1011B0008091AA038823E1F321C01092AB0310921F
:1011C00054048091AB038823E1F318C01092AA0362
:1011D0001092AB0310925304109254048091AA030E
:1011E0008823E1F38091AB038823C1F307C0812FEB
:1011F000B4010E945D08812F0E94AE0FDF91CF9154
:101200001F910F91FF90EF90DF90CF90BF90AF9024
:101210009F908F9008950F931F93182F062F66238A
:1012200049F460E070E00E945D08812F60E070E0AA
:101230000E94CD0F81E080935704113051F011309E
:1012400018F0123041F403C000933F0404C000932F
:101250003F0400934004109257041F910F9108958A
:10126000CF92DF92EF92FF920F931F93DF93CF9372
:10127000CDB7DEB78B85813061F0813018F08230D8
:10128000A1F511C0EC85FD85809158048823E1F318
:1012900006C0EC85FD85809159048823E1F33097E1
:1012A00021F1099522C0CC84DD84EE84FF8400E026
:1012B00010E0002351F480915804882331F0C114C8
:1012C000D10411F0F601099501E0112351F4809148
:1012D0005904882331F0E114F10411F0F701099564
:1012E00011E0002331F3112321F3CF91DF911F91FE
:1012F0000F91FF90EF90DF90CF900895E82FF0E0EE
:10130000E331F10540F4EC59FF4FEE0FFF1F05905C
:10131000F491E02D099480E0089580915A04089595
:1013200080915B04089580915C04089580915D0430
:10133000089580915E0408958091600408958091DD
:101340005F04089580916104089580916204089576
:1013500080916304089580916404089580916504E8
:10136000089580916604089580916704089580919E
:101370006804089580916904089580916A0408952D
:1013800080916B04089580916C040895E82FF0E03B
:10139000E331F10508F040C0E958FF4FEE0FFF1FA1
:1013A0000590F491E02D099460935A040895609398
:1013B0005B04089560935C04089560935D04089550
:1013C00060935E04089560936004089560935F04E1
:1013D0000895609361040895609362040895609392
:1013E0006304089560936404089560936504089508
:1013F0006093660408956093670408956093680499
:10140000089560936904089560936A040895609351
:101410006B04089560936A0408951F93CF93DF933C
:10142000182F8091AD03882341F08091B703882362
:1014300099F01092AD031092B7030E945D10809353
:10144000AC0381EB93E061E040E022E330E00E94F6
:10145000CB0A81E08093AD039091AC03A12FB0E063
:10146000ED01C75FDE4F8881882369F0FD01E45FED
:10147000FE4F80819823C1F0FD01E255FC4F81E0D1
:101480008083188211C0FD01E255FC4F80818111DB
:101490001082FD01E45FFE4F8081982329F4FD0155
:1014A000E75FFE4F81E08083A255BC4F8C91DF91B6
:1014B000CF911F91089582E00E947E09882319F43C
:1014C00090E082E0089510928804109287041092B0
:1014D0008A041092890410928C0410928B0410924A
:1014E0008E0410928D041092900410928F0480E963
:1014F00091E09093740480937304909376048093A6
:101500007504909378048093770490937A04809381
:10151000790490937C0480937B0484E398E0909317
:101520007E0480937D049093800480937F04909345
:101530008204809381049093840480938304909325
:1015400086048093850481E061E00E94C60991E0F1
:1015500081E00895DF93CF93CDB7DEB729970FB61B
:10156000F894DEBF0FBECDBF9C01CE01019661E0B5
:1015700040E00E94CB0A982F882319F48F8188239A
:10158000E9F3892F29960FB6F894DEBF0FBECDBFC1
:10159000CF91DF910895EF92FF920F931F93CF9316
:1015A000DF93EC01F62EE42E890188E00E947E098B
:1015B000813011F081E026C084E090E00E94A033E9
:1015C000FC01009711F482E01DC0F982F0FC1E823C
:1015D00081E0E81619F489818460898389818860B3
:1015E00089831B830A831D830C83D183C083138269
:1015F000128281E080931A04CF010E948E10109213
:101600001A0480E0DF91CF911F910F91FF90EF902E
:1016100008958FE180937C00EAE7F0E087E0808323
:1016200080818068808308950E943A100E94390E5C
:101630000E94760D0E94F7100E949E0E0E945B0A87
:1016400078940895000008951F920F920FB60F929C
:1016500011242F933F934F935F936F937F938F93B7
:101660009F93AF93BF93EF93FF93E091DA03F091D1
:10167000DB03309709F00995FF91EF91BF91AF918E
:101680009F918F917F916F915F914F913F912F919A
:101690000F900FBE0F901F9018951F920F920FB6CC
:1016A0000F9211242F933F934F935F936F937F93E8
:1016B0008F939F93AF93BF93EF93FF93E091DC03DE
:1016C000F091DD03309709F00995FF91EF91BF91FB
:1016D000AF919F918F917F916F915F914F913F91CA
:1016E0002F910F900FBE0F901F9018951F920F9281
:1016F0000FB60F9211242F933F934F935F936F93E5
:101700007F938F939F93AF93BF93EF93FF93E0915A
:10171000DE03F091DF03309709F00995FF91EF9117
:10172000BF91AF919F918F917F916F915F914F91F9
:101730003F912F910F900FBE0F901F9018951F9201
:101740000F920FB60F9211242F933F934F935F93F5
:101750006F937F938F939F93AF93BF93EF93FF9379
:10176000E091CC03F091CD03309709F00995FF91FA
:10177000EF91BF91AF919F918F917F916F915F9109
:101780004F913F912F910F900FBE0F901F90189582
:101790001F920F920FB60F9211242F933F934F93E6
:1017A0005F936F937F938F939F93AF93BF93EF93C9
:1017B000FF93E091CE03F091CF03309709F00995A4
:1017C000FF91EF91BF91AF919F918F917F916F9119
:1017D0005F914F913F912F910F900FBE0F901F90EF
:1017E00018951F920F920FB60F9211242F933F93CB
:1017F0004F935F936F937F938F939F93AF93BF9319
:10180000EF93FF93E091D003F091D103309709F06B
:101810000995FF91EF91BF91AF919F918F917F912A
:101820006F915F914F913F912F910F900FBE0F904D
:101830001F9018951F920F920FB60F9211242F939D
:101840003F934F935F936F937F938F939F93AF9348
:10185000BF93EF93FF93E091D403F091D5033097BA
:1018600009F00995FF91EF91BF91AF919F918F91F1
:101870007F916F915F914F913F912F910F900FBE8C
:101880000F901F9018951F920F920FB60F92112470
:101890002F933F934F935F936F937F938F939F9378
:1018A000AF93BF93EF93FF93E091D603F091D703EB
:1018B000309709F00995FF91EF91BF91AF919F91FA
:1018C0008F917F916F915F914F913F912F910F90E9
:1018D0000FBE0F901F9018951F920F920FB60F9288
:1018E00011242F933F934F935F936F937F938F9325
:1018F0009F93AF93BF93EF93FF93E091D203F09147
:10190000D303309709F00995FF91EF91BF91AF9103
:101910009F918F917F916F915F914F913F912F9107
:101920000F900FBE0F901F9018951F920F920FB639
:101930000F9211242F933F934F935F936F937F9355
:101940008F939F93AF93BF93EF93FF93E091D8034F
:10195000F091D903309709F00995FF91EF91BF916C
:10196000AF919F918F917F916F915F914F913F9137
:101970002F910F900FBE0F901F9018951F920F92EE
:101980000FB60F9211242F933F934F935F936F9352
:101990007F938F939F93AF93BF93EF93FF93E091C8
:1019A000C203F091C303309709F00995FF91EF91BD
:1019B000BF91AF919F918F917F916F915F914F9167
:1019C0003F912F910F900FBE0F901F9018951F926F
:1019D0000F920FB60F9211242F933F934F935F9363
:1019E0006F937F938F939F93AF93BF93EF93FF93E7
:1019F000E091C403F091C503309709F00995FF9178
:101A0000EF91BF91AF919F918F917F916F915F9176
:101A10004F913F912F910F900FBE0F901F901895EF
:101A20001F920F920FB60F9211242F933F934F9353
:101A30005F936F937F938F939F93AF93BF93EF9336
:101A4000FF93E091C603F091C703309709F0099521
:101A5000FF91EF91BF91AF919F918F917F916F9186
:101A60005F914F913F912F910F900FBE0F901F905C
:101A700018951F920F920FB60F9211242F933F9338
:101A80004F935F936F937F938F939F93AF93BF9386
:101A9000EF93FF93E091C803F091C903309709F0E9
:101AA0000995FF91EF91BF91AF919F918F917F9198
:101AB0006F915F914F913F912F910F900FBE0F90BB
:101AC0001F901895E82F803268F48051833050F0D1
:101AD000F0E0EE0FFF1FE654FC4F2081318171834F
:101AE000608302C020E030E0C901089580E10E94D7
:101AF0007E09882361F4EAEBF3E01192119283E00E
:101B0000EA3FF807D1F780E161E00E94C60980E171
:101B100091E00895239A0895FF920F931F93CF9316
:101B2000DF93F82E8AE0F816B1F08F1548F0E8E060
:101B3000FE16B9F1EF1538F1F7E0FF1651F43BC08E
:101B40008DE0F81659F0EBE1FE1689F0FCE0FF1687
:101B500041F001E041C010926D0403C010926D0489
:101B60003AC080916E04815080936E0434C00E940C
:101B7000EC0314C080E061E00E94CB0480916D040E
:101B80008F5F80936D0480916D0487FFF3CF109277
:101B90006D0480916E04815080936E0400E011E02A
:101BA0001CC080916D048823B1F080916D04865033
:101BB00080936D0410C081E00E94D70564EF71E04E
:101BC00080E090E04DE750E024E630E00E94E4053C
:101BD00081E00E946A0F00E010E080916E04609145
:101BE0006D040E94B204002351F185E0F89EC0010B
:101BF0001124EC01C750DF4F8C0102501F4FFE0132
:101C0000849161E00E94CB042196C017D107B9F7F7
:101C100080E061E00E94CB0480916D048A5F809334
:101C20006D0480916D0490E08C3791053CF010922A
:101C30006D0480916E04815080936E0411E0809158
:101C40006E04837080936E04113059F480916F0498
:101C5000813039F4E0917004F0917104309709F00B
:101C6000099580E090E0DF91CF911F910F91FF9057
:101C7000089580E00E947E09882351F4F8940E9420
:101C8000311181E00E944B0E80E061E00E94C609A4
:101C900080E091E00895813049F0F894813020F19E
:101CA0008230B1F0833009F045C017C02C9A80E82B
:101CB000809361001092610080E090E00000019646
:101CC00088329105D9F71092680010926B00089540
:101CD00080E88093610083E004C080E88093610025
:101CE00088E08093610028C080E090E000000196C9
:101CF0002DE680369207D1F72C9880E090E0000026
:101D000001962DE680369207D1F710927A008FEF78
:101D10008093640080916800816080936800809166
:101D20006B00846080936B00789483B7816083BF7D
:101D300088950895823008F0789408950F931F9342
:101D40000E945D1180E06CE471E10E94D70E81E099
:101D500064E471E10E94D70E82E06CE371E10E94BD
:101D6000D70E86E064E571E10E94D70E04E311E12D
:101D700083E0B8010E94D70E84E0B8010E94D70E1C
:101D800085E0B8010E94D70E87E0B8010E94D70E07
:101D900082E061E00E94C6098FEF8093720487E0C1
:101DA0000E94E60482E091E01F910F910895E82FD0
:101DB000F0E0EE0FFF1FE650FC4F71836083089543
:101DC0000E94FA0E08959B01AC0180910B048823B8
:101DD00081F0DA01C901880F991FAA1FBB1F9093D8
:101DE000170480931604211531054105510509F4A6
:101DF0005F98089580910C0490910D04A0910E04B9
:101E0000B0910F04209110043091110440911204FC
:101E100050911304280F391F4A1F5B1F20930C0495
:101E200030930D0440930E0450930F0480910C04E2
:101E300090910D04A0910E04B0910F048851964F1B
:101E4000A040B040BCF08BB180588BB980910C049D
:101E500090910D04A0910E04B0910F048851964FFB
:101E6000A040B04080930C0490930D04A0930E0406
:101E7000B0930F0408958AE00E947E09813041F4F6
:101E80000E94761110920B048AE060E00E94C6095D
:101E9000089589E00E947E098130D9F480910A0476
:101EA000882311F00E949E0F82E00E94761180919B
:101EB000180490911904009731F00E943834109260
:101EC00019041092180410920A0489E060E00E943C
:101ED000C6090895813029F0823029F40E94490F03
:101EE00008950E943B0F0895982F80910A0488233B
:101EF00031F480910B04882311F4579A5F988091F4
:101F00000A048823D1F49230C1F410928000109218
:101F100081008091810088608093810080918100A0
:101F2000816080938100109285001092840081E08E
:101F30008093890080E9809388000895EFE6F0E0BF
:101F400080818D7F8083089588B1837088B93A98A5
:101F50003B983C983D983E983F980895982F81E093
:101F600080935704913051F0913018F0923041F441
:101F700003C010923F0404C010923F04109240042A
:101F80001092570408953A9A3B9A3C9A3D9A3E9A89
:101F90003F9A88B1837088B90895982F81E0809323
:101FA0005704913071F0913018F0923071F405C0FF
:101FB000709334046093330408C0709334046093C6
:101FC00033047093360460933504109257040895D7
:101FD000982F81E080935704913051F0913018F0A0
:101FE000923041F403C06093410404C06093410403
:101FF000609342041092570408950F931F93CF9358
:10200000DF93EB018A01813001F1813018F08230D9
:1020100061F50DC080912B0490912C04892B11F057
:1020200080E01AC010923804109237041EC08091CC
:102030002B0490912C04892B21F080E00E949211B6
:1020400004C0109238041092370480912D049091AE
:102050002E04892B31F081E0BE01A8010E9492116B
:1020600004C010923A0410923904DF91CF911F916D
:102070000F91089510925A0410925B0410925F041D
:1020800010925C0410925E0410926004109261043D
:10209000109262041092630410926404109265041A
:1020A00010926604109267041092680410926904FA
:1020B00010926A0410926B0408950F931F9381E0AD
:1020C0000E947E09813011F000E024C087E00E9468
:1020D000E60482E06AE00E94370582E062EB0E943B
:1020E000370518EC812F8A95F1F782E060E00E94B5
:1020F0006411082F812F8A95F1F782E060E00E9439
:1021000064111A95F1F787E00E94E60488E893E1EC
:102110000197F1F7802F1F910F910895CF92DF92D1
:10212000EF92FF920F931F93CF93DF93EC01809177
:102130009104882339F4D0939304C09392040E94AD
:102140001C1147C0C0909204D090930400E010E0AE
:10215000EE24FF2437C0A881B981FD016481758117
:10216000F60140815181FA01848195819B01281BF0
:10217000390B37FF0FC0861B970B95838483DB8257
:10218000CA82012B29F4D0939304C093920421C0F6
:10219000F7010CC0F601828193812115310549F4C4
:1021A000FD01158214829B838A83F601D383C28347
:1021B00010C0FD01358324830097B9F30F5F1F4FD3
:1021C00076016C018091910490E00817190718F2CC
:1021D000ECCF809191048F5F80939104DF91CF9138
:1021E0001F910F91FF90EF90DF90CF90089588E0BE
:1021F0000E947E098823B9F41092910410929304EE
:102200001092920410921A0410921B0480E16FEF56
:1022100071E10E9420110E9406120E94161188E0AE
:1022200061E00E94C60988E091E00895EEE6F0E0E2
:10223000808182608083089581E080931B040895EB
:10224000803218F020E030E00AC0E82FF0E0EE0F16
:10225000FF1FE654FC4F2081318171836083C901E7
:102260000895249A2C9A089583E58CBD81E08DBD54
:102270008DE08A95F1F7089583E58CBD1DBC84EF50
:1022800091E00197F1F708958FE78CBD1DBC84EFB5
:1022900091E00197F1F7089583E58CBD81E08DBD54
:1022A0008DE08A95F1F7089583E58CBD81E08DBDC1
:1022B00084EF91E00197F1F70895259A2698279ADF
:1022C000209A219A229A08951F93162F0E94E604BD
:1022D00082E00E947E09813011F080E005C01EBDC1
:1022E0000DB407FEFDCF8EB51F910895823029F4FD
:1022F000809181008E7F8093810080910A048130DB
:1023000031F480910B04813011F400000895809124
:102310000A04813021F080910B04813011F45F9820
:1023200057980895EF92FF920F931F93CF93DF93E7
:10233000EB01882321F0813009F05AC02DC09A01A9
:1023400040E050E0CA01B9010E94F53220912B040F
:1023500030912C04220F331F40E050E00E941933CB
:1023600079018A01A8019701220F331F441F551FCD
:10237000CE01A0E0B0E082179307A407B50728F0CC
:10238000F0923804E092370433C0D695C795D093C5
:102390003804C09337042CC09A0140E050E0CA01D1
:1023A000B9010E94F53220912D0430912E04220FA4
:1023B000331F40E050E00E94193379018A01A801DF
:1023C0009701220F331F441F551FCE01A0E0B0E03C
:1023D00082179307A407B50728F0F0923A04E09219
:1023E000390406C0D695C795D0933A04C0933904F2
:1023F000DF91CF911F910F91FF90EF9008950E9470
:102400000F120E944F120E942812089584B5826014
:1024100084BD85B5846085BD8EE487BD089588E060
:102420000E947E09882311F484E0089580911B04A2
:10243000882311F483E0089580911A04882311F011
:1024400082E008950E949C148130E1F380E00895B9
:1024500080910B04813011F5809114049091150442
:102460002091160430911704280F391F309315045A
:10247000209314048091140490911504885E934075
:102480006CF08BB180588BB9809114049091150435
:10249000885E93409093150480931404089587E018
:1024A0000E947E09813009F0AAC080912B0490918E
:1024B0002C04892B09F180914F04909150042091B4
:1024C0002B0430912C04820F931F9093500480931F
:1024D0004F0480914F0490915004885E9340A4F083
:1024E00080914F0490915004885E934090935004E3
:1024F00080934F0441E009C080912304909124040B
:10250000909328048093270440E080912D049091BB
:102510002E04892B09F1809151049091520420914D
:102520002D0430912E04820F931F909352048093B8
:1025300051048091510490915204885E9340A4F01C
:102540008091510490915204885E9340909352047C
:102550008093510461E009C0809125049091260484
:1025600090932A048093290460E0842F0E94001332
:1025700080914B0490914C042091270430912804C1
:10258000280F391F30934C0420934B0480914B0447
:1025900090914C04885E934014F440E00BC080910D
:1025A0004B0490914C04885E934090934C0480932C
:1025B0004B0441E080914D0490914E0420912904F8
:1025C00030912A04280F391F30934E0420934D0474
:1025D00080914D0490914E04885E934014F460E025
:1025E0000BC080914D0490914E04885E934090936F
:1025F0004E0480934D0461E0842F0E94451308959A
:102600008823F1F020912304309124048091270441
:1026100090912804281B390B1216130634F480916C
:10262000270490912804019607C0232B49F080913C
:1026300027049091280401979093280480932704FD
:10264000662311F1209125043091260480912904FC
:1026500090912A04281B390B1216130654F480910A
:10266000290490912A04019690932A0480932904C6
:102670000895232B49F08091290490912A04019711
:1026800090932A048093290408950F931F93182F81
:10269000062F80915704882309F0E7C080913F04FA
:1026A000882309F05AC08091270490912804892B2F
:1026B000E9F480911C04837E80931C0410924804EA
:1026C00080915304882309F45DC06091410480E047
:1026D0000E940B09E0915504F0915604309709F4DB
:1026E00051C081E08083109253044CC0809121043A
:1026F000813041F48091330490913404019711F4B6
:1027000011E002C01123F1F1E0914604F0E0EF5F27
:10271000FE4F90911C04937E8081892B80931C0432
:1027200080914404882321F4809146048F5F03C084
:1027300080914604815080934604809146048370C2
:102740008093460481E08093480480912104813085
:10275000C9F480E00E94481415C090911C04937E37
:1027600090931C04E0914604F0E0EF5FFE4F8081FF
:10277000892B80931C0482E08093480410922804E3
:102780001092270480914004882309F059C0809159
:10279000290490912A04892BE9F480911C048F71FB
:1027A00080931C041092490480915404882309F4F6
:1027B0005CC06091420481E00E940B09E0915504E5
:1027C000F0915604309709F450C081E08183109253
:1027D00054044BC080912204813041F4809135042F
:1027E00090913604019711F401E002C00023E9F151
:1027F000E0914704F0E0EB5FFE4F90911C049F7165
:102800008081892B80931C0480914504882321F4C6
:10281000809147048F5F03C080914704815080936B
:1028200047048091470483708093470481E080933C
:102830004904809122048130C1F40E94481415C0DB
:1028400090911C049F7190931C04E0914704F0E068
:10285000EB5FFE4F8081892B80931C0482E0809384
:10286000490410922A041092290480914A04882372
:1028700031F48CE194E0612F402F0E940A1588B159
:10288000837090911C04892B88B91F910F91089532
:10289000882321F0813009F04EC027C08091330495
:1028A00090913404892B49F0809133049091340441
:1028B00001979093340480933304809153048823C8
:1028C000D1F52091330430913404809137049091F4
:1028D00038042817390779F580E060E070E00E943D
:1028E0005D0881E0809353040895809135049091B0
:1028F0003604892B49F08091350490913604019774
:10290000909336048093350480915404882399F47D
:1029100020913504309136048091390490913A0425
:102920002817390741F481E060E070E00E945D08FB
:1029300081E0809354040895FF920F931F93CF93E7
:10294000DF9380919104882309F459C00091920487
:1029500010919304F801C081D1818C819D810197F0
:102960009D838C83181619060CF449C0898180FF59
:1029700005C08E81882311F481E08E83898181FFD7
:1029800003C0EF81F8850995809191048230A8F009
:10299000F80182819381909393048093920413822F
:1029A0001282E0910000F091010084819581181657
:1029B00019063CF0FF24F39405C010929304109282
:1029C0009204FF248091910481508093910480911E
:1029D0009104882311F40E940715898182FF08C0A1
:1029E0008A819B819D838C83C8010E948E1008C0C0
:1029F000C8010E94383489818F7E898301C0FF24F9
:102A00008F2DDF91CF911F910F91FF90089510921C
:102A10001B040895FC0180914804823069F4809180
:102A2000200491E0892780932004882309F03EC088
:102A30008081837E80833AC080912704909128040E
:102A4000C397A4F56623D1F0209127043091280480
:102A500080E690E0BC01269FC001279F900D369F25
:102A6000900D1124880F892F881F990B90933C0497
:102A700080933B0481E080931E0418C080911E0463
:102A80008823A1F080913B0490913C04019790939E
:102A90003C0480933B0480913B0490913C04892B3F
:102AA00029F48081837E808310921E0480914904E2
:102AB000823069F480911F0491E0892780931F047C
:102AC000882309F03EC080818F71808308958091B2
:102AD000290490912A04C397A4F54423D1F02091AE
:102AE000290430912A0480E690E0AC01249FC001C3
:102AF000259F900D349F900D1124880F892F881FDA
:102B0000990B90933E0480933D0481E080931D04D3
:102B1000089580911D048823A1F080913D04909137
:102B20003E04019790933E0480933D0480913D04C0
:102B300090913E04892B29F480818F7180831092BB
:102B40001D0408954F925F926F927F928F929F9291
:102B5000AF92BF92CF92DF92EF92FF920F931F93AB
:102B6000CF93DF9300D000D0CDB7DEB74B015C012F
:102B700029013A01670178010E94A307C301B2014C
:102B80000E94432C69837A838B839C83A7019601DF
:102B9000C301B2010E948A2D0E94432C2B013C01EB
:102BA0001F921F921F9281E08F9380E98F93C5013E
:102BB000B4010E94432C7F936F93A7019601C50136
:102BC000B4010E948A2D0E94432C7F936F93812C25
:102BD000A12CB12CC12C0F2EF0E9EF2EFF24F39481
:102BE000F02D09811A81920140E062E080E00E94AC
:102BF000FC060FB6F894DEBF0FBECDBF0F900F904E
:102C00000F900F90DF91CF911F910F91FF90EF9058
:102C1000DF90CF90BF90AF909F908F907F906F90FC
:102C20005F904F900895CF92DF92EF92FF920F93B3
:102C30001F93CF93DF938B01E901BA01681B790BD6
:102C4000882777FD8095982F0E94712C6B017C015D
:102C5000BE01601B710B882777FD8095982F0E941D
:102C6000712CA70196010E947C2B20E030E044E308
:102C700053E40E948A2D2BED3FE049E450E40E948A
:102C8000D62B0E943E2C882777FD8095982F0E9496
:102C9000712CDF91CF911F910F91FF90EF90DF90FA
:102CA000CF9008958F92AF92BF92CF92EF92FF9202
:102CB0000F931F93CF93DF930E941535EC010E9471
:102CC000153529EC30E0B9010E9405338C0111273C
:102CD0001F921F921F9281E08F9380E98F93CE0104
:102CE000B9010E94053399279F938F931F921F92DA
:102CF000812CA12CB12CC12C0F2EF0E9EF2EFF243A
:102D0000F394F02D20E030E040E062E082E00E94A9
:102D1000FC0684EF91E00E94AA0A8DB79EB709963F
:102D20000FB6F8949EBF0FBE8DBFDF91CF911F915C
:102D30000F91FF90EF90CF90BF90AF908F9008953C
:102D400081E00E94D80384E00E94A1030E948403D2
:102D5000BC0180E090E00E946F2C20E030E040EA6F
:102D600050E40E94092B9B01AC0160E070E286E315
:102D700095E40E94D62B20E030E040E85FE30E941B
:102D8000082B2CE033E949EC5EE30E948A2D08957C
:102D900081E00E94D80383E00E94A1030E94840383
:102DA000BC0180E090E00E946F2C20E030E040EA1F
:102DB00050E40E94092B9B01AC0160E070E286E3C5
:102DC00095E40E94D62B20E030E040E85FE30E94CB
:102DD000082B2CE033E949EC5EE30E948A2D08952C
:102DE00081E00E94D80387E00E94A1030E9484032F
:102DF000BC0180E090E00E946F2C20E030E040EACF
:102E000050E40E94092B9B01AC0160E070E286E374
:102E100095E40E94D62B20E030E040E85FE30E947A
:102E2000082B2CE033E949EC5EE30E948A2D0895DB
:102E30008F92AF92BF92CF92EF92FF920F931F9318
:102E4000CF93DF93EC01062F172F0E94A307913039
:102E500041F08FEB91E09F938F930E9445360F9046
:102E60000F9022E82C9FC0012D9F900D11246AE540
:102E700070E00E940533262F372F1F921F921F925A
:102E800083E08F9380E28F931F930F937F936F93D1
:102E9000812CA12CB12CC12C0F2EF0E2EF2EF3E0EF
:102EA000FF2EF02D41E062E080E00E94FC060E94CF
:102EB00031068DB79EB709960FB6F8949EBF0FBE28
:102EC0008DBFDF91CF911F910F91FF90EF90CF9029
:102ED000BF90AF908F9008958F92AF92BF92CF9294
:102EE000EF92FF920F931F93CF93DF93EC01062F86
:102EF000172F0E94A307913041F08FEB91E09F9331
:102F00008F930E9445360F900F9022E82C9FC001AE
:102F10002D9F900D11246AE570E00E940533262F45
:102F2000372F1F921F921F9283E08F9380E28F931F
:102F30001F930F937F936F9388248394A12CB12CBC
:102F4000C12C0F2EF0E2EF2EF3E0FF2EF02D40E02B
:102F500062E080E00E94FC060E9431068DB79EB7B9
:102F600009960FB6F8949EBF0FBE8DBFDF91CF912B
:102F70001F910F91FF90EF90CF90BF90AF908F90E7
:102F80000895CF93DF9318161906DCF4853B91055D
:102F90002CF460E971E00E94181732C09C0199235B
:102FA00014F42F5F3F4FE901D595C79560E971E0B3
:102FB000CE010E94181760E971E0CE010E94181737
:102FC0001FC09923ECF4919581959109853B91055A
:102FD0002CF460E971E00E946C1712C09C019923E7
:102FE00014F42F5F3F4FE901D595C79560E971E073
:102FF000CE010E946C1760E971E0CE010E946C174F
:10300000DF91CF9108958F929F92AF92BF92CF920E
:10301000DF92EF92FF920F931F93CF93DF936B0199
:103020007C01042F152F20E030E0A9010E947F2DA4
:1030300018160CF04DC020E030E04AEF53E4C70111
:10304000B6010E948A2D20E030E044E352E40E9461
:10305000D62B962ED72FC82FD92E0E94EC03DF92A5
:10306000CF93DF939F9221ED32E03F932F930E9405
:1030700045361F921F921F9281E08F9380E98F93B4
:103080001F930F931F921F9288248394A12CB12C1D
:10309000C12C0F2EF0E9EF2EFF24F394F02D20E049
:1030A00030E040E062E082E00E94FC06692D7D2F66
:1030B0008C2F9D2D0E943E2CCB010E94AA0A8DB719
:1030C0009EB70F960FB6F8949EBF0FBE8DBF4CC033
:1030D000C701B601905820E030E04AEF53E40E9467
:1030E0008A2D20E030E044E352E40E94D62B962E55
:1030F000D72ED82FC92F0E94EC03CF93DF93DF92F6
:103100009F9221ED32E03F932F930E9445361F920C
:103110001F921F9281E08F9380E98F931F930F93EB
:103120001F921F92812CA12CB12CC12C0F2EF0E9E3
:10313000EF2EFF24F394F02D20E030E041E062E038
:1031400082E00E94FC06692D7D2D8D2F9C2F0E9410
:103150003E2CCB010E94AA0A8DB79EB70F960FB6E0
:10316000F8949EBF0FBE8DBF60E082E00E940B0905
:10317000DF91CF911F910F91FF90EF90DF90CF9053
:10318000BF90AF909F908F900895CF93DF9300D022
:1031900000D01F92CDB7DEB7212C312C1A821B82B2
:1031A000912C19821D821C820E94F0162B013C0179
:1031B0000E94C8166B017C010E94A01620E030E03E
:1031C00040E451E4C301B2010E947F2D18160CF0B7
:1031D000FEC020E030E040E451E4C701B6010E94A7
:1031E000CF2B88230CF0F3C020E030E040E850E41F
:1031F000C701B6010E94CF2B8823E4F40E94EC03A0
:1032000087E192E00E94593684E292E00E945936AA
:1032100082E392E00E945936A701960160E070E0D7
:1032200080E890E40E94082B2B013C0160E070E0F4
:10323000CB0137C020E030E040EA50E4C701B601DE
:103240000E947F2D1816D4F40E94EC0387E192E0CF
:103250000E94593688E392E00E94593682E392E058
:103260000E94593620E030E040EA50E4C701B60140
:103270000E94082B412C512C320113C00E94EC03F8
:1032800087E192E00E94593687E492E00E94593625
:1032900082E392E00E945936412C512C3201C30145
:1032A000B20120E030E0A9010E94092B20E030E0CB
:1032B00040EF52E40E94092BE62EF72E082F192F1B
:1032C00020E030E0A901C301B2010E94092B20E0F7
:1032D00030E040EF52E40E94092B462E572E682E14
:1032E000792E20E030E0A901692D79818D819C81C2
:1032F0000E94CF2B811108C0242C352C6A827B823E
:103300009E2CF9820D831C832E2D3F2D402F512F93
:10331000692D79818D819C810E94082B20E030E00D
:10332000A9010E948A2D2E2D3F2D402F512F0E9442
:10333000092B962E79838D839C83242D352D462D44
:10334000572D622D732D8A819B810E94082B20E0CE
:1033500030E0A9010E948A2D242D352D462D572DB0
:103360000E94092B262E372E8A839B83692D798113
:103370008D819C810E94432C2B013C011F921F9246
:103380001F9221E02F9330E93F93622D732D8A81A4
:103390009B810E94432C7F936F931F921F92812CDD
:1033A000A12CB12CC12C0F2EF0E9EF2EFF24F394A9
:1033B000F02D820120E030E040E062E082E00E94F7
:1033C000FC060FB6F894DEBF0FBECDBFEDCE20E0F9
:1033D00030E040E451E4C301B2010E94CF2B8823C6
:1033E0000CF04AC020E030E040E451E4C701B601EF
:1033F0000E94CF2B88230CF03FC00E94EC0387E192
:1034000092E00E94593681E592E00E9459368FE59C
:1034100092E00E9459361F921F921F9291E09F9353
:10342000E0E9EF931F92F6E9FF931F921F92812C20
:10343000A12CB12CC12C0F2EF0E9EF2EFF24F39418
:10344000F02D06E910E020E030E040E062E082E0AC
:103450000E94FC0684EF91E00E94AA0A44E650E034
:1034600060E070E084EB92EC0E9403180FB6F894D1
:10347000DEBF0FBECDBF98CE20E030E040E451E487
:10348000C301B2010E947F2D18160CF08DCE20E0F2
:1034900030E040E451E4C701B6010E947F2D1816C8
:1034A0000CF082CE0E94EC0387E192E00E94593634
:1034B0008CE692E00E94593689E792E00E945936E4
:1034C0001F921F921F9231E03F9380E98F931F92CA
:1034D00096E99F931F921F92812CA12CB12CC12C95
:1034E0000F2EF0E9EF2EFF24F394F02D06E910E003
:1034F00020E030E040E062E082E00E94FC0684EFE1
:1035000091E00E94AA0A0E94C8160FB6F894DEBF86
:103510000FBECDBF20E030E040E451E40E947F2D9B
:1035200018160CF041CE44E650E060E070E084EB09
:1035300092E40E9403181F921F921F92F1E0FF93E2
:1035400020E92F931F9236E93F931F921F9220E0AC
:1035500030E040E062E082E00E94FC060E94C81673
:103560000FB6F894DEBF0FBECDBF20E030E040E4E0
:1035700051E40E947F2D18160CF016CE84E690E0E0
:103580000E94AA0A0E94C81620E030E040E451E4FC
:103590000E947F2D181694F307CECF93DF9300D0AF
:1035A00000D01F92CDB7DEB7212C312C1A821B829E
:1035B000912C19821D821C820E94F0162B013C0165
:1035C0000E94C8160E94A0166B017C0120E030E02A
:1035D00040E451E4C301B2010E947F2D18160CF0A3
:1035E000FEC020E030E040E451E4C701B6010E9493
:1035F000CF2B88230CF0F3C020E030E040E850E40B
:10360000C701B6010E94CF2B8823D4F40E94EC039B
:1036100087E892E00E94593684E292E00E9459368F
:1036200082E392E00E945936A701960160E070E0C3
:1036300080E890E40E94082B412C512C320139C0C3
:1036400020E030E040EA50E4C701B6010E947F2D3F
:103650001816E4F40E94EC0387E892E00E945936C1
:1036600088E392E00E94593682E392E00E94593644
:1036700020E030E040EA50E4C701B6010E94082B88
:103680002B013C0160E070E0CB0113C00E94EC0311
:1036900087E892E00E94593687E492E00E9459360A
:1036A00082E392E00E945936412C512C3201C30131
:1036B000B20120E030E0A9010E94092B20E030E0B7
:1036C00040EF52E40E94092BE62EF72E082F192F07
:1036D00020E030E0A901C301B2010E94092B20E0E3
:1036E00030E040EF52E40E94092B462E572E682E00
:1036F000792E20E030E0A901692D79818D819C81AE
:103700000E94CF2B811108C0242C352C6A827B8229
:103710009E2CF9820D831C832E2D3F2D402F512F7F
:10372000692D79818D819C810E94082B20E030E0F9
:10373000A9010E948A2D2E2D3F2D402F512F0E942E
:10374000092B962E79838D839C83242D352D462D30
:10375000572D622D732D8A819B810E94082B20E0BA
:1037600030E0A9010E948A2D242D352D462D572D9C
:103770000E94092B262E372E8A839B83692D7981FF
:103780008D819C810E94432C2B013C011F921F9232
:103790001F9221E02F9330E93F93622D732D8A8190
:1037A0009B810E94432C7F936F931F921F92812CC9
:1037B000A12CB12CC12C0F2EF0E9EF2EFF24F39495
:1037C000F02D820120E030E040E062E082E00E94E3
:1037D000FC060FB6F894DEBF0FBECDBFEDCE20E0E5
:1037E00030E040E451E4C301B2010E94CF2B8823B2
:1037F0000CF04AC020E030E040E451E4C701B601DB
:103800000E94CF2B88230CF03FC00E94EC0387E876
:1038100092E00E94593681E592E00E94593689E78C
:1038200092E00E9459361F921F921F9291E09F933F
:10383000E0E9EF931F92F6E9FF931F921F92812C0C
:10384000A12CB12CC12C0F2EF0E9EF2EFF24F39404
:10385000F02D06E910E020E030E040E062E082E098
:103860000E94FC0684EF91E00E94AA0A44E650E020
:1038700060E070E084EB92E40E9403180FB6F894C5
:10388000DEBF0FBECDBF98CE20E030E040E451E473
:10389000C301B2010E947F2D18160CF08DCE20E0DE
:1038A00030E040E451E4C701B6010E947F2D1816B4
:1038B0000CF082CE0E94EC0387E892E00E94593619
:1038C0008CE692E00E9459368FE592E00E945936CC
:1038D0001F921F921F9231E03F9380E98F931F92B6
:1038E00096E99F931F921F92812CA12CB12CC12C81
:1038F0000F2EF0E9EF2EFF24F394F02D06E910E0EF
:1039000020E030E040E062E082E00E94FC0684EFCC
:1039100091E00E94AA0A0E94A0160FB6F894DEBF9A
:103920000FBECDBF20E030E040E451E40E947F2D87
:1039300018160CF041CE44E650E060E070E084EBF5
:1039400092EC0E9403181F921F921F92F1E0FF93C6
:1039500020E92F931F9236E93F931F921F9220E098
:1039600030E040E062E082E00E94FC060E94A01687
:103970000FB6F894DEBF0FBECDBF20E030E040E4CC
:1039800051E40E947F2D18160CF016CE84E690E0CC
:103990000E94AA0A0E94A01620E030E040E451E410
:1039A0000E947F2D181694F307CE2F923F924F92CC
:1039B0005F926F927F928F929F92AF92BF92CF92BF
:1039C000DF92EF92FF920F931F93CF93DF93CDB7C8
:1039D000DEB72F970FB6F894DEBF0FBECDBF0E94A3
:1039E000C8166B017C010E94A01620E030E040E484
:1039F00051E40E94CF2B88230CF05DC120E030E021
:103A000040E451E4C701B6010E94CF2B88230CF09B
:103A100052C11D821E821F821886312C212C00E08B
:103A200010E00E871F870E94C8162B013C010E94E0
:103A3000A0166A877B878C879D879B01AC01C30199
:103A4000B2010E94092B20E030E040E05FE30E94D9
:103A50008A2D4B015C019B01AC01C301B2010E94A4
:103A6000082B6B017C0120E030E0A9010E947F2D32
:103A7000181694F40E94EC0383E992E00E945936F0
:103A800081EA92E00E94593689EA92E00E94593612
:103A9000812C912C54013CC0A3019201C501B401B9
:103AA0000E94082B20E030E0A9010E947F2D18160B
:103AB000E4F40E94EC0383E992E00E94593680EB23
:103AC00092E00E94593689EA92E00E945936A50197
:103AD00094016A857B858C859D850E94082B4B010E
:103AE0005C01C12CD12C760113C00E94EC0389EB40
:103AF00092E00E94593681EC92E00E94593689EC9E
:103B000092E00E945936812C912C54017501640178
:103B100020E030E0A901C701B6010E94092B6B012A
:103B20007C0120E030E0A901632D722D8E859F85F8
:103B30000E948A2D9B01AC01C701B6010E94092B8E
:103B400020E030E040EF52E40E94092B698379873E
:103B5000182F092F20E030E0A901C501B4010E940F
:103B6000092B6B017C0120E030E0A9016D817E8191
:103B70008F8198850E948A2D9B01AC01C701B601F7
:103B80000E94092B20E030E040EF52E40E94092B14
:103B9000C62ED72EE82EF92E20E030E0A901632DA5
:103BA000722D8E859F850E94CF2B811108C0CD82FA
:103BB000DE82EF82F886398029841E870F8729816B
:103BC0003985412F502F632D722D8E859F850E9440
:103BD000082B20E030E0A9010E948A2D2981398537
:103BE000412F502F0E94092B362E272E8E879F871C
:103BF0002C2D3D2D4E2D5F2D6D817E818F819885E1
:103C00000E94082B20E030E0A9010E948A2D2C2D73
:103C10003D2D4E2D5F2D0E94092B6D837E838F835A
:103C20009887632D722D8E859F850E94432C698312
:103C30007A838B839C831F921F921F9281E08F93C4
:103C400090E99F936D817E818F8198850E94432C9E
:103C50007F936F931F921F92812CA12CB12CC12CAA
:103C60000F2EF0E9EF2EFF24F394F02D09811A8135
:103C700020E030E040E062E082E00E94FC060FB607
:103C8000F894DEBF0FBECDBF20E030E040E451E449
:103C90006A857B858C859D850E94CF2B88235CF46B
:103CA00020E030E040E451E4C301B2010E94CF2B98
:103CB00088230CF4B8CE2F960FB6F894DEBF0FBE53
:103CC000CDBFDF91CF911F910F91FF90EF90DF90CB
:103CD000CF90BF90AF909F908F907F906F905F90AC
:103CE0004F903F902F9008952F923F924F925F9266
:103CF0006F927F928F929F92AF92BF92CF92DF92FC
:103D0000EF92FF920F931F93CF93DF93CDB7DEB760
:103D100065970FB6F894DEBF0FBECDBF9C838B8333
:103D20007E836D8358874F830C871D872E873F873F
:103D3000C88AD98AEA8AFB8AFA01C080D180E280E7
:103D4000F38020E030E0A901C701B6010E947F2D79
:103D500018165CF420E030E044E353E4C701B601F8
:103D60000E94CF2B88230CF49DC320E030E0A901F2
:103D7000C701B6010E94CF2B88230CF095C311E038
:103D800020E030E044E353ECC701B6010E947F2DF0
:103D900018160CF010E081E018271B8787C30E94DB
:103DA000F0166B017C010E94C8164B015C010E9459
:103DB000A01620E030E040E451E4C701B6010E94C3
:103DC0007F2D18160CF034C120E030E040E451E4BF
:103DD000C501B4010E94CF2B88230CF029C120E03B
:103DE00030E040EA50E4C501B4010E94CF2B8823A3
:103DF000E4F40E94EC0387E192E00E94593684E2E9
:103E000092E00E94593682E392E00E945936A50161
:103E1000940160E070E080EA90E40E94082B6B015E
:103E20007C0160E070E0CB0137C020E030E040EA88
:103E300050E4C501B4010E947F2D1816D4F40E94ED
:103E4000EC0387E192E00E94593688E392E00E94F9
:103E5000593682E392E00E94593620E030E040EA91
:103E600050E4C501B4010E94082BC12CD12C76016D
:103E700013C00E94EC0387E192E00E94593687E468
:103E800092E00E94593682E392E00E945936C12C9A
:103E9000D12C7601C701B60120E030E0A9010E94D3
:103EA000092B20E030E040EF52E40E94092B962ECF
:103EB000A72EB82E192F20E030E0A901C701B601C6
:103EC0000E94092B20E030E040EF52E40E94092BD1
:103ED000C62ED72EE82EF92E20E030E0A901698108
:103EE0007A81832D922D0E94CF2B811108C04C2CFA
:103EF0005D2C6E2C7F2C9982AA823B2C212E292DA1
:103F00003A2D4B2D512F69817A81832D922D0E945C
:103F1000082B20E030E0A9010E948A2D292D3A2D9E
:103F20004B2D512F0E94092B69837A83382E292E1D
:103F30002C2D3D2D4E2D5F2D642D752D862D972D0D
:103F40000E94082B20E030E0A9010E948A2D2C2D30
:103F50003D2D4E2D5F2D0E94092B462E572E682E8B
:103F6000792E1DECE12E1CECF12E0CEC1DE32981C9
:103F70003A81432D522D0E94A215EC89FD89608162
:103F80007181828193810E94D32B4B015C01298135
:103F90003A81432D522D642D752D862D972D0E942B
:103FA000092BA80197010E948A2D2BE13FE24DEDDC
:103FB0005DE30E948A2D20E030E040E05FE30E9454
:103FC0008A2D6B017C019B01AC01C501B4010E94EB
:103FD0008A2D9B01AC01EB81FC8160817181828122
:103FE00093810E94092BEB81FC8160837183828322
:103FF0009383EC89FD8960817181828193810E9424
:10400000ED2D9B01AC01C701B6010E948A2D9B01D9
:10401000AC01ED81FE8160817181828193810E947A
:10402000092BED81FE816083718382839383B7CEF8
:1040300020E030E040E451E4C701B6010E94CF2BFC
:1040400088230CF0D4C020E030E040E451E4C50106
:10405000B4010E94CF2B88230CF0C9C00E94EC034E
:1040600087E192E00E94593681E592E00E9459363C
:104070008FE592E00E945936E12CF12C00E81FE315
:1040800020E030E046E153E4CA01B9010E94A215E4
:10409000EC89FD8960817181828193810E94D32B9B
:1040A0002AE939E941E851E40E948A2D9B01AC01DB
:1040B000EB81FC8160817181828193810E94092B57
:1040C000EB81FC816083718382839383EC89FD891A
:1040D00060817181828193810E94ED2D2AE939E905
:1040E00041E851E40E948A2DED81FE8120813181D9
:1040F000428153810E94092BED81FE81608371838F
:10410000828393830E943E2C6B017C01EB81FC81B6
:1041100060817181828193810E943E2C6F837887B8
:1041200089879A87688979898A899B890E943E2C28
:104130004B015C016C857D858E859F850E943E2CA0
:10414000DC01CB0196014F815885B4010E94131602
:104150006B017C01EC89FD8980809180A280B38015
:10416000A50194010E947F2D882334F120E030E0E6
:1041700044EB52E4C501B4010E94092B9B01AC0140
:10418000C701B6010E94CF2B1816B4F08C899D8907
:1041900098878F83A5019401C701B6010E94082B5F
:1041A0000E943E2CCB010E94C117EF81F885C0828E
:1041B000D182E282F38287C18AE590E00E94C11732
:1041C00020E030E044EB52E4EC89FD8960817181AC
:1041D000828193810E94092BEC89FD896083718320
:1041E00082839383FB85F13009F458C16CC120E0D0
:1041F00030E040E451E4C701B6010E947F2D18165B
:104200000CF0CDCD20E030E040E451E4C501B40134
:104210000E947F2D18160CF0C2CD0E94EC0387E19E
:1042200092E00E9459368CE692E00E94593689E766
:1042300092E00E945936E12CF12C00E81FE320E0C7
:1042400030E046E153E4CA01B9010E94A215EC89AD
:10425000FD8960817181828193810E94D32B2AE93B
:1042600039E941E851E40E948A2D9B01AC01EB81C0
:10427000FC8160817181828193810E94092BEB8195
:10428000FC816083718382839383EC89FD896081E3
:104290007181828193810E94ED2D2AE939E941E8FB
:1042A00051E40E948A2D9B01AC01ED81FE81608169
:1042B0007181828193810E94092BED81FE8160834F
:1042C0007183828393830E94C81620E030E040E42B
:1042D00051E40E947F2D18160CF061CDED81FE8116
:1042E00060817181828193810E943E2C6B017C01EF
:1042F000EB81FC8160817181828193810E943E2CDF
:104300006F83788789879A87688979898A899B8961
:104310000E943E2C4B015C016C857D858E859F85BE
:104320000E943E2CDC01CB0196014F815885B401DF
:104330000E9413166B017C01EC89FD8980809180BD
:10434000A280B38020E030E044EB52E4C501B40128
:104350000E94082B9B01AC01C701B6010E947F2D72
:104360008823F4F0A5019401C701B6010E94CF2B68
:104370001816B4F08C899D8998878F83A5019401C4
:10438000C701B6010E94082B0E943E2CCB010E945F
:10439000C117EF81F885C082D182E282F38293C097
:1043A00086EA9FEF0E94C11720E030E044EB52E420
:1043B000EC89FD8960817181828193810E94082B43
:1043C000EC89FD896083718382839383FB85F1305F
:1043D00009F079C00E94C81620E030E040E451E4C2
:1043E0000E947F2D18160CF05BC0CD80DE80AC885B
:1043F000BD888B809C801DECE12E1CECF12E0CEC1A
:104400001DE320E030E046E153E4CA01B9010E9417
:10441000A215F50160817181828193810E94D32B65
:1044200029E23CE54FEC5FE30E948A2D9B01AC0141
:10443000F40160817181828193810E94092BF401D2
:104440006083718382839383F501608171818281AE
:1044500093810E94ED2D29E23CE54FEC5FE30E9441
:104460008A2D9B01AC01F60160817181828193816B
:104470000E94092BF60160837183828393830E94DB
:10448000C81620E030E040E451E40E947F2D181669
:104490000CF4B1CFBD8AAC8A1B8681CC1B867FCC45
:1044A0001B867DCC1B8602C0F1E0FB87412C512C82
:1044B000612C712C19821A82312C212C8F819885C4
:1044C0009D8B8C8B6CCC65960FB6F894DEBF0FBEBF
:1044D000CDBFDF91CF911F910F91FF90EF90DF90B3
:1044E000CF90BF90AF909F908F907F906F905F9094
:1044F0004F903F902F9008952F923F924F925F924E
:104500006F927F928F929F92AF92BF92CF92DF92E3
:10451000EF92FF920F931F93CF93DF93CDB7DEB748
:1045200065970FB6F894DEBF0FBECDBF9C838B831B
:104530007E836D8358874F830C871D872E873F8727
:10454000C88AD98AEA8AFB8AFA01C080D180E280CF
:10455000F38020E030E0A901C701B6010E947F2D61
:1045600018165CF420E030E044E353E4C701B601E0
:104570000E94CF2B88230CF49DC320E030E0A901DA
:10458000C701B6010E94CF2B88230CF095C311E020
:1045900020E030E044E353ECC701B6010E947F2DD8
:1045A00018160CF010E081E018271B8787C30E94C3
:1045B000F0166B017C010E94C8160E94A0164B01E8
:1045C0005C0120E030E040E451E4C701B6010E9404
:1045D0007F2D18160CF034C120E030E040E451E4A7
:1045E000C501B4010E94CF2B88230CF029C120E023
:1045F00030E040E850E4C501B4010E94CF2B88238D
:10460000D4F40E94EC0387E892E00E94593684E2D9
:1046100092E00E94593682E392E00E945936A50149
:10462000940160E070E080E890E40E94082BC12CC7
:10463000D12C760139C020E030E040EA50E4C501D9
:10464000B4010E947F2D1816E4F40E94EC0387E861
:1046500092E00E94593688E392E00E94593682E344
:1046600092E00E94593620E030E040EA50E4C50173
:10467000B4010E94082B6B017C0160E070E0CB016B
:1046800013C00E94EC0387E892E00E94593687E449
:1046900092E00E94593682E392E00E945936C12C82
:1046A000D12C7601C701B60120E030E0A9010E94BB
:1046B000092B20E030E040EF52E40E94092B962EB7
:1046C000A72EB82E192F20E030E0A901C701B601AE
:1046D0000E94092B20E030E040EF52E40E94092BB9
:1046E000C62ED72EE82EF92E20E030E0A9016981F0
:1046F0007A81832D922D0E94CF2B811108C04C2CE2
:104700005D2C6E2C7F2C9982AA823B2C212E292D88
:104710003A2D4B2D512F69817A81832D922D0E9444
:10472000082B20E030E0A9010E948A2D292D3A2D86
:104730004B2D512F0E94092B69837A83382E292E05
:104740002C2D3D2D4E2D5F2D642D752D862D972DF5
:104750000E94082B20E030E0A9010E948A2D2C2D18
:104760003D2D4E2D5F2D0E94092B462E572E682E73
:10477000792E1DECE12E1CECF12E0CEC1DE32981B1
:104780003A81432D522D0E94A215EC89FD8960814A
:104790007181828193810E94D32B4B015C0129811D
:1047A0003A81432D522D642D752D862D972D0E9413
:1047B000092BA80197010E948A2D2BE13FE24DEDC4
:1047C0005DE30E948A2D20E030E040E05FE30E943C
:1047D0008A2D6B017C019B01AC01C501B4010E94D3
:1047E0008A2D9B01AC01EB81FC816081718182810A
:1047F00093810E94092BEB81FC816083718382830A
:104800009383EC89FD8960817181828193810E940B
:10481000ED2D9B01AC01C701B6010E948A2D9B01C1
:10482000AC01ED81FE8160817181828193810E9462
:10483000092BED81FE816083718382839383B7CEE0
:1048400020E030E040E451E4C701B6010E94CF2BE4
:1048500088230CF0D6C020E030E040E451E4C501EC
:10486000B4010E94CF2B88230CF0CBC00E94EC0334
:1048700087E892E00E94593681E592E00E9459361D
:1048800089E792E00E945936E12CF12C00E81FE301
:1048900020E030E046E153E4CA01B9010E94A215CC
:1048A000EC89FD8960817181828193810E94D32B83
:1048B0002AE939E941E851E40E948A2D9B01AC01C3
:1048C000EB81FC8160817181828193810E94092B3F
:1048D000EB81FC816083718382839383EC89FD8902
:1048E00060817181828193810E94ED2D2AE939E9ED
:1048F00041E851E40E948A2DED81FE8120813181C1
:10490000428153810E94092BED81FE816083718376
:10491000828393830E943E2C6B017C01EB81FC819E
:1049200060817181828193810E943E2C6F837887A0
:1049300089879A87688979898A899B890E943E2C10
:104940004B015C016C857D858E859F850E943E2C88
:10495000DC01CB0196014F815885B4010E941316EA
:104960006B017C01EC89FD8980809180A280B380FD
:1049700020E030E044EB52E4C501B4010E94082B72
:104980009B01AC01C701B6010E947F2D8823F4F082
:10499000A5019401C701B6010E94CF2B1816B4F0EF
:1049A0008C899D8998878F83A5019401C701B601E1
:1049B0000E94082B0E943E2CCB010E94C117EF8160
:1049C000F885C082D182E282F38285C186EA9FEFB8
:1049D0000E94C11720E030E044EB52E4EC89FD89ED
:1049E00060817181828193810E94082BEC89FD890D
:1049F0006083718382839383FB85F13009F456C110
:104A00006AC120E030E040E451E4C701B6010E94F1
:104A10007F2D18160CF0CBCD20E030E040E451E4BF
:104A2000C501B4010E947F2D18160CF0C0CD0E9464
:104A3000EC0387E892E00E9459368CE692E00E94EF
:104A400059368FE592E00E945936E12CF12C00E8AE
:104A50001FE320E030E046E153E4CA01B9010E94BF
:104A6000A215EC89FD8960817181828193810E9408
:104A7000D32B2AE939E941E851E40E948A2D9B01B0
:104A8000AC01EB81FC8160817181828193810E9404
:104A9000092BEB81FC816083718382839383EC8992
:104AA000FD8960817181828193810E94ED2D2AE9C7
:104AB00039E941E851E40E948A2D9B01AC01ED8166
:104AC000FE8160817181828193810E94092BED8139
:104AD000FE8160837183828393830E94A01620E00D
:104AE00030E040E451E40E947F2D18160CF05FCDB9
:104AF000ED81FE8160817181828193810E943E2CD3
:104B00006B017C01EB81FC816081718182819381E9
:104B10000E943E2C6F83788789879A876889798974
:104B20008A899B890E943E2C4B015C016C857D85A6
:104B30008E859F850E943E2CDC01CB0196014F8122
:104B40005885B4010E9413166B017C01EC89FD8924
:104B500080809180A280B380A50194010E947F2D66
:104B6000882334F120E030E044EB52E4C501B40185
:104B70000E94092B9B01AC01C701B6010E94CF2BFB
:104B80001816B4F08C899D8998878F83A5019401AC
:104B9000C701B6010E94082B0E943E2CCB010E9447
:104BA000C117EF81F885C082D182E282F38293C07F
:104BB0008AE590E00E94C11720E030E044EB52E427
:104BC000EC89FD8960817181828193810E94092B2A
:104BD000EC89FD896083718382839383FB85F13047
:104BE00009F079C00E94A01620E030E040E451E4D2
:104BF0000E947F2D18160CF05BC0CD80DE80AC8843
:104C0000BD888B809C801DECE12E1CECF12E0CEC01
:104C10001DE320E030E046E153E4CA01B9010E94FF
:104C2000A215F50160817181828193810E94D32B4D
:104C300029E23CE54FEC5FE30E948A2D9B01AC0129
:104C4000F40160817181828193810E94092BF401BA
:104C50006083718382839383F50160817181828196
:104C600093810E94ED2D29E23CE54FEC5FE30E9429
:104C70008A2D9B01AC01F601608171818281938153
:104C80000E94092BF60160837183828393830E94C3
:104C9000A01620E030E040E451E40E947F2D181679
:104CA0000CF4B1CFBD8AAC8A1B8681CC1B867FCC2D
:104CB0001B867DCC1B8602C0F1E0FB87412C512C6A
:104CC000612C712C19821A82312C212C8F819885AC
:104CD0009D8B8C8B6CCC65960FB6F894DEBF0FBEA7
:104CE000CDBFDF91CF911F910F91FF90EF90DF909B
:104CF000CF90BF90AF909F908F907F906F905F907C
:104D00004F903F902F9008952F923F924F925F9235
:104D10006F927F928F929F92AF92BF92CF92DF92CB
:104D2000EF92FF920F931F93CF93DF93CDB7DEB730
:104D30002D970FB6F894DEBF0FBECDBF69017A0183
:104D400019821A821B821C821D821E821F82188673
:104D500019861A861B861C8620E030E040E451E468
:104D60000E948A2D862E972EA82EB92E20E030E0A4
:104D700040E451E4C701B6010E948A2D462E572E09
:104D8000682E792E262E372EC82ED92EE82CF92CF7
:104D90000A2D1B2D1D8654C10E94EC03DF92CF9279
:104DA0003F922F921F930F93FF92EF92AEECB2E0DF
:104DB000BF93AF930E9445360E94F0160FB6F89449
:104DC000DEBF0FBECDBF20E030E040EE50E40E94D9
:104DD000CF2B88230CF058C00E94A0166B017C01D9
:104DE0000E94C8169B01AC01C701B6010E947F2D2D
:104DF00018162CF58AE590E00E94C11720E030E0FB
:104E000044EB52E469857A858B859C850E94092B49
:104E100069877A878B879C87C42CD52CE62CF72C46
:104E2000082D192D2A2D3B2DAE01475F5F4FBE0186
:104E30006B5F7F4FCE0101960E94741EE5C086EA2B
:104E40009FEF0E94C11720E030E044EB52E46985F7
:104E50007A858B859C850E94082B69877A878B874A
:104E60009C87C42CD52CE62CF72C082D192D2A2D27
:104E70003B2DAE01475F5F4FBE016B5F7F4FCE01A1
:104E800001960E947C22C0C020E030E040E750E460
:104E90006E2D7F2D802F912F0E94CF2B18160CF492
:104EA00077C020E030E040E750EC6E2D7F2D802F62
:104EB000912F0E947F2D88230CF46AC020E030E0FF
:104EC000A901622D732D8C2D9D2D0E947F2D18160A
:104ED000C4F4BD85B11137C08AE590E00E94C117C6
:104EE00020E030E044EB52E469857A858B859C852F
:104EF0000E94092B69877A878B879C8721E02D8701
:104F000022C020E030E0A901622D732D8C2D9D2D53
:104F10000E94CF2B8823BCF43D85311114C086EA52
:104F20009FEF0E94C11720E030E044EB52E4698516
:104F30007A858B859C850E94082B69877A878B8769
:104F40009C8781E08D87E12CF12C00E01FE320E0BD
:104F500030E046E153E4CA01B9010E94A215698517
:104F60007A858B859C850E94ED2D2AE939E941E0FF
:104F700051E40E948A2D9B01AC016D817E818F815D
:104F800098850E94092B6D837E838F8398873CC010
:104F9000E12CF12C00E01FE320E030E046E153E497
:104FA000CA01B9010E94A215C984DA84EB84FC8489
:104FB000C701B6010E94D32B2AE939E941E051E447
:104FC0000E948A2D9B01AC0169817A818B819C8131
:104FD0000E94092B69837A838B839C83C701B60166
:104FE0000E94ED2D2AE939E941E051E40E948A2D21
:104FF0009B01AC016D817E818F8198850E94092B78
:105000006D837E838F83988729813A814B815C8170
:10501000682D792D8A2D9B2D0E94082BE62EF72EC8
:10502000082F192F2D813E814F815885642D752DB4
:10503000862D972D0E94082B262E372EC82ED92E6E
:1050400020E030E040E750E46E2D7F2D802F912F3F
:105050000E947F2D88230CF09FCE20E030E040E7B7
:1050600050EC6E2D7F2D802F912F0E94CF2B181684
:105070000CF092CE20E030E040E950E4622D732D38
:105080008C2D9D2D0E947F2D88230CF085CE20E055
:1050900030E040E950EC622D732D8C2D9D2D0E9447
:1050A000CF2B18160CF078CE0E94EC0384ED92E022
:1050B0000E94593680E197E20E94AA0A2D960FB607
:1050C000F894DEBF0FBECDBFDF91CF911F910F913E
:1050D000FF90EF90DF90CF90BF90AF909F908F9018
:1050E0007F906F905F904F903F902F9008950E9417
:1050F00009048FED92E09F938F930E9445360E94A2
:105100005B0A0F900F90913051F00E94EC038DEEEE
:1051100092E09F938F930E9445360F900F9081E00D
:105120000E94D7050E94760381E00E94D8030E9466
:10513000A30788E093E09F938F930E9445360E94D7
:10514000EC0360E082E00E9448080F900F90CBE6ED
:10515000D3E00F2EF7E7AF2EF3E0BF2EF02D0F2E8A
:10516000F4E18F2EF02D0F2EFCEE9F2EF02D00E996
:1051700013E00E94EC0380E193E00E94593681E243
:1051800093E00E94593682E393E00E94593680E012
:105190000E940D0A882309F4ADC00E94F0162B016D
:1051A0003C010E94C8164B015C010E94A0166B01D5
:1051B0007C0120E030E040E251E40E94CF2B8823C4
:1051C00074F420E030E040E251E4C501B4010E94F3
:1051D000CF2B88230CF004C20E94D51CDECF20E028
:1051E00030E040E251E4C501B4010E94CF2B882396
:1051F00014F40E94C51820E030E040E251E4C701F9
:10520000B6010E94CF2B882314F40E94CD1A20E00F
:1052100030E040E251E4C301B2010E94CF2B882369
:105220000CF05BC00E94EC0385E493E09F938F93A6
:105230000E9445368EE493E09F938F930E944536FB
:105240001F921F921F9281E08F9380E98F931F928C
:1052500086E98F931F921F92812CA12CB12CC12C17
:105260000F2EF0E9EF2EFF24F394F02D06E910E065
:1052700020E030E040E062E082E00E94FC0684EF43
:1052800091E00E94AA0A0E94C8166B017C010E944C
:10529000A0169B01AC018DB79EB70D960FB6F89482
:1052A0009EBF0FBE8DBFC701B6010E94CF2B8823C2
:1052B00054F444E650E060E070E084EB92EC0E942D
:1052C00003180E94CD1A44E650E060E070E084EBE1
:1052D00092E40E9403180E94C5180E94EC038BE51B
:1052E00093E00E94593682E693E00E9459360E946C
:1052F000521653CF81E00E940D0A882309F4DBC0C7
:105300000E94F0162B013C010E94C8164B015C0163
:105310000E94A0166B017C0120E030E040E251E4E5
:105320000E94CF2B882374F420E030E040E251E467
:10533000C501B4010E94CF2B88230CF05DC10E94EF
:10534000D51CDECF20E030E040E251E4C501B401DD
:105350000E94CF2B882314F40E94C51820E030E06F
:1053600040E251E4C701B6010E94CF2B882314F418
:105370000E94CD1A20E030E040E251E4C301B201C6
:105380000E94CF2B88230CF089C01F921F921F927E
:10539000D1E0DF93C0E9CF931F921F921F921F921B
:1053A000812CA12CB12CC12C0F2EF0E9EF2EFF2463
:1053B000F394F02D00E010E020E030E040E062E007
:1053C00082E00E94FC0644E650E060E070E084E386
:1053D00092E40E9403180E94F01644E650E060E058
:1053E00070E084EB92EC0E9403180E94F01644E6F1
:1053F00050E060E070E084E392E40E9403180E94B1
:10540000EC0385E493E09F938F930E9445368EE4EE
:1054100093E09F938F930E9445361F921F921F9295
:10542000DF93CF931F9286E98F931F921F9206E915
:1054300010E020E030E040E062E082E00E94FC0604
:1054400084EF91E00E94AA0A0E94C8166B017C01B9
:105450000E94A0169B01AC018DB79EB746960FB671
:10546000F8949EBF0FBE8DBFC701B6010E94CF2B1F
:10547000882354F444E650E060E070E084EB92EC62
:105480000E9403180E94CD1A44E650E060E070E0EC
:1054900084EB92E40E9403180E94C5180E94EC035A
:1054A0008BE593E00E94593682E693E00E945936DC
:1054B0000E94521625CF82E00E940D0A882309F42B
:1054C00058CE712C32C00E94EC031F921F92872D80
:1054D000992787FD90959F937F92DF93CF930E94AA
:1054E0004536BF92AF920E94453680E00E940D0A79
:1054F0002DB73EB7285F3F4F0FB6F8943EBF0FBEA3
:105500002DBF882329F0739434E137155CF00DC06A
:1055100081E00E940D0A882341F07A948CEE78167F
:105520001CF003C0792C01C0782C82E00E940D0A87
:10553000882349F2D12CE72CFF24E7FCF09432C0F9
:105540000E94EC038D2D992787FD90959F93DF9204
:10555000FF927F92DF93CF930E9445361F930F9364
:105560000E94453680E00E940D0A2DB73EB7285FA5
:105570003F4F0FB6F8943EBF0FBE2DBF882329F0D2
:10558000D39434E13D155CF00DC081E00E940D0A1A
:10559000882341F0DA948CEED8161CF003C0D92C85
:1055A00001C0D82C82E00E940D0A882349F26D2D9B
:1055B000772767FD7095872F972F0E94712C6B01BD
:1055C0007C01672D772767FD7095872F972F0E94A5
:1055D000712CA70196010E9484260E94EC03C9CD7C
:1055E00020E030E040E251E4C501B4010E94CF2B3D
:1055F00088230CF00ACEFDCD20E030E040E251E4FB
:10560000C501B4010E94CF2B88230CF0B1CEA4CEEB
:105610005058BB27AA270ED027C2F0D130F0F5D1C1
:1056200020F031F49F3F11F41EF4C0C10EF4E09558
:10563000E7FBB6C1E92F3AD280F3BA1762077307C6
:105640008407950718F071F49EF552C20EF4E095A8
:105650000B2EBA2FA02D0B01B90190010C01CA012C
:10566000A0011124FF27591B99F0593F50F4503ED7
:1056700068F11A16F040A22F232F342F4427585FC9
:10568000F3CF469537952795A795F0405395C9F7E1
:105690007EF41F16BA0B620B730B840BBAF0915099
:1056A000A1F0FF0FBB1F661F771F881FC2F70EC038
:1056B000BA0F621F731F841F48F48795779567950B
:1056C000B795F7959E3F08F0B3CF9395880F08F0F4
:1056D0009927EE0F97958795089590D158F080E817
:1056E00091E009F49EEF91D128F040E851E059F49F
:1056F0005EEF09C05BC1FCC1E92FE078D7D168F348
:10570000092E052AC1F3261737074807590738F02D
:105710000E2E07F8E02569F0E025E0640AC0EF638B
:1057200007F8009407FADB01B9019D01DC01CA0109
:10573000AD01EF934AD098D10AD05F91552331F053
:105740002BED3FE049E450FD49EC63CF0895DF9332
:10575000DD27B92FBF7740E85FE316161706480725
:105760005B0710F4D92FCFD19F938F937F936F93C3
:105770003AD2ECE7F0E01DD177D12F913F914F91D4
:105780005F91D4D1DD2349F09058A2EA2AED3FE0A1
:1057900049EC5FE3D0785D274DDFDF9165C1DCD058
:1057A00008F481E0089539D1E3956FC10CD05CC154
:1057B0002CD140F023D130F021F45F3F19F0F0C03C
:1057C000511197C1F3C072D198F39923C9F35523AE
:1057D000B1F3951B550BBB27AA27621773078407E4
:1057E00038F09F5F5F4F220F331F441FAA1FA9F39A
:1057F00033D00E2E3AF0E0E830D091505040E6958C
:10580000001CCAF729D0FE2F27D0660F771F881FEC
:10581000BB1F261737074807AB07B0E809F0BB0BDB
:10582000802DBF01FF2793585F4F2AF09E3F5105FF
:1058300068F0B6C05EC15F3FECF3983EDCF386953E
:1058400077956795B795F7959F5FC9F7880F911D75
:105850009695879597F90895E1E0660F771F881F61
:10586000BB1F621773078407BA0720F0621B730B14
:10587000840BBA0BEE1F88F7E095089504D0689466
:10588000B11137C108951AD188F09F5790F0B92F00
:105890009927B751A0F0D1F0660F771F881F991F85
:1058A0001AF0BA95C9F712C0B13081F021D1B1E038
:1058B00008951EC1672F782F8827B85F39F0B93F48
:1058C000CCF3869577956795B395D9F73EF4909587
:1058D0008095709561957F4F8F4F9F4F0895E89405
:1058E00009C097FB3EF490958095709561957F4F28
:1058F0008F4F9F4F9923A9F0F92F96E9BB279395D6
:10590000F695879577956795B795F111F8CFFAF4E5
:10591000BB0F11F460FF1BC06F5F7F4F8F4F9F4F16
:1059200016C0882311F096E911C0772321F09EE874
:10593000872F762F05C0662371F096E8862F70E0DA
:1059400060E02AF09A95660F771F881FDAF7880FB4
:105950009695879597F90895990F0008550FAA0B0A
:10596000E0E8FEEF16161706E807F907C0F0121672
:105970001306E407F50798F0621B730B840B950B75
:1059800039F40A2661F0232B242B252B21F40895CA
:105990000A2609F4A140A6958FEF811D811D089567
:1059A00097F99F6780E870E060E008959FEF80ECD2
:1059B0000895DF93CF931F930F93FF92EF92DF929F
:1059C0007B018C01689405C0DA2EEF01AFD0FE0197
:1059D000E894A5912591359145915591AEF3EF014C
:1059E00029DEFE019701A801DA9479F7DF90EF90A4
:1059F000FF900F911F91CF91DF91089500240A9499
:105A00001616170618060906089500240A94121699
:105A10001306140605060895C9CF50D0E8F3E8949C
:105A2000E0E0BB279F57F0F02AED3FE049EC06C0CD
:105A3000EE0FBB0F661F771F881F28F0B23A620770
:105A40007307840728F0B25A620B730B840BE3953B
:105A50009A9572F7803830F49A95BB0F661F771FBE
:105A6000881FD2F79048C4C0092E0394000C11F48B
:105A7000882352F0BB0F40F4BF2B11F460FF04C029
:105A80006F5F7F4F8F4F9F4F0895EF93E0FF06C0EA
:105A9000A2EA2AED3FE049EC5FEBCCDDE5DF0F90B9
:105AA000039401FC9058E9EAF0E0AEC057FD90582D
:105AB000440F551F59F05F3F71F04795880F97FBD2
:105AC000991F61F09F3F79F087950895121613068C
:105AD0001406551FF2CF4695F1DF08C016161706BB
