:100000000C9431030C944E030C944E030C944E0349
:100010000C948A0C0C94B30C0C94DC0C0C94050D11
:100020000C944E030C946B0B0C94940B0C94BD0B22
:100030000C94380C0C94E60B0C940F0C0C94610C83
:100040000C94F00A0C94190B0C94420B0C944E0374
:100050000C944E030C944E030C944E030C944E03DC
:100060000C944E030C944E030C944E030C944E03CC
:100070000C944E030C944E030C944E0359095C09E6
:100080005F0962096B09650968096E0971097409DC
:1000900077097A097D0980098309860989098C090C
:1000A0008F09A009A309A609A909B209AC09AF09DA
:1000B000B509B809BB09BE09C109C409C709CA09FC
:1000C000CD09D009D309D60907634236B79BD8A713
:1000D0001A39685618AEBAAB558C1D3CB7CC57636D
:1000E000BD6DEDFD753EF6177231BF000000803F1B
:1000F00008000000BE922449123EABAAAA2ABECD37
:10010000CCCC4C3E00000080BEABAAAAAA3E0000A8
:100110000000BF000000803F0000000000084178A0
:10012000D3BB4387D1133D190E3CC3BD4282AD2BD7
:100130003E68EC8276BED98FE1A93E4C80EFFFBECF
:1001400001C4FF7F3F000000000016050100000011
:1001500000000000FA000000E000E00028FE28FE99
:10016000282454FE5448C4C81026466C92AA44A0C1
:1001700000A0C000000038448200008244380028FB
:10018000107C102810107C1010000A0C00001010B9
:10019000101010000606000004081020407C8A920F
:1001A000A27C0042FE020042868A92628482A2D22F
:1001B0008C182848FE08E4A2A2A29C3C5292920C01
:1001C000808E90A0C06C9292926C60929294780013
:1001D0006C6C0000006A6C00001028448200282823
:1001E000282828008244281040808A90604C929EE3
:1001F000827C7E8888887EFE9292926C7C8282824B
:1002000044FE82824438FE92929282FE90909080C8
:100210007C8292925EFE101010FE0082FE8200042C
:100220000282FC80FE10284482FE02020202FE408E
:100230003040FEFE201008FE7C8282827CFE909080
:1002400090607C828A847AFE909894626292929204
:100250008C8080FE8080FC020202FCF8040204F81C
:10026000FC021C02FCC6281028C6E0100E10E08616
:100270008A92A2C200FE82820040201008040082FE
:1002800082FE0020408040200202020202008040E4
:100290002000042A2A2A1EFE1222221C1C222222AC
:1002A000041C222212FE1C2A2A2A18107E9080404A
:1002B000304A4A4A7CFE1020201E0022BE02000462
:1002C0000222BC00FE081422000082FE02003E2032
:1002D00018201E3E1020201E1C2222221C3E2828F0
:1002E0002810102828183E3E10202010122A2A2AF2
:1002F0000420FC2202043C0202043E3804020438BA
:100300003C020C023C2214081422300A0A0A3C2245
:10031000262A322200106C82000000FE00000082BB
:100320006C1000081010081000000000007F818190
:10033000817F7F8383837F7F8787877F7F8F8F8F77
:100340007F7F9F9F9F7F7FBFBFBF7F7FFFFFFF7F1D
:100350002040FF4020621517156500FBFB000000E0
:1003600000000000C0FF0300E0FF0700F0FF0F00E7
:10037000F8FF1F0078001E0078001E0078001E00A5
:1003800078001E0078001E0078001E0078001E0015
:1003900078001E0078001E00000000000000000031
:1003A00080FF0300E0FF0700F0FF0F00F8FF1F00D1
:1003B000F83C1F00783C1E00783C1E00783C1E0074
:1003C000783C1E00783C1E00783C1E00783C1E00E5
:1003D000783C1E00783C1E00783C1E0000000000A7
:1003E00000000000E0FF0300F0FF0700F8FF0F002F
:1003F000F8FF1F00783C1E00783C1E00783C1E0071
:10040000783C1E00783C1E00783C1E00783C1E00A4
:10041000783C1E00783C1E00783C1E000000000066
:1004200000000000F8FF0300F8FF0F00F8FF1F00B6
:10043000F8FF1F0000001E0000001E0000801F00CB
:1004400000F01F0000FF0F00E0FF0700F0FF0000BA
:10045000F80F0000F80000007800000078000000AD
:10046000F8FF1F00F8FF1F00F0FF1F00E0FF1F0054
:100470000000000000000000F8FF1F00F8FF1F0050
:10048000F8FF1F00F8FF1F0078001E00783C1E00D8
:10049000783C1E00783C1E00783C1E00783C1E0014
:1004A000783C1E00F87E1F00F8FF1F00F0FF0F00D1
:1004B000E0E703000000000000003800EEFF6C00E1
:1004C0002A8045003A0047FC03FF6CFC83FF39009B
:1004D000DEFF0B7CD0810BFCD0810BC0D0810BFCEC
:1004E000D0810B7CDEFF0B0082FF397002FF6CF8BD
:1004F0003A0047DC2A8045CCEEFF6CCC0000380087
:100500000000000C00001E0C00001E0000001E0079
:1005100000001E0000001E00F8FF1F00F8FF1F0073
:10052000F8FF1F00F8FF1F0000001E0000001E0063
:1005300000001E0000001E0000005E0000004000E1
:1005400000007C00000040000000400000007C0033
:1005500000003000000010000000300000007C6E41
:10056000616E00696E660000407A10F35A00A07256
:100570004E18090010A5D4E80000E87648170000DE
:10058000E40B54020000CA9A3B000000E1F50500AC
:100590000080969800000040420F000000A08601F5
:1005A000000000102700000000E8030000000064C5
:1005B00000000000000A0000000000010000000030
:1005C000002C76D888DC674F0823DFC1DFAE59E105
:1005D000B1B796E5E3E453C63AE651997696E8E674
:1005E000C28426EB898C9B62ED407C6FFCEFBC9C47
:1005F0009F40F2BAA56FA5F490055A2AF75C936B59
:100600006CF9676DC11BFCE0E40D47FEF520E6B513
:1006100000D0ED902E0300943577050080841E08ED
:100620000000204E0A000000C80C333333330F980B
:100630006E12831141EF8D2114893BE65516CFFED2
:10064000E6DB18D1844B381BF77C1D901DA4BBE45E
:1006500024203284725E228100C9F124ECA1E53DA0
:10066000270011241FBECFEFD8E0DEBFCDBF13E0BF
:10067000A0E0B1E0EAE5FFE402C005900D92AA35E2
:10068000B107D9F724E0AAE5B3E001C01D92AE346A
:10069000B207E1F70E94BD030C94AB270C94000055
:1006A0008FE00E944A09882331F40E94D50A8FE026
:1006B00061E00E9492098FE091E008958FE00E942E
:1006C0004A09813019F020E030E013C080917A00AF
:1006D000806480937A0080917A0086FDFCCF30910F
:1006E000780020917900922F80E0232F30E0282B92
:1006F000392BC9010895582F809100018830D8F412
:1007000040917E0021E030E0B90102C0660F771F02
:100710008A95E2F7CB018095842380937E008091B7
:100720007E00052E02C0220F331F0A94E2F7822BAF
:1007300080937E000DC020917E0081E090E0052E28
:1007400002C0880F991F0A94E2F7282B20937E009D
:100750005093000180917C005F71807E852B809397
:100760007C000895ECE7F0E090818295880F880F77
:10077000807C9F73982B908308950E94EE0A0E94BC
:10078000E00A0E94131B80E090E008950F931F93EE
:1007900080E460E00E94A50400E0802F60E00E94F9
:1007A0008C0410E080E061E00E94A5041F5F103817
:1007B000C9F70F5F043089F783E060E00E94850489
:1007C0001F910F9108950F931F9382E00E944A0991
:1007D000882311F482E006C081E00E944A09882340
:1007E00019F481E090E06DC00E94560D85E061E053
:1007F0000E9492098EEA60E00E94A50482EA60E00D
:100800000E94A50480EA60E00E94A50400E513ECC4
:10081000C8010197F1F780EC60E00E94A5048FE227
:1008200060E00E94A50481E860E00E94A50486E1E2
:1008300060E00E94A50482E260E00E94A504C80175
:100840000197F1F78FEA60E00E94A50486EA60E074
:100850000E94A50485EA60E00E94A50480E090E083
:1008600028E833E1F9013197F1F7019643E0883E3A
:100870009407C1F783EB60E00E94A50480E460E088
:100880000E94A50483E060E00E948C0483E060E0A5
:100890000E94850410921F041092210410922004DB
:1008A0008FE091E090934B0480934A0488E10E948A
:1008B00064040E94C60384EA60E00E94A50485E007
:1008C00091E01F910F9108951F93182F85E00E94CA
:1008D0004A098130C1F487E00E94C00482E06AE0E6
:1008E0000E94110582E061EB0E941105612F113217
:1008F00008F060E282E00E94110589EE8A95F1F726
:1009000087E00E94C0041F91089583706F77609301
:100910001D0480931E0408950F931F93062F162F16
:100920001F778370806B60E00E94A50412951F7092
:10093000812F806160E00E94A504802F8F7060E0AD
:100940000E94A5041F910F9108950F931F93082FE4
:10095000162F85E00E944A09813079F4112319F09D
:10096000113021F402C02B9801C02B9A86E08A95A1
:10097000F1F780E0602F0E9411051F910F910895FB
:100980001F93182F82E00E944A09813009F047C066
:10099000912F977080912204981709F440C090938A
:1009A000220485B1887F892B85B9933011F1943069
:1009B00028F4913051F0923090F40CC0953019F138
:1009C0009530E0F0963021F50FC0E091AC03F09146
:1009D000AD0322C0E091AA03F091AB031DC0E091EA
:1009E000AE03F091AF0318C0E091B603F091B703E6
:1009F00013C0E091B003F091B1030EC0E091B203D7
:100A0000F091B30309C0E091B403F091B50304C0C1
:100A1000E091B803F091B903309709F009951F915F
:100A200008951F93162F0E94C00482E00E944A0975
:100A3000813021F41EBD0DB407FEFDCF1F91089536
:100A40000F931F93CF93DF9380E291E00E944024A5
:100A50009C019093C9038093C803892B11F480E013
:100A600039C08901C0E0D0E0BE0180E090E00E9482
:100A7000621D20E030E040EA51E40E94CE1C27EFE6
:100A800035E740E05FE30E94441E9B01AC0160E05B
:100A900070E080E291E40E946A229B01AC01CA01ED
:100AA000B9012DEC3CEC42E851E40E94441E0E9446
:100AB00030222AE030E040E050E00E949523F80127
:100AC00061937193819391938F012196C834D105DD
:100AD00059F681E0DF91CF911F910F9108958AE03F
:100AE0000E944A09882371F41092C5031092C4032E
:100AF00081E00E94400F81E08093BB038AE061E0C7
:100B00000E9492098AE091E008951F938BE00E9471
:100B10004A09882311F090E021C089E00E944A0927
:100B20008823D9F40E942005182F8130B1F4109247
:100B3000BC031092BD031092BE031092BF038DE060
:100B40006CEA7EE00E942E0D82E00E94400F10931E
:100B5000BA0389E061E00E94920991E089E01F9167
:100B60000895813029F0823031F090E089E00895D5
:100B70000E946F0508950E94850508958F929F92A7
:100B8000AF92BF92CF92DF92EF92FF920F931F939B
:100B9000CF93DF934B015C01EA01B90121153105C7
:100BA00039F19E01442737FD4095542F6536710574
:100BB00010F064E670E080E090E00E94952324E667
:100BC00030E040E050E00E94B92379018A01C5017C
:100BD000B4010E94AF0EC7010E94760A60E070E087
:100BE00080E090E00E94AF0ECE018E199F0904C0F4
:100BF0004115510519F0CA010E94760ADF91CF9183
:100C00001F910F91FF90EF90DF90CF90BF90AF902A
:100C10009F908F9008952F923F924F925F926F9284
:100C20007F928F929F92AF92BF92CF92DF92EF927C
:100C3000FF920F931F93DF93CF93CDB7DEB7582E5C
:100C4000962E442E39013C2CC98CDA8C2B8C81E0F9
:100C5000681739F1681728F092E0691709F085C024
:100C600049C080E061E00E94140880E0B7010E9462
:100C7000DD0780E0642DA3019801032DEE24E394A9
:100C8000E8E0CE2EE4E0DE2E0E944B08552009F06D
:100C90006CC000D00F92EDB7FEB71182B382A28272
:100CA00023C081E061E00E94140881E0B6010E9447
:100CB000DD0781E0682D4D895E892F89388D022DF1
:100CC000EE24E39478E0C72E74E0D72E0E944B0800
:100CD000552009F04AC000D00F92EDB7FEB79182BF
:100CE0008C8D9D8D938382830E94FC080F900F90C2
:100CF0000F903BC082E061E00E94140880E0B701E1
:100D00000E94DD0781E0B6010E94DD0780E0642DCE
:100D1000A3019801032DEE24E39498E0C92E94E0FA
:100D2000D92E0E944B0881E0682D4D895E892F895C
:100D3000388D022D0E944B085520B9F400D000D008
:100D40000F92ADB7BEB71196EDB7FEB79182FD0118
:100D5000B282A1828C8D9D8D948383830E94FC0836
:100D60000F900F900F900F900F90CF91DF911F91E8
:100D70000F91FF90EF90DF90CF90BF90AF909F903A
:100D80008F907F906F905F904F903F902F9008953D
:100D90006F927F928F929F92AF92BF92CF92DF928B
:100DA000EF92FF920F931F93DF93CF93CDB7DEB7F0
:100DB000942E7C2DD50149895A89AB88BC88CD8871
:100DC000DE889F89813009F457C08130B8F18230C4
:100DD00009F076C0613091F0613020F0623009F0A6
:100DE0006FC015C080E060E00E94140880E0B70189
:100DF0000E94DD0780E0692DA8011DC081E060E050
:100E00000E94140881E0B6010E94DD0711C082E053
:100E100060E00E94140880E0B7010E94DD0781E0D5
:100E2000B6010E94DD0780E0692DA8010E94C60777
:100E300081E0682DA5010E94C60742C0EDB7FEB74C
:100E400039970FB6F894FEBF0FBEEDBF6DB67EB6F4
:100E50000894611C711C52834183F301B382A28206
:100E6000D582C4829683888D998D9087878380E010
:100E7000492DC72E5D011AC0EDB7FEB739970FB6E1
:100E8000F894FEBF0FBEEDBFADB7BEB7119652834B
:100E90004183FD01B382A282D582C48296831086EB
:100EA000178281E0492DC72EAA24BB240E940B067D
:100EB0008DB79EB709960FB6F8949EBF0FBE8DBF33
:100EC000CF91DF911F910F91FF90EF90DF90CF9026
:100ED000BF90AF909F908F907F906F9008950E94E9
:100EE000850F81E080930704E1EDF3E01192119208
:100EF00011821082329611821082329611821082F3
:100F000032961182108232961182108232961182AC
:100F1000108232961182108232961182108232969D
:100F200011821082329611821082329611821082C2
:100F3000329611821082369611921192119210827D
:100F40003296119211921192119211921192119264
:100F50001182108232961182108232961182108292
:100F60003296118210827697118210823296118207
:100F7000108210920604109205041092070487E074
:100F800061E00E94920987E091E00895EF92FF925C
:100F90000F931F93182F062F7A0160E00E94140808
:100FA000812F602F0E94FF07812FB7010E9429081F
:100FB0001F910F91FF90EF900895482F81E080934B
:100FC0000704CB0123E0693E720710F088EE93E03E
:100FD000413071F0413018F0423071F405C0909307
:100FE000DC038093DB0308C09093DC038093DB0376
:100FF0009093DE038093DD03109207040895982FE9
:1010000081E080930704913051F0913018F09230D4
:1010100041F403C06093F40304C06093F40360934D
:10102000F503109207040895982F81E08093070438
:10103000913051F0913018F0923041F403C0609338
:10104000D10304C06093D1036093D20310920704CC
:101050000895482F81E080930704CB0121E0613996
:10106000720710F080E991E0413071F0413018F0E2
:10107000423071F405C09093D4038093D30308C029
:101080009093D4038093D3039093D6038093D50396
:101090001092070408958F929F92AF92BF92CF92C1
:1010A000DF92EF92FF920F931F93CF93DF93182F4E
:1010B000F62E5A014901E60161E00E941408812FD1
:1010C000B501A4010E94BF0F812F6F2D0E94FF0761
:1010D000812F602F0E94AA0F812FB5010E948F0FD0
:1010E000C114D10499F0113049F0113018F01230C8
:1010F00069F406C018821092030408C0198204C063
:10110000188219821092030410920404D0930604EA
:10111000C0930504EE20B9F58AE593E090930604A8
:1011200080930504812FB4010E942908812F0E9419
:10113000700F113071F0113018F0123059F512C0E3
:1011400010925A031092030480915A038823E1F30A
:1011500021C010925B031092040480915B038823EA
:10116000E1F318C010925A0310925B03109203042B
:101170001092040480915A038823E1F380915B0369
:101180008823C1F307C0812FB4010E942908812F51
:101190000E94700FDF91CF911F910F91FF90EF9000
:1011A000DF90CF90BF90AF909F908F9008950F9356
:1011B0001F93182F062F662349F460E070E00E9409
:1011C0002908812F60E070E00E948F0F81E08093FA
:1011D0000704113051F0113018F0123041F403C0FF
:1011E0000093EF0304C00093EF030093F003109209
:1011F00007041F910F910895CF92DF92EF92FF9213
:101200000F931F93DF93CF93CDB7DEB78B858130DC
:1012100061F0813018F08230A1F511C0EC85FD85B8
:10122000809108048823E1F306C0EC85FD85809158
:1012300009048823E1F3309721F1099522C0CC8479
:10124000DD84EE84FF8400E010E0002351F48091FF
:101250000804882331F0C114D10411F0F601099576
:1012600001E0112351F480910904882331F0E11445
:10127000F10411F0F701099511E0002331F3112376
:1012800021F3CF91DF911F910F91FF90EF90DF90AD
:10129000CF900895E82FF0E0E331F10540F4E25CEF
:1012A000FF4FEE0FFF1F0590F491E02D099480E0B1
:1012B000089580910A04089580910B040895809107
:1012C0000C04089580910D04089580910E040895F2
:1012D00080911004089580910F0408958091110465
:1012E00008958091120408958091130408958091C7
:1012F00014040895809115040895809116040895AA
:10130000809117040895809118040895809119041C
:10131000089580911A04089580911B040895809186
:101320001C040895E82FF0E0E331F10508F040C017
:10133000EF5AFF4FEE0FFF1F0590F491E02D099437
:1013400060930A04089560930B04089560930C045D
:10135000089560930D04089560930E0408956093BA
:101360001004089560930F04089560931104089584
:101370006093120408956093130408956093140415
:10138000089560931504089560931604089560937A
:10139000170408956093180408956093190408953C
:1013A00060931A04089560931B04089560931A04CF
:1013B00008951F93CF93DF93182F80915D038823A7
:1013C00041F080916703882399F010925D03109299
:1013D00067030E941F1080935C0381E693E061E045
:1013E00040E022E330E00E94970A81E080935D03B1
:1013F00090915C03A12FB0E0ED01C75FDE4F8881C3
:10140000882369F0FD01E45FFE4F80819823C1F0DD
:10141000FD01E25AFC4F81E08083188211C0FD017A
:10142000E25AFC4F808181111082FD01E45FFE4F82
:101430008081982329F4FD01E75FFE4F81E08083DE
:10144000A25ABC4F8C91DF91CF911F91089582E0F9
:101450000E944A09882319F490E082E008951092CE
:1014600038041092370410923A0410923904109202
:101470003C0410923B0410923E0410923D041092E2
:10148000400410923F0480E991E0909324048093FB
:10149000230490932604809325049093280480933A
:1014A000270490932A048093290490932C0480931A
:1014B0002B0484E398E090932E0480932D04909362
:1014C000300480932F0490933204809331049093DE
:1014D000340480933304909336048093350481E080
:1014E00061E00E94920991E081E00895DF93CF933B
:1014F000CDB7DEB729970FB6F894DEBF0FBECDBFCC
:101500009C01CE01019661E040E00E94970A982F6D
:10151000882319F48F818823E9F3892F29960FB640
:10152000F894DEBF0FBECDBFCF91DF910895EF924B
:10153000FF920F931F93CF93DF93EC01F62EE42ECF
:10154000890188E00E944A09813011F081E026C0BB
:1015500084E090E00E944024FC01009711F482E0B6
:101560001DC0F982F0FC1E8281E0E81619F4898121
:10157000846089838981886089831B830A831D83B2
:101580000C83D183C0831382128281E08093CA03CB
:10159000CF010E9450101092CA0380E0DF91CF91DA
:1015A0001F910F91FF90EF9008958FE180937C0041
:1015B000EAE7F0E087E08083808180688083089597
:1015C0000E94FC0F0E94050E0E94420D0E94B9105D
:1015D0000E946A0E0E94270A7894089500000895D8
:1015E0001F920F920FB60F9211242F933F934F9398
:1015F0005F936F937F938F939F93AF93BF93EF937B
:10160000FF93E0918A03F0918B03309709F00995DD
:10161000FF91EF91BF91AF919F918F917F916F91CA
:101620005F914F913F912F910F900FBE0F901F90A0
:1016300018951F920F920FB60F9211242F933F937C
:101640004F935F936F937F938F939F93AF93BF93CA
:10165000EF93FF93E0918C03F0918D03309709F0A5
:101660000995FF91EF91BF91AF919F918F917F91DC
:101670006F915F914F913F912F910F900FBE0F90FF
:101680001F9018951F920F920FB60F9211242F934F
:101690003F934F935F936F937F938F939F93AF93FA
:1016A000BF93EF93FF93E0918E03F0918F033097F8
:1016B00009F00995FF91EF91BF91AF919F918F91A3
:1016C0007F916F915F914F913F912F910F900FBE3E
:1016D0000F901F9018951F920F920FB60F92112422
:1016E0002F933F934F935F936F937F938F939F932A
:1016F000AF93BF93EF93FF93E0917C03F0917D0351
:10170000309709F00995FF91EF91BF91AF919F91AB
:101710008F917F916F915F914F913F912F910F909A
:101720000FBE0F901F9018951F920F920FB60F9239
:1017300011242F933F934F935F936F937F938F93D6
:101740009F93AF93BF93EF93FF93E0917E03F0914C
:101750007F03309709F00995FF91EF91BF91AF9109
:101760009F918F917F916F915F914F913F912F91B9
:101770000F900FBE0F901F9018951F920F920FB6EB
:101780000F9211242F933F934F935F936F937F9307
:101790008F939F93AF93BF93EF93FF93E091800359
:1017A000F0918103309709F00995FF91EF91BF9176
:1017B000AF919F918F917F916F915F914F913F91E9
:1017C0002F910F900FBE0F901F9018951F920F92A0
:1017D0000FB60F9211242F933F934F935F936F9304
:1017E0007F938F939F93AF93BF93EF93FF93E0917A
:1017F0008403F0918503309709F00995FF91EF91EB
:10180000BF91AF919F918F917F916F915F914F9118
:101810003F912F910F900FBE0F901F9018951F9220
:101820000F920FB60F9211242F933F934F935F9314
:101830006F937F938F939F93AF93BF93EF93FF9398
:10184000E0918603F0918703309709F00995FF91A5
:10185000EF91BF91AF919F918F917F916F915F9128
:101860004F913F912F910F900FBE0F901F901895A1
:101870001F920F920FB60F9211242F933F934F9305
:101880005F936F937F938F939F93AF93BF93EF93E8
:10189000FF93E0918203F0918303309709F009955B
:1018A000FF91EF91BF91AF919F918F917F916F9138
:1018B0005F914F913F912F910F900FBE0F901F900E
:1018C00018951F920F920FB60F9211242F933F93EA
:1018D0004F935F936F937F938F939F93AF93BF9338
:1018E000EF93FF93E0918803F0918903309709F01B
:1018F0000995FF91EF91BF91AF919F918F917F914A
:101900006F915F914F913F912F910F900FBE0F906C
:101910001F9018951F920F920FB60F9211242F93BC
:101920003F934F935F936F937F938F939F93AF9367
:10193000BF93EF93FF93E0917203F091730330979D
:1019400009F00995FF91EF91BF91AF919F918F9110
:101950007F916F915F914F913F912F910F900FBEAB
:101960000F901F9018951F920F920FB60F9211248F
:101970002F933F934F935F936F937F938F939F9397
:10198000AF93BF93EF93FF93E0917403F0917503CE
:10199000309709F00995FF91EF91BF91AF919F9119
:1019A0008F917F916F915F914F913F912F910F9008
:1019B0000FBE0F901F9018951F920F920FB60F92A7
:1019C00011242F933F934F935F936F937F938F9344
:1019D0009F93AF93BF93EF93FF93E0917603F091C2
:1019E0007703309709F00995FF91EF91BF91AF917F
:1019F0009F918F917F916F915F914F913F912F9127
:101A00000F900FBE0F901F9018951F920F920FB658
:101A10000F9211242F933F934F935F936F937F9374
:101A20008F939F93AF93BF93EF93FF93E0917803CE
:101A3000F0917903309709F00995FF91EF91BF91EB
:101A4000AF919F918F917F916F915F914F913F9156
:101A50002F910F900FBE0F901F901895E82F803296
:101A600068F48051833050F0F0E0EE0FFF1FE6592C
:101A7000FC4F208131817183608302C020E030E01F
:101A8000C901089580E10E944A09882361F4EAE6C9
:101A9000F3E01192119283E0EA3AF807D1F780E17E
:101AA00061E00E94920980E191E00895239A0895EF
:101AB000FF920F931F93CF93DF93F82E8AE0F816CF
:101AC000B1F08F1548F0E8E0FE16B9F1EF1538F1E6
:101AD000F7E0FF1651F43BC08DE0F81659F0EBE14A
:101AE000FE1689F0FCE0FF1641F001E041C01092C3
:101AF0001D0403C010921D043AC080911E04815041
:101B000080931E0434C00E94C60314C080E061E0CC
:101B10000E94A50480911D048F5F80931D04809115
:101B20001D0487FFF3CF10921D0480911E04815085
:101B300080931E0400E011E01CC080911D048823E6
:101B4000B1F080911D04865080931D0410C081E087
:101B50000E94B10564EF71E080E090E04DE750E055
:101B600024E630E00E94BE0581E00E94360F00E0CE
:101B700010E080911E0460911D040E948C040023DB
:101B800051F185E0F89EC0011124EC01C355DF4FEF
:101B90008C010E541F4FFE01849161E00E94A50448
:101BA0002196C017D107B9F780E061E00E94A50433
:101BB00080911D048A5F80931D0480911D0490E034
:101BC0008C3791053CF010921D0480911E048150C9
:101BD00080931E0411E080911E04837080931E0484
:101BE000113059F480911F04813039F4E0912004C0
:101BF000F0912104309709F0099580E090E0DF91A1
:101C0000CF911F910F91FF90089580E00E944A09A3
:101C1000882351F4F8940E94F31081E00E94170E7B
:101C200080E061E00E94920980E091E008958130B7
:101C300049F0F894813020F18230B1F0833009F01E
:101C400045C017C02C9A80E8809361001092610013
:101C500080E090E00000019688329105D9F710925B
:101C6000680010926B00089580E88093610083E023
:101C700004C080E88093610088E08093610028C000
:101C800080E090E0000001962DE680369207D1F7C3
:101C90002C9880E090E0000001962DE680369207B7
:101CA000D1F710927A008FEF8093640080916800E2
:101CB00081608093680080916B00846080936B00EA
:101CC000789483B7816083BF88950895823008F047
:101CD000789408950F931F930E941F1180E06EE087
:101CE00071E10E94A30E81E066E071E10E94A30E03
:101CF00082E06EEF70E10E94A30E86E066E171E182
:101D00000E94A30E06EF10E183E0B8010E94A30E2B
:101D100084E0B8010E94A30E85E0B8010E94A30EE2
:101D200087E0B8010E94A30E82E061E00E94920960
:101D30008FEF8093220487E00E94C00482E091E04C
:101D40001F910F910895E82FF0E0EE0FFF1FE65569
:101D5000FC4F7183608308950E94C60E08959B0115
:101D6000AC018091BB03882381F0DA01C901880F9F
:101D7000991FAA1FBB1F9093C7038093C603211509
:101D800031054105510509F45F9808958091BC0320
:101D90009091BD03A091BE03B091BF032091C003F9
:101DA0003091C1034091C2035091C303280F391FE2
:101DB0004A1F5B1F2093BC033093BD034093BE03B7
:101DC0005093BF038091BC039091BD03A091BE03CB
:101DD000B091BF038851964FA040B040BCF08BB18A
:101DE00080588BB98091BC039091BD03A091BE0334
:101DF000B091BF038851964FA040B0408093BC0380
:101E00009093BD03A093BE03B093BF0308958AE0EF
:101E10000E944A09813041F40E9438111092BB039C
:101E20008AE060E00E949209089589E00E944A09D0
:101E30008130D9F48091BA03882311F00E946A0F8F
:101E400082E00E9438118091C8039091C9030097E5
:101E500031F00E94D8241092C9031092C803109246
:101E6000BA0389E060E00E9492090895813029F068
:101E7000823029F40E94150F08950E94070F0895DB
:101E8000982F8091BA03882331F48091BB03882373
:101E900011F4579A5F988091BA038823D1F4923055
:101EA000C1F41092800010928100809181008860BE
:101EB00080938100809181008160809381001092E5
:101EC00085001092840081E08093890080E98093EE
:101ED00088000895EFE6F0E080818D7F808308958B
:101EE000982F81E080930704913051F0913018F0E1
:101EF000923041F403C01092EF0304C01092EF033C
:101F00001092F0031092070408953A9A3B9A3C9A73
:101F10003D9A3E9A3F9A88B1837088B90895982F68
:101F200081E080930704913071F0913018F0923085
:101F300071F405C07093E4036093E30308C07093E9
:101F4000E4036093E3037093E6036093E503109268
:101F500007040895982F81E080930704913051F091
:101F6000913018F0923041F403C06093F10304C043
:101F70006093F1036093F2031092070408950F93A6
:101F80001F93CF93DF93EB018A01813001F1813000
:101F900018F0823061F50DC08091DB039091DC0375
:101FA000892B11F080E01AC01092E8031092E70329
:101FB0001EC08091DB039091DC03892B21F080E02F
:101FC0000E94541104C01092E8031092E70380911C
:101FD000DD039091DE03892B31F081E0BE01A80181
:101FE0000E94541104C01092EA031092E903DF9199
:101FF000CF911F910F91089510920A0410920B0433
:1020000010920F0410920C0410920E0410921004FF
:1020100010921104109212041092130410921404DE
:1020200010921504109216041092170410921804BE
:102030001092190410921A0410921B0408950F9321
:102040001F9381E00E944A09813011F000E024C012
:1020500087E00E94C00482E06AE00E94110582E0ED
:1020600062EB0E94110518EC812F8A95F1F782E04E
:1020700060E00E942611082F812F8A95F1F782E0F7
:1020800060E00E9426111A95F1F787E00E94C004D3
:1020900088E893E10197F1F7802F1F910F91089540
:1020A000CF92DF92EF92FF920F931F93CF93DF9324
:1020B000EC0180914104882339F4D0934304C09308
:1020C00042040E94DE1047C0C0904204D0904304F6
:1020D00000E010E0EE24FF2437C0A881B981FD01A3
:1020E00064817581F60140815181FA018481958175
:1020F0009B01281B390B37FF0FC0861B970B95835D
:102100008483DB82CA82012B29F4D0934304C093D9
:10211000420421C0F7010CC0F60182819381211590
:10212000310549F4FD01158214829B838A83F601EF
:10213000D383C28310C0FD01358324830097B9F394
:102140000F5F1F4F76016C018091410490E00817EA
:10215000190718F2ECCF809141048F5F80934104FE
:10216000DF91CF911F910F91FF90EF90DF90CF9073
:10217000089588E00E944A098823B9F41092410426
:1021800010924304109242041092CA031092CB039F
:1021900080E161EC71E10E94E2100E94C8110E948E
:1021A000D81088E061E00E94920988E091E00895EB
:1021B000EEE6F0E0808182608083089581E0809384
:1021C000CB030895803218F020E030E00AC0E82FF9
:1021D000F0E0EE0FFF1FE659FC4F20813181718343
:1021E0006083C9010895249A2C9A089583E58CBDD3
:1021F00081E08DBD8DE08A95F1F7089583E58CBD72
:102200001DBC84EF91E00197F1F708958FE78CBD35
:102210001DBC84EF91E00197F1F7089583E58CBD33
:1022200081E08DBD8DE08A95F1F7089583E58CBD41
:1022300081E08DBD84EF91E00197F1F70895259A33
:102240002698279A209A219A229A08951F93162F4A
:102250000E94C00482E00E944A09813011F080E0AF
:1022600005C01EBD0DB407FEFDCF8EB51F910895AC
:10227000823029F4809181008E7F8093810080914B
:10228000BA03813031F48091BB03813011F4000036
:1022900008958091BA03813021F08091BB03813091
:1022A00011F45F9857980895EF92FF920F931F9340
:1022B000CF93DF93EB01882321F0813009F05AC0DE
:1022C0002DC09A0140E050E0CA01B9010E94952357
:1022D0002091DB033091DC03220F331F40E050E0FC
:1022E0000E94B92379018A01A8019701220F331FA7
:1022F000441F551FCE01A0E0B0E082179307A4074A
:10230000B50728F0F092E803E092E70333C0D695D2
:10231000C795D093E803C093E7032CC09A0140E02F
:1023200050E0CA01B9010E9495232091DD0330914C
:10233000DE03220F331F40E050E00E94B9237901F1
:102340008A01A8019701220F331F441F551FCE0198
:10235000A0E0B0E082179307A407B50728F0F09239
:10236000EA03E092E90306C0D695C795D093EA0345
:10237000C093E903DF91CF911F910F91FF90EF90F0
:1023800008950E94D1110E9411120E94EA1108952D
:1023900084B5826084BD85B5846085BD8EE487BDCB
:1023A000089588E00E944A09882311F484E0089582
:1023B0008091CB03882311F483E008958091CA03B0
:1023C000882311F082E008950E945E148130E1F3C9
:1023D00080E008958091BB03813011F58091C403A2
:1023E0009091C5032091C6033091C703280F391F70
:1023F0003093C5032093C4038091C4039091C50317
:10240000885E93406CF08BB180588BB98091C40387
:102410009091C503885E93409093C5038093C40355
:10242000089587E00E944A09813009F0AAC080918E
:10243000DB039091DC03892B09F18091FF039091DC
:1024400000042091DB033091DC03820F931F9093F3
:1024500000048093FF038091FF0390910004885E45
:102460009340A4F08091FF0390910004885E934014
:10247000909300048093FF0341E009C08091D3034F
:102480009091D4039093D8038093D70340E0809138
:10249000DD039091DE03892B09F180910104909175
:1024A00002042091DD033091DE03820F931F90938D
:1024B0000204809301048091010490910204885EDB
:1024C0009340A4F08091010490910204885E9340AF
:1024D000909302048093010461E009C08091D503C8
:1024E0009091D6039093DA038093D90360E0842F10
:1024F0000E94C2128091FB039091FC032091D703AC
:102500003091D803280F391F3093FC032093FB032D
:102510008091FB039091FC03885E934014F440E0AB
:102520000BC08091FB039091FC03885E93409093D5
:10253000FC038093FB0341E08091FD039091FE0337
:102540002091D9033091DA03280F391F3093FE030D
:102550002093FD038091FD039091FE03885E9340DC
:1025600014F460E00BC08091FD039091FE03885E3F
:1025700093409093FE038093FD0361E0842F0E94BB
:10258000071308958823F1F02091D3033091D403E9
:102590008091D7039091D803281B390B121613068C
:1025A00034F48091D7039091D803019607C0232B70
:1025B00049F08091D7039091D80301979093D80365
:1025C0008093D703662311F12091D5033091D60370
:1025D0008091D9039091DA03281B390B1216130648
:1025E00054F48091D9039091DA0301969093DA0321
:1025F0008093D9030895232B49F08091D9039091BA
:10260000DA0301979093DA038093D90308950F9327
:102610001F93182F062F80910704882309F0E7C025
:102620008091EF03882309F05AC08091D7039091DD
:10263000D803892BE9F48091CC03837E8093CC036B
:102640001092F80380910304882309F45DC060911F
:10265000F10380E00E94D708E0910504F0910604A0
:10266000309709F451C081E08083109203044CC07C
:102670008091D103813041F48091E3039091E40390
:10268000019711F411E002C01123F1F1E091F6037A
:10269000F0E0EF5FFE4F9091CC03937E8081892B19
:1026A0008093CC038091F403882321F48091F60376
:1026B0008F5F03C08091F60381508093F603809171
:1026C000F60383708093F60381E08093F803809192
:1026D000D1038130C9F480E00E940A1415C09091A2
:1026E000CC03937E9093CC03E091F603F0E0EF5F90
:1026F000FE4F8081892B8093CC0382E08093F80386
:102700001092D8031092D7038091F003882309F028
:1027100059C08091D9039091DA03892BE9F4809113
:10272000CC038F718093CC031092F9038091040441
:10273000882309F45CC06091F20381E00E94D7080D
:10274000E0910504F0910604309709F450C081E04F
:102750008183109204044BC08091D203813041F4F4
:102760008091E5039091E603019711F401E002C026
:102770000023E9F1E091F703F0E0EB5FFE4F909169
:10278000CC039F718081892B8093CC038091F503CA
:10279000882321F48091F7038F5F03C08091F703B2
:1027A00081508093F7038091F70383708093F70340
:1027B00081E08093F9038091D2038130C1F40E94BB
:1027C0000A1415C09091CC039F719093CC03E091B3
:1027D000F703F0E0EB5FFE4F8081892B8093CC0301
:1027E00082E08093F9031092DA031092D90380916A
:1027F000FA03882331F48CEC93E0612F402F0E9480
:10280000CC1488B183709091CC03892B88B91F9127
:102810000F910895882321F0813009F04EC027C020
:102820008091E3039091E403892B49F08091E303C5
:102830009091E40301979093E4038093E3038091E4
:1028400003048823D1F52091E3033091E4038091C0
:10285000E7039091E8032817390779F580E060E0F5
:1028600070E00E94290881E080930304089580911C
:10287000E5039091E603892B49F08091E50390915F
:10288000E60301979093E6038093E50380910404A7
:10289000882399F42091E5033091E6038091E903C0
:1028A0009091EA032817390741F481E060E070E075
:1028B0000E94290881E0809304040895FF920F93F9
:1028C0001F93CF93DF9380914104882309F459C06B
:1028D0000091420410914304F801C081D1818C81A0
:1028E0009D8101979D838C83181619060CF449C0AD
:1028F000898180FF05C08E81882311F481E08E8359
:10290000898181FF03C0EF81F88509958091410499
:102910008230A8F0F80182819381909343048093E0
:10292000420413821282E0910000F0910100848140
:102930009581181619063CF0FF24F39405C01092F7
:10294000430410924204FF248091410481508093FB
:10295000410480914104882311F40E94C9148981A3
:1029600082FF08C08A819B819D838C83C8010E945D
:10297000501008C0C8010E94D82489818F7E8983A5
:1029800001C0FF248F2DDF91CF911F910F91FF90F8
:1029900008951092CB030895FC018091F8038230D2
:1029A00069F48091D00391E089278093D003882334
:1029B00009F03EC08081837E80833AC08091D70336
:1029C0009091D803C397A4F56623D1F02091D70343
:1029D0003091D80380E690E0BC01269FC001279F7C
:1029E000900D369F900D1124880F892F881F990B09
:1029F0009093EC038093EB0381E08093CE0318C0A7
:102A00008091CE038823A1F08091EB039091EC0399
:102A100001979093EC038093EB038091EB039091EB
:102A2000EC03892B29F48081837E80831092CE036E
:102A30008091F903823069F48091CF0391E0892776
:102A40008093CF03882309F03EC080818F718083FB
:102A500008958091D9039091DA03C397A4F5442394
:102A6000D1F02091D9033091DA0380E690E0AC01F7
:102A7000249FC001259F900D349F900D1124880F35
:102A8000892F881F990B9093EE038093ED0381E0CB
:102A90008093CD0308958091CD038823A1F0809188
:102AA000ED039091EE0301979093EE038093ED0375
:102AB0008091ED039091EE03892B29F480818F7131
:102AC00080831092CD0308958F92AF92BF92CF92E0
:102AD000EF92FF920F931F93CF93DF930E94B52540
:102AE000EC010E94B52529EC30E0B9010E94A52334
:102AF0008C0111271F921F921F9281E08F9380E912
:102B00008F93CE01B9010E94A52399279F938F939C
:102B10001F921F92812CA12CB12CC12C0F2EF0E9F9
:102B2000EF2EFF24F394F02D20E030E040E062E04F
:102B300082E00E94C80684EF91E00E94760A8DB779
:102B40009EB709960FB6F8949EBF0FBE8DBFDF915A
:102B5000CF911F910F91FF90EF90CF90BF90AF90CA
:102B60008F90089581E00E94B20384E00E947B036D
:102B70000E945E03BC0180E090E00E94621D20E0A4
:102B800030E040EA50E40E94661C9B01AC0160E02A
:102B900070E286E395E40E94CE1C20E030E040E83D
:102BA0005FE30E94651C2CE033E949EC5EE30E9480
:102BB000441E089581E00E94B20383E00E947B03DB
:102BC0000E945E03BC0180E090E00E94621D20E054
:102BD00030E040EA50E40E94661C9B01AC0160E0DA
:102BE00070E286E395E40E94CE1C20E030E040E8ED
:102BF0005FE30E94651C2CE033E949EC5EE30E9430
:102C0000441E089581E00E94B20387E00E947B0386
:102C10000E945E03BC0180E090E00E94621D20E003
:102C200030E040EA50E40E94661C9B01AC0160E089
:102C300070E286E395E40E94CE1C20E030E040E89C
:102C40005FE30E94651C2CE033E949EC5EE30E94DF
:102C5000441E0895C1E0D0E90F2EF6E99F2EF02D15
:102C60000F2EF8EC3F2EF02D0E9402166B017C0116
:102C70000E94DA152B013C010E94B21520E030E0E1
:102C800040E451E4C701B6010E94391E18160CF049
:102C9000B7C020E030E040E451E4C301B2010E943B
:102CA000CA1C88230CF0ACC020E030E040E850E4BF
:102CB000C301B2010E94CA1C8823E4F40E94C60327
:102CC00087E192E00E94F92684E292E00E94F926D0
:102CD00082E392E00E94F926A301920160E070E095
:102CE00080E890E40E94651C6B017C0160E070E06C
:102CF000CB0137C020E030E040EA50E4C301B2012C
:102D00000E94391E1816D4F40E94C60387E192E08F
:102D10000E94F92688E392E00E94F92682E392E07D
:102D20000E94F92620E030E040EA50E4C301B201FD
:102D30000E94651CC12CD12C760113C00E94C603D1
:102D400087E192E00E94F92687E492E00E94F9264A
:102D500082E392E00E94F926C12CD12C7601C701B2
:102D6000B60120E030E040EA51E40E94441E20E039
:102D700030E0A9010E94661C20E030E040EF52E400
:102D80000E94661C0E94361D2B013C011F921F925F
:102D90001F92CF93DF9320E030E040EA51E4C70177
:102DA000B6010E94441E20E030E0A9010E94661C8A
:102DB00020E030E040EF52E40E94661C0E94361D85
:102DC0007F936F931F921F92812CA12CB12CC12C49
:102DD0000F2EF0E9EF2EFF24F394F02D820120E076
:102DE00030E040E062E082E00E94C8062DB73EB7C6
:102DF000275F3F4F0FB6F8943EBF0FBE2DBF34CFB5
:102E000020E030E040E451E4C701B6010E94CA1C52
:102E100088230CF058C020E030E040E451E4C301C6
:102E2000B2010E94CA1C88230CF04DC00E94C60348
:102E300087E192E00E94F92681E592E00E94F9265E
:102E40008FE592E00E94F9261F921F921F92CF9366
:102E5000DF931F929F921F921F92812CA12CB12C65
:102E6000C12C0F2EF0E9EF2EFF24F394F02D06E98C
:102E700010E020E030E040E062E082E00E94C8061E
:102E800084EF91E00E94760A1F921F921F92CF93C7
:102E9000DF931F923F921F921F9208EC10E020E0F8
:102EA00030E04C2F62E082E00E94C80684EF91E09F
:102EB0000E94760A8DB79EB742960FB6F8949EBFD1
:102EC0000FBE8DBFD1CE20E030E040E451E4C70119
:102ED000B6010E94391E18160CF0C6CE20E030E074
:102EE00040E451E4C301B2010E94391E18160CF0EF
:102EF000BBCE0E94C60387E192E00E94F9268CE6D1
:102F000092E00E94F92689E792E00E94F9261F923A
:102F10001F921F92CF93DF931F929F921F921F9237
:102F2000812CA12CB12CC12C0F2EF0E9EF2EFF2407
:102F3000F394F02D06E910E020E030E040E062E09C
:102F400082E00E94C80684EF91E00E94760A0E9407
:102F5000DA152DB73EB7275F3F4F0FB6F8943EBF47
:102F60000FBE2DBF20E030E040E451E40E94391E46
:102F700018160CF079CE1F921F921F92CF93DF93F9
:102F80001F923F921F921F928C2E08EC10E020E0BF
:102F900030E040E062E082E00E94C80684EF91E009
:102FA0000E94760A1F921F921F92CF93DF931F9267
:102FB0009F921F921F92812C06E910E020E030E0E2
:102FC00040E062E082E00E94C8060E94DA152DB758
:102FD0003EB72E5E3F4F0FB6F8943EBF0FBE2DBFDB
:102FE00020E030E040E451E40E94391E18160CF055
:102FF0003BCE84E690E00E94760A0E94DA1520E03B
:1030000030E040E451E40E94391E181694F32CCEAF
:10301000C1E0D0E90F2EF6E99F2EF02D0F2EF8EC2F
:103020003F2EF02D0E9402166B017C010E94DA15E2
:103030000E94B2152B013C0120E030E040E451E455
:10304000C701B6010E94391E18160CF0B7C020E067
:1030500030E040E451E4C301B2010E94CA1C88235D
:103060000CF0ACC020E030E040E850E4C301B20115
:103070000E94CA1C8823D4F40E94C60387E892E009
:103080000E94F92684E292E00E94F92682E392E00F
:103090000E94F926A301920160E070E080E890E4CC
:1030A0000E94651CC12CD12C760139C020E030E093
:1030B00040EA50E4C301B2010E94391E1816E4F43C
:1030C0000E94C60387E892E00E94F92688E392E016
:1030D0000E94F92682E392E00E94F92620E030E087
:1030E00040EA50E4C301B2010E94651C6B017C01FF
:1030F00060E070E0CB0113C00E94C60387E892E055
:103100000E94F92687E492E00E94F92682E392E089
:103110000E94F926C12CD12C7601C701B60120E00E
:1031200030E040EA51E40E94441E20E030E0A90172
:103130000E94661C20E030E040EF52E40E94661CD2
:103140000E94361D2B013C011F921F921F92CF93AC
:10315000DF9320E030E040EA51E4C701B6010E946D
:10316000441E20E030E0A9010E94661C20E030E00F
:1031700040EF52E40E94661C0E94361D7F936F93BD
:103180001F921F92812CA12CB12CC12C0F2EF0E983
:10319000EF2EFF24F394F02D820120E030E040E098
:1031A00062E082E00E94C8062DB73EB7275F3F4F1E
:1031B0000FB6F8943EBF0FBE2DBF34CF20E030E0F5
:1031C00040E451E4C701B6010E94CA1C88230CF0F8
:1031D00059C020E030E040E451E4C301B2010E9454
:1031E000CA1C88230CF04EC00E94C60387E892E0F8
:1031F0000E94F92681E592E00E94F92689E792E093
:103200000E94F9261F921F921F92CF93DF931F9265
:103210009F921F921F92812CA12CB12CC12C0F2E9A
:10322000F0E9EF2EFF24F394F02D06E910E020E002
:1032300030E040E062E082E00E94C80684EF91E066
:103240000E94760A1F921F921F92CF93DF931F92C4
:103250003F921F921F928C2E08EC10E020E030E08D
:1032600040E062E082E00E94C80684EF91E00E94A4
:10327000760A8DB79EB742960FB6F8949EBF0FBEE2
:103280008DBFD0CE20E030E040E451E4C701B6016C
:103290000E94391E18160CF0C5CE20E030E040E444
:1032A00051E4C301B2010E94391E18160CF0BACEC7
:1032B0000E94C60387E892E00E94F9268CE692E01D
:1032C0000E94F9268FE592E00E94F9261F921F9234
:1032D0001F92CF93DF931F929F921F921F92812C78
:1032E000A12CB12CC12C0F2EF0E9EF2EFF24F3946A
:1032F000F02D06E910E020E030E040E062E082E0FE
:103300000E94C80684EF91E00E94760A0E94B215DE
:103310002DB73EB7275F3F4F0FB6F8943EBF0FBEA5
:103320002DBF20E030E040E451E40E94391E181621
:103330000CF078CE1F921F921F92CF93DF931F92B3
:103340003F921F921F9208EC10E020E030E04C2FDB
:1033500062E082E00E94C80684EF91E00E94760A53
:103360001F921F921F92CF93DF931F929F921F92E3
:103370001F9206E910E020E030E040E062E082E0E9
:103380000E94C8060E94B2152DB73EB72E5E3F4F71
:103390000FB6F8943EBF0FBE2DBF20E030E040E4F2
:1033A00051E40E94391E18160CF03CCE84E690E0E1
:1033B0000E94760A0E94B21520E030E040E451E419
:1033C0000E94391E181694F32DCE2F923F924F92E1
:1033D0005F926F927F928F929F92AF92BF92CF92A5
:1033E000DF92EF92FF920F931F93CF93DF93CDB7AE
:1033F000DEB728970FB6F894DEBF0FBECDBF0E9490
:10340000DA156B017C010E94B21520E030E040E447
:1034100051E40E94CA1C88230CF0ECC020E030E08C
:1034200040E451E4C701B6010E94CA1C88230CF095
:10343000E1C0222423940F2EF0E93F2EF02D0E94AC
:10344000DA152B013C010E94B21569837A838B83C4
:103450009C839B01AC01C301B2010E94661C20E069
:1034600030E040E05FE30E94441E4B015C019B01A1
:10347000AC01C301B2010E94651C6B017C0120E01C
:1034800030E0A9010E94391E181694F40E94C60368
:1034900083E992E00E94F92681EA92E00E94F926EF
:1034A00089EA92E00E94F926812C912C54013CC0BB
:1034B000A3019201C501B4010E94651C20E030E027
:1034C000A9010E94391E1816E4F40E94C60383E97C
:1034D00092E00E94F92680EB92E00E94F92689EAA8
:1034E00092E00E94F926A501940169817A818B817D
:1034F0009C810E94651C4B015C01C12CD12C760182
:1035000013C00E94C60389EB92E00E94F92681EC69
:1035100092E00E94F92689EC92E00E94F926812C23
:10352000912C54017501640120E030E040EA51E43F
:10353000C701B6010E94441E20E030E0A9010E94AC
:10354000661C20E030E040EF52E40E94661C0E94BE
:10355000361D6D837E838F8398871F921F921F92E3
:103560002F923F9220E030E040EA51E4C501B401DF
:103570000E94441E20E030E0A9010E94661C20E069
:1035800030E040EF52E40E94661C0E94361D7F939B
:103590006F931F921F92812CA12CB12CC12C0F2E46
:1035A000F0E9EF2EFF24F394F02D0D811E8120E031
:1035B00030E040E062E082E00E94C8060FB6F89476
:1035C000DEBF0FBECDBF20E030E040E451E46981B2
:1035D0007A818B819C810E94CA1C88235CF420E044
:1035E00030E040E451E4C301B2010E94CA1C8823C8
:1035F0000CF425CF28960FB6F894DEBF0FBECDBFD2
:10360000DF91CF911F910F91FF90EF90DF90CF90BE
:10361000BF90AF909F908F907F906F905F904F90F2
:103620003F902F900895CF93DF9300D000D0CDB777
:10363000DEB70E94E3038EEC92E09F938F930E948B
:10364000E5260E94270A0F900F90913051F00E94BA
:10365000C6038CED92E09F938F930E94E5260F9016
:103660000F9081E00E94B1050E94500381E00E940A
:10367000B2030E946F0787EF92E09F938F930E949F
:10368000E5260E94C60360E082E00E9414080F90C5
:103690000F900E94C6038FEF92E00E94F92680E10E
:1036A00093E00E94F92681E293E00E94F92680E0EF
:1036B0000E94D909882309F4D8C00E9402166B0120
:1036C0007C010E94DA152B013C010E94B21569832E
:1036D0007A838B839C8320E030E040E251E40E94B7
:1036E000CA1C882374F420E030E040E251E4C301B6
:1036F000B2010E94CA1C88230CF0DBC00E94E519AD
:10370000DCCF20E030E040E251E4C301B2010E948E
:10371000CA1C882314F40E942A1620E030E040E2FC
:1037200051E469817A818B819C810E94CA1C882323
:1037300014F40E94081820E030E040E251E4C70190
:10374000B6010E94CA1C88230CF082C00E94C603E6
:1037500084E393E09F938F930E94E5268DE393E0AB
:103760009F938F930E94E5261F921F921F9281E0E4
:103770008F9380E98F931F9286E98F931F921F92F8
:10378000812CA12CB12CC12C0F2EF0E9EF2EFF249F
:10379000F394F02D06E910E020E030E040E062E034
:1037A00082E00E94C80684EF91E00E94760A0FB67C
:1037B000F894DEBF0FBECDBF29813A814B815C8179
:1037C000C301B2010E94CA1C8823ECF41F921F920D
:1037D0001F9281E08F9380E98F931F9288EC8F93E3
:1037E0001F921F928824839408EC10E020E030E0C0
:1037F00040E062E082E00E94C80684EF91E00E940F
:10380000760A0E9408181F921F921F9281E08F93E0
:1038100080E98F931F9288EC8F931F921F92812CC7
:10382000A12CB12CC12C0F2EF0E9EF2EFF24F39424
:10383000F02D08EC10E020E030E041E062E082E0B2
:103840000E94C80684EF91E00E94760A0E942A1620
:103850000E94C6038AE493E00E94F92681E593E082
:103860000E94F9260E94641528CF81E00E94D909A0
:10387000882309F40ECF0E94DA156B017C010E94A7
:10388000B21520E030E040E251E40E94CA1C8823D7
:103890006CF420E030E040E251E4C701B6010E9440
:1038A000CA1C88231CF40E94E519E5CF0E94641508
:1038B000E2CF20E030E040E251E4C301B2010E94D7
:1038C000CA1C88230CF035CF26CF5058BB27AA2717
:1038D0000ED095C186D130F08BD120F031F49F3FCE
:1038E00011F41EF456C10EF4E095E7FB4CC1E92F2C
:1038F00097D180F3BA17620773078407950718F00A
:1039000071F49EF5AFC10EF4E0950B2EBA2FA02DE9
:103910000B01B90190010C01CA01A0011124FF277C
:10392000591B99F0593F50F4503E68F11A16F04077
:10393000A22F232F342F4427585FF3CF4695379576
:103940002795A795F0405395C9F77EF41F16BA0B3B
:10395000620B730B840BBAF09150A1F0FF0FBB1FE9
:10396000661F771F881FC2F70EC0BA0F621F731F32
:10397000841F48F4879577956795B795F7959E3F8F
:1039800008F0B3CF9395880F08F09927EE0F97951D
:1039900087950895D4D008F481E008950CD02FC104
:1039A00027D140F01ED130F021F45F3F19F0EBC079
:1039B000511159C1EEC034D198F39923C9F355235D
:1039C000B1F3951B550BBB27AA2762177307840712
:1039D00038F09F5F5F4F220F331F441FAA1FA9F3C8
:1039E00033D00E2E3AF0E0E830D091505040E695BA
:1039F000001CCAF729D0FE2F27D0660F771F881F1B
:103A0000BB1F261737074807AB07B0E809F0BB0B09
:103A1000802DBF01FF2793585F4F2AF09E3F51052D
:103A200068F0B1C020C15F3FECF3983EDCF38695AF
:103A300077956795B795F7959F5FC9F7880F911DA3
:103A40009695879597F90895E1E0660F771F881F8F
:103A5000BB1F621773078407BA0720F0621B730B42
:103A6000840BBA0BEE1F88F7E0950895E1D088F03B
:103A70009F5790F0B92F9927B751A0F0D1F0660F5A
:103A8000771F881F991F1AF0BA95C9F712C0B13075
:103A900081F0E8D0B1E00895E5C0672F782F88273E
:103AA000B85F39F0B93FCCF3869577956795B395B4
:103AB000D9F73EF490958095709561957F4F8F4F23
:103AC0009F4F0895E89409C097FB3EF49095809528
:103AD000709561957F4F8F4F9F4F9923A9F0F92FD4
:103AE00096E9BB279395F695879577956795B79552
:103AF000F111F8CFFAF4BB0F11F460FF1BC06F5F38
:103B00007F4F8F4F9F4F16C0882311F096E911C049
:103B1000772321F09EE8872F762F05C0662371F06A
:103B200096E8862F70E060E02AF09A95660F771F7E
:103B3000881FDAF7880F9695879597F90895990F5A
:103B40000008550FAA0BE0E8FEEF16161706E80767
:103B5000F907C0F012161306E407F50798F0621B88
:103B6000730B840B950B39F40A2661F0232B242B5D
:103B7000252B21F408950A2609F4A140A6958FEF7C
:103B8000811D811D089597F99F6780E870E060E0CE
:103B900008959FEF80EC0895DF93CF931F930F93C9
:103BA000FF92EF92DF927B018C01689405C0DA2EC0
:103BB000EF0176D0FE01E894A591259135914591CC
:103BC0005591AEF3EF0193DEFE019701A801DA945F
:103BD00079F7DF90EF90FF900F911F91CF91DF91D8
:103BE000089500240A941616170618060906089563
:103BF00000240A9412161306140605060895092EC9
:103C00000394000C11F4882352F0BB0F40F4BF2B37
:103C100011F460FF04C06F5F7F4F8F4F9F4F089577
:103C200057FD9058440F551F59F05F3F71F047956D
:103C3000880F97FB991F61F09F3F79F08795089552
:103C4000121613061406551FF2CF4695F1DF08C071
:103C5000161617061806991FF1CF8695710561058E
:103C600008940895E894BB2766277727CB0197F936
:103C7000089565DF08F48FEF08959B01AC0160E0C3
:103C800070E080E89FE38ACE0BD0B9CFAADF28F09E
:103C9000AFDF18F0952309F076CF7BCF1124E3CF67
:103CA000BFDFA0F3959FD1F3950F50E0551F629FA2
:103CB000F001729FBB27F00DB11D639FAA27F00D85
:103CC000B11DAA1F649F6627B00DA11D661F829FAC
:103CD0002227B00DA11D621F739FB00DA11D621F91
:103CE000839FA00D611D221F749F3327A00D611DAE
:103CF000231F849F600D211D822F762F6A2F112490
:103D00009F5750408AF0E1F088234AF0EE0FFF1FE2
:103D1000BB1F661F771F881F91505040A9F79E3F19
:103D2000510570F030CF9FCF5F3FECF3983EDCF34E
:103D3000869577956795B795F795E7959F5FC1F756
:103D4000FE2B880F911D9695879597F908959F3FB3
:103D500031F0915020F4879577956795B795880F46
:103D6000911D9695879597F90895A3E1B0E0EBEB47
:103D7000FEE10C94E6237C011B016A01FC01178221
:103D80001682838181FF66C3BE016F5F7F4F4B0147
:103D9000F7019381F10193FD859193FF81911F01BB
:103DA000882309F453C3853239F493FD859193FF39
:103DB00081911F01853239F4B70190E00E94B3264A
:103DC00056016501E5CF10E0512C20E02032A0F42F
:103DD0008B3269F030F4803259F0833269F420611B
:103DE0002CC08D3239F0803339F4216026C0226036
:103DF000246023C0286021C027FD27C030ED380F84
:103E00003A3078F426FF06C0FAE01F9F300D1124E7
:103E1000132F13C06AE0569E300D1124532E2062DA
:103E20000CC08E3221F426FD11C3206406C08C36EE
:103E300011F4206802C0883641F4F10193FD8591A8
:103E400093FF81911F018111C1CF9BEB980F93309C
:103E500018F42061805E06C09BE9980F933008F04B
:103E6000AAC12F7E26FF16E02F73722E853621F40D
:103E7000F22FF0647F2E08C0863621F4622F60682E
:103E8000762E02C01111115077FE07C01C3348F482
:103E900044244394410E27E00BC0183030F4212F06
:103EA00006C027E04CE3442E03C027E017E0412C76
:103EB000560174E0A70EB11CF60160817181828108
:103EC0009381042DA4010E94C5256C01098100FF86
:103ED00002C003FF06C071FC07C072FC08C0612C61
:103EE00008C03DE2632E05C02BE2622E02C090E2C4
:103EF000692E802F8C7099F1662011F084E001C04A
:103F000083E0851510F0512C0BC0581A73FC08C0C3
:103F1000B70180E290E00E94B3265A94C9F7F3CF2C
:103F2000662029F0B701862D90E00E94B32603FD9C
:103F300003C003E615E002C00FE515E0F72DF071B0
:103F40007F2EF8018491882309F476C27110805283
:103F5000B70190E00E94B3260F5F1F4FF2CF77FEAC
:103F60000FC04C0C04FF04C08A81813309F44A94C9
:103F7000141474F5F8E0F41578F588E0482E2CC098
:103F800076FC2AC0812F90E08C159D059CF06CEF8B
:103F9000C6166FEFD60674F0772D7068772E0AC0BC
:103FA000E2E0F0E0EC0FFD1FE10FF11D80818033B6
:103FB00019F411501111F4CF77FE0EC0442443942C
:103FC000410E812F90E0C816D9062CF41C1904C0AC
:103FD0004424439401C010E077FE07C01C141D0464
:103FE0003CF496012F5F3F4F05C025E030E002C052
:103FF00021E030E0662011F02F5F3F4F112331F0B8
:10400000412F50E04F5F5F4F240F351F452D50E08B
:104010002417350714F4521A01C0512C872D8970CA
:1040200049F4552039F0B70180E290E00E94B326B0
:104030005A94F7CF662029F0B701862D90E00E94B0
:10404000B32673FC09C0552039F0B70180E390E036
:104050000E94B3265A94F7CF77FE5FC09C2D8D2D1A
:10406000D7FE02C090E080E0692E782E40E050E05C
:10407000C601841991099D878C87960126193709F5
:10408000280D391D812F90E0EE27FF27E81BF90B43
:10409000FF87EE87FFEF6F167F0669F4B7018EE2A8
:1040A00090E02B8B3A8B488B598B0E94B326598911
:1040B00048893A892B89C614D70454F06C857D85CC
:1040C000661577052CF4F901E40FF51F818101C015
:1040D00080E371E0671A71084F5F5F4FEE85FF85DF
:1040E0006E167F066CF0B70190E02B8B3A8B488BF5
:1040F000598B0E94B3262B893A8948895989CACF9E
:104100006C147D0439F49A81963318F4953311F4C4
:1041100004FF81E3B70190E04BC08A81813309F04D
:104120000F7EB70190E00E94B326111105C074FE06
:1041300018C085E490E017C0B7018EE290E00E94BD
:10414000B32682E066246394680EF401E80FF11D43
:104150008081B70190E00E94B326115041F3862D73
:10416000F1CF85E690E0B7010E94B326D7FC05C0E9
:10417000C114D10439F404FF05C0D194C194D1080D
:104180008DE201C08BE2B70190E00E94B32680E38C
:104190006AE0C616D1042CF08F5FFAE0CF1AD1087E
:1041A000F7CFB70190E00E94B326B701C601C096D1
:1041B0000E94B32641C1833631F0833779F08335CD
:1041C00009F058C021C0560172E0A70EB11CF601DB
:1041D0008081898301E010E0640114C05601F2E09F
:1041E000AF0EB11CF601C080D18026FF03C0612F45
:1041F00070E002C06FEF7FEFC6012B8B0E94A826F4
:104200008C012B892F7715C05601F2E0AF0EB11C3F
:10421000F601C080D18026FF03C0612F70E002C08C
:104220006FEF7FEFC6012B8B0E949D268C012B899F
:104230002068722E23FD1AC0852D90E008171907FB
:10424000A8F4B70180E290E00E94B3265A94F4CF1C
:10425000F60177FC859177FE81916F01B70190E0BF
:104260000E94B32651105A940150110901151105ED
:1042700079F7E2C0843611F0893651F5560127FFEF
:1042800009C0F4E0AF0EB11CF6016081718182813A
:1042900093810AC0F2E0AF0EB11CF601608171811A
:1042A000882777FD8095982F022F0F7697FF08C0FB
:1042B00090958095709561957F4F8F4F9F4F0068C7
:1042C0002AE030E0A4010E942627C82EC8183EC06C
:1042D000022F853721F40F7E2AE030E01DC0097FD0
:1042E0008F3691F018F4883559F0B0C0803719F046
:1042F000883711F0ABC0006104FF09C0046007C03B
:1043000024FF08C0066006C028E030E005C020E1B8
:1043100030E002C020E132E0560107FF09C0F4E0BE
:10432000AF0EB11CF601608171818281938108C05A
:10433000F2E0AF0EB11CF6016081718180E090E087
:10434000A4010E942627C82EC8180F7706FF0BC0AD
:10435000202F2E7FC11650F404FF0AC002FD08C0B2
:10436000202F2E7E05C0DC2C202F03C0DC2C01C0AA
:10437000D12E24FF0DC0FE01EC0DF11D8081803394
:1043800011F4297E09C022FF06C0D394D39404C03F
:10439000822F867809F0D39423FD13C020FF06C036
:1043A0001C2DD51418F4150D1D19D52CD51468F431
:1043B000B70180E290E02B8B0E94B326D3942B8927
:1043C000F5CFD51410F45D1801C0512C24FF12C094
:1043D000B70180E390E02B8B0E94B3262B8922FF4C
:1043E00017C021FF03C088E590E002C088E790E095
:1043F000B7010CC0822F867859F021FD02C080E2FF
:1044000001C08BE227FD8DE2B70190E00E94B32648
:10441000C11638F4B70180E390E00E94B326115032
:10442000F7CFCA94F401EC0DF11D8081B70190E043
:104430000E94B326C110F5CF552009F4C2CCB701B4
:1044400080E290E00E94B3265A94F6CFF70186816D
:10445000978102C08FEF9FEF6396E2E10C940224F4
:10446000E7DBA8F19E57A8F1985160F039F1983038
:1044700070F5092E9927660F771F881F991F0A94D8
:10448000D1F71CC0BB27993F4CF4B111B1E0B62B5A
:10449000672F782F8827985FB1F708C086957795A2
:1044A0006795B79508F4B1609395C1F7BB0F30F4E9
:1044B00011F460FF03C06F5F7F4F8F4F3EF4909504
:1044C0008095709561957F4F8F4F9F4F08956894A9
:1044D000CACBC8CBFA01EE0FFF1F3096210531057C
:1044E00099F16115710561F48038BFE39B0749F1CB
:1044F00068949038810561F08038BFEF9B0741F0E8
:10450000992342F5FF3FE1053105210511F1E894BA
:104510000894E795D901AA2329F4AB2FBE2FF85FA1
:10452000D0F310C0FF5F70F4A695E0F7F73950F0B4
:1045300019F0FF3A38F49F779F930CD00F9007FC47
:10454000905808953EF025CB60E070E080E89FE34E
:1045500008954FE79F775F934F933F932F9372D0C8
:104560002F913F914F915F918FDB05C019F40EF0B1
:104570000ACB78CB0ECB5CDBC8F39638C0F707F8D4
:104580000F92E8942BE33AEA48EB5FE78BDB0F925C
:104590000F920F924DB75EB70F9294D0E8ECF0E017
:1045A000FBDA4F915F91EF91FF91E595EE1FFF1FB1
:1045B00049F0FE57E0684427EE0F441FFA95E1F7F3
:1045C0004195550B06D00F9007FE57CB0895DBCAD7
:1045D000BECB2EDBE8F39923D9F3940F511DBBF327
:1045E0009150504094F059F0882332F0660F771FB5
:1045F000881F91505040C1F79E3F510544F7880FE6
:10460000911D9695879597F908955F3FACF0983E78
:104610009CF0BB27869577956795B79508F4B160B0
:104620009395C1F7BB0F58F711F460FFE8CF6F5FA8
:104630007F4F8F4F9F4FE3CF16CB0EF088CBA9CA89
:104640006894A1CAF5DAC8F39923D1F3C6F3DF93CE
:10465000CF931F930F93FF92C92FDD2788232AF052
:104660002197660F771F881FDAF720E030E040E8D7
:104670005FEB9FE3883920F0803E30F021968F7702
:1046800025D9E0EFF0E003C021D9EDE1F1E084DAD3
:104690008B01BE01EC01FB2E6F5771097595771FD9
:1046A000880B990B11DA28E132E741E35FE3F8DA8E
:1046B000AF2D9801AE01FF900F911F91CF91DF9127
:1046C00016D99DCAFA01DC01AA0FBB1F9B01AC01E0
:1046D000BF5728F422273327442750781FC0B751EB
:1046E00088F4AB2F0024469537952795011CA39598
:1046F000D2F3002069F0220F331F441FB395DAF381
:104700000DD0E3C861307105A0E88A07B94630F4DE
:104710009B01AC016627772788279078309621F097
:1047200020833183428353830895DB018F939F93CA
:104730000E94DB23BF91AF91A29F800D911DA39F8B
:10474000900DB29F900D1124089597FB072E16F43B
:10475000009407D077FD09D00E941D2407FC05D0E6
:104760003EF4909581959F4F0895709561957F4F88
:104770000895A1E21A2EAA1BBB1BFD010DC0AA1FA2
:10478000BB1FEE1FFF1FA217B307E407F50720F0BA
:10479000A21BB30BE40BF50B661F771F881F991F35
:1047A0001A9469F760957095809590959B01AC017E
:1047B000BD01CF0108950E943124A59F900DB49FA3
:1047C000900DA49F800D911D112408952F923F926A
:1047D0004F925F926F927F928F929F92AF92BF9211
:1047E000CF92DF92EF92FF920F931F93CF93DF93BD
:1047F000CDB7DEB7CA1BDB0B0FB6F894DEBF0FBE1A
:10480000CDBF09942A88398848885F846E847D8466
:104810008C849B84AA84B984C884DF80EE80FD8068
:104820000C811B81AA81B981CE0FD11D0FB6F894DE
:10483000DEBF0FBECDBFED010895AA1BBB1B51E12A
:1048400007C0AA1FBB1FA617B70710F0A61BB70B00
:10485000881F991F5A95A9F780959095BC01CD01A5
:104860000895A29FB001B39FC001A39F700D811D49
:104870001124911DB29F700D811D1124911D089569
:10488000CF93DF938230910510F482E090E0E091C5
:104890004604F091470420E030E0A0E0B0E030971B
:1048A00039F14081518148175907B8F04817590725
:1048B00071F482819381109729F013969C938E93C3
:1048C00012972CC0909347048093460427C021156B
:1048D000310531F04217530718F0A901DB0101C07F
:1048E000EF019A01BD01DF010280F381E02DD7CFF6
:1048F00021153105F9F0281B390B2430310580F4DE
:104900008A819B816115710521F0FB01938382836C
:1049100004C09093470480934604FE01329644C03D
:10492000FE01E20FF31F81939193225031093983E5
:1049300028833AC02091440430914504232B41F44C
:1049400020911F01309120013093450420934404AD
:1049500020911D0130911E012115310541F42DB723
:104960003EB74091210150912201241B350BE0916B
:104970004404F0914504E217F307A0F42E1B3F0B0B
:104980002817390778F0AC014E5F5F4F24173507C1
:1049900048F04E0F5F1F50934504409344048193A9
:1049A000919302C0E0E0F0E0CF01DF91CF91089554
:1049B000CF93DF93009709F487C0FC0132971382ED
:1049C0001282C0914604D0914704209781F420813F
:1049D0003181280F391F809144049091450482173A
:1049E000930779F5F0934504E09344046DC0DE012C
:1049F00020E030E0AE17BF0750F412964D915C9165
:104A000013979D014115510509F1DA01F3CFB383E5
:104A1000A28340815181840F951F8A179B0771F4EF
:104A20008D919C911197840F951F0296918380839D
:104A300012968D919C911397938382832115310552
:104A400029F4F0934704E09346043EC0D90113963D
:104A5000FC93EE9312974D915D91A40FB51FEA1749
:104A6000FB0779F480819181840F951F0296D9010B
:104A700011969C938E938281938113969C938E932F
:104A80001297E0E0F0E08A819B81009719F0FE0127
:104A9000EC01F9CFCE01029628813981820F931F54
:104AA00020914404309145042817390769F4309760
:104AB00029F4109247041092460402C01382128215
:104AC000D0934504C0934404DF91CF9108958F9211
:104AD0009F92AF92BF92CF92DF92EF92FF92CF93CD
:104AE000DF93EC01688179818A819B816115710571
:104AF0008105910521F464E279ED8BE597E02DE1E4
:104B000033EF41E050E00E94842749015A019B01A4
:104B1000AC01A7EAB1E40E94DB236B017C01ACEE9F
:104B2000B4EFA50194010E94A627C60ED71EE81E69
:104B3000F91EF7FE06C081E0C81AD108E10880E836
:104B4000F80AC882D982EA82FB82C6019F77DF9188
:104B5000CF91FF90EF90DF90CF90BF90AF909F905C
:104B60008F9008950E946725089583E291E00E9446
:104B700067250895A0E0B0E080932301909324017D
:104B8000A0932501B09326010895283008F027E06E
:104B90003327DA01990F311D87FD91600096610579
:104BA000710539F432602E5F3D9330E32A95E1F7C9
:104BB00008959F3F30F080387105610509F03C5F32
:104BC0003C5F3D93913008F08068911DDF93CF9357
:104BD0001F930F93FF92EF92192F987F9695E92FCD
:104BE00096959695E90FFF27EF53FA4F99273327AC
:104BF000EE24FF24A701E70105900894079428F408
:104C0000360FE71EF81E491F511D660F771F881FBC
:104C1000991F0694A1F70590079428F4E70EF81E53
:104C2000491F561FC11D770F881F991F661F0694C5
:104C3000A1F70590079428F4F80E491F561FC71FC7
:104C4000D11D880F991F661F771F0694A1F7059045
:104C5000079420F4490F561FC71FD81F990F661FCE
:104C6000771F881F0694A9F784911095177041F05B
:104C7000D695C79557954795F794E7941A95C1F738
:104C8000E7E6F5E068941590159135916591959159
:104C900005907FE27395E118F10A430B560BC90B9F
:104CA000D009C0F7E10CF11E431F561FC91FD01DCC
:104CB0007EF4703311F48A95E6CFE894015030F019
:104CC000080F0AF40027021708F4202F2395022F5B
:104CD0007A3328F079E37D932A95E9F710C07D9324
:104CE0002A9589F6069497956795379517951794A1
:104CF000E118F10A430B560BC90BD00998F0239524
:104D00007E9173957A3308F070E37C932013B8F7A3
:104D10007E9170617D9330F0839571E37D9370E3B4
:104D20002A95E1F71124EF90FF900F911F91CF91F9
:104D3000DF91992787FD90950895FC0105906150BA
:104D400070400110D8F7809590958E0F9F1F0895A1
:104D5000FC016150704001900110D8F7809590954A
:104D60008E0F9F1F08950F931F93CF93DF93182FDC
:104D7000092FEB018B8181FD03C08FEF9FEF20C0D6
:104D800082FF10C04E815F812C813D814217530705
:104D90007CF4E881F9819F012F5F3F4F398328839D
:104DA000108306C0E885F985812F0995892B29F79D
:104DB0002E813F812F5F3F4F3F832E83812F902F86
:104DC000DF91CF911F910F910895A0E0B0E0EBEE3D
:104DD000F6E20C94F623FE01359661917191AF01D4
:104DE00080914A0490914B040E94B51EE2E00C941D
:104DF00012240F931F93CF93DF93E0914A04F09115
:104E00004B04238121FF1BC0EC0100E010E08991DD
:104E100060914A0470914B04DB011896ED91FC916E
:104E20001997882331F00995892B89F30FEF1FEF2C
:104E3000EECF8AE00995892B11F4C80102C08FEFEB
:104E40009FEFDF91CF911F910F910895FA01AA274B
:104E5000283051F1203181F1E8946F936E7F6E5FBD
:104E60007F4F8F4F9F4FAF4FB1E03ED0B4E03CD06B
:104E7000670F781F891F9A1FA11D680F791F8A1F4E
:104E8000911DA11D6A0F711D811D911DA11D20D0B5
:104E900009F468943F912AE0269F11243019305D6F
:104EA0003193DEF6CF010895462F4770405D419360
:104EB000B3E00FD0C9F7F6CF462F4F70405D4A33AD
:104EC00018F0495D31FD4052419302D0A9F7EACF75
:104ED000B4E0A6959795879577956795BA95C9F7A4
:104EE00000976105710508959B01AC010A2E069497
:104EF0005795479537952795BA95C9F7620F731F50
:104F0000841F951FA01D0895052E97FB1EF4009485
:104F10000E949B2757FD07D00E94B92307FC03D0AE
:104F20004EF40C949B2750954095309521953F4F1A
:104F30004F4F5F4F089590958095709561957F4F85
:104F40008F4F9F4F0895B7FF0C94DB230E94DB2304
:0A4F5000821B930B0895F894FFCF25
:104F5A001F180C0410C08020600101011008040011
:104F6A0000000200000000580D0000000000004E82
:104F7A00042000010000004D6F76696E6720466FBD
:104F8A0072776172642E2E2E004D6F76696E6720DD
:104F9A004261636B776172642E2E2E0048617264DF
:104FAA002052696768742E2E2E0048617264204C64
:104FBA006566742E2E2E00536F667420466F7277C4
:104FCA006172642052696768742E2E2E00536F66D0
:104FDA007420466F7277617264204C6566742E2E57
:104FEA002E00536F6674204261636B77617264208E
:104FFA0052696768742E2E2E00536F6674204261C0
:10500A00636B77617264204C6566742E2E2E000ADB
:10501A004572726F72207768656E206F70656E696F
:10502A006E67205354455050455220737562737908
:10503A007374656D210053696465206F62737461CE
:10504A00636C652064657465637465642E004672DA
:10505A006F6E74206F62737461636C65206465742B
:10506A0065637465642E00526967687420466F6CC4
:10507A006C6F7700496E7369646520546172676565
:10508A00740052616E6765004F75747369646520B8
:10509A005461726765740041742054617267657463
:1050AA000057616C6C20696E2046726F6E740054F2
:1050BA0075726E696E67204C656674004C61636B2D
:1050CA00206F662057616C6C005475726E696E674A
:1050DA00205269676874004C65667420466F6C6C70
:1050EA006F770043656E74657220466F6C6C6F77DC
:1050FA00004C656674206F660043656E74657200C5
:10510A005269676874206F660049207368616C6C25
:10511A000066656172206E6F006576696C00536582
:10512A007474696E672075702E2E2E004572726F28
:10513A0072207768656E206F70656E696E672041B0
:10514A005454494E5921000A526561647921005329
:10515A0057333A2057616C6C20466F6C6C6F77003E
:10516A005357343A2041766F6964466F6C6C6F7797
:10517A00005357353A2054617267657420466F6C44
:10518A006C6F7700466F72776172642C000A7468DC
:10519A00656E20466F6C6C6F770052616E646F6D3E
:0A51AA000057616E646572657200C3
:00000001FF
