S01000006C61623464656D6F2E737265630C
S11300000C9457030C9474030C9474030C947403AD
S11300100C94BE0C0C94E70C0C94100D0C94390D3C
S11300200C9474030C949F0B0C94C80B0C94F10B5C
S11300300C946C0C0C941A0C0C94430C0C94950CAE
S11300400C94240B0C944D0B0C94760B0C947403AD
S11300500C9474030C9474030C9474030C94740340
S11300600C9474030C9474030C9474030C94740330
S11300700C9474030C9474030C947403084AD73BD3
S11300803BCE016E84BCBFFDC12F3D6C74319ABD63
S113009056833DDA3D00C77F11BED9E4BB4C3E9187
S11300A06BAAAABE000000803F05A84CCDB2D44E76
S11300B0B93836A9020C50B9918688083CA6AAAA78
S11300C02ABE000000803F008D099009930996091B
S11300D09F0999099C09A209A509A809AB09AE09B8
S11300E0B109B409B709BA09BD09C009C309D409DA
S11300F0D709DA09DD09E609E009E309E909EC09A8
S1130100EF09F209F509F809FB09FE09010A040AD5
S1130110070A0A0A07634236B79BD8A71A396856F2
S113012018AEBAAB558C1D3CB7CC5763BD6DEDFD15
S1130130753EF6177231BF000000803F08000000D2
S1130140BE922449123EABAAAA2ABECDCCCC4C3EC8
S113015000000080BEABAAAAAA3E00000000BF00B7
S11301600000803F0000000000084178D3BB4387B3
S1130170D1133D190E3CC3BD4282AD2B3E68EC82C7
S113018076BED98FE1A93E4C80EFFFBE01C4FF7F4C
S11301903F00000000001605010000000000000000
S11301A0FA000000E000E00028FE28FE282454FEA7
S11301B05448C4C81026466C92AA44A000A0C000AB
S11301C0000038448200008244380028107C102843
S11301D010107C1010000A0C0000101010101000F9
S11301E00606000004081020407C8A92A27C00428B
S11301F0FE020042868A92628482A2D28C18284827
S1130200FE08E4A2A2A29C3C5292920C808E90A082
S1130210C06C9292926C6092929478006C6C000024
S1130220006A6C000010284482002828282828002E
S11302308244281040808A90604C929E827C7E8802
S113024088887EFE9292926C7C82828244FE8282B4
S11302504438FE92929282FE909090807C82929298
S11302605EFE101010FE0082FE8200040282FC80FA
S1130270FE10284482FE02020202FE403040FEFECE
S1130280201008FE7C8282827CFE909090607C82AA
S11302908A847AFE90989462629292928C8080FE14
S11302A08080FC020202FCF8040204F8FC021C0236
S11302B0FCC6281028C6E0100E10E0868A92A2C25E
S11302C000FE8282004020100804008282FE00208A
S11302D04080402002020202020080402000042AE2
S11302E02A2A1EFE1222221C1C222222041C222242
S11302F012FE1C2A2A2A18107E908040304A4A4A4C
S11303007CFE1020201E0022BE0200040222BC003B
S1130310FE081422000082FE02003E2018201E3E29
S11303201020201E1C2222221C3E282828101028BF
S113033028183E3E10202010122A2A2A0420FC22CB
S113034002043C0202043E38040204383C020C025B
S11303503C2214081422300A0A0A3C22262A322299
S113036000106C82000000FE000000826C10000887
S11303701010081000000000007F8181817F7F83BE
S113038083837F7F8787877F7F8F8F8F7F7F9F9FE9
S11303909F7F7FBFBFBF7F7FFFFFFF7F2040FF4066
S11303A020621517156500FBFB000000000000002B
S11303B0C0FF0300E0FF0700F0FF0F00F8FF1F007D
S11303C078001E0078001E0078001E0078001E00D1
S11303D078001E0078001E0078001E0078001E00C1
S11303E078001E00000000000000000080FF0300F1
S11303F0E0FF0700F0FF0F00F8FF1F00F83C1F00AC
S1130400783C1E00783C1E00783C1E00783C1E00A0
S1130410783C1E00783C1E00783C1E00783C1E0090
S1130420783C1E00783C1E00000000000000000024
S1130430E0FF0300F0FF0700F8FF0F00F8FF1F00C4
S1130440783C1E00783C1E00783C1E00783C1E0060
S1130450783C1E00783C1E00783C1E00783C1E0050
S1130460783C1E00783C1E000000000000000000E4
S1130470F8FF0300F8FF0F00F8FF1F00F8FF1F004C
S113048000001E0000001E0000801F0000F01F007E
S113049000FF0F00E0FF0700F0FF0000F80F00006E
S11304A0F80000007800000078000000F8FF1F004A
S11304B0F8FF1F00F0FF1F00E0FF1F000000000016
S11304C000000000F8FF1F00F8FF1F00F8FF1F00E6
S11304D0F8FF1F0078001E00783C1E00783C1E00C8
S11304E0783C1E00783C1E00783C1E00783C1E00C0
S11304F0F87E1F00F8FF1F00F0FF0F00E0E7030085
S11305000000000000003800EEFF6C002A80450067
S11305103A0047FC03FF6CFC83FF3900DEFF0B7CD1
S1130520D0810BFCD0810BC0D0810BFCD0810B7C23
S1130530DEFF0B0082FF397002FF6CF83A0047DCE3
S11305402A8045CCEEFF6CCC000038000000000C83
S113055000001E0C00001E0000001E0000001E0013
S113056000001E00F8FF1F00F8FF1F00F8FF1F0027
S1130570F8FF1F0000001E0000001E0000001E0007
S113058000001E0000005E000000400000007C002F
S1130590000040000000400000007C00000030002B
S11305A0000010000000300000007C6E616E0069E5
S11305B06E660000407A10F35A00A0724E180900CB
S11305C010A5D4E80000E87648170000E40B5402B4
S11305D00000CA9A3B000000E1F5050000809698EF
S11305E000000040420F000000A08601000000103F
S11305F02700000000E80300000000640000000081
S1130600000A00000000000100000000002C76D861
S113061088DC674F0823DFC1DFAE59E1B1B796E547
S1130620E3E453C63AE651997696E8E6C28426EBAB
S1130630898C9B62ED407C6FFCEFBC9C9F40F2BABE
S1130640A56FA5F490055A2AF75C936B6CF9676D56
S1130650C11BFCE0E40D47FEF520E6B500D0ED90AB
S11306602E0300943577050080841E080000204E78
S11306700A000000C80C333333330F986E12831111
S113068041EF8D2114893BE65516CFFEE6DB18D1E8
S1130690844B381BF77C1D901DA4BBE424203284BA
S11306A0725E228100C9F124ECA1E53D27001124EA
S11306B01FBECFEFD8E0DEBFCDBF13E0A0E0B1E0B6
S11306C0EEE0FCE602C005900D92A83BB107D9F715
S11306D024E0A8EBB3E001C01D92A43BB207E1F70C
S11306E00E94E3030C9405360C9400008FE00E94F2
S11306F07E09882331F40E94090B8FE061E00E9497
S1130700C6098FE091E008958FE00E947E09813050
S113071019F020E030E013C080917A008064809367
S11307207A0080917A0086FDFCCF30917800209188
S11307307900922F80E0232F30E0282B392BC90138
S11307400895582F809100018830D8F440917E009C
S113075021E030E0B90102C0660F771F8A95E2F705
S1130760CB018095842380937E0080917E00052EAA
S113077002C0220F331F0A94E2F7822B80937E007B
S11307800DC020917E0081E090E0052E02C0880F0C
S1130790991F0A94E2F7282B20937E0050930001BE
S11307A080917C005F71807E852B80937C0008950E
S11307B0ECE7F0E090818295880F880F807C9F732E
S11307C0982B908308950E94220B0E94140B0E9480
S11307D0832780E090E008950F931F9380E460E006
S11307E00E94CB0400E0802F60E00E94B20410E07D
S11307F080E061E00E94CB041F5F1038C9F70F5FEF
S1130800043089F783E060E00E94AB041F910F91EC
S113081008950F931F9382E00E947E09882311F4A8
S113082082E006C081E00E947E09882319F481E0F9
S113083090E06DC00E948A0D85E061E00E94C609C7
S11308408EEA60E00E94CB0482EA60E00E94CB045E
S113085080EA60E00E94CB0400E513ECC801019734
S1130860F1F780EC60E00E94CB048FE260E00E942C
S1130870CB0481E860E00E94CB0486E160E00E9442
S1130880CB0482E260E00E94CB04C8010197F1F737
S11308908FEA60E00E94CB0486EA60E00E94CB0409
S11308A085EA60E00E94CB0480E090E028E833E130
S11308B0F9013197F1F7019643E0883E9407C1F7B7
S11308C083EB60E00E94CB0480E460E00E94CB04F0
S11308D083E060E00E94B20483E060E00E94AB0425
S11308E01092850410928704109286048FE091E0A0
S11308F09093B1048093B00488E10E948A040E941A
S1130900EC0384EA60E00E94CB0485E091E01F914F
S11309100F9108951F93182F85E00E947E0981305E
S1130920C1F487E00E94E60482E06AE00E94370591
S113093082E061EB0E943705612F113208F060E21A
S113094082E00E94370589EE8A95F1F787E00E94DC
S1130950E6041F91089583706F77609383048093F6
S1130960840408950F931F93062F162F1F77837007
S1130970806B60E00E94CB0412951F70812F806110
S113098060E00E94CB04802F8F7060E00E94CB0453
S11309901F910F9108950F931F93082F162F85E031
S11309A00E947E09813079F4112319F0113021F469
S11309B002C02B9801C02B9A86E08A95F1F780E05B
S11309C0602F0E9437051F910F9108951F93182FD0
S11309D082E00E947E09813009F047C0912F977010
S11309E080918804981709F440C09093880485B1D5
S11309F0887F892B85B9933011F1943028F4913094
S1130A0051F0923090F40CC0953019F19530E0F02B
S1130A10963021F50FC0E0910A04F0910B0422C036
S1130A20E0910804F09109041DC0E0910C04F091D8
S1130A300D0418C0E0911404F091150413C0E09162
S1130A400E04F0910F040EC0E0911004F091110413
S1130A5009C0E0911204F091130404C0E09116045B
S1130A60F0911704309709F009951F9108951F9389
S1130A70162F0E94E60482E00E947E09813021F450
S1130A801EBD0DB407FEFDCF1F9108950F931F9354
S1130A90CF93DF9380E291E00E949A329C0190937D
S1130AA0270480932604892B11F480E039C089013E
S1130AB0C0E0D0E0BE0180E090E00E94692B20E01D
S1130AC030E040EA51E40E94D02A27EF35E740E0C5
S1130AD05FE30E94842C9B01AC0160E070E080E243
S1130AE091E40E94C4309B01AC01CA01B9012DEC10
S1130AF03CEC42E851E40E94842C0E948A302AE0B3
S1130B0030E040E050E00E94EF31F80161937193CE
S1130B10819391938F012196C834D10559F681E0D0
S1130B20DF91CF911F910F9108958AE00E947E0971
S1130B30882371F4109223041092220481E00E940D
S1130B40740F81E0809319048AE061E00E94C60971
S1130B508AE091E008951F938BE00E947E09882328
S1130B6011F090E021C089E00E947E098823D9F425
S1130B700E944605182F8130B1F410921A04109285
S1130B801B0410921C0410921D048DE060EE7EE0A4
S1130B900E94620D82E00E94740F1093180489E091
S1130BA061E00E94C60991E089E01F9108958130B7
S1130BB029F0823031F090E089E008950E94950593
S1130BC008950E94AB0508958F929F92AF92BF92B1
S1130BD0CF92DF92EF92FF920F931F93CF93DF9305
S1130BE04B015C01EA01B9012115310539F19E017E
S1130BF0442737FD4095542F6536710510F064E69F
S1130C0070E080E090E00E94EF3124E630E040E0C4
S1130C1050E00E94133279018A01C501B4010E9497
S1130C20E30EC7010E94AA0A60E070E080E090E051
S1130C300E94E30ECE018E199F0904C0411551058F
S1130C4019F0CA010E94AA0ADF91CF911F910F9156
S1130C50FF90EF90DF90CF90BF90AF909F908F90D8
S1130C60089587E00E947E09813041F480936D04E9
S1130C700E94A40F87E060E00E94C60908952F92A5
S1130C803F924F925F926F927F928F929F92AF9218
S1130C90BF92CF92DF92EF92FF920F931F93DF9355
S1130CA0CF93CDB7DEB7582E962E442E39013C2C67
S1130CB0C98CDA8C2B8C81E0681739F1681728F01D
S1130CC092E0691709F085C049C080E061E00E94A4
S1130CD0480880E0B7010E94110880E0642DA30158
S1130CE09801032DEE24E394EEE6CE2EE4E0DE2E0E
S1130CF00E947F08552009F06CC000D00F92EDB718
S1130D00FEB71182B382A28223C081E061E00E9417
S1130D10480881E0B6010E94110881E0682D4D89E0
S1130D205E892F89388D022DEE24E3947EE6C72E4A
S1130D3074E0D72E0E947F08552009F04AC000D0E5
S1130D400F92EDB7FEB791828C8D9D8D9383828334
S1130D500E9430090F900F900F903BC082E061E039
S1130D600E94480880E0B7010E94110881E0B601A2
S1130D700E94110880E0642DA3019801032DEE2444
S1130D80E3949EE6C92E94E0D92E0E947F0881E068
S1130D90682D4D895E892F89388D022D0E947F0828
S1130DA05520B9F400D000D00F92ADB7BEB711965C
S1130DB0EDB7FEB79182FD01B282A1828C8D9D8D2B
S1130DC0948383830E9430090F900F900F900F90AB
S1130DD00F90CF91DF911F910F91FF90EF90DF90D3
S1130DE0CF90BF90AF909F908F907F906F905F90C7
S1130DF04F903F902F9008956F927F928F929F9281
S1130E00AF92BF92CF92DF92EF92FF920F931F9314
S1130E10DF93CF93CDB7DEB7942E7C2DD5014989CE
S1130E205A89AB88BC88CD88DE889F89813009F4D3
S1130E3057C08130B8F1823009F076C0613091F04A
S1130E40613020F0623009F06FC015C080E060E0CE
S1130E500E94480880E0B7010E94110880E0692DD3
S1130E60A8011DC081E060E00E94480881E0B6014D
S1130E700E94110811C082E060E00E94480880E0EE
S1130E80B7010E94110881E0B6010E94110880E0B8
S1130E90692DA8010E94FA0781E0682DA5010E942E
S1130EA0FA0742C0EDB7FEB739970FB6F894FEBF04
S1130EB00FBEEDBF6DB67EB60894611C711C5283E3
S1130EC04183F301B382A282D582C4829683888D42
S1130ED0998D9087878380E0492DC72E5D011AC0C4
S1130EE0EDB7FEB739970FB6F894FEBF0FBEEDBF4E
S1130EF0ADB7BEB7119652834183FD01B382A2827E
S1130F00D582C48296831086178281E0492DC72E2C
S1130F10AA24BB240E943F068DB79EB709960FB63C
S1130F20F8949EBF0FBE8DBFCF91DF911F910F919B
S1130F30FF90EF90DF90CF90BF90AF909F908F90F5
S1130F407F906F9008950E94C30F81E080936D0499
S1130F50E7E3F4E011921192118210823296118229
S1130F601082329611821082329611821082329649
S1130F70118210823296118210823296118210826E
S1130F803296118210823296118210823296118228
S1130F901082329611821082329611821082369615
S1130FA01192119211921082329611921192119211
S1130FB01192119211921192118210823296118221
S1130FC010823296118210823296118210827697A4
S1130FD01182108232961182108210926C04109247
S1130FE06B0410926D0487E061E00E94C60987E0FB
S1130FF091E00895EF92FF920F931F93182F062FFD
S11310007A0160E00E944808812F602F0E94330813
S1131010812FB7010E945D081F910F91FF90EF90FF
S11310200895482F81E080936D04CB0123E0693E4D
S1131030720710F088EE93E0413071F0413018F0FF
S1131040423071F405C0909342048093410408C077
S11310509093420480934104909344048093430406
S113106010926D040895982F81E080936D0491305F
S113107051F0913018F0923041F403C060935A0457
S113108004C060935A0460935B0410926D04089545
S1131090982F81E080936D04913051F0913018F0D5
S11310A0923041F403C06093370404C06093370462
S11310B06093380410926D040895482F81E0809362
S11310C06D04CB0121E06139720710F080E991E0F1
S11310D0413071F0413018F0423071F405C0909302
S11310E03A048093390408C090933A0480933904F5
S11310F090933C0480933B0410926D0408958F9266
S11311009F92AF92BF92CF92DF92EF92FF920F9392
S11311101F93CF93DF93182FF62E5A014901E6014E
S113112061E00E944808812FB501A4010E94FD0FCF
S1131130812F6F2D0E943308812F602F0E94E80FAA
S1131140812FB5010E94CD0FC114D10499F0113043
S113115049F0113018F0123069F406C01882109268
S1131160690408C0198204C01882198210926904A3
S113117010926A04D0936C04C0936B04EE20B9F50A
S113118088EB93E090936C0480936B04812FB401FB
S11311900E945D08812F0E94AE0F113071F0113052
S11311A018F0123059F512C01092B8031092690465
S11311B08091B8038823E1F321C01092B9031092FF
S11311C06A048091B9038823E1F318C01092B8032C
S11311D01092B9031092690410926A048091B803C2
S11311E08823E1F38091B9038823C1F307C0812FD9
S11311F0B4010E945D08812F0E94AE0FDF91CF9150
S11312001F910F91FF90EF90DF90CF90BF90AF9020
S11312109F908F9008950F931F93182F062F662386
S113122049F460E070E00E945D08812F60E070E0A6
S11312300E94CD0F81E080936D04113051F0113084
S113124018F0123041F403C00093550404C0009315
S113125055040093560410926D041F910F91089544
S1131260CF92DF92EF92FF920F931F93DF93CF936E
S1131270CDB7DEB78B85813061F0813018F08230D4
S1131280A1F511C0EC85FD8580916E048823E1F3FE
S113129006C0EC85FD8580916F048823E1F33097C7
S11312A021F1099522C0CC84DD84EE84FF8400E022
S11312B010E0002351F480916E04882331F0C114AE
S11312C0D10411F0F601099501E0112351F4809144
S11312D06F04882331F0E114F10411F0F70109954A
S11312E011E0002331F3112321F3CF91DF911F91FA
S11312F00F91FF90EF90DF90CF900895E82FF0E0EA
S1131300E331F10540F4EC59FF4FEE0FFF1F059058
S1131310F491E02D099480E008958091700408957B
S113132080917104089580917204089580917304EA
S113133008958091740408958091760408958091AD
S11313407504089580917704089580917804089530
S113135080917904089580917A04089580917B04A2
S1131360089580917C04089580917D04089580916E
S11313707E04089580917F040895809180040895E7
S1131380809181040895809182040895E82FF0E00B
S1131390E331F10508F040C0E958FF4FEE0FFF1F9D
S11313A00590F491E02D099460937004089560937E
S11313B0710408956093720408956093730408950A
S11313C0609374040895609376040895609375049B
S11313D00895609377040895609378040895609362
S11313E07904089560937A04089560937B040895C2
S11313F060937C04089560937D04089560937E0453
S1131400089560937F040895609380040895609321
S1131410810408956093800408951F93CF93DF930C
S1131420182F8091BB03882341F08091C503882342
S113143099F01092BB031092C5030E945D10809333
S1131440BA038FEB93E061E040E022E330E00E94D6
S1131450CB0A81E08093BB039091BA03A12FB0E043
S1131460ED01C75FDE4F8881882369F0FD01E45FE9
S1131470FE4F80819823C1F0FD01E454FC4F81E0CC
S11314808083188211C0FD01E454FC4F80818111D6
S11314901082FD01E45FFE4F8081982329F4FD0151
S11314A0E75FFE4F81E08083A454BC4F8C91DF91B1
S11314B0CF911F91089582E00E947E09882319F438
S11314C090E082E0089510929E0410929D04109280
S11314D0A00410929F041092A2041092A1041092EE
S11314E0A4041092A3041092A6041092A50480E907
S11314F091E090938A048093890490938C04809360
S11315008B0490938E0480938D0490939004809325
S11315108F04909392048093910484E398E09093D1
S113152094048093930490939604809395049093E9
S113153098048093970490939A04809399049093C9
S11315409C0480939B0481E061E00E94C60991E0C1
S113155081E00895DF93CF93CDB7DEB729970FB617
S1131560F894DEBF0FBECDBF9C01CE01019661E0B1
S113157040E00E94CB0A982F882319F48F81882396
S1131580E9F3892F29960FB6F894DEBF0FBECDBFBD
S1131590CF91DF910895EF92FF920F931F93CF9312
S11315A0DF93EC01F62EE42E890188E00E947E0987
S11315B0813011F081E026C084E090E00E949A32EC
S11315C0FC01009711F482E01DC0F982F0FC1E8238
S11315D081E0E81619F489818460898389818860AF
S11315E089831B830A831D830C83D183C083138265
S11315F0128281E080932804CF010E948E10109201
S1131600280480E0DF91CF911F910F91FF90EF901C
S113161008958FE180937C00EAE7F0E087E080831F
S113162080818068808308950E943A100E94390E58
S11316300E94760D0E94F7100E949E0E0E945B0A83
S113164078940895000008951F920F920FB60F9298
S113165011242F933F934F935F936F937F938F93B3
S11316609F93AF93BF93EF93FF93E091E803F091BF
S1131670E903309709F00995FF91EF91BF91AF917C
S11316809F918F917F916F915F914F913F912F9196
S11316900F900FBE0F901F9018951F920F920FB6C8
S11316A00F9211242F933F934F935F936F937F93E4
S11316B08F939F93AF93BF93EF93FF93E091EA03CC
S11316C0F091EB03309709F00995FF91EF91BF91E9
S11316D0AF919F918F917F916F915F914F913F91C6
S11316E02F910F900FBE0F901F9018951F920F927D
S11316F00FB60F9211242F933F934F935F936F93E1
S11317007F938F939F93AF93BF93EF93FF93E09156
S1131710EC03F091ED03309709F00995FF91EF91F7
S1131720BF91AF919F918F917F916F915F914F91F5
S11317303F912F910F900FBE0F901F9018951F92FD
S11317400F920FB60F9211242F933F934F935F93F1
S11317506F937F938F939F93AF93BF93EF93FF9375
S1131760E091DA03F091DB03309709F00995FF91DA
S1131770EF91BF91AF919F918F917F916F915F9105
S11317804F913F912F910F900FBE0F901F9018957E
S11317901F920F920FB60F9211242F933F934F93E2
S11317A05F936F937F938F939F93AF93BF93EF93C5
S11317B0FF93E091DC03F091DD03309709F0099584
S11317C0FF91EF91BF91AF919F918F917F916F9115
S11317D05F914F913F912F910F900FBE0F901F90EB
S11317E018951F920F920FB60F9211242F933F93C7
S11317F04F935F936F937F938F939F93AF93BF9315
S1131800EF93FF93E091DE03F091DF03309709F04B
S11318100995FF91EF91BF91AF919F918F917F9126
S11318206F915F914F913F912F910F900FBE0F9049
S11318301F9018951F920F920FB60F9211242F9399
S11318403F934F935F936F937F938F939F93AF9344
S1131850BF93EF93FF93E091E203F091E30330979A
S113186009F00995FF91EF91BF91AF919F918F91ED
S11318707F916F915F914F913F912F910F900FBE88
S11318800F901F9018951F920F920FB60F9211246C
S11318902F933F934F935F936F937F938F939F9374
S11318A0AF93BF93EF93FF93E091E403F091E503CB
S11318B0309709F00995FF91EF91BF91AF919F91F6
S11318C08F917F916F915F914F913F912F910F90E5
S11318D00FBE0F901F9018951F920F920FB60F9284
S11318E011242F933F934F935F936F937F938F9321
S11318F09F93AF93BF93EF93FF93E091E003F09135
S1131900E103309709F00995FF91EF91BF91AF91F1
S11319109F918F917F916F915F914F913F912F9103
S11319200F900FBE0F901F9018951F920F920FB635
S11319300F9211242F933F934F935F936F937F9351
S11319408F939F93AF93BF93EF93FF93E091E6033D
S1131950F091E703309709F00995FF91EF91BF915A
S1131960AF919F918F917F916F915F914F913F9133
S11319702F910F900FBE0F901F9018951F920F92EA
S11319800FB60F9211242F933F934F935F936F934E
S11319907F938F939F93AF93BF93EF93FF93E091C4
S11319A0D003F091D103309709F00995FF91EF919D
S11319B0BF91AF919F918F917F916F915F914F9163
S11319C03F912F910F900FBE0F901F9018951F926B
S11319D00F920FB60F9211242F933F934F935F935F
S11319E06F937F938F939F93AF93BF93EF93FF93E3
S11319F0E091D203F091D303309709F00995FF9158
S1131A00EF91BF91AF919F918F917F916F915F9172
S1131A104F913F912F910F900FBE0F901F901895EB
S1131A201F920F920FB60F9211242F933F934F934F
S1131A305F936F937F938F939F93AF93BF93EF9332
S1131A40FF93E091D403F091D503309709F0099501
S1131A50FF91EF91BF91AF919F918F917F916F9182
S1131A605F914F913F912F910F900FBE0F901F9058
S1131A7018951F920F920FB60F9211242F933F9334
S1131A804F935F936F937F938F939F93AF93BF9382
S1131A90EF93FF93E091D603F091D703309709F0C9
S1131AA00995FF91EF91BF91AF919F918F917F9194
S1131AB06F915F914F913F912F910F900FBE0F90B7
S1131AC01F901895E82F803268F48051833050F0CD
S1131AD0F0E0EE0FFF1FE853FC4F2081318171834A
S1131AE0608302C020E030E0C901089580E10E94D3
S1131AF07E09882361F4E8ECF3E01192119284E00A
S1131B00E830F807D1F780E161E00E94C60980E17E
S1131B1091E00895239A0895FF920F931F93CF9312
S1131B20DF93F82E8AE0F816B1F08F1548F0E8E05C
S1131B30FE16B9F1EF1538F1F7E0FF1651F43BC08A
S1131B408DE0F81659F0EBE1FE1689F0FCE0FF1683
S1131B5041F001E041C01092830403C01092830459
S1131B603AC08091840481508093840434C00E94DC
S1131B70EC0314C080E061E00E94CB0480918304F4
S1131B808F5F809383048091830487FFF3CF109247
S1131B9083048091840481508093840400E011E0E4
S1131BA01CC0809183048823B1F080918304865003
S1131BB08093830410C081E00E94D70564EF71E034
S1131BC080E090E04DE750E024E630E00E94E40538
S1131BD081E00E946A0F00E010E08091840460912B
S1131BE083040E94B204002351F185E0F89EC001F1
S1131BF01124EC01C750DF4F8C0102501F4FFE012E
S1131C00849161E00E94CB042196C017D107B9F7F3
S1131C1080E061E00E94CB04809183048A5F80931A
S1131C2083048091830490E08C3791053CF01092FA
S1131C3083048091840481508093840411E0809112
S1131C408404837080938404113059F48091850452
S1131C50813039F4E0918604F0918704309709F0DB
S1131C60099580E090E0DF91CF911F910F91FF9053
S1131C70089580E00E947E09882351F4F8940E941C
S1131C80311181E00E944B0E80E061E00E94C609A0
S1131C9080E091E00895813049F0F894813020F19A
S1131CA08230B1F0833009F045C017C02C9A80E827
S1131CB0809361001092610080E090E00000019642
S1131CC088329105D9F71092680010926B0008953C
S1131CD080E88093610083E004C080E88093610021
S1131CE088E08093610028C080E090E000000196C5
S1131CF02DE680369207D1F72C9880E090E0000022
S1131D0001962DE680369207D1F710927A008FEF74
S1131D108093640080916800816080936800809162
S1131D206B00846080936B00789483B7816083BF79
S1131D3088950895823008F0789408950F931F933E
S1131D400E945D1180E06CE471E10E94D70E81E095
S1131D5064E471E10E94D70E82E06CE371E10E94B9
S1131D60D70E86E064E571E10E94D70E04E311E129
S1131D7083E0B8010E94D70E84E0B8010E94D70E18
S1131D8085E0B8010E94D70E87E0B8010E94D70E03
S1131D9082E061E00E94C6098FEF8093880487E0A7
S1131DA00E94E60482E091E01F910F910895E82FCC
S1131DB0F0E0EE0FFF1FE85FFB4F7183608308952F
S1131DC00E94FA0E08959B01AC01809119048823A6
S1131DD081F0DA01C901880F991FAA1FBB1F9093D4
S1131DE0250480932404211531054105510509F486
S1131DF05F98089580911A0490911B04A0911C048B
S1131E00B0911D0420911E0430911F0440912004C0
S1131E1050912104280F391F4A1F5B1F20931A0475
S1131E2030931B0440931C0450931D0480911A04A6
S1131E3090911B04A0911C04B0911D048851964FED
S1131E40A040B040BCF08BB180588BB980911A048B
S1131E5090911B04A0911C04B0911D048851964FCD
S1131E60A040B04080931A0490931B04A0931C04D8
S1131E70B0931D0408958AE00E947E09813041F4E4
S1131E800E947611109219048AE060E00E94C6094B
S1131E90089589E00E947E098130D9F48091180464
S1131EA0882311F00E949E0F82E00E947611809197
S1131EB0260490912704009731F00E943233109247
S1131EC02704109226041092180489E060E00E940E
S1131ED0C6090895813029F0823029F40E94490FFF
S1131EE008950E943B0F0895982F80911804882329
S1131EF031F480911904882311F4579A5F988091E2
S1131F0018048823D1F49230C1F410928000109206
S1131F10810080918100886080938100809181009C
S1131F20816080938100109285001092840081E08A
S1131F308093890080E9809388000895EFE6F0E0BB
S1131F4080818D7F8083089588B1837088B93A98A1
S1131F503B983C983D983E983F980895982F81E08F
S1131F6080936D04913051F0913018F0923041F427
S1131F7003C01092550404C01092550410925604E4
S1131F8010926D0408953A9A3B9A3C9A3D9A3E9A6F
S1131F903F9A88B1837088B90895982F81E080931F
S1131FA06D04913071F0913018F0923071F405C0E5
S1131FB070934A046093490408C070934A04609380
S1131FC0490470934C0460934B0410926D0408957B
S1131FD0982F81E080936D04913051F0913018F086
S1131FE0923041F403C06093570404C060935704D3
S1131FF06093580410926D0408950F931F93CF9328
S1132000DF93EB018A01813001F1813018F08230D5
S113201061F50DC08091410490914204892B11F027
S113202080E01AC010924E0410924D041EC080919C
S1132030410490914204892B21F080E00E94921186
S113204004C010924E0410924D0480914304909168
S11320504404892B31F081E0BE01A8010E94921151
S113206004C01092500410924F04DF91CF911F913D
S11320700F910895109270041092710410927504D7
S113208010927204109274041092760410927704E1
S1132090109278041092790410927A0410927B04BE
S11320A010927C0410927D0410927E0410927F049E
S11320B0109280041092810408950F931F9381E07D
S11320C00E947E09813011F000E024C087E00E9464
S11320D0E60482E06AE00E94370582E062EB0E9437
S11320E0370518EC812F8A95F1F782E060E00E94B1
S11320F06411082F812F8A95F1F782E060E00E9435
S113210064111A95F1F787E00E94E60488E893E1E8
S11321100197F1F7802F1F910F910895CF92DF92CD
S1132120EF92FF920F931F93CF93DF93EC01809173
S1132130A704882339F4D093A904C093A8040E9467
S11321401C1147C0C090A804D090A90400E010E07E
S1132150EE24FF2437C0A881B981FD016481758113
S1132160F60140815181FA01848195819B01281BEC
S1132170390B37FF0FC0861B970B95838483DB8253
S1132180CA82012B29F4D093A904C093A80421C0C6
S1132190F7010CC0F601828193812115310549F4C0
S11321A0FD01158214829B838A83F601D383C28343
S11321B010C0FD01358324830097B9F30F5F1F4FCF
S11321C076016C018091A70490E00817190718F2B2
S11321D0ECCF8091A7048F5F8093A704DF91CF9108
S11321E01F910F91FF90EF90DF90CF90089588E0BA
S11321F00E947E098823B9F41092A7041092A904BE
S11322001092A804109228041092290480E16FEF20
S113221071E10E9420110E9406120E94161188E0AA
S113222061E00E94C60988E091E00895EEE6F0E0DE
S1132230808182608083089581E0809329040895D9
S1132240803218F020E030E00AC0E82FF0E0EE0F12
S1132250FF1FE853FC4F2081318171836083C901E2
S11322600895249A2C9A089583E58CBD81E08DBD50
S11322708DE08A95F1F7089583E58CBD1DBC84EF4C
S113228091E00197F1F708958FE78CBD1DBC84EFB1
S113229091E00197F1F7089583E58CBD81E08DBD50
S11322A08DE08A95F1F7089583E58CBD81E08DBDBD
S11322B084EF91E00197F1F70895259A2698279ADB
S11322C0209A219A229A08951F93162F0E94E604B9
S11322D082E00E947E09813011F080E005C01EBDBD
S11322E00DB407FEFDCF8EB51F910895823029F4F9
S11322F0809181008E7F80938100809118048130C9
S113230031F480911904813011F400000895809112
S11323101804813021F080911904813011F45F9800
S113232057980895EF92FF920F931F93CF93DF93E3
S1132330EB01882321F0813009F05AC02DC09A01A5
S113234040E050E0CA01B9010E94EF3120914104FC
S113235030914204220F331F40E050E00E941332B8
S113236079018A01A8019701220F331F441F551FC9
S1132370CE01A0E0B0E082179307A407B50728F0C8
S1132380F0924E04E0924D0433C0D695C795D09395
S11323904E04C0934D042CC09A0140E050E0CA01A1
S11323A0B9010E94EF312091430430914404220F7B
S11323B0331F40E050E00E94133279018A01A801E2
S11323C09701220F331F441F551FCE01A0E0B0E038
S11323D082179307A407B50728F0F0925004E092FF
S11323E04F0406C0D695C795D0935004C0934F04AC
S11323F0DF91CF911F910F91FF90EF9008950E946C
S11324000F120E944F120E942812089584B5826010
S113241084BD85B5846085BD8EE487BD089588E05C
S11324200E947E09882311F484E008958091290490
S1132430882311F483E0089580912804882311F0FF
S113244082E008950E949C148130E1F380E00895B5
S113245080911904813011F5809122049091230414
S11324602091240430912504280F391F309323042C
S1132470209322048091220490912304885E934047
S11324806CF08BB180588BB9809122049091230415
S1132490885E93409093230480932204089587E0F8
S11324A00E947E09813009F0AAC080914104909174
S11324B04204892B09F1809165049091660420916E
S11324C0410430914204820F931F909366048093D9
S11324D065048091650490916604885E9340A4F03D
S11324E08091650490916604885E9340909366049D
S11324F08093650441E009C08091390490913A04C5
S113250090933E0480933D0440E080914304909175
S11325104404892B09F18091670490916804209107
S1132520430430914404820F931F90936804809372
S113253067048091670490916804885E9340A4F0D6
S11325408091670490916804885E93409093680436
S11325508093670461E009C080913B0490913C043E
S11325609093400480933F0460E0842F0E94001302
S1132570809161049091620420913D0430913E0465
S1132580280F391F30936204209361048091610401
S113259090916204885E934014F440E00BC08091F3
S11325A0610490916204885E9340909362048093E6
S11325B0610441E0809163049091640420913F049C
S11325C030914004280F391F30936404209363042E
S11325D08091630490916404885E934014F460E0F5
S11325E00BC08091630490916404885E934090933F
S11325F064048093630461E0842F0E94451308956A
S11326008823F1F02091390430913A0480913D04FB
S113261090913E04281B390B1216130634F4809152
S11326203D0490913E04019607C0232B49F080910C
S11326303D0490913E04019790933E0480933D04A1
S1132640662311F120913B0430913C0480913F04B6
S113265090914004281B390B1216130654F48091F0
S11326603F049091400401969093400480933F046A
S11326700895232B49F080913F04909140040197E1
S11326809093400480933F0408950F931F93182F51
S1132690062F80916D04882309F0E7C080915504CA
S11326A0882309F05AC080913D0490913E04892BFF
S11326B0E9F480912A04837E80932A0410925E04B4
S11326C080916904882309F45DC06091570480E017
S11326D00E940B09E0916B04F0916C04309709F4AB
S11326E051C081E08083109269044CC0809137040A
S11326F0813041F48091490490914A04019711F486
S113270011E002C01123F1F1E0915C04F0E0EF5F0D
S1132710FE4F90912A04937E8081892B80932A0412
S113272080915A04882321F480915C048F5F03C054
S113273080915C04815080935C0480915C0483707C
S113274080935C0481E080935E048091370481303F
S1132750C9F480E00E94481415C090912A04937E25
S113276090932A04E0915C04F0E0EF5FFE4F8081D7
S1132770892B80932A0482E080935E0410923E04A5
S113278010923D0480915604882309F059C0809129
S11327903F0490914004892BE9F480912A048F71BD
S11327A080932A0410925F0480916A04882309F4B8
S11327B05CC06091580481E00E940B09E0916B04B5
S11327C0F0916C04309709F450C081E08183109239
S11327D06A044BC080913804813041F480914B04E9
S11327E090914C04019711F401E002C00023E9F137
S11327F0E0915D04F0E0EB5FFE4F90912A049F713D
S11328008081892B80932A0480915B04882321F49E
S113281080915D048F5F03C080915D04815080933B
S11328205D0480915D04837080935D0481E08093F6
S11328305F04809138048130C1F40E94481415C0AB
S113284090912A049F7190932A04E0915D04F0E032
S1132850EB5FFE4F8081892B80932A0482E0809372
S11328605F041092400410923F0480916004882316
S113287031F48AE294E0612F402F0E940A1588B156
S1132880837090912A04892B88B91F910F91089520
S1132890882321F0813009F04EC027C0809149047B
S11328A090914A04892B49F08091490490914A04FB
S11328B0019790934A048093490480916904882382
S11328C0D1F52091490430914A0480914D049091AE
S11328D04E042817390779F580E060E070E00E9423
S11328E05D0881E080936904089580914B04909180
S11328F04C04892B49F080914B0490914C0401972E
S113290090934C0480934B0480916A04882399F437
S113291020914B0430914C0480914F0490915004C9
S11329202817390741F481E060E070E00E945D08F7
S113293081E080936A040895FF920F931F93CF93CD
S1132940DF938091A704882309F459C00091A80457
S11329501091A904F801C081D1818C819D810197D6
S11329609D838C83181619060CF449C0898180FF55
S113297005C08E81882311F481E08E83898181FFD3
S113298003C0EF81F88509958091A7048230A8F0EF
S1132990F801828193819093A9048093A8041382FF
S11329A01282E0910000F091010084819581181653
S11329B019063CF0FF24F39405C01092A904109268
S11329C0A804FF248091A70481508093A7048091D8
S11329D0A704882311F40E940715898182FF08C087
S11329E08A819B819D838C83C8010E948E1008C0BC
S11329F0C8010E94323389818F7E898301C0FF24FC
S1132A008F2DDF91CF911F910F91FF900895109218
S1132A1029040895FC0180915E04823069F4809158
S1132A202E0491E0892780932E04882309F03EC068
S1132A308081837E80833AC080913D0490913E04DE
S1132A40C397A4F56623D1F020913D0430913E0450
S1132A5080E690E0BC01269FC001279F900D369F21
S1132A60900D1124880F892F881F990B909352047D
S1132A708093510481E080932C0418C080912C042D
S1132A808823A1F08091510490915204019790936E
S1132A905204809351048091510490915204892BE3
S1132AA029F48081837E808310922C0480915F04BA
S1132AB0823069F480912D0491E0892780932D045C
S1132AC0882309F03EC080818F71808308958091AE
S1132AD03F0490914004C397A4F54423D1F020917E
S1132AE03F043091400480E690E0AC01249FC00193
S1132AF0259F900D349F900D1124880F892F881FD6
S1132B00990B909354048093530481E080932B0495
S1132B10089580912B048823A1F08091530490910F
S1132B205404019790935404809353048091530464
S1132B3090915404892B29F480818F7180831092A1
S1132B402B0408954F925F926F927F928F929F927F
S1132B50AF92BF92CF92DF92EF92FF920F931F93A7
S1132B60CF93DF9300D000D0CDB7DEB74B015C012B
S1132B7029013A01670178010E94A307C301B20148
S1132B800E943D2B69837A838B839C83A7019601E2
S1132B90C301B2010E94842C0E943D2B2B013C01F5
S1132BA01F921F921F9281E08F9380E98F93C5013A
S1132BB0B4010E943D2B7F936F93A7019601C50139
S1132BC0B4010E94842C0E943D2B7F936F93812C2F
S1132BD0A12CB12CC12C0F2EF0E9EF2EFF24F3947D
S1132BE0F02D09811A81920140E062E080E00E94A8
S1132BF0FC060FB6F894DEBF0FBECDBF0F900F904A
S1132C000F900F90DF91CF911F910F91FF90EF9054
S1132C10DF90CF90BF90AF909F908F907F906F90F8
S1132C205F904F900895CF92DF92EF92FF920F93AF
S1132C301F93CF93DF938B01E901BA01681B790BD2
S1132C40882777FD8095982F0E946B2B6B017C0160
S1132C50BE01601B710B882777FD8095982F0E9419
S1132C606B2BA70196010E94762A20E030E044E312
S1132C7053E40E94842C2BED3FE049E450E40E948D
S1132C80D02A0E94382B882777FD8095982F0E94A0
S1132C906B2BDF91CF911F910F91FF90EF90DF90FD
S1132CA0CF9008958F92AF92BF92CF92EF92FF92FE
S1132CB00F931F93CF93DF930E940F34EC010E9474
S1132CC00F3429EC30E0B9010E94FF318C01112747
S1132CD01F921F921F9281E08F9380E98F93CE0100
S1132CE0B9010E94FF3199279F938F931F921F92DE
S1132CF0812CA12CB12CC12C0F2EF0E9EF2EFF2436
S1132D00F394F02D20E030E040E062E082E00E94A5
S1132D10FC0684EF91E00E94AA0A8DB79EB709963B
S1132D200FB6F8949EBF0FBE8DBFDF91CF911F9158
S1132D300F91FF90EF90CF90BF90AF908F90089538
S1132D4081E00E94D80384E00E94A1030E948403CE
S1132D50BC0180E090E00E94692B20E030E040EA72
S1132D6050E40E94032A9B01AC0160E070E286E318
S1132D7095E40E94D02A20E030E040E85FE30E941E
S1132D80022A2CE033E949EC5EE30E94842C089586
S1132D9081E00E94D80383E00E94A1030E9484037F
S1132DA0BC0180E090E00E94692B20E030E040EA22
S1132DB050E40E94032A9B01AC0160E070E286E3C8
S1132DC095E40E94D02A20E030E040E85FE30E94CE
S1132DD0022A2CE033E949EC5EE30E94842C089536
S1132DE081E00E94D80387E00E94A1030E9484032B
S1132DF0BC0180E090E00E94692B20E030E040EAD2
S1132E0050E40E94032A9B01AC0160E070E286E377
S1132E1095E40E94D02A20E030E040E85FE30E947D
S1132E20022A2CE033E949EC5EE30E94842C0895E5
S1132E308F92AF92BF92CF92EF92FF920F931F9314
S1132E40CF93DF93D82FC92F062F172F0E94A307E4
S1132E50913041F04FEB51E05F934F930E943F3527
S1132E600F900F901F921F921F9281E08F9380E921
S1132E708F931F930F93CF93DF93812CA12CB12CAD
S1132E80C12C0F2EF0E9EF2EFF24F394F02D2D2FFB
S1132E903C2F40E062E080E00E94FC068DB79EB7C4
S1132EA009960FB6F8949EBF0FBE8DBFDF91CF91E8
S1132EB01F910F91FF90EF90CF90BF90AF908F90A4
S1132EC008958F92AF92BF92CF92EF92FF920F9399
S1132ED01F93CF93DF93EC01062F172F0E94A307B4
S1132EE0913041F08FEB91E09F938F930E943F3597
S1132EF00F900F9022E82C9FC0012D9F900D11245C
S1132F006AE570E00E94FF31262F372F1F921F922F
S1132F101F9283E08F9380E28F931F930F937F938D
S1132F206F93812CA12CB12CC12C0F2EF0E2EF2E2B
S1132F30F3E0FF2EF02D41E062E080E00E94FC0609
S1132F400E9431068DB79EB709960FB6F8949EBFBE
S1132F500FBE8DBFDF91CF911F910F91FF90EF9026
S1132F60CF90BF90AF908F9008958F92AF92BF9201
S1132F70CF92EF92FF920F931F93CF93DF93EC01C5
S1132F80062F172F0E94A307913041F08FEB91E099
S1132F909F938F930E943F350F900F9022E82C9FB0
S1132FA0C0012D9F900D11246AE570E00E94FF314D
S1132FB0262F372F1F921F921F9283E08F9380E258
S1132FC08F931F930F937F936F9388248394A12CE3
S1132FD0B12CC12C0F2EF0E2EF2EF3E0FF2EF02DDA
S1132FE040E062E080E00E94FC060E9431068DB75A
S1132FF09EB709960FB6F8949EBF0FBE8DBFDF91A2
S1133000CF911F910F91FF90EF90CF90BF90AF9011
S11330108F900895CF93DF9318161906DCF4853B3F
S113302091052CF460E971E00E94611732C09C01A3
S1133030992314F42F5F3F4FE901D595C79560E9B3
S113304071E0CE010E94611760E971E0CE010E9437
S113305061171FC09923ECF4919581959109853BE3
S113306091052CF460E971E00E94B51712C09C012F
S1133070992314F42F5F3F4FE901D595C79560E973
S113308071E0CE010E94B51760E971E0CE010E94A3
S1133090B517DF91CF9108958F929F92AF92BF920F
S11330A0CF92DF92EF92FF920F931F93CF93DF9310
S11330B06B017C01042F152F20E030E0A9010E9450
S11330C0792C18160CF04DC020E030E04AEF53E4A0
S11330D0C701B6010E94842C20E030E044E352E4AE
S11330E00E94D02A962ED72FC82FD92E0E94EC03E7
S11330F0DF92CF93DF939F9227E132E03F932F93A8
S11331000E943F351F921F921F9281E08F9380E9A6
S11331108F931F930F931F921F9288248394A12C43
S1133120B12CC12C0F2EF0E9EF2EFF24F394F02DD7
S113313020E030E040E062E082E00E94FC06692D7D
S11331407D2F8C2F9D2D0E94382BCB010E94AA0A23
S11331508DB79EB70F960FB6F8949EBF0FBE8DBF66
S11331604CC0C701B601905820E030E04AEF53E468
S11331700E94842C20E030E044E352E40E94D02AF0
S1133180962ED72ED82FC92F0E94EC03CF93DF930E
S1133190DF929F9227E132E03F932F930E943F35C5
S11331A01F921F921F9281E08F9380E98F931F9348
S11331B00F931F921F92812CA12CB12CC12C0F2E86
S11331C0F0E9EF2EFF24F394F02D20E030E041E00D
S11331D062E082E00E94FC06692D7D2D8D2F9C2FDC
S11331E00E94382BCB010E94AA0A8DB79EB70F9676
S11331F00FB6F8949EBF0FBE8DBF60E082E00E94C0
S11332000B09DF91CF911F910F91FF90EF90DF9009
S1133210CF90BF90AF909F908F900895CF93DF93FE
S113322000D000D01F92CDB7DEB7212C312C1A82EA
S11332301B82912C19821D821C820E94F0162B0184
S11332403C010E94C8166B017C010E94A01620E07C
S113325030E040E451E4C301B2010E94792C181615
S11332600CF0FEC020E030E040E451E4C701B601B8
S11332700E94C92A88230CF0F3C020E030E040E823
S113328050E4C701B6010E94C92A8823E4F40E94CD
S1133290EC038AE192E00E94533587E292E00E94B7
S11332A0533585E392E00E945335A701960160E00F
S11332B070E080E890E40E94022A2B013C0160E067
S11332C070E0CB0137C020E030E040EA50E4C701B1
S11332D0B6010E94792C1816D4F40E94EC038AE1FA
S11332E092E00E9453358BE392E00E94533585E3CC
S11332F092E00E94533520E030E040EA50E4C701F8
S1133300B6010E94022A412C512C320113C00E94A2
S1133310EC038AE192E00E9453358AE492E00E9431
S1133320533585E392E00E945335412C512C3201F0
S1133330C301B20120E030E0A9010E94032A20E089
S113334030E040EF52E40E94032AE62EF72E082FC5
S1133350192F20E030E0A901C301B2010E94032A21
S113336020E030E040EF52E40E94032A462E572E1C
S1133370682E792E20E030E0A901692D79818D81B4
S11333809C810E94C92A811108C0242C352C6A8290
S11333907B829E2CF9820D831C832E2D3F2D402F82
S11333A0512F692D79818D819C810E94022A20E010
S11333B030E0A9010E94842C2E2D3F2D402F512F47
S11333C00E94032A962E79838D839C83242D352D88
S11333D0462D572D622D732D8A819B810E94022ACE
S11333E020E030E0A9010E94842C242D352D462DA7
S11333F0572D0E94032A262E372E8A839B83692DFC
S113340079818D819C810E943D2B2B013C011F926F
S11334101F921F9221E02F9330E93F93622D732D69
S11334208A819B810E943D2B7F936F931F921F92F1
S1133430812CA12CB12CC12C0F2EF0E9EF2EFF24EE
S1133440F394F02D820120E030E040E062E082E07D
S11334500E94FC060FB6F894DEBF0FBECDBFEDCEC2
S113346020E030E040E451E4C301B2010E94C92AE3
S113347088230CF04AC020E030E040E451E4C70166
S1133480B6010E94C92A88230CF03FC00E94EC03B5
S11334908AE192E00E94533584E592E00E9453351C
S11334A082E692E00E9453351F921F921F9291E090
S11334B09F93E0E9EF931F92F6E9FF931F921F9207
S11334C0812CA12CB12CC12C0F2EF0E9EF2EFF245E
S11334D0F394F02D06E910E020E030E040E062E0F3
S11334E082E00E94FC0684EF91E00E94AA0A44E66E
S11334F050E060E070E084EB92EC0E944C180FB650
S1133500F894DEBF0FBECDBF98CE20E030E040E49B
S113351051E4C301B2010E94792C18160CF08DCE2F
S113352020E030E040E451E4C701B6010E94792C68
S113353018160CF082CE0E94EC038AE192E00E94FD
S113354053358FE692E00E9453358CE792E00E9457
S113355053351F921F921F9231E03F9380E98F935E
S11335601F9296E99F931F921F92812CA12CB12C3C
S1133570C12C0F2EF0E9EF2EFF24F394F02D06E971
S113358010E020E030E040E062E082E00E94FC06CF
S113359084EF91E00E94AA0A0E94C8160FB6F8941C
S11335A0DEBF0FBECDBF20E030E040E451E40E9416
S11335B0792C18160CF041CE44E650E060E070E03F
S11335C084EB92E40E944C181F921F921F92F1E028
S11335D0FF9320E92F931F9236E93F931F921F9286
S11335E020E030E040E062E082E00E94FC060E94BD
S11335F0C8160FB6F894DEBF0FBECDBF20E030E092
S113360040E451E40E94792C18160CF016CE84E69E
S113361090E00E94AA0A0E94C81620E030E040E42C
S113362051E40E94792C181694F307CECF93DF93BC
S113363000D000D01F92CDB7DEB7212C312C1A82D6
S11336401B82912C19821D821C820E94F0162B0170
S11336503C010E94C8160E94A0166B017C0120E068
S113366030E040E451E4C301B2010E94792C181601
S11336700CF0FEC020E030E040E451E4C701B601A4
S11336800E94C92A88230CF0F3C020E030E040E80F
S113369050E4C701B6010E94C92A8823D4F40E94C9
S11336A0EC038AE892E00E94533587E292E00E949C
S11336B0533585E392E00E945335A701960160E0FB
S11336C070E080E890E40E94022A412C512C3201DF
S11336D039C020E030E040EA50E4C701B6010E945E
S11336E0792C1816E4F40E94EC038AE892E00E9414
S11336F053358BE392E00E94533585E392E00E94B8
S1133700533520E030E040EA50E4C701B6010E949E
S1133710022A2B013C0160E070E0CB0113C00E943F
S1133720EC038AE892E00E9453358AE492E00E9416
S1133730533585E392E00E945335412C512C3201DC
S1133740C301B20120E030E0A9010E94032A20E075
S113375030E040EF52E40E94032AE62EF72E082FB1
S1133760192F20E030E0A901C301B2010E94032A0D
S113377020E030E040EF52E40E94032A462E572E08
S1133780682E792E20E030E0A901692D79818D81A0
S11337909C810E94C92A811108C0242C352C6A827C
S11337A07B829E2CF9820D831C832E2D3F2D402F6E
S11337B0512F692D79818D819C810E94022A20E0FC
S11337C030E0A9010E94842C2E2D3F2D402F512F33
S11337D00E94032A962E79838D839C83242D352D74
S11337E0462D572D622D732D8A819B810E94022ABA
S11337F020E030E0A9010E94842C242D352D462D93
S1133800572D0E94032A262E372E8A839B83692DE7
S113381079818D819C810E943D2B2B013C011F925B
S11338201F921F9221E02F9330E93F93622D732D55
S11338308A819B810E943D2B7F936F931F921F92DD
S1133840812CA12CB12CC12C0F2EF0E9EF2EFF24DA
S1133850F394F02D820120E030E040E062E082E069
S11338600E94FC060FB6F894DEBF0FBECDBFEDCEAE
S113387020E030E040E451E4C301B2010E94C92ACF
S113388088230CF04AC020E030E040E451E4C70152
S1133890B6010E94C92A88230CF03FC00E94EC03A1
S11338A08AE892E00E94533584E592E00E94533501
S11338B08CE792E00E9453351F921F921F9291E071
S11338C09F93E0E9EF931F92F6E9FF931F921F92F3
S11338D0812CA12CB12CC12C0F2EF0E9EF2EFF244A
S11338E0F394F02D06E910E020E030E040E062E0DF
S11338F082E00E94FC0684EF91E00E94AA0A44E65A
S113390050E060E070E084EB92E40E944C180FB643
S1133910F894DEBF0FBECDBF98CE20E030E040E487
S113392051E4C301B2010E94792C18160CF08DCE1B
S113393020E030E040E451E4C701B6010E94792C54
S113394018160CF082CE0E94EC038AE892E00E94E2
S113395053358FE692E00E94533582E692E00E944E
S113396053351F921F921F9231E03F9380E98F934A
S11339701F9296E99F931F921F92812CA12CB12C28
S1133980C12C0F2EF0E9EF2EFF24F394F02D06E95D
S113399010E020E030E040E062E082E00E94FC06BB
S11339A084EF91E00E94AA0A0E94A0160FB6F89430
S11339B0DEBF0FBECDBF20E030E040E451E40E9402
S11339C0792C18160CF041CE44E650E060E070E02B
S11339D084EB92EC0E944C181F921F921F92F1E00C
S11339E0FF9320E92F931F9236E93F931F921F9272
S11339F020E030E040E062E082E00E94FC060E94A9
S1133A00A0160FB6F894DEBF0FBECDBF20E030E0A5
S1133A1040E451E40E94792C18160CF016CE84E68A
S1133A2090E00E94AA0A0E94A01620E030E040E440
S1133A3051E40E94792C181694F307CE2F923F92EA
S1133A404F925F926F927F928F929F92AF92BF92AA
S1133A50CF92DF92EF92FF920F931F93CF93DF9356
S1133A60CDB7DEB72F970FB6F894DEBF0FBECDBF2C
S1133A700E94C8166B017C010E94A01620E030E071
S1133A8040E451E40E94C92A88230CF05DC120E07F
S1133A9030E040E451E4C701B6010E94C92A8823FA
S1133AA00CF052C11D821E821F821886312C212CDB
S1133AB000E010E00E871F870E94C8162B013C010E
S1133AC00E94A0166A877B878C879D879B01AC0127
S1133AD0C301B2010E94032A20E030E040E05FE32A
S1133AE00E94842C4B015C019B01AC01C301B20117
S1133AF00E94022A6B017C0120E030E0A9010E94AF
S1133B00792C181694F40E94EC0386E992E00E9442
S1133B10533584EA92E00E9453358CEA92E00E9485
S1133B205335812C912C54013CC0A3019201C50151
S1133B30B4010E94022A20E030E0A9010E94792CFD
S1133B401816E4F40E94EC0386E992E00E945335CF
S1133B5083EB92E00E9453358CEA92E00E94533545
S1133B60A50194016A857B858C859D850E94022A26
S1133B704B015C01C12CD12C760113C00E94EC03D3
S1133B808CEB92E00E94533584EC92E00E94533512
S1133B908CEC92E00E945335812C912C54017501D8
S1133BA0640120E030E0A901C701B6010E94032AA4
S1133BB06B017C0120E030E0A901632D722D8E851C
S1133BC09F850E94842C9B01AC01C701B6010E9411
S1133BD0032A20E030E040EF52E40E94032A698384
S1133BE07987182F092F20E030E0A901C501B4011D
S1133BF00E94032A6B017C0120E030E0A9016D8161
S1133C007E818F8198850E94842C9B01AC01C70121
S1133C10B6010E94032A20E030E040EF52E40E9403
S1133C20032AC62ED72EE82EF92E20E030E0A90173
S1133C30632D722D8E859F850E94C92A811108C02B
S1133C40CD82DE82EF82F886398029841E870F8731
S1133C5029813985412F502F632D722D8E859F85A3
S1133C600E94022A20E030E0A9010E94842C2981CC
S1133C703985412F502F0E94032A362E272E8E87F6
S1133C809F872C2D3D2D4E2D5F2D6D817E818F8143
S1133C9098850E94022A20E030E0A9010E94842C29
S1133CA02C2D3D2D4E2D5F2D0E94032A6D837E8386
S1133CB08F839887632D722D8E859F850E943D2B5F
S1133CC069837A838B839C831F921F921F9281E066
S1133CD08F9390E99F936D817E818F8198850E9457
S1133CE03D2B7F936F931F921F92812CA12CB12C9B
S1133CF0C12C0F2EF0E9EF2EFF24F394F02D09814F
S1133D001A8120E030E040E062E082E00E94FC069C
S1133D100FB6F894DEBF0FBECDBF20E030E040E424
S1133D2051E46A857B858C859D850E94C92A8823F8
S1133D305CF420E030E040E451E4C301B2010E94AD
S1133D40C92A88230CF4B8CE2F960FB6F894DEBF98
S1133D500FBECDBFDF91CF911F910F91FF90EF90D8
S1133D60DF90CF90BF90AF909F908F907F906F9097
S1133D705F904F903F902F9008952F923F924F92D3
S1133D805F926F927F928F929F92AF92BF92CF92E7
S1133D90DF92EF92FF920F931F93CF93DF93CDB7F0
S1133DA0DEB764970FB6F894DEBF0FBECDBF9C8319
S1133DB08B837E836D833A010B871C872D873E8717
S1133DC0CF86D88AE98AFA8A19821A82412C512C20
S1133DD0E12CF12C312C212CEC8AFB8A0E94F01668
S1133DE06B017C010E94C8164B015C010E94A01665
S1133DF020E030E040E451E4C701B6010E94792C90
S1133E0018160CF033C120E030E040E451E4C50161
S1133E10B4010E94C92A88230CF028C120E030E0B4
S1133E2040EA50E4C501B4010E94C92A8823E4F49D
S1133E300E94EC038AE192E00E94533587E292E00B
S1133E400E94533585E392E00E945335A501940105
S1133E5060E070E080EA90E40E94022A6B017C0139
S1133E6060E070E0CB0137C020E030E040EA50E48D
S1133E70C501B4010E94792C1816D4F40E94EC03F5
S1133E808AE192E00E9453358BE392E00E9453351D
S1133E9085E392E00E94533520E030E040EA50E4AC
S1133EA0C501B4010E94022AC12CD12C760113C091
S1133EB00E94EC038AE192E00E9453358AE492E086
S1133EC00E94533585E392E00E945335C12CD12CD6
S1133ED07601C701B60120E030E0A9010E94032A5F
S1133EE020E030E040EF52E40E94032A862E972E11
S1133EF0A82EB92E20E030E0A901C701B6010E9426
S1133F00032A20E030E040EF52E40E94032AC62E48
S1133F10D72EE82EF92E20E030E0A9016C897B89A8
S1133F20832D922D0E94C92A811108C0C982DA8288
S1133F305E2C4F2C8C8A9B8A3A2C2B2C282D392DC5
S1133F404A2D5B2D6C897B89832D922D0E94022A38
S1133F5020E030E0A9010E94842C282D392D4A2D1F
S1133F605B2D0E94032A6C8B7B8B382E292E2C2DE3
S1133F703D2D4E2D5F2D69817A81852D942D0E94D2
S1133F80022A20E030E0A9010E94842C2C2D3D2D32
S1133F904E2D5F2D0E94032A69837A83582E492E61
S1133FA01DECE12E1CECF12E0CEC1DE32C893B895D
S1133FB0432D522D942D0E94A215F301608171812D
S1133FC0828193810E94CD2A4B015C012C893B891B
S1133FD0432D522D69817A81852D942D0E94032AC7
S1133FE0A80197010E94842C2BE13FE24DED5DE393
S1133FF00E94842C20E030E040E05FE30E94842CA7
S11340006B017C019B01AC01C501B4010E94842CAD
S11340109B01AC01EB81FC81608171818281938180
S11340200E94032AEB81FC816083718382839383E2
S1134030F30160817181828193810E94E72C9B014D
S1134040AC01C701B6010E94842C9B01AC01ED8137
S1134050FE8160817181828193810E94032AED81B6
S1134060FE816083718382839383B8CE20E030E045
S113407040E451E4C701B6010E94C92A88230CF028
S113408094C020E030E040E451E4C501B4010E9452
S1134090C92A88230CF089C00E94EC038AE192E0CB
S11340A00E94533584E592E00E94533582E692E003
S11340B00E945335E12CF12C00E01FE320E030E0B6
S11340C046E153E4CA01B9010E94A215ED81FE81C3
S11340D060817181828193810E94382B6B017C0104
S11340E0EB81FC8160817181828193810E94382BF4
S11340F06F83788789879A876F85788989899A8970
S11341000E94382B4B015C016B857C858D859E85D7
S11341100E94382BDC01CB0196014F815885B401F4
S11341200E9413166B017C01F30180809180A280B0
S1134130B380A50194010E94792C88230CF120E01E
S113414030E044EB52E4C501B4010E94032A9B0110
S1134150AC01C701B6010E94C92A18168CF0A5014A
S11341609401C701B6010E94022A0E94382BCB0198
S11341700E940A18F301C082D182E282F3825DC1F7
S11341808AE590E00E940A1820E030E044EB52E413
S1134190F30160817181828193810E94032AF3017A
S11341A0608371838283938319CE20E030E040E4FE
S11341B051E4C701B6010E94792C18160CF00ECEFA
S11341C020E030E040E451E4C501B4010E94792CC0
S11341D018160CF003CE0E94EC038AE192E00E94D0
S11341E053358FE692E00E9453358CE792E00E94AB
S11341F05335E12CF12C00E01FE320E030E046E1F0
S113420053E4CA01B9010E94A215F30160817181CE
S1134210828193810E94CD2A2AE939E941E051E45F
S11342200E94842C9B01AC01EB81FC816081718133
S1134230828193810E94032AEB81FC8160837183D4
S113424082839383F30160817181828193810E94CF
S1134250E72C2AE939E941E051E40E94842C9B01CE
S1134260AC01ED81FE8160817181828193810E9424
S1134270032AED81FE8160837183828393830E948C
S1134280C81620E030E040E451E40E94792C18166E
S11342900CF0A4CDED81FE816081718182819381D6
S11342A00E94382B6B017C01EB81FC816081718160
S11342B0828193810E94382B6F83788789879A87BC
S11342C06F85788989899A890E94382B4B015C0112
S11342D06B857C858D859E850E94382BDC01CB0106
S11342E096014F815885B4010E9413166B017C011D
S11342F0F30180809180A280B38020E030E044EB21
S113430052E4C501B4010E94022A9B01AC01C70119
S1134310B6010E94792C8823CCF0A5019401C70131
S1134320B6010E94C92A18168CF0A5019401C70190
S1134330B6010E94022A0E94382BCB010E940A185F
S1134340F301C082D182E282F38277C086EA9FEFD2
S11343500E940A1820E030E044EB52E4F30160814B
S11343607181828193810E94022AF30160837183A7
S1134370828393830E94C81620E030E040E451E435
S11343800E94792C18160CF029CDCD80DE80BC88D3
S1134390AB888B809C801DECE12E1CECF12E0CEC88
S11343A01DE320E030E046E153E4CA01B9010E9474
S11343B0A215F30160817181828193810E94CD2ACB
S11343C029E23CE54FEC5FE30E94842C9B01AC01A5
S11343D0F40160817181828193810E94032AF40136
S11343E06083718382839383F3016081718182810D
S11343F093810E94E72C29E23CE54FEC5FE30E94A5
S1134400842C9B01AC01F6016081718182819381CE
S11344100E94032AF60160837183828393830E943E
S1134420C81620E030E040E451E40E94792C1816CC
S11344300CF4B1CFBC8AAB8AD1CC64960FB6F89495
S1134440DEBF0FBECDBFDF91CF911F910F91FF90C3
S1134450EF90DF90CF90BF90AF909F908F907F9020
S11344606F905F904F903F902F9008952F923F92BE
S11344704F925F926F927F928F929F92AF92BF9270
S1134480CF92DF92EF92FF920F931F93CF93DF931C
S1134490CDB7DEB764970FB6F894DEBF0FBECDBFBD
S11344A07E836D833A010B871C872D873E87CF86D9
S11344B0D88AE98AFA8A1B821C82412C512C1982DF
S11344C01A82312C212C9C8B8B8B0E94F0166B0151
S11344D07C010E94C8160E94A0164B015C0120E0DA
S11344E030E040E451E4C701B6010E94792C18166B
S11344F00CF033C120E030E040E451E4C501B401E4
S11345000E94C92A88230CF028C120E030E040E84A
S113451050E4C501B4010E94C92A8823D4F40E943E
S1134520EC038AE892E00E94533587E292E00E940D
S1134530533585E392E00E945335A501940160E070
S113454070E080E890E40E94022AC12CD12C76010C
S113455039C020E030E040EA50E4C501B4010E94D3
S1134560792C1816E4F40E94EC038AE892E00E9485
S113457053358BE392E00E94533585E392E00E9429
S1134580533520E030E040EA50E4C501B4010E9414
S1134590022A6B017C0160E070E0CB0113C00E9431
S11345A0EC038AE892E00E9453358AE492E00E9488
S11345B0533585E392E00E945335C12CD12C76010A
S11345C0C701B60120E030E0A9010E94032A20E0DF
S11345D030E040EF52E40E94032A862E972EA82E44
S11345E0B92E20E030E0A901C701B6010E94032AD8
S11345F020E030E040EF52E40E94032AC62ED72E7A
S1134600E82EF92E20E030E0A90169817A81832D1A
S1134610922D0E94C92A811108C0CB82DC824E2CC3
S11346205F2C89829A823A2C2B2C282D392D4A2DE5
S11346305B2D69817A81832D922D0E94022A20E0CC
S113464030E0A9010E94842C282D392D4A2D5B2DA0
S11346500E94032A69837A83382E292E2C2D3D2D1E
S11346604E2D5F2D6B817C81842D952D0E94022A15
S113467020E030E0A9010E94842C2C2D3D2D4E2DEC
S11346805F2D0E94032A6B837C83482E592E1DECD8
S1134690E12E1CECF12E0CEC1DE329813A81432D13
S11346A0522D952D0E94A215F301608171818281A2
S11346B093810E94CD2A4B015C0129813A81432DCB
S11346C0522D6B817C81842D952D0E94032AA80193
S11346D097010E94842C2BE13FE24DED5DE30E94A3
S11346E0842C20E030E040E05FE30E94842C6B01E6
S11346F07C019B01AC01C501B4010E94842C9B0187
S1134700AC01EB89FC8960817181828193810E9473
S1134710032AEB89FC896083718382839383F30189
S113472060817181828193810E94E72C9B01AC019D
S1134730C701B6010E94842C9B01AC01ED81FE816E
S113474060817181828193810E94032AED81FE81BF
S11347506083718382839383B8CE20E030E040E4A9
S113476051E4C701B6010E94C92A88230CF0C8C0CD
S113477020E030E040E451E4C501B4010E94C92ABC
S113478088230CF0BDC00E94EC038AE892E00E94EA
S1134790533584E592E00E9453358CE792E00E9401
S11347A05335E12CF12C00E01FE320E030E046E13A
S11347B053E4CA01B9010E94A215F3016081718119
S11347C0828193810E94CD2A2AE939E941E051E4AA
S11347D00E94842C9B01AC01EB89FC89608171816E
S11347E0828193810E94032AEB89FC89608371830F
S11347F082839383F30160817181828193810E941A
S1134800E72C2AE939E941E051E40E94842CED8146
S1134810FE8120813181428153810E94032AED81EE
S1134820FE8160837183828393830E94382B6B01A2
S11348307C01EB89FC8960817181828193810E9472
S1134840382B6F83788789879A876F8578898989D8
S11348509A890E94382B4B015C016B857C858D8580
S11348609E850E94382BDC01CB0196014F8158852F
S1134870B4010E9413166B017C01F30180809180C6
S1134880A280B38020E030E044EB52E4C501B401DF
S11348900E94022A9B01AC01C701B6010E94792C37
S11348A08823CCF0A5019401C701B6010E94C92A4E
S11348B018168CF0A5019401C701B6010E94022AC2
S11348C00E94382BCB010E940A18F301C082D182C6
S11348D0E282F38259C186EA9FEF0E940A1820E01F
S11348E030E044EB52E4F301608171818281938171
S11348F00E94022AF3016083718382839383E5CD4E
S113490020E030E040E451E4C701B6010E94792C74
S113491018160CF0DACD20E030E040E451E4C50193
S1134920B4010E94792C18160CF0CFCD0E94EC0330
S11349308AE892E00E9453358FE692E00E94533554
S113494082E692E00E945335E12CF12C00E01FE353
S113495020E030E046E153E4CA01B9010E94A21507
S1134960F30160817181828193810E94CD2A2AE9B9
S113497039E941E051E40E94842C9B01AC01EB89AC
S1134980FC8960817181828193810E94032AEB8971
S1134990FC896083718382839383F30160817181D5
S11349A0828193810E94E72C2AE939E941E051E4AC
S11349B00E94842C9B01AC01ED81FE816081718198
S11349C0828193810E94032AED81FE816083718339
S11349D0828393830E94A01620E030E040E451E4F7
S11349E00E94792C18160CF070CDED81FE81608147
S11349F07181828193810E94382B6B017C01EB8948
S1134A00FC8960817181828193810E94382B6F833C
S1134A10788789879A876F85788989899A890E9496
S1134A20382B4B015C016B857C858D859E850E94AE
S1134A30382BDC01CB0196014F815885B4010E94CB
S1134A4013166B017C01F30180809180A280B380F6
S1134A50A50194010E94792C88230CF120E030E018
S1134A6044EB52E4C501B4010E94032A9B01AC014A
S1134A70C701B6010E94C92A18168CF0A501940139
S1134A80C701B6010E94022A0E94382BCB010E9462
S1134A900A18F301C082D182E282F38275C08AE5EA
S1134AA090E00E940A1820E030E044EB52E4F30165
S1134AB060817181828193810E94032AF301608362
S1134AC07183828393830E94A01620E030E040E447
S1134AD051E40E94792C18160CF0F7CCAB88BC88F2
S1134AE0CD80DE801DECE12E1CECF12E0CEC1DE3E0
S1134AF020E030E046E153E4CA01B9010E94A21566
S1134B00F30160817181828193810E94CD2A29E21F
S1134B103CE54FEC5FE30E94842C9B01AC01F50162
S1134B2060817181828193810E94032AF5016083EF
S1134B30718382839383F301608171818281938184
S1134B400E94E72C29E23CE54FEC5FE30E94842CB1
S1134B509B01AC01F60160817181828193810E9485
S1134B60032AF60160837183828393830E94A016D3
S1134B7020E030E040E451E40E94792C18160CF453
S1134B80B1CFBC8AAB8AA1CC64960FB6F894DEBFD1
S1134B900FBECDBFDF91CF911F910F91FF90EF908A
S1134BA0DF90CF90BF90AF909F908F907F906F9049
S1134BB05F904F903F902F9008954F925F926F9225
S1134BC07F928F929F92AF92BF92CF92DF92EF9299
S1134BD0FF920F931F93CF93DF93CDB7DEB7629706
S1134BE00FB6F894DEBF0FBECDBF962F682F660FA9
S1134BF0680F660F660FF92EFF0C9F0DF92EFF0C40
S1134C00FF0C772767FD7095872F972F0E946B2BDA
S1134C10209133043091340440913504509136048A
S1134C200E94022A6B877C878D879E8769837A839B
S1134C308B839C836F2D772767FD7095872F972F24
S1134C400E946B2B20912F04309130044091310449
S1134C50509132040E94022A6F87788B898B9A8B39
S1134C606D837E838F8398871A8619860E94F01637
S1134C706B017C010E94C8164B015C010E94A016C6
S1134C802B013C0120E030E040EC50E4C701B601C8
S1134C900E94792C18164CF568EC70E084E690E0DC
S1134CA00E94181789859A85181619067CF42DEC2C
S1134CB03CEC4CE251E46D817E818F8198850E94A9
S1134CC0022A6D837E838F83988799C02DEC3CECF8
S1134CD04CE251E46D817E818F8198850E94032A84
S1134CE06D837E838F8398878AC0A3019201C50157
S1134CF0B4010E94C92A88230CF041C020E030E0AE
S1134D00A9016D817E818F8198850E94792C8823E9
S1134D10DCF089859A85865A9F4F9A8789870E94F5
S1134D200A18CF84D888E988FA880B851C852D85D4
S1134D303E85AE01475F5F4FBE016B5F7F4FCE0183
S1134D4001960E94BD1E5BC089859A858A5591098A
S1134D509A8789870E940A18CF84D888E988FA88B4
S1134D600B851C852D853E85AE01475F5F4FBE01D7
S1134D706B5F7F4FCE0101960E94362240C020E037
S1134D8030E0A9016D817E818F8198850E94792C04
S1134D908823DCF089859A858A5591099A878987C1
S1134DA00E940A18CF84D888E988FA880B851C8564
S1134DB02D853E85AE01475F5F4FBE016B5F7F4F20
S1134DC0CE0101960E9436221AC089859A85865A98
S1134DD09F4F9A8789870E940A18CF84D888E988C8
S1134DE0FA880B851C852D853E85AE01475F5F4F94
S1134DF0BE016B5F7F4FCE0101960E94BD1EC9802C
S1134E00DA80EB80FC8020E030E040E85EE3C7011C
S1134E10B6010E94C92A18166CF020E030E040E880
S1134E205EE36D817E818F8198850E94C92A181660
S1134E300CF044C020E030E040E85EEBC701B6016E
S1134E400E94792C882364F020E030E040E85EEB97
S1134E506D817E818F8198850E94792C882374F5D9
S1134E6020E030E040E85EE3C701B6010E94C92AB1
S1134E70181664F020E030E040E85EEB6D817E813E
S1134E808F8198850E94792C8823C4F420E030E037
S1134E9040E85EEBC701B6010E94792C88230CF42C
S1134EA0E5CE20E030E040E85EE36D817E818F81D5
S1134EB098850E94C92A18160CF4D8CE0E94EC03D7
S1134EC081ED92E09F938F930E943F3588E893E1B0
S1134ED00E94AA0A0F900F9062960FB6F894DEBF54
S1134EE00FBECDBFDF91CF911F910F91FF90EF9037
S1134EF0DF90CF90BF90AF909F908F907F906F90F6
S1134F005F904F9008950E9409048CEE92E09F9365
S1134F108F930E943F350E945B0A0F900F9091304F
S1134F2051F00E94EC038AEF92E09F938F930E94CA
S1134F303F350F900F9081E00E94D7050E947603C1
S1134F4081E00E94D8030E94A30785E193E09F9328
S1134F508F930E943F350E94EC0360E082E00E9440
S1134F6048080F900F90C8E7D3E00F2EF4E8EF2E17
S1134F70F3E0FF2EF02D0F2EF4E18F2EF02D0F2EE7
S1134F80FCEE9F2EF02D0DE913E00E94EC038DE161
S1134F9093E00E9453358EE293E00E9453358FE3F1
S1134FA093E00E94533580E00E940D0A882309F49F
S1134FB0ADC00E94F0162B013C010E94C8164B01A3
S1134FC05C010E94A0166B017C0120E030E040E20D
S1134FD051E40E94C92A882374F420E030E040E2BE
S1134FE051E4C501B4010E94C92A88230CF0F2C11E
S1134FF00E941E1DDECF20E030E040E251E4C501F6
S1135000B4010E94C92A882314F40E940E1920E0D6
S113501030E040E251E4C701B6010E94C92A882366
S113502014F40E94161B20E030E040E251E4C30176
S1135030B2010E94C92A88230CF05BC00E94EC03D1
S113504082E593E09F938F930E943F358BE593E035
S11350509F938F930E943F351F921F921F9281E06E
S11350608F9380E98F931F9286E98F931F921F92EB
S1135070812CA12CB12CC12C0F2EF0E9EF2EFF2492
S1135080F394F02D06E910E020E030E040E062E027
S113509082E00E94FC0684EF91E00E94AA0A0E942A
S11350A0C8166B017C010E94A0169B01AC018DB750
S11350B09EB70D960FB6F8949EBF0FBE8DBFC70165
S11350C0B6010E94C92A882354F444E650E060E003
S11350D070E084EB92EC0E944C180E94161B44E68C
S11350E050E060E070E084EB92E40E944C180E946F
S11350F00E190E94EC0388E693E00E9453358FE674
S113510093E00E9453350E94521653CF81E00E94CF
S11351100D0A882309F4DBC00E94F0162B013C0120
S11351200E94C8164B015C010E94A0166B017C0111
S113513020E030E040E251E40E94C92A882374F45C
S113514020E030E040E251E4C501B4010E94C92AE4
S113515088230CF04BC10E941E1DDECF20E030E0FE
S113516040E251E4C501B4010E94C92A882314F421
S11351700E940E1920E030E040E251E4C701B6017C
S11351800E94C92A882314F40E94161B20E030E0F0
S113519040E251E4C301B2010E94C92A88230CF001
S11351A089C01F921F921F92D1E0DF93C0E9CF9371
S11351B01F921F921F921F92812CA12CB12CC12CE3
S11351C00F2EF0E9EF2EFF24F394F02D00E010E011
S11351D020E030E040E062E082E00E94FC0644E629
S11351E050E060E070E084E392E40E944C180E9476
S11351F0F01644E650E060E070E084EB92EC0E942C
S11352004C180E94F01644E650E060E070E084E33D
S113521092E40E944C180E94EC0382E593E09F9371
S11352208F930E943F358BE593E09F938F930E9469
S11352303F351F921F921F92DF93CF931F9286E9EF
S11352408F931F921F9206E910E020E030E040E0C7
S113525062E082E00E94FC0684EF91E00E94AA0AC8
S11352600E94C8166B017C010E94A0169B01AC0130
S11352708DB79EB746960FB6F8949EBF0FBE8DBFEE
S1135280C701B6010E94C92A882354F444E650E0B9
S113529060E070E084EB92EC0E944C180E94161BB4
S11352A044E650E060E070E084EB92E40E944C1825
S11352B00E940E190E94EC0388E693E00E94533585
S11352C08FE693E00E9453350E94521625CF82E068
S11352D00E940D0A882309F458CEB12C32C00E94D2
S11352E0EC031F921F922B2D332727FD30953F93FC
S11352F0BF92DF93CF930E943F35FF92EF920E94BB
S11353003F3580E00E940D0A2DB73EB7285F3F4F1E
S11353100FB6F8943EBF0FBE2DBF882329F0B39477
S113532034E13B155CF00DC081E00E940D0A882336
S113533041F0BA948CEEB8161CF003C0B92C01C02D
S1135340B82C82E00E940D0A882349F2A12CCB2CB0
S1135350DD24C7FCD09432C00E94EC032A2D3327ED
S113536027FD30953F93AF92DF92BF92DF93CF93A7
S11353700E943F351F930F930E943F3580E00E94A7
S11353800D0A2DB73EB7285F3F4F0FB6F8943EBFC6
S11353900FBE2DBF882329F0A39434E13A155CF0A5
S11353A00DC081E00E940D0A882341F0AA948CEE7E
S11353B0A8161CF003C0A92C01C0A82C82E00E94EE
S11353C00D0A882349F26A2D8B2D0E94DD250E9447
S11353D0EC03DBCD20E030E040E251E4C501B40150
S11353E00E94C92A88230CF01CCE0FCE20E030E0A6
S11353F040E251E4C501B4010E94C92A88230CF09B
S1135400C3CEB6CE5058BB27AA270ED027C2F0D1A0
S113541030F0F5D120F031F49F3F11F41EF4C0C1F7
S11354200EF4E095E7FBB6C1E92F3AD280F3BA1740
S1135430620773078407950718F071F49EF552C24A
S11354400EF4E0950B2EBA2FA02D0B01B90190019B
S11354500C01CA01A0011124FF27591B99F0593FDF
S113546050F4503E68F11A16F040A22F232F342F27
S11354704427585FF3CF469537952795A795F04075
S11354805395C9F77EF41F16BA0B620B730B840B8A
S1135490BAF09150A1F0FF0FBB1F661F771F881F42
S11354A0C2F70EC0BA0F621F731F841F48F487959A
S11354B077956795B795F7959E3F08F0B3CF939589
S11354C0880F08F09927EE0F97958795089590D146
S11354D058F080E891E009F49EEF91D128F040E87B
S11354E051E059F45EEF09C05BC1FCC1E92FE078DB
S11354F0D7D168F3092E052AC1F3261737074807C1
S1135500590738F00E2E07F8E02569F0E025E0642D
S11355100AC0EF6307F8009407FADB01B9019D01A3
S1135520DC01CA01AD01EF934AD098D10AD05F9152
S1135530552331F02BED3FE049E450FD49EC63CFB6
S11355400895DF93DD27B92FBF7740E85FE3161690
S1135550170648075B0710F4D92FCFD19F938F9379
S11355607F936F933AD2ECE7F0E01DD177D12F917E
S11355703F914F915F91D4D1DD2349F09058A2EA35
S11355802AED3FE049EC5FE3D0785D274DDFDF9102
S113559065C1DCD008F481E0089539D1E3956FC189
S11355A00CD05CC12CD140F023D130F021F45F3F0A
S11355B019F0F0C0511197C1F3C072D198F3992337
S11355C0C9F35523B1F3951B550BBB27AA276217C3
S11355D07307840738F09F5F5F4F220F331F441F08
S11355E0AA1FA9F333D00E2E3AF0E0E830D0915040
S11355F05040E695001CCAF729D0FE2F27D0660F2D
S1135600771F881FBB1F261737074807AB07B0E86B
S113561009F0BB0B802DBF01FF2793585F4F2AF081
S11356209E3F510568F0B6C05EC15F3FECF3983E03
S1135630DCF3869577956795B795F7959F5FC9F7DE
S1135640880F911D9695879597F90895E1E0660F67
S1135650771F881FBB1F621773078407BA0720F0E0
S1135660621B730B840BBA0BEE1F88F7E095089549
S113567004D06894B11137C108951AD188F09F57A6
S113568090F0B92F9927B751A0F0D1F0660F771F8A
S1135690881F991F1AF0BA95C9F712C0B13081F06A
S11356A021D1B1E008951EC1672F782F8827B85FF4
S11356B039F0B93FCCF3869577956795B395D9F7CB
S11356C03EF490958095709561957F4F8F4F9F4FD5
S11356D00895E89409C097FB3EF4909580957095E1
S11356E061957F4F8F4F9F4F9923A9F0F92F96E92A
S11356F0BB279395F695879577956795B795F1119F
S1135700F8CFFAF4BB0F11F460FF1BC06F5F7F4F3B
S11357108F4F9F4F16C0882311F096E911C077234D
S113572021F09EE8872F762F05C0662371F096E856
S1135730862F70E060E02AF09A95660F771F881F25
S1135740DAF7880F9695879597F90895990F0008C9
S1135750550FAA0BE0E8FEEF16161706E807F9073F
S1135760C0F012161306E407F50798F0621B730BDA
S1135770840B950B39F40A2661F0232B242B252B5B
S113578021F408950A2609F4A140A6958FEF811DFE
S1135790811D089597F99F6780E870E060E008959F
S11357A09FEF80EC0895DF93CF931F930F93FF92A5
S11357B0EF92DF927B018C01689405C0DA2EEF0131
S11357C0AFD0FE01E894A59125913591459155916D
S11357D0AEF3EF0129DEFE019701A801DA9479F70F
S11357E0DF90EF90FF900F911F91CF91DF9108957B
S11357F000240A94161617061806090608950024AC
S11358000A9412161306140605060895C9CF50D03B
S1135810E8F3E894E0E0BB279F57F0F02AED3FE07F
S113582049EC06C0EE0FBB0F661F771F881F28F0D8
S1135830B23A62077307840728F0B25A620B730BFB
S1135840840BE3959A9572F7803830F49A95BB0FE0
S1135850661F771F881FD2F79048C4C0092E03948F
S1135860000C11F4882352F0BB0F40F4BF2B11F449
S113587060FF04C06F5F7F4F8F4F9F4F0895EF937A
S1135880E0FF06C0A2EA2AED3FE049EC5FEBCCDD85
S1135890E5DF0F90039401FC9058E9EAF0E0AEC014
S11358A057FD9058440F551F59F05F3F71F04795CD
S11358B0880F97FB991F61F09F3F79F087950895B2
S11358C0121613061406551FF2CF4695F1DF08C0D1
S11358D0161617061806991FF1CF869571056105EE
S11358E008940895E894BB2766277727CB0197F996
S11358F008952CDF08F48FEF08959B01AC0160E05C
S113590070E080E89FE34CCE0BD0A8CF71DF28F085
S113591076DF18F0952309F03DCF42CF1124E3CF71
S1135920BFDFA0F3959FD1F3950F50E0551F629F01
S1135930F001729FBB27F00DB11D639FAA27F00DE4
S1135940B11DAA1F649F6627B00DA11D661F829F0B
S11359502227B00DA11D621F739FB00DA11D621FF0
S1135960839FA00D611D221F749F3327A00D611D0D
S1135970231F849F600D211D822F762F6A2F1124EF
S11359809F5750408AF0E1F088234AF0EE0FFF1F42
S1135990BB1F661F771F881F91505040A9F79E3F79
S11359A0510570F0F7CE9FCF5F3FECF3983EDCF3E8
S11359B0869577956795B795F795E7959F5FC1F7B6
S11359C0FE2B880F911D9695879597F908959F93BF
S11359D01EDF0F9007FCEE5F52CF9B01AC0194CF0A
S11359E09F3F31F0915020F4879577956795B7954F
S11359F0880F911D9695879597F908959F938F9396
S1135A007F936F93FF93EF939B01AC017DDFEF9145
S1135A10FF91C9DE2F913F914F915F9175CFA3E123
S1135A20B0E0E5E1FDE20C9440327C011B016A0127
S1135A30FC0117821682838181FF66C3BE016F5FFA
S1135A407F4F4B01F7019381F10193FD859193FF02
S1135A5081911F01882309F453C3853239F493FDDE
S1135A60859193FF81911F01853239F4B70190E04C
S1135A700E940D3556016501E5CF10E0512C20E060
S1135A802032A0F48B3269F030F4803259F0833242
S1135A9069F420612CC08D3239F0803339F42160EF
S1135AA026C02260246023C0286021C027FD27C0AF
S1135AB030ED380F3A3078F426FF06C0FAE01F9F25
S1135AC0300D1124132F13C06AE0569E300D11249B
S1135AD0532E20620CC08E3221F426FD11C32064A3
S1135AE006C08C3611F4206802C0883641F4F101F6
S1135AF093FD859193FF81911F018111C1CF9BEB90
S1135B00980F933018F42061805E06C09BE9980FCB
S1135B10933008F0AAC12F7E26FF16E02F73722E51
S1135B20853621F4F22FF0647F2E08C0863621F4E6
S1135B30622F6068762E02C01111115077FE07C0E3
S1135B401C3348F444244394410E27E00BC018301E
S1135B5030F4212F06C027E04CE3442E03C027E095
S1135B6017E0412C560174E0A70EB11CF6016081C8
S1135B70718182819381042DA4010E941F346C01E0
S1135B80098100FF02C003FF06C071FC07C072FC5C
S1135B9008C0612C08C03DE2632E05C02BE2622ED2
S1135BA002C090E2692E802F8C7099F1662011F06A
S1135BB084E001C083E0851510F0512C0BC0581A05
S1135BC073FC08C0B70180E290E00E940D355A943E
S1135BD0C9F7F3CF662029F0B701862D90E00E9423
S1135BE00D3503FD03C00FEA15E002C00BEA15E012
S1135BF0F72DF0717F2EF8018491882309F476C281
S1135C0071108052B70190E00E940D350F5F1F4F55
S1135C10F2CF77FE0FC04C0C04FF04C08A8181339D
S1135C2009F44A94141474F5F8E0F41578F588E04E
S1135C30482E2CC076FC2AC0812F90E08C159D053F
S1135C409CF06CEFC6166FEFD60674F0772D706873
S1135C50772E0AC0E2E0F0E0EC0FFD1FE10FF11D2A
S1135C608081803319F411501111F4CF77FE0EC0E6
S1135C7044244394410E812F90E0C816D9062CF495
S1135C801C1904C04424439401C010E077FE07C0EB
S1135C901C141D043CF496012F5F3F4F05C025E002
S1135CA030E002C021E030E0662011F02F5F3F4F6A
S1135CB0112331F0412F50E04F5F5F4F240F351F08
S1135CC0452D50E02417350714F4521A01C0512C05
S1135CD0872D897049F4552039F0B70180E290E0AE
S1135CE00E940D355A94F7CF662029F0B701862D0E
