S012000048656C6C6F446F6C6C792E737265631A
S113000038C3000054C3000052C3000050C30000B2
S1130010A2C60000C9C60000F0C6000017C7000051
S113002046C3000079C50000A0C50000C7C5000094
S113003040C60000ECC5000013C6000063C6000003
S1130040F0C4000017C500003EC5000030C3000026
S11300502EC300002CC300002AC3000028C30000E4
S113006026C3000024C3000022C3000020C30000F4
S11300701EC300001CC300001AC3000018C3000004
S113008016C3000014C3000012C3000087048A04CE
S11300908D0490049904930496049C049F04A20480
S11300A0A504A804AB04AE04B104B404B704BA04B0
S11300B0BD04CE04D104D404D704E004DA04DD047E
S11300C0E304E604E904EC04EF04F204F504F804A0
S11300D0FB04FE040105040507634236B79BD8A759
S11300E01A39685618AEBAAB558C1D3CB7CC576359
S11300F0BD6DEDFD753EF6177231BF000000803F07
S113010008000000BE922449123EABAAAA2ABECD22
S1130110CCCC4C3E00000080BEABAAAAAA3E000094
S11301200000BF000000803F00000000000841788C
S1130130D3BB4387D1133D190E3CC3BD4282AD2BC3
S11301403E68EC8276BED98FE1A93E4C80EFFFBEBB
S113015001C4FF7F3F0000000000160501000000FD
S113016000000000FA000000E000E00028FE28FE85
S1130170282454FE5448C4C81026466C92AA44A0AD
S113018000A0C000000038448200008244380028E7
S1130190107C102810107C1010000A0C00001010A5
S11301A0101010000606000004081020407C8A92FB
S11301B0A27C0042FE020042868A92628482A2D21B
S11301C08C182848FE08E4A2A2A29C3C5292920CED
S11301D0808E90A0C06C9292926C609292947800FF
S11301E06C6C0000006A6C0000102844820028280F
S11301F0282828008244281040808A90604C929ECF
S1130200827C7E8888887EFE9292926C7C82828236
S113021044FE82824438FE92929282FE90909080B4
S11302207C8292925EFE101010FE0082FE82000418
S11302300282FC80FE10284482FE02020202FE407A
S11302403040FEFE201008FE7C8282827CFE90906C
S113025090607C828A847AFE9098946262929292F0
S11302608C8080FE8080FC020202FCF8040204F808
S1130270FC021C02FCC6281028C6E0100E10E08602
S11302808A92A2C200FE82820040201008040082EA
S113029082FE0020408040200202020202008040D0
S11302A02000042A2A2A1EFE1222221C1C22222298
S11302B0041C222212FE1C2A2A2A18107E90804036
S11302C0304A4A4A7CFE1020201E0022BE0200044E
S11302D00222BC00FE081422000082FE02003E201E
S11302E018201E3E1020201E1C2222221C3E2828DC
S11302F02810102828183E3E10202010122A2A2ADE
S11303000420FC2202043C0202043E3804020438A5
S11303103C020C023C2214081422300A0A0A3C2231
S1130320262A322200106C82000000FE00000082A7
S11303306C1000081010081000000000007F81817C
S1130340817F7F8383837F7F8787877F7F8F8F8F63
S11303507F7F9F9F9F7F7FBFBFBF7F7FFFFFFF7F09
S11303602040FF4020621517156500FBFB000000CC
S113037000000000C0FF0300E0FF0700F0FF0F00D3
S1130380F8FF1F0078001E0078001E0078001E0091
S113039078001E0078001E0078001E0078001E0001
S11303A078001E0078001E0000000000000000001D
S11303B080FF0300E0FF0700F0FF0F00F8FF1F00BD
S11303C0F83C1F00783C1E00783C1E00783C1E0060
S11303D0783C1E00783C1E00783C1E00783C1E00D1
S11303E0783C1E00783C1E00783C1E000000000093
S11303F000000000E0FF0300F0FF0700F8FF0F001B
S1130400F8FF1F00783C1E00783C1E00783C1E005C
S1130410783C1E00783C1E00783C1E00783C1E0090
S1130420783C1E00783C1E00783C1E000000000052
S113043000000000F8FF0300F8FF0F00F8FF1F00A2
S1130440F8FF1F0000001E0000001E0000801F00B7
S113045000F01F0000FF0F00E0FF0700F0FF0000A6
S1130460F80F0000F8000000780000007800000099
S1130470F8FF1F00F8FF1F00F0FF1F00E0FF1F0040
S11304800000000000000000F8FF1F00F8FF1F003C
S1130490F8FF1F00F8FF1F0078001E00783C1E00C4
S11304A0783C1E00783C1E00783C1E00783C1E0000
S11304B0783C1E00F87E1F00F8FF1F00F0FF0F00BD
S11304C0E0E703000000000000003800EEFF6C00CD
S11304D02A8045003A0047FC03FF6CFC83FF390087
S11304E0DEFF0B7CD0810BFCD0810BC0D0810BFCD8
S11304F0D0810B7CDEFF0B0082FF397002FF6CF8A9
S11305003A0047DC2A8045CCEEFF6CCC0000380072
S11305100000000C00001E0C00001E0000001E0065
S113052000001E0000001E00F8FF1F00F8FF1F005F
S1130530F8FF1F00F8FF1F0000001E0000001E004F
S113054000001E0000001E0000005E0000004000CD
S113055000007C00000040000000400000007C001F
S113056000003000000010000000300000007C6E2D
S1130570616E00696E660000407A10F35A00A07242
S11305804E18090010A5D4E80000E87648170000CA
S1130590E40B54020000CA9A3B000000E1F5050098
S11305A00080969800000040420F000000A08601E1
S11305B0000000102700000000E8030000000064B1
S11305C000000000000A000000000001000000001C
S11305D0002C76D888DC674F0823DFC1DFAE59E1F1
S11305E0B1B796E5E3E453C63AE651997696E8E660
S11305F0C28426EB898C9B62ED407C6FFCEFBC9C33
S11306009F40F2BAA56FA5F490055A2AF75C936B44
S11306106CF9676DC11BFCE0E40D47FEF520E6B5FF
S113062000D0ED902E0300943577050080841E08D9
S11306300000204E0A000000C80C333333330F98F7
S11306406E12831141EF8D2114893BE65516CFFEBE
S1130650E6DB18D1844B381BF77C1D901DA4BBE44A
S113066024203284725E228100C9F124ECA1E53D8C
S1130670270011241FBECFEFD0E4DEBFCDBF11E0B1
S1130680A0E0B1E0EEEFF3E300E00BBF02C007909F
S11306900D92AA32B107D9F722E0AAE2B1E001C073
S11306A01D92AE30B207E1F703D00C94FD19A8CC2B
S11306B0B6D1ADD10E94091080E090E008950F9367
S11306C01F9382E015D1882311F482E005C081E0F4
S11306D00FD1882319F481E090E059C00BD485E050
S11306E061E04ED18EEA60E08DD082EA60E08AD08B
S11306F080EA60E087D000E513ECC8010197F1F7C8
S113070080EC60E07FD08FE260E07CD081E860E044
S113071079D086E160E076D082E260E073D0C801EF
S11307200197F1F78FEA60E06DD086EA60E06AD065
S113073085EA60E067D080E090E028E833E1F901E1
S11307403197F1F7019643E0883E9407C1F783EBB4
S113075060E058D080E460E055D083E060E03CD0B5
S113076083E060E032D01092A6011092A8011092AA
S1130770A70180E091E090930B0280930A0288E144
S113078009D09FD384EA60E03DD085E091E01F91D9
S11307900F9108951F93182F85E0AAD0813099F402
S11307A087E049D082E06AE096D082E061EB93D0A2
S11307B0612F113208F060E282E08DD089EE8A95D3
S11307C0F1F787E038D01F91089583706F776093B5
S11307D0A4018093A50108950F931F93062F162F4C
S11307E01F778370806B60E00DD012951F70812F8E
S11307F0806160E007D0802F8F7060E003D01F918C
S11308000F9108950F931F93082F162F85E070D032
S1130810813071F4112319F0113021F402C02B98A6
S113082001C02B9A86E08A95F1F780E0602F53D0BF
S11308301F910F9108951F93182F82E059D0813092
S113084009F047C0912F97708091A901981709F476
S113085040C09093A90185B1887F892B85B99330D5
S113086011F1943028F4913051F0923090F40CC08E
S1130870953019F19530E0F0963021F50FC0E091F4
S11308806C01F0916D0122C0E0916A01F0916B015D
S11308901DC0E0916E01F0916F0118C0E0917601E6
S11308A0F091770113C0E0917001F09171010EC0D5
S11308B0E0917201F091730109C0E0917401F0912B
S11308C0750104C0E0917801F0917901309709F045
S11308D009951F9108951F93162FADDF82E008D06C
S11308E0813021F41EBD0DB407FEFDCF1F91089584
S11308F0E82FF0E0E331F10540F4EA5BFF4FEE0F3F
S1130900FF1F0590F491E02D099480E008958091F3
S11309109101089580919201089580919301089521
S11309208091940108958091950108958091970193
S11309300895809196010895809198010895809179
S11309409901089580919A01089580919B010895D9
S113095080919C01089580919D01089580919E014C
S1130960089580919F0108958091A0010895809138
S1130970A10108958091A20108958091A301089591
S1130980E82FF0E0E331F10508F040C0E75AFF4FEB
S1130990EE0FFF1F0590F491E02D099460939101EF
S11309A0089560939201089560939301089560936C
S11309B094010895609395010895609397010895B3
S11309C06093960108956093980108956093990146
S11309D0089560939A01089560939B01089560932C
S11309E09C01089560939D01089560939E0108956C
S11309F060939F0108956093A00108956093A101FD
S1130A0008956093A20108956093A1010895C0D44C
S1130A1018D345D289D576D3DED4789408950000CE
S1130A2008951F920F920FB60F9211242F933F93A4
S1130A304F935F936F937F938F939F93AF93BF93E2
S1130A40EF93FF93E0914A01F0914B01309709F045
S1130A500995FF91EF91BF91AF919F918F917F91F4
S1130A606F915F914F913F912F910F900FBE0F9017
S1130A701F9018951F920F920FB60F9211242F9367
S1130A803F934F935F936F937F938F939F93AF9312
S1130A90BF93EF93FF93E0914C01F0914D01309798
S1130AA009F00995FF91EF91BF91AF919F918F91BB
S1130AB07F916F915F914F913F912F910F900FBE56
S1130AC00F901F9018951F920F920FB60F9211243A
S1130AD02F933F934F935F936F937F938F939F9342
S1130AE0AF93BF93EF93FF93E0914E01F0914F01C9
S1130AF0309709F00995FF91EF91BF91AF919F91C4
S1130B008F917F916F915F914F913F912F910F90B2
S1130B100FBE0F901F9018951F920F920FB60F9251
S1130B2011242F933F934F935F936F937F938F93EE
S1130B309F93AF93BF93EF93FF93E0913C01F091A8
S1130B403D01309709F00995FF91EF91BF91AF9165
S1130B509F918F917F916F915F914F913F912F91D1
S1130B600F900FBE0F901F9018951F920F920FB603
S1130B700F9211242F933F934F935F936F937F931F
S1130B808F939F93AF93BF93EF93FF93E0913E01B5
S1130B90F0913F01309709F00995FF91EF91BF91D2
S1130BA0AF919F918F917F916F915F914F913F9101
S1130BB02F910F900FBE0F901F9018951F920F92B8
S1130BC00FB60F9211242F933F934F935F936F931C
S1130BD07F938F939F93AF93BF93EF93FF93E09192
S1130BE04001F0914101309709F00995FF91EF918F
S1130BF0BF91AF919F918F917F916F915F914F9131
S1130C003F912F910F900FBE0F901F9018951F9238
S1130C100F920FB60F9211242F933F934F935F932C
S1130C206F937F938F939F93AF93BF93EF93FF93B0
S1130C30E0914401F0914501309709F00995FF9145
S1130C40EF91BF91AF919F918F917F916F915F9140
S1130C504F913F912F910F900FBE0F901F901895B9
S1130C601F920F920FB60F9211242F933F934F931D
S1130C705F936F937F938F939F93AF93BF93EF9300
S1130C80FF93E0914601F0914701309709F00995EF
S1130C90FF91EF91BF91AF919F918F917F916F9150
S1130CA05F914F913F912F910F900FBE0F901F9026
S1130CB018951F920F920FB60F9211242F933F9302
S1130CC04F935F936F937F938F939F93AF93BF9350
S1130CD0EF93FF93E0914201F0914301309709F0C3
S1130CE00995FF91EF91BF91AF919F918F917F9162
S1130CF06F915F914F913F912F910F900FBE0F9085
S1130D001F9018951F920F920FB60F9211242F93D4
S1130D103F934F935F936F937F938F939F93AF937F
S1130D20BF93EF93FF93E0914801F091490130970D
S1130D3009F00995FF91EF91BF91AF919F918F9128
S1130D407F916F915F914F913F912F910F900FBEC3
S1130D500F901F9018951F920F920FB60F921124A7
S1130D602F933F934F935F936F937F938F939F93AF
S1130D70AF93BF93EF93FF93E0913201F09133016E
S1130D80309709F00995FF91EF91BF91AF919F9131
S1130D908F917F916F915F914F913F912F910F9020
S1130DA00FBE0F901F9018951F920F920FB60F92BF
S1130DB011242F933F934F935F936F937F938F935C
S1130DC09F93AF93BF93EF93FF93E0913401F0911E
S1130DD03501309709F00995FF91EF91BF91AF91DB
S1130DE09F918F917F916F915F914F913F912F913F
S1130DF00F900FBE0F901F9018951F920F920FB671
S1130E000F9211242F933F934F935F936F937F938C
S1130E108F939F93AF93BF93EF93FF93E09136012A
S1130E20F0913701309709F00995FF91EF91BF9147
S1130E30AF919F918F917F916F915F914F913F916E
S1130E402F910F900FBE0F901F9018951F920F9225
S1130E500FB60F9211242F933F934F935F936F9389
S1130E607F938F939F93AF93BF93EF93FF93E091FF
S1130E703801F0913901309709F00995FF91EF910C
S1130E80BF91AF919F918F917F916F915F914F919E
S1130E903F912F910F900FBE0F901F90189580E1F6
S1130EA027DD882359F4EAE2F1E01192119281E0FE
S1130EB0EA36F807D1F780E161E062DD80E191E094
S1130EC008950F931F9380E460E09CDC00E0802F82
S1130ED060E082DC10E080E061E094DC1F5F1038A9
S1130EE0D1F70F5F043099F783E060E06EDC1F9167
S1130EF00F910895239A0895FF920F931F93CF9310
S1130F00DF93F82E8AE0F816B1F08F1548F0E8E088
S1130F10FE16A9F1EF1528F1F7E0FF1651F439C0D8
S1130F208DE0F81659F0EBE1FE1689F0FCE0FF16AF
S1130F3041F001E03CC01092A40103C01092A4014E
S1130F4035C08091A50181508093A5012FC0B9DFE0
S1130F5013C080E061E056DC8091A4018F5F809330
S1130F60A4018091A40187FFF4CF1092A401809181
S1130F70A50181508093A50100E011E019C0809182
S1130F80A401882399F08091A40186508093A40140
S1130F900DC081E0A5D164EF71E080E090E04DE701
S1130FA050E024E630E0A5D181E00BD100E010E070
S1130FB08091A5016091A4010FDC002341F185E03B
S1130FC0F89EC0011124EC01C354DF4F8C010E5371
S1130FD01F4FFE01849161E015DC2196C017D107F3
S1130FE0C1F780E061E00EDC8091A4018A5F809308
S1130FF0A4018091A40190E08C3791053CF01092FB
S1131000A4018091A50181508093A50111E08091F4
S1131010A50183708093A501113059F48091A60134
S1131020813039F4E091A701F091A801309709F0DB
S1131030099580E090E0DF91CF911F910F91FF908F
S1131040089580E055DC882339F4F894B2D281E025
S113105006D080E061E094DC80E091E00895813086
S113106049F0F894813020F18230B1F0833009F0F6
S113107045C017C02C9A80E88093610010926100EB
S113108080E090E00000019688329105D9F7109233
S1131090680010926B00089580E88093610083E0FB
S11310A004C080E88093610088E08093610028C0D8
S11310B080E090E0000001962DE680369207D1F79B
S11310C02C9880E090E0000001962DE6803692078F
S11310D0D1F710927A008FEF8093640080916800BA
S11310E081608093680080916B00846080936B00C2
S11310F0789483B7816083BF88950895823008F01F
S1131100789408950F931F9380D280E064EF7AE07F
S113111027D081E06CEE7AE023D082E064EE7AE0BE
S11311201FD086E06CEF7AE01BD00CED1AE083E070
S1131130B80116D084E0B80113D085E0B80110D00E
S113114087E0B8010DD082E061E01ADC8FEF809374
S1131150A90187E070DB82E091E01F910F9108956F
S1131160E82FF0E0EE0FFF1FE659FE4F7183608316
S113117008958AE0BDDB813031F4A8D210927B015E
S11311808AE060E0FDCB089589E0B2DB8130C1F4F0
S113119080917A01882309F0F5D082E097D280917A
S11311A0880190918901009731F00E94DE17109216
S11311B089011092880110927A0189E060E0E0CB05
S11311C00895813019F0823011F4DECFD2CF089522
S11311D00F931F93CF93DF9380E291E00E94461711
S11311E09C019093890180938801892B11F480E0FC
S11311F039C08901C0E0D0E0BE0180E090E00E94E7
S1131200071420E030E040EA51E40E949F1327EFE6
S113121035E740E05FE30E94CF149B01AC0160E03E
S113122070E080E291E40E9432159B01AC01CA0196
S1131230B9012DEC3CEC42E851E40E94CF140E9429
S113124095142AE030E040E050E00E94FC16F801DA
S113125061937193819391938F012196C834D10541
S113126059F681E0DF91CF911F910F9108958AE0A3
S11312703FDB882361F4109285011092840181E0A0
S113128041D281E080937B018AE061E079DB8AE0EE
S113129091E008951F938BE02BDB882311F090E0FD
S11312A01CC089E025DB8823B9F492DF182F813034
S11312B099F410927C0110927D0110927E0110929B
S11312C07F018DE06CE07BE060D182E01BD2109363
S11312D07A0189E061E054DB91E089E01F9108958F
S11312E0813029F0823021F090E089E00895BFCF69
S11312F0D1CF8F929F92AF92BF92CF92DF92EF9213
S1131300FF920F931F93CF93DF934B015C01EA018C
S1131310B9012115310521F19E01442737FD40957E
S1131320542F6536710510F064E670E080E090E0BB
S11313300E94FC1624E630E040E050E00E940B17C7
S113134079018A01C501B40169D1C70191D060E076
S113135070E080E090E062D1CE018E199F0904C054
S11313604115510511F0CA0183D0DF91CF911F912E
S11313700F91FF90EF90DF90CF90BF90AF909F9030
S11313808F900895EFE6F0E080818D7F808308954B
S11313901092910110929201109296011092930171
S11313A01092950110929701109298011092990150
S11313B010929A0110929B0110929C0110929D012F
S11313C010929E0110929F011092A0011092A1010F
S11313D01092A201089582E08BDA882319F490E038
S11313E082E008951092BF011092BE011092C101D3
S11313F01092C0011092C3011092C2011092C50153
S11314001092C4011092C7011092C60180E991E0C4
S11314109093AB018093AA019093AD018093AC01AA
S11314209093AF018093AE019093B1018093B0018A
S11314309093B3018093B20184E398E09093B50153
S11314408093B4019093B7018093B6019093B9014E
S11314508093B8019093BB018093BA019093BD012E
S11314608093BC0181E061E08BDA91E081E0089532
S1131470DF93CF93CDB7DEB729970FB6F894DEBFCD
S11314800FBECDBF9C01CE01019661E040E010D0BB
S1131490982F882319F48F818823E9F3892F2996BB
S11314A00FB6F894DEBF0FBECDBFCF91DF91089584
S11314B0EF92FF920F931F93CF93DF93EC01F62EDD
S11314C0E42E890188E014DA813011F081E025C02E
S11314D084E090E00E944617FC01009711F482E03A
S11314E01CC0F982F0FC1E8281E0E81619F489819F
S11314F0846089838981886089831B830A831D832F
S11315000C83D183C0831382128281E080938A0189
S1131510CF012ED110928A0180E0DF91CF911F91EB
S11315200F91FF90EF90089588E0E2D9882399F411
S11315301092C8011092CA011092C90110928A0136
S113154010928B0180E16CEA7BE00ED008D106D0CA
S113155088E061E015DA88E091E00895EEE6F0E0D5
S11315608081826080830895803218F020E030E02A
S11315700AC0E82FF0E0EE0FFF1FE65DFE4F20816A
S1131580318171836083C9010895E82F803268F442
S11315908051833050F0F0E0EE0FFF1FE65DFE4F08
S11315A0208131817183608302C020E030E0C90171
S11315B00895249A2C9A089583E58CBD81E08DBD0D
S11315C08DE08A95F1F7089583E58CBD1DBC84EF09
S11315D091E00197F1F708958FE78CBD1DBC84EF6E
S11315E091E00197F1F7089583E58CBD81E08DBD0D
S11315F08DE08A95F1F7089583E58CBD81E08DBD7A
S113160084EF91E00197F1F70895259A2698279A97
S1131610209A219A229A089518C008959B01AC013A
S113162080917B01882381F0DA01C901880F991F19
S1131630AA1FBB1F90938701809386012115310552
S11316404105510509F45F98089580917C019091BA
S11316507D01A0917E01B0917F01209180013091A4
S113166081014091820150918301280F391F4A1F43
S11316705B1F20937C0130937D0140937E01509346
S11316807F0180917C0190917D01A0917E01B091B8
S11316907F018851964FA040B040BCF08BB1805878
S11316A08BB980917C0190917D01A0917E01B091D4
S11316B07F018851964FA040B04080937C01909365
S11316C07D01A0937E01B0937F010895823029F4B7
S11316D0809181008E7F8093810080917A01813096
S11316E031F480917B01813011F4000008958091E0
S11316F07A01813021F080917B01813011F45F986F
S113170057980895982F80917A01882331F4809115
S11317107B01882311F4579A5F9880917A0188237A
S1131720D1F49230C1F41092800010928100809123
S11317308100886080938100809181008160809322
S11317408100109285001092840081E080938900CA
S113175080E980938800089577D0B4D08CC084B594
S1131760826084BD85B5846085BD8EE487BD08959F
S1131770CF92DF92EF92FF920F931F93CF93DF9359
S1131780EC018091C801882331F4D093CA01C0933D
S1131790C90156D047C0C090C901D090CA0100E029
S11317A010E0EE24FF2437C0A881B981FD016481D3
S11317B07581F60140815181FA01848195819B01F3
S11317C0281B390B37FF0FC0861B970B9583848327
S11317D0DB82CA82012B29F4D093CA01C093C901C8
S11317E021C0F7010CC0F6018281938121153105D6
S11317F049F4FD01158214829B838A83F601D38305
S1131800C28310C0FD01358324830097B9F30F5FB1
S11318101F4F76016C018091C80190E008171907E9
S113182018F2ECCF8091C8018F5F8093C801DF91DB
S1131830CF911F910F91FF90EF90DF90CF9008957B
S113184081E080938B01089588E052D8882311F4B5
S113185084E0089580918B01882311F483E0089536
S113186080918A01882311F082E00895B3D28130F7
S1131870E9F380E0089580917B01813011F5809136
S11318808401909185012091860130918701280F70
S1131890391F3093850120938401809184019091B4
S11318A08501885E93406CF08BB180588BB9809130
S11318B0840190918501885E934090938501809383
S11318C08401089587E014D8813009F0A8C080917C
S11318D0D5019091D601892B09F18091F90190915C
S11318E0FA012091D5013091D601820F931F909374
S11318F0FA018093F9018091F9019091FA01885ECF
S11319009340A4F08091F9019091FA01885E93408C
S11319109093FA018093F90141E009C08091CD01CF
S11319209091CE019093D2018093D10140E08091B7
S1131930D7019091D801892B09F18091FB019091F5
S1131940FC012091D7013091D801820F931F90930D
S1131950FC018093FB018091FB019091FC01885E66
S11319609340A4F08091FB019091FC01885E934028
S11319709093FC018093FB0161E009C08091CF0149
S11319809091D0019093D4018093D30160E0842F8F
S113199047D08091F5019091F6012091D1013091C9
S11319A0D201280F391F3093F6012093F50180915D
S11319B0F5019091F601885E934014F440E00BC069
S11319C08091F5019091F601885E93409093F60121
S11319D08093F50141E08091F7019091F801209105
S11319E0D3013091D401280F391F3093F80120938B
S11319F0F7018091F7019091F801885E934014F407
S1131A0060E00BC08091F7019091F801885E9340EB
S1131A109093F8018093F70161E0842F46C0089504
S1131A208823F1F02091CD013091CE018091D10134
S1131A309091D201281B390B1216130634F48091AD
S1131A40D1019091D201019607C0232B49F08091D6
S1131A50D1019091D20101979093D2018093D10149
S1131A60662311F12091CF013091D0018091D301EF
S1131A709091D401281B390B1216130654F480914B
S1131A80D3019091D40101969093D4018093D30112
S1131A900895232B49F08091D3019091D4010197AB
S1131AA09093D4018093D30108950F931F93182F1B
S1131AB0062F80910102882309F0E3C08091E90197
S1131AC0882309F058C08091D1019091D201892BCB
S1131AD0E1F480918C01837E80938C011092F20159
S1131AE08091FD01882309F45BC06091EB0180E0E3
S1131AF04ED1E091FF01F0910002309709F450C0FB
S1131B0081E080831092FD014BC08091CB01813034
S1131B1041F48091DD019091DE01019711F411E00F
S1131B2002C01123E9F1E091F001F0E0E25FFE4F21
S1131B3090918C01937E8081892B80938C0180917C
S1131B40EE01882321F48091F0018F5F03C080911E
S1131B50F00181508093F0018091F00183708093B3
S1131B60F00181E08093F2018091CB018130C1F4D6
S1131B7080E099D015C090918C01937E90938C0154
S1131B80E091F001F0E0E25FFE4F8081892B8093C9
S1131B908C0182E08093F2011092D2011092D10163
S1131BA08091EA01882309F057C08091D301909174
S1131BB0D401892BE1F480918C018F7180938C0185
S1131BC01092F3018091FE01882309F45AC06091B8
S1131BD0EC0181E0DCD0E091FF01F091000230974C
S1131BE009F44FC081E081831092FE014AC08091C4
S1131BF0CC01813041F48091DF019091E0010197A3
S1131C0011F401E002C00023E1F1E091F101F0E000
S1131C10EE5EFE4F90918C019F718081892B8093A1
S1131C208C018091EF01882321F48091F1018F5F71
S1131C3003C08091F10181508093F1018091F10101
S1131C4083708093F10181E08093F3018091CC0152
S1131C508130B9F428D015C090918C019F71909374
S1131C608C01E091F101F0E0EE5EFE4F8081892B62
S1131C7080938C0182E08093F3011092D40110923E
S1131C80D3018091F401882329F48CE891E0612F39
S1131C90402F0CD188B1837090918C01892B88B925
S1131CA01F910F910895882321F0813009F04CC0D1
S1131CB026C08091DD019091DE01892B49F080914D
S1131CC0DD019091DE0101979093DE018093DD01A7
S1131CD08091FD018823C1F52091DD013091DE0161
S1131CE08091E1019091E2012817390769F580E0BC
S1131CF060E070E02AD081E08093FD010895809136
S1131D00DF019091E001892B49F08091DF019091EE
S1131D10E00101979093E0018093DF018091FE013F
S1131D20882391F42091DF013091E0018091E30157
S1131D309091E4012817390739F481E060E070E0FC
S1131D4004D081E08093FE010895482F81E08093C0
S1131D500102CB0121E06139720710F080E991E0C2
S1131D60413071F0413018F0423071F405C0909365
S1131D70CE018093CD0108C09093CE018093CD0114
S1131D809093D0018093CF011092010208950F9394
S1131D901F93182F062F662339F460E070E0D5DF17
S1131DA0812F60E070E01AD181E08093010211304C
S1131DB051F0113018F0123041F403C00093E901DE
S1131DC004C00093E9010093EA01109201021F91FB
S1131DD00F910895FF920F931F93CF93DF938091F8
S1131DE0C801882309F457C00091C9011091CA01A0
S1131DF0F801C081D1818C819D8101979D838C8361
S1131E00181619060CF447C0898180FF05C08E811D
S1131E10882311F481E08E83898181FF03C0EF81DF
S1131E20F88509958091C8018230A8F0F801828173
S1131E3093819093CA018093C90113821282E09125
S1131E400000F091010084819581181619063CF078
S1131E50FF24F39405C01092CA011092C901FF2413
S1131E608091C80181508093C8018091C801882362
S1131E7009F419D0898182FF07C08A819B819D83DF
S1131E808C83C80175DC08C0C8010E94DE178981F3
S1131E908F7E898301C0FF248F2DDF91CF911F9105
S1131EA00F91FF90089510928B010895FC01809189
S1131EB0F201823069F48091900191E08927809346
S1131EC09001882309F03EC08081837E80833AC0DC
S1131ED08091D1019091D201C397A4F56623D1F0EA
S1131EE02091D1013091D20180E690E0BC01269F7F
S1131EF0C001279F900D369F900D1124880F892FC4
S1131F00881F990B9093E6018093E50181E080930B
S1131F108E0118C080918E018823A1F08091E50183
S1131F209091E60101979093E6018093E5018091F9
S1131F30E5019091E601892B29F48081837E8083D9
S1131F4010928E018091F301823069F480918F01A7
S1131F5091E0892780938F01882309F03EC0808116
S1131F608F71808308958091D3019091D401C39798
S1131F70A4F54423D1F02091D3013091D40180E61B
S1131F8090E0AC01249FC001259F900D349F900DDB
S1131F901124880F892F881F990B9093E80180934F
S1131FA0E70181E080938D01089580918D0188235C
S1131FB0A1F08091E7019091E80101979093E801E5
S1131FC08093E7018091E7019091E801892B29F43E
S1131FD080818F71808310928D010895982F81E004
S1131FE080930102913071F0913018F0923071F4C5
S1131FF005C07093DE016093DD0108C07093DE01BB
S11320006093DD017093E0016093DF01109201029F
S113201008950E945F038CE191E09F938F930E9447
S11320208D190F900F90FFCF2F923F924F925F9296
S11320306F927F928F929F92AF92BF92CF92DF92D4
S1132040EF92FF920F931F93CF93DF93CDB7DEB739
S113205063970FB6F894DEBF0FBECDBF7C011B01A2
S11320606A01FC0117821682838181FF4DC3BE0180
S11320706F5F7F4F4B01F7019381F10193FD8591D0
S113208093FF81911F01882309F43AC3853239F4FF
S113209093FD859193FF81911F01853239F4B70136
S11320A090E00E945B1956016501E5CF10E0512CC8
S11320B020E02032A0F48B3269F030F4803259F001
S11320C0833269F420612CC08D3239F0803339F4C5
S11320D0216026C02260246023C0286021C027FD1F
S11320E027C030ED380F3A3078F426FF06C0FAE006
S11320F01F9F300D1124132F13C06AE0569E300D1C
S11321001124532E20620CC08E3221F426FDF8C215
S1132110206406C08C3611F4206802C0883641F46D
S1132120F10193FD859193FF81911F018111C1CF2D
S11321309BEB980F933018F42061805E06C09BE9F6
S1132140980F933008F09DC12F7E26FF16E02F7361
S1132150722E853621F4F22FF0647F2E08C0863665
S113216021F4622F6068762E02C01111115077FE9F
S113217007C01C3348F444244394410E27E00BC0A9
S1132180183030F4212F06C027E04CE3442E03C05E
S113219027E017E0412C560174E0A70EB11CF601AC
S11321A06081718182819381042DA40196D76C0191
S11321B0098100FF02C003FF06C071FC07C072FC66
S11321C008C0612C08C03DE2632E05C02BE2622EDC
S11321D002C090E2692E802F8C7099F1662011F074
S11321E084E001C083E0851510F0512C0BC0581A0F
S11321F073FC08C0B70180E290E00E945B195A9416
S1132200C9F7F3CF662029F0B701862D90E00E942C
S11322105B1903FD03C003E715E002C00FE615E0F8
S1132220F72DF0717F2EF8018491882309F45FC2A1
S113223071108052B70190E00E945B190F5F1F4F2D
S1132240F2CF77FE0FC04C0C04FF04C08A818133A7
S113225009F44A94141474F5F8E0F41578F588E058
S1132260482E2CC076FC2AC0812F90E08C159D0549
S11322709CF06CEFC6166FEFD60674F0772D70687D
S1132280772E0AC0E2E0F0E0EC0FFD1FE10FF11D34
S11322908081803319F411501111F4CF77FE0EC0F0
S11322A044244394410E812F90E0C816D9062CF49F
S11322B01C1904C04424439401C010E077FE07C0F5
S11322C01C141D043CF496012F5F3F4F05C025E00C
S11322D030E002C021E030E0662011F02F5F3F4F74
S11322E0112331F0412F50E04F5F5F4F240F351F12
S11322F0452D50E02417350714F4521A01C0512C0F
S1132300872D897041F4552031F0B70180E290E0C7
S1132310D2D75A94F8CF662021F0B701862D90E0E9
S1132320CAD773FC08C0552031F0B70180E390E0B0
S1132330C2D75A94F8CF77FE5DC09C2D8D2DD7FE61
S113234002C090E080E0692E782E40E050E0C601A3
S1132350841991099D878C87960126193709280DC0
S1132360391D812F90E0EE27FF27E81BF90BFF872B
S1132370EE87FFEF6F167F0661F4B7018EE290E0FF
S11323802B8B3A8B488B598B96D7598948893A8934
S11323902B89C614D70454F06C857D8566157705A2
S11323A02CF4F901E40FF51F818101C080E371E091
S11323B0671A71084F5F5F4FEE85FF856E167F06C3
S11323C064F0B70190E02B8B3A8B488B598B73D711
S11323D02B893A8948895989CCCF6C147D0439F406
S11323E09A81963318F4953311F404FF81E3B7010D
S11323F090E045C08A81813309F00F7EB70190E0F7
S11324005AD7111105C074FE16C085E490E015C0BA
S1132410B7018EE290E04FD782E066246394680EA1
S1132420F401E80FF11D8081B70190E044D7115009
S113243051F3862DF2CF85E690E0B7013CD7D7FC67
S113244005C0C114D10439F404FF05C0D194C1946A
S1132450D1088DE201C08BE2B70190E02CD780E374
S11324606AE0C616D1042CF08F5FFAE0CF1AD108C7
S1132470F7CFB70190E01FD7B701C601C0961BD7AD
S113248036C1833631F0833779F0833509F054C08F
S113249020C0560172E0A70EB11CF6018081898329
S11324A001E010E0640113C05601F2E0AF0EB11C6C
S11324B0F601C080D18026FF03C0612F70E002C006
S11324C06FEF7FEFC6012B8BEBD68C012B892F7717
S11324D014C05601F2E0AF0EB11CF601C080D180E9
S11324E026FF03C0612F70E002C06FEF7FEFC601CB
S11324F02B8BCBD68C012B892068722E23FD18C020
S1132500852D90E00817190798F4B70180E290E050
S1132510D2D65A94F5CFF60177FC859177FE819156
S11325206F01B70190E0C7D651105A9401501109B8
S11325300115110581F7DBC0843611F0893649F5A0
S1132540560127FF09C0F4E0AF0EB11CF60160810B
S11325507181828193810AC0F2E0AF0EB11CF60151
S113256060817181882777FD8095982F022F0F76DF
S113257097FF08C090958095709561957F4F8F4F18
S11325809F4F00682AE030E0A401D9D6C82EC818AD
S11325903DC0022F853721F40F7E2AE030E01DC0B4
S11325A0097F8F3691F018F4883559F0A9C0803727
S11325B019F0883711F0A4C0006104FF09C0046059
S11325C007C024FF08C0066006C028E030E005C04C
S11325D020E130E002C020E132E0560107FF09C0EB
S11325E0F4E0AF0EB11CF6016081718182819381A8
S11325F008C0F2E0AF0EB11CF6016081718180E089
S113260090E0A4019CD6C82EC8180F7706FF0BC013
S1132610202F2E7FC11650F404FF0AC002FD08C00B
S1132620202F2E7E05C0DC2C202F03C0DC2C01C003
S1132630D12E24FF0DC0FE01EC0DF11D80818033ED
S113264011F4297E09C022FF06C0D394D39404C098
S1132650822F867809F0D39423FD12C020FF06C090
S11326601C2DD51418F4150D1D19D52CD51460F492
S1132670B70180E290E02B8B1ED6D3942B89F6CF42
S1132680D51410F45D1801C0512C24FF11C0B701FA
S113269080E390E02B8B0FD62B8922FF16C021FFFD
S11326A003C088E590E002C088E790E0B7010CC061
S11326B0822F867851F021FD02C080E201C08BE2B6
S11326C027FD8DE2B70190E0F6D5C11630F4B701CD
S11326D080E390E0F0D51150F8CFCA94F401EC0DEA
S11326E0F11D8081B70190E0E6D5C110F6CF5520E9
S11326F009F4DACCB70180E290E0DDD55A94F7CF43
S1132700F7018681978102C08FEF9FEF63960FB622
S1132710F894DEBF0FBECDBFDF91CF911F910F9113
S1132720FF90EF90DF90CF90BF90AF909F908F90ED
S11327307F906F905F904F903F902F9008950CD0B2
S1132740BAC0B2D040F0A9D030F021F45F3F19F004
S11327509BC05111E4C09EC0BFD098F39923C9F324
S11327605523B1F3951B550BBB27AA276217730793
S1132770840738F09F5F5F4F220F331F441FAA1F47
S1132780A9F333D00E2E3AF0E0E830D09150504007
S1132790E695001CCAF729D0FE2F27D0660F771FB5
S11327A0881FBB1F261737074807AB07B0E809F097
S11327B0BB0B802DBF01FF2793585F4F2AF09E3F2C
S11327C0510568F061C0ABC05F3FECF3983EDCF3A9
S11327D0869577956795B795F7959F5FC9F7880FA5
S11327E0911D9695879597F90895E1E0660F771FF7
S11327F0881FBB1F621773078407BA0720F0621B88
S1132800730B840BBA0BEE1F88F7E0950895E894D8
S113281009C097FB3EF490958095709561957F4F24
S11328208F4F9F4F9923A9F0F92F96E9BB279395D2
S1132830F695879577956795B795F111F8CFFAF4E2
S1132840BB0F11F460FF1BC06F5F7F4F8F4F9F4F13
S113285016C0882311F096E911C0772321F09EE871
S1132860872F762F05C0662371F096E8862F70E0D7
S113287060E02AF09A95660F771F881FDAF7880FB1
S11328809695879597F9089597F99F6780E870E082
S113289060E008959FEF80EC089500240A941616D2
S11328A0170618060906089500240A94121613063A
S11328B0140605060895092E0394000C11F48823C8
S11328C052F0BB0F40F4BF2B11F460FF04C06F5FE4
S11328D07F4F8F4F9F4F089557FD9058440F551FBA
S11328E059F05F3F71F04795880F97FB991F61F08E
S11328F09F3F79F087950895121613061406551F05
S1132900F2CF4695F1DF08C0161617061806991F70
S1132910F1CF86957105610508940895E894BB2765
S113292066277727CB0197F90895DEDFA8F19E5734
S1132930A8F1985160F039F1983070F5092E992773
S1132940660F771F881F991F0A94D1F71CC0BB27F5
S1132950993F4CF4B111B1E0B62B672F782F88273B
S1132960985FB1F708C0869577956795B79508F491
S1132970B1609395C1F7BB0F30F411F460FF03C04D
S11329806F5F7F4F8F4F3EF4909580957095619562
S11329907F4F8F4F9F4F08956894C1CFBFCF0BD007
S11329A08ACF7BDF28F080DF18F0952309F06CCF05
S11329B071CF1124B4CF90DFA0F3959FD1F3950F7D
S11329C050E0551F629FF001729FBB27F00DB11DAF
S11329D0639FAA27F00DB11DAA1F649F6627B00D3F
S11329E0A11D661F829F2227B00DA11D621F739F28
S11329F0B00DA11D621F839FA00D611D221F749F36
S1132A003327A00D611D231F849F600D211D822F7C
S1132A10762F6A2F11249F5750408AF0E1F08823C3
S1132A204AF0EE0FFF1FBB1F661F771F881F9150D0
S1132A305040A9F79E3F510570F026CF70CF5F3FFD
S1132A40ECF3983EDCF3869577956795B795F79503
S1132A50E7959F5FC1F7FE2B880F911D969587958B
S1132A6097F90895FA01EE0FFF1F309621053105FD
S1132A7099F16115710561F48038BFE39B0749F151
S1132A8068949038810561F08038BFEF9B0741F06E
S1132A90992342F5FF3FE1053105210511F1E89441
S1132AA00894E795D901AA2329F4AB2FBE2FF85F28
S1132AB0D0F310C0FF5F70F4A695E0F7F73950F03B
S1132AC019F0FF3A38F49F779F930CD00F9007FCCE
S1132AD0905808953EF0DECE60E070E080E89FE319
S1132AE008954FE79F775F934F933F932F939ED023
S1132AF02F913F914F915F9152DF05C019F40EF071
S1132B00C3CE0CCFC7CEF0DEC8F39638C0F707F8B3
S1132B100F92E8942BE33AEA48EB5FE74EDF0F921B
S1132B200F920F924DB75EB70F92C0D0E8EDF0E070
S1132B3016D04F915F91EF91FF91E595EE1FFF1F26
S1132B4049F0FE57E0684427EE0F441FFA95E1F779
S1132B504195550B32D00F9007FE26C00895DF93A0
S1132B60CF931F930F93FF92EF92DF927B018C011F
S1132B70689405C0DA2EEF011EDFFE01E894A591EA
S1132B802591359145915591AEF3EF01D4D0FE01D5
S1132B909701A801DA9479F7DF90EF90FF900F91F5
S1132BA01F91CF91DF9108959B01AC0160E070E02B
S1132BB080E89FE3C4CD68CE11C196DEE8F3992383
S1132BC0D9F3940F511DBBF39150504094F059F038
S1132BD0882332F0660F771F881F91505040C1F749
S1132BE09E3F510544F7880F911D9695879597F957
S1132BF008955F3FACF0983E9CF0BB27869577958F
S1132C006795B79508F4B1609395C1F7BB0F58F772
S1132C1011F460FFE8CF6F5F7F4F8F4F9F4FE3CF7B
S1132C207ECE0EF0DBC036CE68942ECE5DDEC8F3C9
S1132C309923D1F3C6F3DF93CF931F930F93FF929E
S1132C40C92FDD2788232AF02197660F771F881F55
S1132C50DAF720E030E040E85FEB9FE3883920F0CA
S1132C60803E30F021968F7755D0E0E0F1E003C04C
S1132C7051D0EDE2F1E073DF8B01BE01EC01FB2EDC
S1132C806F5771097595771F880B990BC2DD28E181
S1132C9032E741E35FE38FDEAF2D9801AE01FF9091
S1132CA00F911F91CF91DF9146D005CEFA01DC013F
S1132CB0AA0FBB1F9B01AC01BF5728F4222733275F
S1132CC0442750781FC0B75188F4AB2F0024469591
S1132CD037952795011CA395D2F3002069F0220FA4
S1132CE0331F441FB395DAF30DD013C0613071055F
S1132CF0A0E88A07B94630F49B01AC016627772720
S1132D0088279078309621F020833183428353833F
S1132D1008955058BB27AA270ED0CDCDBEDD30F084
S1132D20C3DD20F031F49F3F11F41EF4B3CD0EF453
S1132D30E095E7FBA9CDE92FCFDD80F3BA17620751
S1132D4073078407950718F071F49EF5E7CD0EF428
S1132D50E0950B2EBA2FA02D0B01B90190010C01A7
S1132D60CA01A0011124FF27591B99F0593F50F4BF
S1132D70503E68F11A16F040A22F232F342F442717
S1132D80585FF3CF469537952795A795F04053950F
S1132D90C9F77EF41F16BA0B620B730B840BBAF0DF
S1132DA09150A1F0FF0FBB1F661F771F881FC2F74A
S1132DB00EC0BA0F621F731F841F48F4879577955E
S1132DC06795B795F7959E3F08F0B3CF9395880F15
S1132DD008F09927EE0F9795879508959F3F31F056
S1132DE0915020F4879577956795B795880F911D35
S1132DF09695879597F90895DB018F939F932DD02E
S1132E00BF91AF91A29F800D911DA39F900DB29F82
S1132E10900D11240895A1E21A2EAA1BBB1BFD01DB
S1132E200DC0AA1FBB1FEE1FFF1FA217B307E407A5
S1132E30F50720F0A21BB30BE40BF50B661F771FFD
S1132E40881F991F1A9469F76095709580959095DD
S1132E509B01AC01BD01CF01089509D0A59F900D40
S1132E60B49F900DA49F800D911D11240895A29FDD
S1132E70B001B39FC001A39F700D811D1124911D4A
S1132E80B29F700D811D1124911D0895CF93DF937E
S1132E908230910510F482E090E0E0910602F09116
S1132EA0070220E030E0A0E0B0E0309739F1408143
S1132EB0518148175907B8F04817590771F48281AE
S1132EC09381109729F013969C938E9312972CC09C
S1132ED0909307028093060227C02115310531F033
S1132EE04217530718F0A901DB0101C0EF019A0151
S1132EF0BD01DF010280F381E02DD7CF211531051B
S1132F00F9F0281B390B2430310580F48A819B8128
S1132F106115710521F0FB019383828304C09093B2
S1132F20070280930602FE01329644C0FE01E20FBE
S1132F30F31F8193919322503109398328833AC036
S1132F402091040230910502232B41F420911801B1
S1132F503091190130930502209304022091160147
S1132F60309117012115310541F42DB73EB7409139
S1132F701A0150911B01241B350BE0910402F091BE
S1132F800502E217F307A0F42E1B3F0B281739079D
S1132F9078F0AC014E5F5F4F2417350748F04E0FB1
S1132FA05F1F50930502409304028193919302C0E2
S1132FB0E0E0F0E0CF01DF91CF910895CF93DF936C
S1132FC0009709F487C0FC01329713821282C091E2
S1132FD00602D0910702209781F420813181280FC5
S1132FE0391F80910402909105028217930779F5A5
S1132FF0F0930502E09304026DC0DE0120E030E0AE
S1133000AE17BF0750F412964D915C9113979D0132
S11330104115510509F1DA01F3CFB383A28340814D
S11330205181840F951F8A179B0771F48D919C9190
S11330301197840F951F02969183808312968D9128
S11330409C911397938382832115310529F4F0937E
S11330500702E09306023EC0D9011396FC93EE9357
S113306012974D915D91A40FB51FEA17FB0779F4F0
S113307080819181840F951F0296D90111969C93AA
S11330808E938281938113969C938E931297E0E0A2
S1133090F0E08A819B81009719F0FE01EC01F9CFE1
S11330A0CE01029628813981820F931F2091040258
S11330B0309105022817390769F4309729F41092E2
S11330C007021092060202C013821282D0930502F4
S11330D0C0930402DF91CF910895283008F027E0CF
S11330E03327DA01990F311D87FD91600096610540
S11330F0710539F432602E5F3D9330E32A95E1F790
S113310008959F3F30F080387105610509F03C5FF8
S11331103C5F3D93913008F08068911DDF93CF931D
S11331201F930F93FF92EF92192F987F9695E92F93
S113313096959695E90FFF27EF52FA4F9927332773
S1133140EE24FF24A701E70105900894079428F4CE
S1133150360FE71EF81E491F511D660F771F881F83
S1133160991F0694A1F70590079428F4E70EF81E1A
S1133170491F561FC11D770F881F991F661F06948C
S1133180A1F70590079428F4F80E491F561FC71F8E
S1133190D11D880F991F661F771F0694A1F705900C
S11331A0079420F4490F561FC71FD81F990F661F95
S11331B0771F881F0694A9F784911095177041F022
S11331C0D695C79557954795F794E7941A95C1F7FF
S11331D0E7E7F5E06894159015913591659195911F
S11331E005907FE27395E118F10A430B560BC90B66
S11331F0D009C0F7E10CF11E431F561FC91FD01D93
S11332007EF4703311F48A95E6CFE894015030F0DF
S1133210080F0AF40027021708F4202F2395022F21
S11332207A3328F079E37D932A95E9F710C07D93EA
S11332302A9589F606949795679537951795179467
S1133240E118F10A430B560BC90BD00998F02395EA
S11332507E9173957A3308F070E37C932013B8F76A
S11332607E9170617D9330F0839571E37D9370E37B
S11332702A95E1F71124EF90FF900F911F91CF91C0
S1133280DF91992787FD90950895FC010590615081
S113329070400110D8F7809590958E0F9F1F089568
S11332A0FC016150704001900110D8F78095909511
S11332B08E0F9F1F08950F931F93CF93DF93182FA3
S11332C0092FEB018B8181FD03C08FEF9FEF20C09D
S11332D082FF10C04E815F812C813D8142175307CC
S11332E07CF4E881F9819F012F5F3F4F3983288364
S11332F0108306C0E885F985812F0995892B29F764
S11333002E813F812F5F3F4F3F832E83812F902F4C
S1133310DF91CF911F910F910895CF93DF93CDB794
S1133320DEB7FE01359661917191AF0180910A0279
S113333090910B020E941410DF91CF910895FA012D
S1133340AA27283051F1203181F1E8946F936E7FE0
S11333506E5F7F4F8F4F9F4FAF4FB1E03ED0B4E0D1
S11333603CD0670F781F891F9A1FA11D680F791F12
S11333708A1F911DA11D6A0F711D811D911DA11D23
S113338020D009F468943F912AE0269F1124301933
S1133390305D3193DEF6CF010895462F4770405DCE
S11333A04193B3E00FD0C9F7F6CF462F4F70405D7D
S11333B04A3318F0495D31FD4052419302D0A9F7D8
S11333C0EACFB4E0A6959795879577956795BA95D2
S11333D0C9F700976105710508959B01AC010A2E98
S11333E006945795479537952795BA95C9F7620F6F
S11133F0731F841F951FA01D0895F894FFCF2E
S11333FE00000002000000007C0700000000180C12
S113340E0410C080206000000E02200048656C6C21
S10D341E6F2C20446F6C6C792100C0
S9030000FC
